:020000040800F2
:10000000081B0020ED4A00087D360008F74A00086A
:100010007F3600088336000887360008000000009D
:100020000000000000000000000000008B36000807
:100030008D36000800000000034B00085D37000803
:10004000074B0008074B0008074B0008074B000848
:10005000074B0008074B0008074B0008074B000838
:10006000074B0008074B0008074B0008074B000828
:10007000074B0008074B0008074B0008074B000818
:10008000074B0008074B0008074B0008074B000808
:10009000074B0008074B0008074B00088F36000885
:1000A000074B0008074B0008074B0008074B0008E8
:1000B000074B0008A1360008A9360008074B0008C6
:1000C000074B0008074B0008074B0008074B0008C8
:1000D000074B0008C5360008CD360008D5360008A5
:1000E000074B0008074B0008074B0008074B0008A8
:1000F000074B0008074B0008074B0008074B000898
:10010000074B0008074B0008074B0008074B000887
:10011000DD360008E5360008074B0008AB3600085E
:10012000074B0008074B0008074B0008074B000867
:10013000074B0008074B0008074B0008074B000857
:10014000074B0008074B0008074B0008074B000847
:10015000074B0008074B0008074B0008ED36000866
:10016000074B0008074B0008074B0008074B000827
:10017000074B0008074B0008074B0008074B000817
:10018000074B0008074B0008DFF810D00CF068FFA1
:1001900000480047A5010008AFF30080081B0020BD
:1001A00000BFFEE702F056F800F047F801E000F06B
:1001B0006AF8FCE770B501F0FFFA464C2468464D3A
:1001C0002D68631B454C2468454D2D68621B454CCA
:1001D0002468414D2D68611B434C2468404D2D68B7
:1001E000601B01F0A5FD41480068401C3F490860C4
:1001F00001F090FE70BD10B5012001F0B0FF3C4948
:10020000097808443A490870012001F0CBFF3949C8
:100210000978084437490870012001F0E6FF3649A3
:10022000097808443449087010BD7047704710B50C
:1002300000F066F810BD70477047002000BF1FE057
:1002400000EB40012D4A02EB810189884FF47A725C
:1002500092FBF1F100EB4002284B03EB8202D180CC
:1002600000EB40011A4602EB8101C988012905DA39
:10027000012100EB400203EB8202D180411CC8B295
:100280000728DDD3704770B5002400BF1EE003F0DF
:100290006FFA054604EB4400184901EB80008068C2
:1002A000281A04EB4401154A02EB8101C9888842EF
:1002B0000AD304EB4400114601EB8000856004EB97
:1002C000440152F821008047601CC4B2072CDED3E1
:1002D00070BD0000C40000202C010020C0000020E0
:1002E000280100201C01002018010020E800002047
:1002F0005001002051010020520100200000002088
:1003000010B56448B0F9440040F2A46188420EDDA3
:100310006048B0F9440040F69801884207DA5E4828
:10032000007838B901F052F85B49087002E000200B
:10033000594908705748B0F94400B0F5487F0EDDC0
:100340005448B0F94400B0F5966F08DA5348007885
:1003500040B90120514908705149086002E000206D
:100360004E4908704D48007801286FD14C4800680C
:10037000052847D006DC052869D2DFE800F0121610
:100380001F2C3A000B2863D004DC06283FD00A2833
:100390007AD140E00C286CD0A0F2E730002873D16D
:1003A0006CE000203F4908606FE0022000F0ACFFE5
:1003B0003B49096808443A49086066E001F0E0FA00
:1003C000002001F04BFE00F067FF35490968084442
:1003D0003349086059E0344890ED000B51EC100BA4
:1003E0000CF00DFD314908604FF4FA6001F0CEFACF
:1003F0004BE0A02000F0C9FF2949096808442849BA
:10040000086042E04FF4FA6001F0C0FA3DE00A20D3
:100410002349086039E0022001F020FE0020244931
:100420000860962023490860234800682349086033
:1004300023480068234908601C4800682249086076
:1004400017480068401C164908601EE01EE01BE0CB
:10045000C82001F0CCFA1949096808441B49086012
:10046000184800681A49086047F2305001F08EFAC7
:100470000BE040F2E7300A49086006E0002001F096
:10048000EDFD00F0A3FF00E000BF02E00020044902
:10049000086010BD620A00205400002055000020B2
:1004A000EC000020E4000020980000203001002033
:1004B000E800002014010020C000002028010020D6
:1004C000C40000202C010020200100201801002081
:1004D0001C010020FF20F94981F84E006421F748F3
:1004E000A0F850100121A0F85210FF20F34981F824
:1004F00080011421F148A0F882110021A0F8841194
:10050000FF20EE4981F820010021EC48A0F82211DB
:10051000A0F82411FF20E94981F832010021E748C1
:10052000A0F83411A0F83611FF20E44981F8380111
:100530000021E248A0F83A11A0F83C11FF20DF4961
:1005400081F886010021DD48A0F88811A0F88A1101
:10055000FF20DA4981F840050021D848A0F842156B
:10056000A0F84415FF20D54981F84C050021D34857
:10057000A0F84E15A0F85015704770B504460D460A
:100580002946204604F019FA70BDCC4A10700122A9
:10059000CA4B5A707047C94A82F84C05012382F849
:1005A0004D3570472DE9F04104460D4600260027E1
:1005B000E178A81F814201D0BDE8F081002006E06B
:1005C000215C3144CEB2B919CFB2411CC8B2A91EC8
:1005D0008142F5DC601910F8020CB04204D16019B8
:1005E00010F8010CB84200D0E6E72078AA2805D11F
:1005F0006078612803D06078FF2800D0DCE7A0781D
:10060000202811D1A088AE490880E0884880208940
:1006100088806089C880A0890881E0894881208A13
:100620008881608AC881CAE0A0780F280DD120791E
:1006300040B2A4490870607940B24870A07940B2D5
:100640008870E07940B2C870B9E0A07806280CD173
:1006500020799D4948706079C870A0790871E17966
:1006600099484171217A8171A9E0A07807280AD1BF
:10067000002005E0211D095C944A1154411CC8B2B8
:100680000628F7DB9BE0A07803280AD1002005E0CC
:10069000211D095C8E4A1154411CC8B20728F7DBA2
:1006A0008DE0A07803280AD1002005E0211D095C17
:1006B000884A1154411CC8B20928F7DB7FE0A078B2
:1006C00005280AD1002005E0211D095C824A115449
:1006D000411CC8B20928F7DB71E0A07808280AD1CC
:1006E000002005E0211D095C7C4A1154411CC8B260
:1006F0000828F7DB63E0A078012860D0A078E02824
:100700001ED12079012806D0022805D0102804D057
:10071000112804D102E003E002E001E000E000BFA4
:1007200000BF2079654981F80C06084680F80D66FF
:1007300080F80E7600F20C61AF20FFF726FF3EE056
:10074000A078B0B95D4890F80F062179884236D17B
:100750005A4890F810066179884230D1574890F88D
:100760001106A17988422AD10020544981F8000657
:1007700025E0A078E12811D12179607901EB0020F2
:100780001FFA80F84D48A0F814860021C0F818160A
:1007900000F21461FF20FFF7FEFE10E0A078E228CF
:1007A0000DD12079454981F80C06084680F80D6680
:1007B00080F80E7600F20C61FF20FFF7E6FE00BF26
:1007C000FAE610B504464648007838B9AA2C05D197
:1007D000012043490870434804708EE04048007887
:1007E000012809D1612C01D0FF2C05D102203C4900
:1007F00008703C48447080E039480078022805D1F0
:100800000320374908703748847076E03448007810
:1008100003280CD1FA2C0ADA042031490870314837
:10082000C4703148047000203049087065E02C48DD
:100830000078042819D12C480078002815DD2A48B2
:100840000078401E28490870284800782749097810
:10085000491C264A1170001D22490C542248007878
:1008600058BB05201E49087047E01D480078052840
:100870000DD106201A4908701C4800781B490978D8
:10088000491C1A4A1170001D16490C5435E01448D1
:10089000007806282ED100201149087013480078EE
:1008A000001D10490C5411480078401D1049087073
:1008B000084601780B48FFF775FE1EE0AC020020E9
:1008C000D609002030020020380A002067000020EE
:1008D00060000020E6090020EF0900206D000020E4
:1008E0005A000020C80800205800002059000020AD
:1008F000560000200020E249087010BD7CB5034678
:10090000342B4FD007DC7BB10D2B23D0302B2ED0D6
:10091000332B6FD138E0402B52D0412B5DD0E02BF0
:100920006AD0E22BF5D17BE0D64890F80C460D78E2
:10093000681C08705455D34890F80D460D78681C13
:1009400008705455CF4890F80E460D78681C087012
:10095000545594E0002007E0CB4C255C0E78741CC5
:100960000C709555441CE0B20428F5DB87E00020AC
:1009700007E0C64C255C0E78741C0C709555441C21
:10098000E0B21728F5DB7AE0002008E0BF4C193C04
:10099000255C0E78741C0C709555441CE0B206283A
:1009A000F4DB6CE0002008E0B84CE41F255C0E7816
:1009B000741C0C709555441CE0B20728F4DB5EE013
:1009C000002007E0B24C255C0E78741C0C70955525
:1009D000441CE0B21428F5DB51E0002007E0AD4CE8
:1009E000255C0E78741C0C709555441CE0B20E28E2
:1009F000F5DB44E042E0FFE7A24890F801460D78BD
:100A0000681C08705455002007E0A34C255C0E7844
:100A1000741C0C709555441CE0B20A28F5DB2EE0DE
:100A20009848B0F8140600B201909DF804400D7883
:100A3000681C087054559DF805400D78681C0870B6
:100A400054559048D0F8180600909DF800400D7855
:100A5000681C087054559DF801400D78681C08709A
:100A600054559DF802400D78681C087054559DF847
:100A700003400D78681C0870545500E000BF00BFAB
:100A80007CBDF8B504460F4600200090AA219DF8D1
:100A90000020501CC0B200908048815439789DF8E5
:100AA0000020501CC0B200907C4881549DF800107A
:100AB000481CC0B200907948445400219DF80020A1
:100AC000501CC0B2009075488154024669462046C9
:100AD000FFF714FF9DF80000001F7049C870002543
:100AE0000026002007E06D49095C2944CDB2711948
:100AF000CEB2411CC8B29DF800108842F3DB9DF8CD
:100B00000010481CC0B20090644845549DF8001085
:100B1000481CC0B20090614846545A4890F80006FC
:100B200040B1E02C06D1574880F80F4680F81056A7
:100B300080F811669DF800105848FFF71EFDF8BDBB
:100B400010B5044604EB44004E4901EB40004088D8
:100B500028B304EB440001EB4000808804EB44011F
:100B6000484A02EB4101498888420CDA04EB440010
:100B7000114601EB40008088401C04EB440102EB6D
:100B8000410188800BE0012004EB44013D4A02EB67
:100B90004101888004EB440102EB4101487004EB01
:100BA0004400384901EB4000407868B1002004EB74
:100BB0004401344A02EB4101487004EB440002EB6B
:100BC00040012046FFF75DFF10BD2E4A82F8400528
:100BD000012382F8413501222A4B83F80026704711
:100BE00010B52DED028BB0EE408A00F01BF83020DE
:100BF000FFF7A6FF3320FFF7A3FF3420FFF7A0FF86
:100C00004020FFF79DFF4120FFF79AFFE020FFF70C
:100C100097FFE220FFF794FF0D20FFF791FFBDEC57
:100C2000028B10BD174890F80006012821D11C48FE
:100C30000078322805DA1A480078401C18490870F4
:100C40001CE000201649087016480078401C154921
:100C5000087008460078052804DA0121094880F860
:100C600041150BE000200F490870064981F8000685
:100C700004E000200A4908700A4908707047000023
:100C80005A000020AC0200205C000020210A002055
:100C90009C0A0020C8090020AE080020780200202D
:100CA0005B0000205700002000B52DED028B85B0C1
:100CB000B0EE408AF84890F8390000287ED1F64816
:100CC000B0F94200B0F5966F06DA012000F01CFB87
:100CD0000020F249086013E0EF48B0F9420040F20A
:100CE000A461884206DA022000F00EFB0020EB49E6
:100CF000086005E0022000F007FB0120E7490860DA
:100D0000E648006801281AD1002016E0E2493A318D
:100D100031F9101040F2145291420DDDDE493A31A2
:100D200031F9101040F2A462914205DA40F2DC522F
:100D3000D9493A3121F81020401C0428E6DBD64876
:100D4000B0F93A00A0F2DC5000EE900AF8EEE00AAA
:100D5000B0EE600A9FEDD21ADFEDD20A01F0E0FE9C
:100D60008DED010ACC48B0F93C00A0F2DC5000EE59
:100D7000900AF8EEE00AB0EE600A9FEDC91ADFEDC6
:100D8000C90A01F0CDFE8DED020AC348B0F93E005C
:100D9000A0F2DC5000EE900AF8EEE00AB0EE600A35
:100DA0009FEDC11ADFEDBF0A01F0BAFE8DED030A17
:100DB000B948B0F94000A0F2DC5000E093E000EE4A
:100DC000900AF8EEE00AB0EE600A9FEDB71ADFED88
:100DD000B50A01F0A5FE8DED040AB448007858B1BB
:100DE0009FEDB00A8DED010A9FEDAE0A8DED020A6E
:100DF0009FEDAC0A8DED040A9DED010ADFEDAC0A12
:100E000020EE200ADFEDAB0A20EE200ABDEEC00A7C
:100E100010EE100A00B2A84908809DED020AB1EE5A
:100E2000400ADFEDA30A20EE200ADFEDA20A20EE41
:100E3000200ABDEEC00A10EE100A00B248809648A3
:100E4000C08FA0F57A7000B288809DED040AB1EEE3
:100E5000400ADFED9A0A20EE200ADFED990A20EE23
:100E6000200ABDEEC00A10EE100A00B2C8808B48FE
:100E7000006801282DD18848B0F94400B0F5487FBA
:100E80001BDD8548B0F94400B0F5966F15DA0020F7
:100E90000880488088808B480088404200B2C88023
:100EA0008948008800B208818848008800B24881DB
:100EB0008748008800B288810BE000207E490880C6
:100EC00048804FF4AF7088800020C8800881488136
:100ED000888101217F4880F8871100207E490870B1
:100EE0007E4908701EE07E48C07878B17A48007864
:100EF00028B9032000F008FA7749087006E077481F
:100F0000007818B900F028FA7449087000206A497E
:100F1000088048804FF4AF7088800020C8808881A6
:100F20004881088105B0BDEC028B00BD10B50446B8
:100F30006C48008800EE100AB8EE400ADFED6A0A3D
:100F400020EE200ABDEEC00A10EE100A00B267497A
:100F500008806448408800EE100AB8EE400ADFEDD1
:100F6000620A20EE200ABDEEC00A10EE100A00B29E
:100F700048805C48808800EE100AB8EE400ADFED39
:100F80005A0A20EE200ABDEEC00A10EE100A00B286
:100F900088805448C08800EE100AB8EE400ADFEDA1
:100FA000520A20EE200ABDEEC00A10EE100A00B26E
:100FB000C8804C48008900EE100AB8EE400ADFED08
:100FC0004A0A20EE200ABDEEC00A10EE100A00B256
:100FD00008814448408900EE100AB8EE400ADFED6F
:100FE000420A20EE200ABDEEC00A10EE100A00B23E
:100FF00048813C48808900EE100AB8EE400ADFEDD7
:101000003A0A20EE200ABDEEC00A10EE100A00B225
:1010100088813448C08900EE100AB8EE400ADFED3E
:10102000320A20EE200ABDEEC00A10EE100A00B20D
:10103000C8812F48007818B901202D49087027E091
:10104000E4B1002017E0294931F91010002901DC32
:1010500000210BE0254931F91010B1F57A7F02DD4E
:101060004FF47A7102E0214931F910101F4A22F839
:101070001010411CC8B20828E5DB09E0002005E09B
:1010800000211A4A22F81010411CC8B20828F7DBC8
:10109000164802F080FE10BD620A0020D000002039
:1010A00000002042000000000000A042820000205A
:1010B0008F360E3B00C05A45C8090020C6F91B3BBD
:1010C00000004843E0000020D4000020D8000020A9
:1010D000DC000020AC02002075000020760000201B
:1010E000380A0020D6090020CDCCCC3DF8090020DC
:1010F0007700002010B502F00DFCDFED290A20EE8C
:10110000200ABCEEC00A10EE100A2649088010BD65
:1011100010B525480088401C2349088008460088EF
:101120000A2190FBF1F201FB12001F4908800846DA
:10113000008810BB9FED1D0A01F05AFA9FED1B0AB3
:10114000FFF7B2FD9FED190A00F01AFB9FED170A99
:1011500001F020FF14484088401C1349488008468D
:1011600040880A2190FBF1F201FB12000E494880F1
:101170000846408808B9FFF7BDFF03F09DFC012039
:1011800002F0A8F89FED0A0A00F014F89FED080A93
:10119000FFF726FD0120FFF7C9FE02F05CFC10BD41
:1011A0000000C8425C000020780000200AD7233CE1
:1011B0006F12833A10B52DED028BB0EE408A00F02D
:1011C00020F800BF2D4840782D490978884214D076
:1011D0002A4840782A49087000202A4988744FF428
:1011E00087712848A0F813102448C1692548C0F821
:1011F00015100121244880F8391100BFBDEC028B85
:1012000010BD22480078FF2804D020480078401CF8
:101210001E490870194800781D490978884216D07F
:10122000164800781A4908701448007A50B11348DB
:10123000C07838B111484089124908800F48808928
:10124000488004E04FF400400E49088048800B4875
:1012500040781049097888420ED0084840780D49F6
:1012600008704FF40040074988800121064880F843
:10127000331100200549087070470000D00A002093
:101280007F000020080A0020AC0200207E00002021
:101290007C0000207D00002010B50120A24988704C
:1012A000A24890F8000688B91020A04981F80106EC
:1012B00000219E4880F80216012180F8031600F2F2
:1012C0000161FF20FFF781FC012010BD0020FCE739
:1012D00010B5002094498870944890F8000688B9A9
:1012E0001020924981F801060021904880F80216EA
:1012F000022180F8031600F20161FF20FFF765FC70
:10130000012010BD0020FCE710B504468848007895
:10131000A0421FD0854890F80006C8B982480470E2
:10132000834804700120814981F8010601217F482A
:1013300080F8021680F803167B4801787B4880F815
:10134000041600F20161FF20FFF73FFC012010BDF1
:101350000020FCE70120FAE710B5744890F8000679
:1013600088B91020714981F8010600216F4880F882
:101370000216072180F8031600F20161FF20FFF733
:1013800024FC012010BD0020FCE701B5674890F85F
:101390000006C8B91020654981F80106002163489C
:1013A00080F80216052180F803169DF8001080F8D9
:1013B00004169DF8011080F8051600F20161FF2067
:1013C000FFF703FC012008BD0020FCE710B55748DB
:1013D00090F8000688B91020544981F801060021D0
:1013E000524880F80216062180F8031600F20161C7
:1013F000FF20FFF7EAFB012010BD0020FCE707B546
:101400004A4890F8000648BB1020484981F8010678
:101410000221464880F80216032180F803169DF841
:10142000001080F804169DF8011080F805169DF84C
:10143000041080F806169DF8051080F807169DF830
:10144000081080F808169DF8091080F8091600F2B7
:101450000161FF20FFF7B9FB01200EBD0020FCE772
:1014600010B5324890F8000688B901202F4981F85C
:10147000010600212D4880F80216032180F803168A
:1014800000F20161FF20FFF7A0FB012010BD00204A
:10149000FCE710B5254890F8000688B901202349DB
:1014A00081F801060021214880F80216042180F805
:1014B000031600F20161FF20FFF787FB012010BD3A
:1014C0000020FCE710B5194890F8000688B9012003
:1014D000164981F801060021144880F802160521FA
:1014E00080F8031600F20161FF20FFF76EFB012078
:1014F00010BD0020FCE710B50C4890F8000688B934
:1015000001200A4981F801060021084880F80216E6
:10151000022180F8031600F20161FF20FFF755FB5E
:10152000012010BD0020FCE7380A0020AC0200209A
:101530008000002010B504469848B0F94000B0F58E
:10154000AF6F0BDD9548B0F94000B0F5C86F05DA14
:101550000120934948709349087002E000209049A7
:1015600048708E48B0F93E00B0F5966F06DA8C48A8
:10157000407818B901208A49087002E000208849A3
:1015800008708848007801284AD18748C078002828
:1015900053D18248B0F93A0040F26C71884210DDB4
:1015A0007E48B0F93C0040F24C41884209DA7B4861
:1015B000B0F93E00884204DA7848B0F94000884229
:1015C00017DB7648B0F9400040F26C71884230DD9C
:1015D0007248B0F93C0040F24C41884229DA6F4829
:1015E000B0F93E00884224DA6C48B0F93A008842EB
:1015F0001FDA6E480088B0F57A7F12DAD4ED000A5F
:101600006A48008800EE100AB8EE400A9FED681A9A
:1016100000EE810ABCEEC00A10EE100A6349088091
:1016200062E0FFF739FE0020604908805D490870DC
:101630005AE000205D49088056E05B48C0780128E8
:1016400052D15648B0F93A0040F26C71884210DD30
:101650005248B0F93C0040F24C41884209DA4F4808
:10166000B0F93E00884204DA4C48B0F940008842A4
:1016700017DB4A48B0F9400040F26C71884230DD17
:101680004648B0F93C0040F24C41884229DA4348D0
:10169000B0F93E00884224DA4048B0F93A00884266
:1016A0001FDA42480088B0F5967F12DAD4ED000ABE
:1016B0003E48008800EE100AB8EE400A9FED3C1A42
:1016C00000EE810ABCEEC00A10EE100A374908800D
:1016D0000AE0FFF7FDFD0020344908803149087019
:1016E00002E000203149088010BD10B52E48C078B6
:1016F000002844D12948B0F9400040F24C418842CA
:1017000017DA2648B0F93C00884212DA2348B0F9CB
:101710003E0088420DDA2148B0F93A00884208DAE2
:101720002448007838BBFFF79BFE01202149087050
:1017300025E01A48B0F9400040F26C7188421BDD88
:101740001648B0F93C0040F24C41884214DA134884
:10175000B0F93E0088420FDA1048B0F93A0040F282
:101760006C71884208DD1348007820B9FFF791FEBC
:1017700001201049087002E000200E49087010BDD9
:1017800010B52DED020B054890F8390020B96846D8
:10179000FFF7D0FEFFF7A9FF1CBD0000620A002082
:1017A0008200002086000020380A002084000020EB
:1017B00000007A448700002010B52DED048B5749B6
:1017C000B1F900000BF00AFB41EC180B9FED540B34
:1017D00053EC102B0BF093FA534A03C24F49B1F963
:1017E00002000BF0FBFA41EC180B9FED4D0B53EC94
:1017F000102B0BF084FA4D4A03C24849B1F904009A
:101800000BF0ECFA4A4A03C29FED4A0B53EC102B43
:101810004A4890ED000B51EC100B0BF027FB18D24F
:101820009FED470B53EC102B414890ED000B51EC12
:10183000100B0BF003FB0CD29FED430B53EC102B62
:10184000434890ED000B51EC100B0BF03FF9404A70
:1018500003C29FED3B0B53EC102B384890ED000B6F
:1018600051EC100B0BF0EAFA18D29FED320B53EC4F
:10187000102B2F4890ED000B51EC100B0BF0F6FAEB
:101880000CD29FED310B53EC102B314890ED000B37
:1018900051EC100B0BF0BBF92D4A03C29FED200B4E
:1018A00053EC102B224890ED000B51EC100B0BF079
:1018B00026FA41EC180B9FED270B53EC102B244814
:1018C00090ED000B51EC100B0BF0A7F941EC190B4C
:1018D00053EC182B0BF0FAF8204A03C2144890ED91
:1018E000000B164880ED000B1D48B0F918001D498B
:1018F00008601B48B0F91A001B4908601B480088A3
:101900001B490880194840881A4908801A484068CD
:101910001A490860BDEC048B10BD00006000002077
:1019200000000000000059408800002090000020C6
:10193000A0000020000000000094C140A80000208A
:10194000000000000094C1C0000000000000F03F53
:10195000B0000020000000000080764098000020C9
:10196000D00A0020C0000020C40000206700002032
:10197000B8000020BA000020EF090020BC000020C1
:101980000020524908605249086070474F49096871
:10199000814205DA4D49096814314C4A116007E06B
:1019A00000214A4A11604B490968491C494A1160A3
:1019B000704710B50146464B1B6841F2883493FBD3
:1019C000F4F202EBD2735B10A2EB430303B90846B7
:1019D0003F4B1B6841F2883493FBF4F202EBD27365
:1019E0005B10A2EB4303012B00D1484210BD70B540
:1019F0002DED0A8B05463649096841F2883291FB84
:101A0000F2F000EBD0714910A0EB410111BB284668
:101A10000BF0E4F941EC190B2D48006841F28831D4
:101A200090FBF1F201FB120630460BF0D7F941ECC6
:101A30001B0B9FED290B53EC102B0BF060F941ECC5
:101A40001A0B53EC192B0BF0E8F841EC180B0BF0C8
:101A5000D6F904461E49096841F2883291FBF2F03A
:101A600000EBD0714910A0EB410101292AD1284691
:101A70000BF0B4F941EC190B1548006841F28831BC
:101A800090FBF1F201FB120630460BF0A7F941EC96
:101A90001C0B9FED110B53EC102B0BF030F941ECAC
:101AA0001B0B9FED0F0B53EC102B0BF0B3F841EC1D
:101AB0001A0B53EC192B0BF0B0F841EC180B0BF090
:101AC0009EF904462046BDEC0A8B70BDE400002060
:101AD000E8000020EC000020000000000088B34077
:101AE000000000000000F03F7E49096829B90A287B
:101AF00003D101217B4A11602AE07A490968012952
:101B000005D1794908700221764A116020E07549B3
:101B10000968022905D1754908700321714A1160CD
:101B200016E070490968032905D17149087004213C
:101B30006C4A11600CE06B490968042905D16D49B4
:101B400008700021674A116002E00021654A1160B7
:101B500066490978684A118011460978090209B274
:101B600011801146B1F900105F4A12781143624AA0
:101B7000118060490978614A11801146097809028B
:101B800009B211801146B1F90010594A1278114377
:101B90005A4A1180704708B559A000680090022188
:101BA000684602F0EBFB08BD10B52DED048B044632
:101BB0005448006828B90A2C03D101205149086013
:101BC00034E050480068012805D14F4804700220D5
:101BD0004C4908602AE04B480068022805D14B4870
:101BE000047003204749086020E046480068032845
:101BF00005D14748047004204249086016E0414876
:101C00000068042805D14348047005203D49086058
:101C10000CE03C480068052805D13F4804700020CE
:101C20003849086002E000203649086036480078EC
:101C30003A4908800846008801284AD1344800788B
:101C40003749088008460078000200B2088008463C
:101C5000B0F900002D4909780843314908802E4821
:101C600000783049088008460078000200B20880F9
:101C70000846B0F900002749097808432949088037
:101C80002748B0F900000BF0A9F841EC190B9FEDC3
:101C9000260B53EC102B0AF0C0FF41EC180B0BF095
:101CA000AEF800B21E4908801E48B0F900000BF0E3
:101CB00095F841EC190B9FED1C0B53EC102B0AF01F
:101CC000ACFF41EC180B0BF09AF800B215490880F4
:101CD00004E000201249088012490880BDEC048B02
:101CE00010BD0000FC0000200001002001010020C8
:101CF0000201002003010020F0000020F20000207B
:101D0000010A000004010020080100200901002050
:101D10000A0100200B0100200C010020F40000202B
:101D2000F6000020F8000020000000000000E83F5E
:101D30007FB50024AA222146641C51484254FF2248
:101D40002146641C4254F1222146641C425408225C
:101D50002146641C42549DF800202146641C4254D4
:101D60009DF801202146641C42549DF80420214620
:101D7000641C42549DF805202046611CCCB24049A9
:101D80000A549DF808202046611CCCB23C490A54F4
:101D90009DF809202046611CCCB239490A549DF8AF
:101DA0000C202046611CCCB235490A549DF80D2008
:101DB0002046611CCCB232490A540025002600207E
:101DC00007E02F49095C2944CDB27119CEB2411CFC
:101DD000C8B22B49C978091D8142F2DC2046611C3A
:101DE000CCB227490D542046611CCCB224490E5474
:101DF0000846C078801DC1B2214802F0CBF97FBDF2
:101E0000F1B50024AA222146641C1D484254FF2239
:101E10002146641C4254F1222146641C4254022291
:101E20002146641C42549DF800202146641C425403
:101E30009DF801202146641C425400250026002004
:101E400007E00F49095C2944CDB27119CEB2411C9B
:101E5000C8B20B49C978091D8142F2DC2046611CD9
:101E6000CCB207490D542046611CCCB204490E5433
:101E70000846C078801DC1B2014802F08BF9F8BD58
:101E8000430A0020884201DD084603E04A429042AE
:101E900000DA4842704710B504460B46E01A00EBE2
:101EA000400059490860322157480068FFF7EAFFAF
:101EB0005549086010BD30B505460B461446E81A72
:101EC000400052490860214650480068FFF7DAFF99
:101ED0004E49086030BD30B505460B461446E81A39
:101EE00040004B490860214649480068FFF7CAFF97
:101EF0004749086030BD10B504460B46E01A400063
:101F000044490860782143480068FFF7BBFF414916
:101F1000086010BD10B500203C4908603C490860CD
:101F2000394908603B4908603B48006828B13B4894
:101F300001683B480068FFF7AEFF3A48006828B1E7
:101F40003648016836480068FFF7A5FF3248006848
:101F500030B132223448016834480068FFF7ABFFE3
:101F60003348006830B132222F4801682F4800689A
:101F7000FFF7A1FF2F48006830B10A222E48B0F9C0
:101F800000100020FFF797FF2348006830B132228D
:101F90002A4801682A480068FFF79DFF2948006821
:101FA00030B132222548016825480068FFF793FFC9
:101FB0002548006830B10A222448B0F900100020FA
:101FC000FFF789FF1448006860B1214890ED000BCD
:101FD00051EC100B0AF013FF044621461D4800681F
:101FE000FFF789FF1C48006860B1194890ED000BAD
:101FF00051EC100B0AF003FF044621461548006817
:10200000FFF779FF10BD0000DC000020D4000020A5
:10201000D8000020E000002034010020BC00002097
:102020001401002038010020C00000201801002009
:102030003C01002048010020F6000020C4000020E0
:102040001C010020400100204C010020F80000206D
:1020500098000020200100204401002030B1012818
:1020600014D0022823D003284BD135E00021264A82
:102070001160264A1160264A1160264A1160264ADC
:102080001160264A1160264A11603AE001211E4A79
:10209000116000211D4A11601D4A11601D4A116026
:1020A0001D4A11601D4A11601D4A116029E000217E
:1020B000154A11600121154A1160154A116000216D
:1020C000144A11600121144A11600021134A116061
:1020D0000121134A116014E000210B4A1160012113
:1020E0000A4A116000210A4A11600121094A11605F
:1020F0000021094A11600121084A1160084A116053
:1021000000BF00BF704700003401002038010020EC
:102110003C01002048010020400100204C0100202B
:10212000440100201CB50121102006F0C2F9002056
:102130008DF8040001208DF80700009069463C48A6
:1021400005F068FA022000906946394805F062FA05
:10215000082000906946364805F05CFA1CBD70B551
:1021600005460121324805F046FB04463148007817
:1021700070B16CB92F480078401C2E490870084691
:10218000007802280CD15CB900200870012070BDD5
:102190002848007820B9012C02D101202549087077
:1021A0000020F4E770B505460221214805F023FB25
:1021B00004462148007870B16CB91F480078401C73
:1021C0001D4908700846007802280CD15CB900202F
:1021D0000870012070BD1848007820B9012C02D188
:1021E0000120154908700020F4E770B50546082164
:1021F0000F4805F000FB04461048007870B16CB938
:102200000E480078401C0D490870084600780228E6
:102210000CD15CB900200870012070BD074800781F
:1022200020B9012C02D10120044908700020F4E7F4
:1022300000100240530100205401002055010020ED
:1022400010B501F0F3FD0120F84981F8380081F85C
:10225000390010BD10B501F0C5FA642001F0B6FADE
:1022600001F098FB01F024FC642001F0AFFA4FF478
:10227000E13001F014FF4FF4E13002F00AF8EC48CD
:1022800002F001F9EA4802F01FFAE94802F005FB02
:10229000642001F09BFAFFF7D3FF01F0E7FA642016
:1022A00001F094FAFEF716F94FF4487001F08EFA37
:1022B000FFF738FF01F0E4FE012010BD40F6C41125
:1022C000884203DDDB490978032903DCD949097811
:1022D0000A290DD10021D74A1170D449B1F84E1006
:1022E000491CD24AA2F84E10012182F8501012E087
:1022F000B0F5967F0FDD40F6B83188420BDA02B2B6
:10230000CA49891CCB4B1B7821F81320C94909788D
:10231000491CC84A1170704738B50446C6A0006809
:102320000090C6484068C549086001F024FAC349D6
:102330004860084640680968401A40F6C41188425F
:1023400002D90020BE490870BD4801780078401CC1
:10235000BB4A1070BB4844541046007819287CD101
:10236000182011460870B74800780F2876D1B54874
:10237000007E38B1B348007EB34A12781DF80210CF
:102380008842F3D10020AE490870AE484078AD498C
:10239000897801F0070140EA0120A4498882A94810
:1023A000C0788006400DA749897840EAE1009F493E
:1023B000C882A4484079C007400DA249097940EA83
:1023C0008100A049C97840EAA110984908839D4836
:1023D00080790007400D9B49497940EA61009349A3
:1023E00048839848C0794006400D9649897940EA6B
:1023F00021108E4988839348407A8007400D914987
:10240000097A40EA41008F49C97940EAE1108749D9
:10241000C8838C48807AC006400D8A49497A40EAD0
:10242000A100824908848748C07AC0008549897A1A
:1024300040EA61117D4841848248007B8149497BA3
:1024400001F0070140EA0120784988847D48807BBB
:102450008006400D7B49497B01E074E069E040EA79
:10246000E1007249C8847748007CC007400D754977
:10247000C97B40EA81007349897B40EAA1106B491E
:1024800008857048407C0007400D6E49097C40EA91
:102490006100664948856B48807C4006400D69496B
:1024A000497C40EA2110614988856648007D8007A3
:1024B000400D6449C97C40EA41006249897C40EA98
:1024C000E1105A49C8855F48407DC006400D5D490E
:1024D000097D40EAA100554908865A48807DC00020
:1024E0005849497D40EA6111504841865548C07DB0
:1024F0004E4981F83400084690F8340000F0080096
:1025000040B90846B0F84E00401CA1F84E00022029
:1025100081F850004C480078401C4B4908700878FE
:10252000C11700EB91718910A0EB8101464A11702F
:1025300009E0002005E0434A411C515C1154411C54
:10254000C8B21828F7DB38BD10B50446D4ED000A30
:102550003E48008800EE100AB8EE400A9FED3C1A93
:1025600000EE810ABCEEC00A10EE100A374908805E
:1025700008460088B0F57A7F39DD002008802B48B6
:10258000B0F84E002949C8860846C08E052803DAEF
:10259000012081F8380003E00020244981F8380048
:1025A000224890F83800C8B120480078D8B92948A6
:1025B0000078401C27490870087800EBD07149105A
:1025C000A0EB4101234A117010460078012802D186
:1025D00001F0ADFC07E001F029FC04E0134890F89D
:1025E00050001249087000201049A1F84E0010BD9B
:1025F00010B52DED020B6846FFF7A6FF0B4890F8CB
:10260000380000286BD109480078012824D1002027
:1026100008E00649891C31F81020383121F81020D3
:10262000411CC8B20A28F4DB39E00000620A00202D
:1026300020A1070058010020041424345C0100206C
:1026400064010020B40A0020650100206801002018
:1026500000007A44660100202B48007802281ED131
:1026600000201AE02849143131F91010A1F58061D9
:1026700000EE101AF8EEC00A9FED240A9FED241A0E
:1026800001EE200ABDEEC00A10EE101A0AB21E4971
:102690003A3121F81020411CC8B20A28E2DB1A485E
:1026A000B0F94200B0F5966F05DD1748B0F9420069
:1026B000B0F5AF6F0BDB1448B0F94200B0F5C86F4E
:1026C00009DD1148B0F94200B0F5E16F03DA0120ED
:1026D0001049087011E000200E4908700DE001203B
:1026E0000C490870002006E0002207493A3121F821
:1026F0001020411CC8B20A28F6DB064800780249BF
:1027000081F839001CBD0000620A00200080BB4433
:102710002FDD243F6A010020F0EE400AF5EEC00AEA
:10272000F1EE10FA02DBB0EE600A7047B1EE600A1B
:10273000FBE700B5B0EE403AB0EE602AB5EEC03A25
:10274000F1EE10FA07D1B5EEC02AF1EE10FA02D17F
:102750009FEDFC1A99E0B0EE430AFFF7DDFFF0EEC3
:10276000403AB0EE420AFFF7D7FFF0EE402AF4EE0F
:10277000E23AF1EE10FA02D283EEA24A01E082EED2
:10278000A34A9FEDF10AB4EEC04AF1EE10FA02D26C
:10279000F0EE441A2DE0DFEDED0AB6EE000A14EE7D
:1027A000200AF0EE404ABDEEE40A10EE100A00EEF8
:1027B000100AB8EEC00A34EEC00AF0EE404AE4490E
:1027C00001EB800191ED000AF0EE401AE04A411C55
:1027D00002EB810191ED000A114601EB8001D1ED80
:1027E000000A70EE600AB0EE610A00EEA40AF0EE94
:1027F000401AF4EEE32AF1EE10FA20DDB5EEC02A1D
:10280000F1EE10FA0ADBB5EEC03AF1EE10FA02DB97
:10281000B0EE611A39E0B1EE611A36E09FEDCD1AE3
:10282000B5EEC03AF1EE10FA04DB31EE610AB0EE1B
:10283000401A2AE031EEC10AB0EE401A25E0B5EEAA
:10284000C03AF1EE10FA10DB9FEDC31AB5EEC02AC4
:10285000F1EE10FA04DB31EE610AB0EE401A14E03A
:1028600031EE210AB0EE401A0FE09FEDBC1AB5EE32
:10287000C02AF1EE10FA04DB31EE210AB0EE401A64
:1028800003E031EE610AB0EE401AB0EE410A00BD3D
:1028900000B5B0EE405AF0EE605AF0EE450AB0EEE8
:1028A000650AFFF746FF00BDF0EE400AF6EE001A9B
:1028B00060EEA11AB0EE611AB0EE600A10EE100AD6
:1028C000A749A1EB600000EE100A21EE002AF7EE06
:1028D000081A42EE401A61EE801AB0EE610A21EE4B
:1028E000002AF7EE081A42EE401A61EE801AB0EEA6
:1028F000610A704700B5F0EE402AB0EE620AFFF7B9
:10290000D3FF20EE220A00BD10B52DED0A8BB0EEEC
:10291000409AF0EE609A9FED930B53EC102B51EC24
:10292000190B0AF08BFA18D29FED900B53EC102B79
:1029300051EC190B0AF071F941EC1B0B9FED8D0B5B
:1029400053EC102B0AF0C2F841EC1A0B53EC192B84
:102950000AF063F941EC180B17E09FED840B53EC80
:10296000102B51EC190B0AF058F941EC1B0B9FEDA1
:10297000810B53EC102B0AF04DF941EC1A0B53EC80
:10298000192B0AF04AF941EC180B9FED760B53EC2A
:10299000102B51EC180B0AF051FA20D29FED770B57
:1029A00053EC102B51EC180B0AF090F841EC1C0B77
:1029B0009FED740B53EC102B0AF02FF941EC1B0B1D
:1029C0009FED6E0B53EC102B0AF080F841EC1A0BC4
:1029D00053EC182B0AF021F941EC180B1FE09FED86
:1029E000670B53EC102B51EC180B0AF010F941EC6B
:1029F0001C0B9FED660B53EC102B0AF00EF941EC0B
:102A00001B0B9FED5E0B53EC102B0AF05FF841ECB3
:102A10001A0B53EC182B0AF000F941EC180BB0EE2E
:102A2000480AF0EE680ABDEC0A8B10BD10B52DED1A
:102A3000068BB0EE408AF0EE608A01249FED550BC4
:102A400053EC102B51EC180B0AF010FA0AD89FED3A
:102A5000510B53EC102B51EC180B0AF0D8F841EC49
:102A6000180BA41E20460AF0B9F941EC190BB0EE80
:102A7000480AF0EE680AFFF747FFB0EE40AAF0EE12
:102A800060AA53EC192B51EC1A0B0AF0C6F841EC72
:102A9000100BBDEC068B10BD10B52DED088BB0EE04
:102AA000408AF0EE608A01249FED3C0B53EC102B22
:102AB00051EC180B0AF00AF841EC180B9FED350B9E
:102AC00053EC102B51EC180B0AF0D0F90AD8A41EC5
:102AD0009FED300B53EC102B51EC180B0AF097F8CC
:102AE00041EC180B20460AF079F941EC1A0BB0EED4
:102AF000480AF0EE680AFFF799FFB0EE40BAF0EE30
:102B000060BA53EC1A2B51EC1B0B0AF086F841EC1F
:102B1000190B0AF0C3F900EE100ABDEC088B10BDCA
:102B2000F0EE401AF4EEE01AF1EE10FA3ADD31EE72
:102B3000C10AB4EEE00AF1EE10FA3CD2B0EE600A3F
:102B400039E00000000000008180803B00008043ED
:102B5000F8D00008DB0F4940DB0FC93FDB0FC9BFCE
:102B6000DF59375F00000000000000000000006037
:102B70002FF0D93F00000060305FF43F00000000FC
:102B80000000F03F000000C0CCCCCCBF000000C073
:102B9000CCCCCC3FF1D4C853FB210940F1D4C8536D
:102BA000FB21F93F31EE810AB4EEE00AF1EE10FAB2
:102BB00001DDB0EE600A7047F0EE401AB1EE412A36
:102BC00032EE202AB4EEE12AF1EE10FA09D231EE0B
:102BD000202AB4EEE12AF1EE10FA02DDB0EE600A2E
:102BE00001E0B0EE610A7047F0EE402AB5EEC01A7F
:102BF000F1EE10FA02DDB0EE410A01E0B1EE410A59
:102C0000B6EE003A22EE033A23EE213AB4EEC30ABE
:102C1000F1EE10FA06D29FEDD40A20EE800AF0EE13
:102C2000400A4DE0B5EEC01AF1EE10FA02DDB0EE4A
:102C3000410A01E0B1EE410A22EE213AB4EEC30AA4
:102C4000F1EE10FA06D29FEDC90A20EE800AF0EEEE
:102C5000400A35E0B5EEC01AF1EE10FA02DDB0EE32
:102C6000410A01E0B1EE410AB4EEE10AF1EE10FAD8
:102C700006D2B6EE000A20EE800AF0EE400A1FE00F
:102C8000B5EEC01AF1EE10FA02DDB0EE410A01E035
:102C9000B1EE410AB0EE003A21EE833AB4EEC30A37
:102CA000F1EE10FA06D29FEDB20A20EE800AF0EEA5
:102CB000400A05E09FEDAF0A20EE800AF0EE400AE0
:102CC0009FEDAD0A20EE800A20EE223AF7EE003AA0
:102CD00083EE830AB7EE003A30EE030AF7EE003ACD
:102CE00083EE803A90ED000A71EE403A90ED000AD2
:102CF00003EE230A80ED000A90ED000AB1EE423A9D
:102D000023EE213AB4EEC30AF1EE10FA04D8B1EE84
:102D1000420A20EE210A0DE090ED000A22EE213A4F
:102D2000B4EEC30AF1EE10FA02DD22EE210A01E050
:102D300090ED000A80ED000A90ED000A31EE400AA5
:102D4000704710B52DED028BB0EE408AF0EE608A30
:102D50009FED8A0B53EC102B51EC180B0AF086F800
:102D60000CD29FED880B53EC102B51EC180B09F093
:102D70004EFF41EC100BBDEC028B10BD9FED830BA1
:102D800053EC102B51EC180B0AF058F80AD29FEDB7
:102D90007D0B53EC102B51EC180B09F097FE41EC16
:102DA000100BE8E7B0EE480AF0EE680AE3E730B54A
:102DB00005460C46F0EE403AD5ED000A60EEA00A5A
:102DC00094ED001AD4ED001A41EE210AB0EE600A2B
:102DD000FFF790FDB0EE403AB5EEC03AF1EE10FAD2
:102DE00002D81FEDA80A09E0B4EEE33AF1EE10FABA
:102DF00002DDB0EE630A01E0B0EE430AB0EE404AF5
:102E0000B5EEC03AF1EE10FA06D11FEDB20A83ED2D
:102E1000000A82ED000A0FE084EE030AD5ED000AF5
:102E200020EE200A82ED000A84EE030AD4ED000AA7
:102E300020EE200A83ED000A30BDF0EE400A0B7848
:102E400002EB8303C3ED000A0B785B1C0B700B785D
:102E5000834201DB00230B700B7802EB830393EDBD
:102E6000000A704700B50246B0EE403A0B46F7EE56
:102E7000000A43EE430AB0EE600AFFF73BFDD2EDD5
:102E8000000A20EE200AD2ED010A00EEC30A83ED0B
:102E9000000AF7EE000A43EE430AB0EE600AFFF7BD
:102EA00029FDD2ED010A20EE200AD2ED000A00EE43
:102EB000830A83ED010A00BD90ED000AD1ED010AFD
:102EC00020EE200AD0ED010A91ED001A00EEC10AB1
:102ED000704790ED000AD1ED000A20EE200AD0EDF7
:102EE000010A91ED011A00EE810A704790ED010A86
:102EF000D1ED020A20EE200AD0ED020A91ED011A6E
:102F000000EEC10A82ED000A90ED020AD1ED000A3E
:102F100020EE200AD0ED000A91ED021A00EEC10A5F
:102F200082ED010A90ED000AD1ED010A20EE200A9F
:102F3000D0ED010A91ED001A00EEC10A82ED020AFD
:102F4000704790ED000AD1ED000A20EE200AD0ED86
:102F5000010A91ED011A00EE810AD0ED020A91ED0D
:102F6000021A00EE810A70479A99993FCDCC4C3FE6
:102F7000CDCC4C3ECDCCCC3DC3F5C84000000000CC
:102F800000806640000000000080764000000000E5
:102F9000008066C008B5C648D0ED000A9FEDC51A8E
:102FA000F4EEC10AF1EE10FA0BD2D0ED000AB7EE42
:102FB000001A70EE810AC0ED000A0120BE49887037
:102FC00002E00020BC498870B948D0ED010A9FEDAD
:102FD000B91AF4EEC10AF1EE10FA0BD2D0ED010AE3
:102FE000B7EE001A70EE810AC0ED010A01208DF8DB
:102FF000000002E000208DF80000AD48D0ED020A8C
:103000009FEDAC1AF4EEC10AF1EE10FA0BD2D0ED3E
:10301000020AB7EE001A70EE810AC0ED020A012022
:103020008DF8010002E000208DF801009DF80000FD
:1030300030B19DF8010018B101209F49C87002E02D
:1030400000209D49C87008BD30B500220024C57815
:103050008B1F9D4200D030BD002306E0C55C1544A7
:10306000EAB2A518ECB25D1CEBB28D1E9D42F5DCF8
:10307000431813F8023C934204D1431813F8013C5F
:10308000A34200D0E7E78378512B38D103795BB9AD
:103090004379894D6B7183795BB2AB71C3795BB254
:1030A000EB71037A2B7183E00379012B12D1437901
:1030B000814D2B72C3886B810389AB81837A2B711D
:1030C0009FED7E0A7A4B83ED010A2B461B785B1C31
:1030D0002B706DE00379022B6AD14379764DAB7387
:1030E000C3882B8203896B824389AB828389EB82FD
:1030F000C3892B83038A6B83837C2B7158E083788D
:10310000342B0DD1D0F807306B4DEB619FED6B0A7E
:10311000674B83ED020A2B465B785B1C6B7047E0C4
:103120008378012B0DD18388634D2B86C3886B86F2
:103130000389AB864389EB8683892B87C3896B8799
:1031400036E08378042B33D1B0F9043000EE103A26
:10315000B8EEC00ADFED5A0A20EE200A564B83ED86
:10316000080AB0F9063000EE103AB8EEC00ADFEDFA
:10317000540A20EE200A504B83ED090AB0F90830BA
:1031800000EE103AB8EEC00ADFED4D0A20EE200A3C
:10319000494B83ED0A0AB0F90A3000EE103AB8EE56
:1031A000C00ADFED470A20EE200A434B83ED0B0AED
:1031B00000BF50E710B504464248007838B9AA2C41
:1031C00005D101203F4908703F4804706FE03D4839
:1031D0000078012809D1612C01D0FF2C05D10220F3
:1031E000384908703848447061E036480078022851
:1031F00005D10320334908703348847057E03148C3
:10320000007803280CD1FA2C0ADA04202D49087022
:103210002D48C4702D48047000202D49087046E0E8
:1032200028480078042819D128480078002815DD9E
:1032300026480078401E2549087025480078244912
:103240000978491C224A1170001D1F490C541F485F
:10325000007840BB05201B49087028E01948007819
:1032600005280DD10620174908701948007818491B
:103270000978491C164A1170001D13490C5416E0B8
:103280001048007806280FD100200E490870104819
:103290000078001D0C490C540D480078401DC1B247
:1032A0000948FFF7D1FE02E000200649087010BD72
:1032B000400B00200000FA43D00A0020000000006C
:1032C00017B7D1386D0100200C0B00206B010020D6
:1032D0006C0100200146D548007800287ED00022ED
:1032E000D24B1A70D24A1288C832D14B1A80D14AB6
:1032F000127DD14B5A76CF4AD37DCF4A9376CD4AB1
:103300009369CD4AC2F81B30CA4AD369CA4AC2F887
:103310001F30C84A526A0A2392FBF3F3C64AC2F826
:103320002330C44A126B0A2392FBF3F213B2C24A4F
:10333000A2F82730BF4A526B0A2392FBF3F213B272
:10334000BD4AA2F82930BB4A926B0A2392FBF3F2E2
:1033500013B2B94AA2F82B30B64AB2F84C2000EEAC
:10336000102AB8EE400ADFEDB50A20EE200ABCEEC6
:10337000C00A10EE100A08B9002204E0C82801D9DA
:10338000C82200E002461046AB4A82F82D00A94A46
:10339000526C00EE102AB8EE400ADFEDA80A20EECB
:1033A000200ABCEEC00A10EE100A08B9002204E0A0
:1033B000C82801D9C82200E0024610469E4A82F879
:1033C0002E009C4AD26A00EE102AB8EE400ADFEDC9
:1033D0009B0A20EE200ABCEEC00A00E012E010EECC
:1033E000100A08B9002204E0C82801D9C82200E068
:1033F00002461046904A82F82F000123904A82F834
:10340000213100BF704710B50E218E4800F0C2FE7A
:1034100010BD10B50E218C4800F0BCFE10BD10B5DB
:10342000642000F0D3F94FF4165000F038FE32203B
:1034300000F0CCF91C21854800F0ACFE642000F0BF
:10344000C5F94FF4964000F02AFE322000F0BEF994
:103450001C217E4800F09EFE642000F0B7F94FF476
:10346000164000F01CFE322000F0B0F91C21774815
:1034700000F090FE642000F0A9F94FF4E13000F074
:103480000EFE142000F0A2F90B21714800F082FE1C
:10349000142000F09BF90B216E4800F07BFE1420F5
:1034A00000F094F90B216C4800F074FE142000F039
:1034B0008DF90B21694800F06DFE142000F086F9AB
:1034C0000B21674800F066FE142000F07FF90B2105
:1034D000644800F05FFE142000F078F9FFF793FFD6
:1034E00010BD10B50146002000225F4B1B782BB9A0
:1034F000B52903D101235C4C237095E05A4B1B780E
:10350000012B05D1622903D10223574C23708BE094
:10351000554B1B78022B05D10323534C2370534B7F
:10352000197081E0504B1B78032B05D104234E4CBE
:1035300023704F4B197077E04B4B1B78042B05D150
:103540000523494C23704B4B19706DE0464B1B789B
:10355000052B10D10623444C2370464B1B7803EBFC
:103560000123454C238023461B88622B5CDB002310
:103570003D4C237058E03C4B1B78062B54DB3A4BF8
:103580001B789B1F3C4C2488A41CA3420ADA364BB0
:103590001B789B1F274CE154334B1B785B1C324C30
:1035A000237041E0314B1B780344D8B21318DAB2D0
:1035B0002F4B1B780344D8B21318DAB22E4B1B786A
:1035C0000344D8B21318DAB22B4B1B8800EB132339
:1035D000D8B21318DAB2002307E0164CE45C0444B6
:1035E000E0B21418E2B25C1CE3B2234C2488A3427C
:1035F000F3DB104B204C24881B5D834211D10D4C12
:103600001D4B1B885B1CE35C93420AD1174B1B7854
:10361000012B06D1164B1B78072B02D10123034C3B
:1036200023700023104C237010BD00006E01002099
:10363000700100204C0B0020080A00200AD7233C10
:10364000AC0200207201002080010020AA010020AD
:10365000DB010020E6010020F1010020FC01002038
:103660000702002012020020230200201D02002079
:103670001E0200201F02002020020020704700BF11
:10368000FEE700BFFEE700BFFEE77047704710B5DA
:10369000802003F0C4FE10B1802003F016FF10BD9F
:1036A00010B500F01BFC10BD704710B5012111488A
:1036B00007F0ABFD28B101210E4807F003FEFDF72E
:1036C00027FD10BD10B500F0ADFD10BD10B500F028
:1036D0009EFE10BD10B500F0BBFF10BD10B501F08F
:1036E000A0F810BD10B501F0B0F910BD10B500F094
:1036F00071FC10BD001400407FB5684604F0C1FDA8
:103700004FF47A710198B0FBF1F4E4082146B1F16D
:10371000807F00D31DE021F07F40401E4FF0E0226B
:10372000506150170F22002807DA13071E0E314B85
:1037300000F00F052D1F5E5503E013071D0E2E4BE5
:103740001D5400BF00204FF0E0229061072010615F
:1037500000BF6FF0040001F095FB7FBD2748D0E962
:1037600000305A1C40F100002449C1E90020704794
:1037700022480068704710B500BF204A11684FF01A
:10378000E02252694FF0E0239B69D21A4FF47A731A
:103790005A434FF0E0235B69B2FBF3F201EB4103C4
:1037A000C3EBC11302EBC300144C18CC4B402343B2
:1037B000E3D110BD30B50446FFF7DDFF054600BF7D
:1037C000FFF7D9FF401BA042FAD330BD10B5044625
:1037D00003E04FF47A70FFF7EDFF201EA4F101041F
:1037E000F7D110BD10B54FF4806001F099FAFFF7E2
:1037F00083FF10BD18ED00E000E400E02802002087
:1038000000B58FB0684602F096FD0121880504F0EE
:1038100050FE00BF564803F0ABF80028FAD10090E4
:1038200054480190544802900020039032200490A4
:10383000002005904FF480600690400007908000C3
:10384000089000010A904012099000200B9001207E
:103850000C9000200D900E906946454802F015FC32
:103860000121434802F078FD0FB000BD00B58DB0D6
:1038700001A801F009FC0121042004F01AFE012135
:10388000080204F0FCFEFFF7BBFF03208DF83000B8
:1038900020200B9000208DF833000BA9374803F04F
:1038A000B9FE0020099007904FF480300890002066
:1038B0000A9007A801F0F2FB002001908DF80800A3
:1038C00001208DF8090000200390059001208DF85B
:1038D000180001A927484C3801F00DFB07230122ED
:1038E0000F2124484C3801F09EFD012121484C381D
:1038F00001F077FF01211F484C3801F080FC0121C5
:103900001C484C3801F047FF1A484C3801F057FE6C
:103910000DB000BD9FED1A0AF0EE400A002010E045
:10392000154931F8101000EE101AB8EE401ADFED0C
:10393000151AB0EE600A01EE210AF0EE400A411CB1
:10394000C8B23228ECDB9FED101A80EE810A9FEDA1
:103950000F1A20EE010AB2EE061A20EE010AF7EE67
:10396000001A80EE211A9FED0A0A21EE000A704724
:10397000106402404C200140B00B002000080240BF
:10398000000000000AD7A33C0000804500404E45DF
:103990006F12833A1CB5684603F0E7FE0121102040
:1039A00004F087FD01208DF804008DF80700002049
:1039B0008DF8060002208DF805000720009069466A
:1039C000384803F027FE01208DF804008DF806002A
:1039D00002208DF80500802000906946314803F0F0
:1039E00019FE02212F4804F04BF801212D4804F064
:1039F00047F804212B4804F043F88021294804F0BB
:103A00003FF81CBD00F0010119B10221254A1183C4
:103A100002E00221234A518300F0020119B1012181
:103A2000204A118302E001211E4A518300F0040163
:103A300019B104211B4A118302E00421194A518360
:103A400000F0080119B18021164A518302E080215B
:103A5000144A1183704700B500201DE0124931F867
:103A60001010124A1256914204DA01218140194382
:103A70008BB202E0012181408B430B4931F81010D9
:103A8000491C89B2084A22F81010142902DB0021CF
:103A900022F81010411CC8B20428DFDB1846FFF7DB
:103AA000B1FF00BD001002403402002030020020AF
:103AB00030B58BB00025D44C01A803F056FE08A801
:103AC00005F063F903A805F09CFF012C01D8012043
:103AD00004E0CE48844200D900E02046044601219B
:103AE000082004F0A9FD0121022004F0C8FD0121F5
:103AF000084604F0C4FD0121152004F0DAFC0C2076
:103B0000019002208DF8080003208DF809000020A4
:103B10008DF80A0001208DF80B0001A9BC4803F0C4
:103B200079FD02221146BA4804F088F802220321E6
:103B3000B74804F083F8B74800684008B0FBF4F0D9
:103B4000401E85B242F210700990ADF8205000205E
:103B5000ADF82800ADF8220008A9AF4805F08AF8B2
:103B60006020ADF80C000020ADF818000120ADF881
:103B70000E004FF47A60059003A9A74805F0E8FD10
:103B80000821A54806F0B1F90120ADF80E004FF468
:103B90007A60059003A9A04805F0A2FE08219E487E
:103BA00006F0CFF901219C4805F0E9FA01219A4875
:103BB00005F0D1FB4FF4D440019002208DF80800AD
:103BC00003208DF8090000208DF80A0001208DF8EF
:103BD0000B0001A9914803F01DFD012209218F4826
:103BE00004F02CF801220B218C4804F027F8012264
:103BF0000D218A4804F022F801220E21874804F0A2
:103C00001DF884480068B0FBF4F0401E85B242F213
:103C100010700990ADF820500020ADF82800ADF8E4
:103C200022008DF82A0008A97D4805F023F86020BD
:103C3000ADF80C000020ADF81000ADF81800082019
:103C4000ADF81A004001ADF81C000020ADF81E00D0
:103C50000120ADF80E004FF47A60059003A970487A
:103C600005F0C1FB08216E4806F0CBF84FF47A60EE
:103C7000059003A96A4805F07EFC0821684806F013
:103C8000FEF84FF47A60059003A9654805F060FDE1
:103C90000821634806F029F94FF47A60059003A9DA
:103CA0005F4805F01DFE08215D4806F04AF9012134
:103CB0005B4807F0FCF80121594805F060FA012142
:103CC000574805F048FB4FF44070019002208DF8F2
:103CD000080003208DF8090000208DF80A0001205B
:103CE0008DF80B0001A94F4803F094FC0322082132
:103CF0004C4803F0A3FF032209214A4803F09EFF2A
:103D000044480068B0FBF4F0401E85B242F21070E7
:103D10000990ADF820500020ADF82800ADF8220041
:103D20008DF82A0008A9404804F0A4FF6020ADF8EF
:103D30000C000020ADF81000ADF818000820ADF818
:103D40001A004001ADF81C000020ADF81E004FF431
:103D50007A60059003A9344805F0FAFC0821304840
:103D600006F0C3F84FF47A60059003A92E4805F0D9
:103D7000B7FD08212A4806F0E4F801212A4807F097
:103D800096F80121284805F0FAF90121264805F0A6
:103D9000E2FA0BB030BDB0F90010890001F57A618C
:103DA0001F4A1164B0F90210890001F57A61D163EC
:103DB000B0F90410890001F57A619163B0F9061039
:103DC000890001F57A615163B0F90810890001F5A5
:103DD0007A61114A40321160B0F90A10890001F588
:103DE0007A61121F1160B0F90C10890001F57A6137
:103DF0000D4A40321160B0F90E10890001F57A6168
:103E0000121F11607047000000093D0000BD010550
:103E10000000024054020020000C0040001002404C
:103E200000000140000802400004014000B587B0D6
:103E300005A803F09AFC02A806F0BBFE01210220AF
:103E400004F0FAFB0121042004F033FB1D208DF85F
:103E5000040002208DF8050001208DF806008DF881
:103E6000070001A800F077FF8020059002208DF860
:103E7000180003208DF8190000208DF81A00022088
:103E80008DF81B0005A95D4803F0C4FB0222072141
:103E90005A4803F0D3FE5320594908800420ADF856
:103EA00008000A20ADF80A000120ADF80C0000203F
:103EB000ADF80E00ADF8100002A95148283806F000
:103EC00092FD01214E48283805F045FA01220421CF
:103ED0004B48283807F05AF807B000BD10B54848DD
:103EE0001838008800F0040000B34FF6FB70444916
:103EF000183908804FF6FF300880404810300068BD
:103F000000F0800090B93E48283806F0FEFE3D499A
:103F10000880084600884988401A84B22046FEF787
:103F2000CDF9384800883749488000BF10BD00B53A
:103F300087B0684603F019FC0121202004F09FFBA4
:103F40000121042004F0B5FA47208DF80800042070
:103F50008DF8090001208DF80A008DF80B0002A8E9
:103F600000F0F9FE08220721244803F067FE8020B4
:103F7000009002208DF804008DF8050001208DF8D6
:103F8000060000208DF8070069461C4803F042FB3C
:103F90001D4803900020ADF810004FF40050ADF81C
:103FA0001200C010ADF814000020ADF81800042075
:103FB000ADF8160003A9154807F0DBFE012240F218
:103FC0002551124808F071FB0121104808F01AF839
:103FD00007B000BD10B540F225510C4808F08BFC2D
:103FE00058B140F22551094808F010FD0748001D5E
:103FF0000088C4B22046FEF78FF910BD00080240C9
:10400000280400403C020020A0860100001401406A
:104010003EB504460121202004F00EFB1E4804F0AA
:104020004DFD01945320ADF800000020ADF80800CC
:10403000ADF802006946184804F01CFE012116483C
:1040400007F0ADF801221146134806F09FFF012149
:10405000114805F080F90021202004F0EDFA3EBD62
:1040600008B537208DF8000007208DF801000120E9
:104070008DF802008DF80300684600F06CFE08BD64
:1040800010B54FF47A70FFF7C3FFFFF7E9FF012186
:10409000202004F0D1FA10BD00140040704710B584
:1040A0008AB0044606A807F048FF0121102004F05A
:1040B000E6FA0121084604F0FCF925208DF80C00F1
:1040C00003208DF80D0000208DF80E0001208DF8E2
:1040D0000F0003A800F03FFE07220921FE4803F06D
:1040E000ADFD07220A21FC4803F0A8FD4FF4007043
:1040F000019002208DF808008DF8090000208DF84D
:104100000A0001208DF80B0001A9F34803F082FAA0
:104110004FF48060019002208DF808008DF80900AE
:1041200001208DF80A0000208DF80B0001A9EA4853
:1041300003F070FAE94807F0B7FD06940020ADF8E7
:104140001C00ADF81E00ADF82000ADF824000C20D6
:10415000ADF822000020ADF81000ADF812004FF4C9
:104160000070ADF814000020ADF8160006A9DB4879
:1041700007F0FFFD04A9D94807F0EBFE012240F249
:104180002551D64808F091FA0121D44807F03AFFAA
:104190000AB010BD70B505460E4600240AE0295D40
:1041A000CF4802780078401CCD4B1870CD48815420
:1041B000601CC4B2B442F2DBC848808900F08000C1
:1041C00028B9012240F22771C44808F06EFA70BD88
:1041D000C5490A780978491CC34B1970C3498854EA
:1041E00019460978642902DB00211A4611707047CC
:1041F00010B510E0BE490A780978491CBC4B19700B
:10420000BA49885CFDF770FCB9480078642802DB85
:104210000020B7490870B4480078B5490978884249
:10422000E8D110BD10B5AD48008800F0080010B10D
:10423000AA488088C4B240F22551A84808F05BFB28
:1042400050B140F22551A54808F0E0FBA348808812
:10425000C4B22046FFF7BCFF40F227719F4808F028
:104260004AFBA8B1A34801780078401CA14A10700D
:104270009C48405C994988801046007898490978A4
:10428000884205D19548808920F080009349888133
:1042900010BD10B58AB0044606A807F04EFE0121F5
:1042A000480404F0C9F90121082004F002F926208D
:1042B0008DF80C0004208DF80D0001208DF80E0003
:1042C0008DF80F0003A800F046FD072205218A485B
:1042D00003F0B4FC07220621874803F0AFFC20203E
:1042E000019002208DF808008DF8090000208DF85B
:1042F0000A0001208DF80B0001A97F4803F08AF91C
:104300004020019002208DF808008DF8090001205E
:104310008DF80A0000208DF80B0001A9764803F003
:1043200079F906940020ADF81C00ADF81E00ADF838
:104330002000ADF824000C20ADF822000020ADF8DC
:104340001000ADF812004FF40070ADF8140000201A
:10435000ADF8160006A9694807F00BFD04A96748E7
:1043600007F0F7FD012240F22551644808F09DF95D
:104370000121624807F046FE0AB010BD70B505463F
:104380000E4600240AE0295D5D4802780078401C52
:104390005B4B18705B488154601CC4B2B442F2DBC2
:1043A00056480C30008800F0800028B9012240F205
:1043B0002771524808F079F970BD53490A78097895
:1043C000491C514B19705149885419460978642980
:1043D00002DB00211A461170704710B510E04C49FD
:1043E0000A780978491C4A4B19704849885CFDF7DE
:1043F000DBFB47480078642802DB00204449087052
:1044000041480078424909788842E8D110BD10B58A
:104410003A48008800F0080018B13848001D0088AC
:10442000C4B240F22551354808F065FA58B140F25F
:104430002551324808F0EAFA3048001D0088C4B21D
:104440002046FFF7BAFF40F227712C4808F053FAD4
:10445000C0B1304801780078401C2E4A10702948BD
:10446000405C2649091D08801046007824490978D7
:10447000884207D121480C30008820F080001F4975
:104480000C31088010BD10B58AB0044606A807F0AC
:1044900054FD0121880404F0CFF80121022004F02A
:1044A00008F827208DF80C0002208DF80D00002060
:1044B0008DF80E0001208DF80F0003A800F04BFCD2
:1044C00007220A21144803F0B9FB07220B211248E6
:1044D00003F0B4FB22E000000000024000100140A5
:1044E00041020020140C002042020020140D002084
:1044F0004302002040020020000C02400044004023
:1045000045020020780D002046020020780E002091
:104510004702002044020020000402404FF4806063
:10452000019002208DF808008DF8090000208DF818
:104530000A0001208DF80B0001A9FE4803F06AF87B
:104540004FF40060019002208DF808008DF80900FA
:1045500001208DF80A0000208DF80B0001A9F54814
:1045600003F058F806940020ADF81C00ADF81E00CA
:10457000ADF82000ADF824000C20ADF8220000209A
:10458000ADF81000ADF812004FF40070ADF8140053
:104590000020ADF8160006A9E74807F0EAFB04A9D9
:1045A000E54807F0D6FC012240F22551E24808F028
:1045B0007CF80121E04807F025FD0AB010BD70B578
:1045C00005460E4600240AE0295DDC4802780078A2
:1045D000401CDA4B1870DA488154601CC4B2B442F3
:1045E000F2DBD5480C30008800F0800028B90122A9
:1045F00040F22771D04808F058F870BDD1490A78C8
:104600000978491CCF4B1970CF498854194609784D
:10461000642902DB00211A461170704700B510E0D2
:10462000CA490A780978491CC84B1970C649885C80
:10463000FFF734FDC5480078642802DB0020C34939
:104640000870C0480078C14909788842E8D100BDA7
:1046500010B5B948008800F0080018B1B648001D30
:104660000088C4B240F22551B34808F044F958B16B
:1046700040F22551B04808F0C9F9AF48001D008844
:10468000C4B22046FFF7BAFF40F22771AA4808F0EB
:1046900032F9C0B1AE4801780078401CAC4A1070C5
:1046A000A748405CA449091D088010460078A3492A
:1046B0000978884207D1A0480C30008820F080009B
:1046C0009D490C31088010BD10B588B0044604A87F
:1046D00007F033FC0121C80403F0AEFF01210846B6
:1046E00003F0E7FE34208DF80C0003208DF80D0058
:1046F00001208DF80E008DF80F0003A800F02BFBB1
:1047000008220021934803F099FA082201219148D8
:1047100003F094FA0120019002208DF808008DF832
:10472000090000208DF80A0001208DF80B0001A976
:10473000884802F06FFF022001908DF808008DF884
:10474000090001208DF80A0000208DF80B0001A956
:10475000804802F05FFF04940020ADF81400ADF82B
:104760001600ADF81800ADF81C000C20ADF81A00CA
:1047700004A9794807F0FDFA012240F22551764854
:1047800007F093FF0121744807F03CFC08B010BD0E
:1047900070B505460E4600240AE0295D6F48027890
:1047A0000078401C6D4B18706D488154601CC4B279
:1047B000B442F2DB68480C30008800F0800028B971
:1047C000012240F22771644807F06FFF70BD654910
:1047D0000A780978491C634B197063498854194653
:1047E0000978642902DB00211A461170704710B560
:1047F00010E05E490A780978491C5C4B19705A49E7
:10480000885CFEF7D7FC59480078642802DB00205A
:104810005649087053480078544909788842E8D1CD
:1048200010BD10B54C48008800F0080018B14A4887
:10483000001D0088C4B240F22551474808F05BF8DB
:1048400058B140F22551444808F0E0F84248001DB4
:104850000088C4B22046FFF7BAFF40F227713E48F5
:1048600008F049F8C0B1424801780078401C404A3D
:1048700010703B48405C3849091D0880104600789C
:1048800036490978884207D133480C30008820F037
:10489000800031490C31088010BD10B588B0044645
:1048A00004A807F04AFB0121080503F0C5FE012119
:1048B000042003F0FEFD0121082003F0FAFD35205D
:1048C0008DF80C0001208DF80D0000208DF80E00F1
:1048D00001208DF80F0003A800F03DFA08220C21FA
:1048E000244803F0ABF908220221234803F0A6F97B
:1048F0004FF48050019002208DF808008DF80900D7
:1049000000208DF80A0001208DF80B0001A919483C
:1049100002F080FE0420019002208DF808008DF83E
:10492000090001208DF80A0000208DF80B0001A974
:10493000114823E0000402400048004049020020E2
:10494000DC0E00204A020020DC0F00204B02002079
:104950004802002000000240004C00404D020020B0
:10496000401000204E020020401100204F02002085
:104970004C02002000080240000C024002F04AFEF7
:1049800004940020ADF81400ADF81600ADF818003E
:10499000ADF81C000C20ADF81A0004A94C4807F033
:1049A000E8F9012240F22551494807F07EFE012135
:1049B000474807F027FB08B010BD70B505460E4606
:1049C00000240AE0295D434802780078401C414BEE
:1049D000187041488154601CC4B2B442F2DB3C48B8
:1049E000808900F0800028B9012240F22771384800
:1049F00007F05BFE70BD39490A780978491C374BCE
:104A000019703749885419460978642902DB002156
:104A10001A461170704710B510E032490A780978CB
:104A2000491C304B19702E49885CFBF7CAFE2D4893
:104A30000078642802DB00202A49087027480078A3
:104A4000284909788842E8D110BD10B5204800886F
:104A500000F0080010B11E488088C4B240F2255111
:104A60001B4807F048FF50B140F22551184807F0A5
:104A7000CDFF17488088C4B22046FFF7BCFF40F244
:104A80002771134807F037FFA8B11748017800785D
:104A9000401C154A10701048405C0D498880104633
:104AA00000780C490978884205D10948808920F0AE
:104AB00080000749888110BD10B5FFF799FBFFF70B
:104AC0008CFCFFF7ABFDFFF792FEFFF7A4FF10BDD4
:104AD0000050004051020020A4110020520200208A
:104AE000A4120020530200205002002006488047F4
:104AF00006480047FEE7FEE7FEE7FEE7FEE7FEE7C3
:104B0000FEE7FEE7FEE7FEE7ED4B0008890100083F
:104B10000CB50020019000907648006840F4803089
:104B20007449086000BF7348006800F400300090CA
:104B30000198401C0190009818B90198B0F5A06F39
:104B4000F1D16C48006800F4003010B101200090F1
:104B500001E0002000900098012846D165484030CF
:104B6000006840F080506349403108606248006846
:104B700040F48040604908605E48083000685D4944
:104B8000083108600846006840F4004008600846A4
:104B9000006840F4A05008605848091F0860081FCA
:104BA000006840F08070091F086000BF514800682D
:104BB00000F000700028F9D040F20560504908600C
:104BC0004C480830006820F003004A49083108606A
:104BD0000846006840F00200086000BF4548083001
:104BE000006800F00C000828F8D10CBD10B545484D
:104BF000006840F47000434908603E48006840F097
:104C000001003C49086000203A49083108603948F1
:104C100000683D490840374908603C48091D086064
:104C2000081F006820F48020091F08600020314917
:104C30000C310860FFF76CFF4FF00060314980399C
:104C4000086010BD70B5002000220223002402215C
:104C5000284D08352D6805F00C0020B1042806D039
:104C6000082834D107E02A4D2A4E356033E02A4D1A
:104C7000284E35602FE01F4D2D1D2D68C5F3805443
:104C80001C4D2D1D2D6805F03F0154B1224DB5FB83
:104C9000F1F5184E361D3668C6F3881605FB06F288
:104CA00009E01B4DB5FBF1F5124E361D3668C6F313
:104CB000881605FB06F20F4D2D1D2D68C5F3014525
:104CC0006D1C6B00B2FBF3F5124E356003E0104D26
:104CD000104E356000BF00BF064D08352D68C5F386
:104CE00003150E4E705D0B4D2D68C540094E3560A5
:104CF00070BD0000003802400070004008544007BA
:104D0000003C024088ED00E0FFFFF6FE103000247A
:104D10000024F4005402002000127A0058020020FF
:104D200010B50446B4F5E06F0BD0B4F5C06F08D0F1
:104D3000B4F5A06F05D0B4F5806F02D0B4F5407F14
:104D400000D103E073215F48FBF72AFA5E48204355
:104D50005E49086010BD2DE9F0410446002500279A
:104D60000F26E07810B1E078012800D103E0872118
:104D70005448FBF715FA6078102800DA03E0882120
:104D80005048FBF70DFAA078102800DA03E08921DB
:104D90004C48FBF705FAE07818B34C48006800F47B
:104DA000E060C0F5E060C0F30725C5F10400C7B2BC
:104DB0002E416078B840C5B2A0783040054328073E
:104DC000050E434821784554207800F01F0101204A
:104DD000884021784911890001F1E021C1F80001E2
:104DE00009E0207800F01F0101208840394922782D
:104DF000521141F82200BDE8F08170B504460D461D
:104E0000B4F1005F02D0B4F1006F00D103E0B12132
:104E10002C48FBF7C5F93048854200D203E0B221A7
:104E20002848FBF7BDF92D4905EA01002043274931
:104E3000091F086070BD70B504460D46102C03D0E4
:104E4000042C01D0022C00D103E0C4211D48FBF743
:104E5000A7F90DB1012D00D103E0C5211948FBF7D9
:104E60009FF93DB11948001D006820431749091DED
:104E7000086006E01548001D0068A0431349091D9D
:104E8000086070BD10B50446042C01D0601D00B947
:104E900003E0DC210B48FBF783F9042C08D14FF029
:104EA000E020006940F004004FF0E021086107E0D5
:104EB0004FF0E020006920F004004FF0E02108618D
:104EC00010BD0000FCD400080000FA050CED00E065
:104ED00000E400E080E100E0FFFF0F0080FFFF1F23
:104EE00010B50121080203F08DFC00214FF4807001
:104EF00003F088FC10BD2DE9F04105460C46002664
:104F00000027F748854205D0F648854202D0F6488A
:104F1000854200D103E0E921F448FBF741F920681C
:104F200058B12068B0F1807F07D02068B0F1007FD1
:104F300003D02068B0F1407F00D103E0EA21EB48C4
:104F4000FBF72EF9207910B12079012800D103E078
:104F5000EB21E648FBF724F9607910B1607901286C
:104F600000D103E0EC21E148FBF71AF9A06858B141
:104F7000A068B0F1805F07D0A068B0F1005F03D0F7
:104F8000A068B0F1405F00D103E0ED21D748FBF706
:104F900007F9E068D8B3E068B0F1807F37D0E06807
:104FA000B0F1007F33D0E068B0F1407F2FD0E068EF
:104FB000B0F1806F2BD0E068B0F1A06F27D0E0682F
:104FC000B0F1C06F23D0E068B0F1E06F1FD0E068AF
:104FD000B0F1006F1BD0E068B0F1106F17D0E0683F
:104FE000B0F1206F13D0E068B0F1306F0FD0E068FF
:104FF000B0F1406F0BD0E068B0F1506F07D0E068BF
:10500000B0F1606F03D0E068B0F1706F00D103E0E1
:10501000EE21B648FBF7C4F8206918B12069B0F555
:10502000006F00D103E0EF21B048FBF7B9F8207D15
:10503000012803DB207D102800DC03E0F021AB48D1
:10504000FBF7AEF86E68AA4806402179206840EA6E
:10505000012006436E60AE68A6480640D4E90310FE
:105060000843A1680843617940EA41000643AE6005
:10507000EE6A26F47006207D401EC0B2074346EA61
:105080000756EE62BDE8F0810021016001714171B7
:105090008160C160016101210175704770B50446EE
:1050A0000025206818B32068012820D02068022835
:1050B0001DD0206805281AD02068062817D020683F
:1050C000072814D02068092811D0206811280ED094
:1050D000206812280BD02068152808D020681628D0
:1050E00005D02068172802D02068192800D104E0D4
:1050F0004FF4A9717D48FBF753F8606858B16068B8
:10510000B0F5803F07D06068B0F5003F03D060681D
:10511000B0F5403F00D104E040F253117348FBF773
:105120003FF8A06858B1A068B0F5804F07D0A068DC
:10513000B0F5004F03D0A068B0F5404F00D104E0B7
:105140004FF4AA716948FBF72BF8E068D8B3E06820
:10515000B0F5807F37D0E068B0F5007F33D0E068ED
:10516000B0F5407F2FD0E068B0F5806F2BD0E068BD
:10517000B0F5A06F27D0E068B0F5C06F23D0E0682D
:10518000B0F5E06F1FD0E068B0F5006F1BD0E068AD
:10519000B0F5106F17D0E068B0F5206F13D0E0685D
:1051A000B0F5306F0FD0E068B0F5406F0BD0E0681D
:1051B000B0F5506F07D0E068B0F5606F03D0E068DD
:1051C000B0F5706F00D104E040F255114748FAF78E
:1051D000E7FF4948056849480540D4E9000108430C
:1051E000A1680843E168084305433D48C0F80453FB
:1051F00070BD0021016041608160C160704770B581
:1052000004460D463648844205D03648844202D0D2
:105210003548844200D104E040F28B113348FAF75C
:10522000BFFF0DB1012D00D104E04FF4C6712F482E
:10523000FAF7B6FF25B1A06840F00100A06003E0D6
:10524000A06820F00100A06070BD70B505460C4656
:1052500000262348854205D02248854202D02248B4
:10526000854200D104E04FF4E3712048FAF798FF3B
:10527000234884420FD0234884420CD022488442E1
:1052800009D0B4F5000F06D0B4F5800F03D0B4F503
:10529000400F00D004B904E040F2C7111348FAF7F8
:1052A0007FFF6E681848C043064026436E6070BD9D
:1052B00070B504460E4615460948844205D0094893
:1052C000844202D00848844200D104E040F2E31155
:1052D0000648FAF765FFB6F5805F17DA1BE00000B5
:1052E00000200140002101400022014044D5000877
:1052F000FFFEFFFCFDF7FFC004230140E030FCFF90
:1053000000028000000240000002C0004FF4F27171
:10531000FD48FAF745FFB5F5805F00DA04E040F29A
:10532000E511F948FAF73CFF6662A56270BD70B5F9
:1053300005460C460026F548854205D0F4488542CE
:1053400002D0F448854200D104E04FF40371EE48E6
:10535000FAF726FF1CB3012C21D0022C1FD0032CFE
:105360001DD0042C1BD0052C19D0062C17D0072CCF
:1053700015D0082C13D0092C11D00A2C0FD00B2CCF
:105380000DD00C2C0BD00D2C09D00E2C07D00F2CCF
:1053900005D0102C03D0112C01D0122C00D104E028
:1053A00040F20D21D848FAF7FBFE6E6826F01F0682
:1053B00026436E6070BD10B504460CB1012C00D1BF
:1053C00004E04FF41371D048FAF7EAFE3CB1D2483A
:1053D000006840F40000CD49C1F8040306E0CE485F
:1053E000006820F40000C949C1F8040310BD10B5DD
:1053F00004460CB1012C00D104E040F26221C24805
:10540000FAF7CEFE3CB1C448006840F48000BF49C2
:10541000C1F8040306E0C048006820F48000BB49DE
:10542000C1F8040310BD2DE9F04706460C461746A7
:1054300098460025A946B548864205D0B44886421C
:1054400002D0B448864200D104E04FF43271AE4835
:10545000FAF7A6FE1CB3012C21D0022C1FD0032C7E
:105460001DD0042C1BD0052C19D0062C17D0072CCE
:1054700015D0082C13D0092C11D00A2C0FD00B2CCE
:105480000DD00C2C0BD00D2C09D00E2C07D00F2CCE
:1054900005D0102C03D0112C01D0122C00D104E027
:1054A00040F2C9219848FAF77BFE012F02DB102F4A
:1054B00000DC04E040F2CA219348FAF771FEB8F12B
:1054C000000F14D0B8F1010F11D0B8F1020F0ED0B7
:1054D000B8F1030F0BD0B8F1040F08D0B8F1050FE5
:1054E00005D0B8F1060F02D0B8F1070F00D104E0E3
:1054F00040F2CB218448FAF753FE092C13DDF568FE
:10550000A4F10A0000EB4001072000FA01F925EAA6
:105510000905A4F10A0000EB400008FA00F945EA89
:105520000905F5600EE0356904EB4401072000FA37
:1055300001F925EA090504EB440008FA00F945EAF7
:1055400009053561072F11DA756B781E00EB8001B4
:105550001F2000FA01F925EA0905781E00EB8000FA
:1055600004FA00F945EA0905756326E00D2F11DA02
:10557000356BF81F00EB80011F2000FA01F925EAC6
:105580000905F81F00EB800004FA00F945EA090557
:10559000356312E0F56AA7F10D0000EB80011F20D2
:1055A00000FA01F925EA0905A7F10D0000EB8000DA
:1055B00004FA00F945EA0905F562BDE8F08710B57F
:1055C00004465248844205D05148844202D0514892
:1055D000844200D104E040F23F314B48FAF7E0FD4D
:1055E000A06840F08040A06010BD70B50446002562
:1055F0004648844205D04648844202D04548844209
:1056000000D104E040F24E313F48FAF7C9FDA068EE
:1056100000F4800008B1012500E00025284670BD97
:1056200070B504460D463948844205D03848844256
:1056300002D03848844200D104E040F26B31324855
:10564000FAF7AEFD0DB1012D00D104E04FF45B710E
:105650002D48FAF7A5FD25B1A06840F48060A06050
:1056600003E0A06820F48060A06070BD70B50446BF
:105670000D462648844205D02548844202D025485C
:10568000844200D104E04FF461711F48FAF788FDAD
:105690000DB1012D00D104E040F285311A48FAF72E
:1056A0007FFD25B1A06840F00200A06003E0A06883
:1056B00020F00200A06070BD2DE9F04104460D46C7
:1056C000002600271148844205D01148844202D0A8
:1056D0001048844200D104E040F2A1310A48FAF7B0
:1056E0005FFD012D02DB082D00DC04E040F2A23159
:1056F0000548FAF755FD666826F460466F1E46EACF
:1057000047366660BDE8F08144D5000800200140BE
:1057100000210140002201400423014070B50446ED
:105720000D46F948844205D0F848844202D0F84832
:10573000844200D104E040F2BE31F648FAF730FD71
:105740000DB1012D00D104E040F2BF31F148FAF76C
:1057500027FD25B1606840F40060606003E0606888
:1057600020F40060606070BD10B50446E6488442D5
:1057700005D0E648844202D0E548844200D104E0E6
:1057800040F2D531E348FAF70BFDE06C80B210BD72
:10579000E1480068704770B504460D46DA48844217
:1057A00005D0DA48844202D0D948844200D104E0CE
:1057B00040F21B41D748FAF7F3FC0DB1012D00D19F
:1057C00004E040F21C41D348FAF7EAFC25B1A06896
:1057D00040F48070A06003E0A06820F48070A060B6
:1057E00070BD70B504460D46C748844205D0C74811
:1057F000844202D0C648844200D104E040F23341E2
:10580000C448FAF7CDFC0DB1012D00D104E040F2FF
:105810003441C048FAF7C4FC25B1A06840F40070D8
:10582000A06003E0A06820F40070A06070BD10B517
:1058300004460CB1012C00D104E040F24E41B548C1
:10584000FAF7AEFC44B1B448001F006840F40050C1
:10585000AD49C1F8040307E0AF48001F006820F419
:105860000050A949C1F8040310BD2DE9F0470646D0
:105870000C4691461D460027B846BA46A2488642C5
:1058800005D0A248864202D0A148864200D104E059
:1058900040F2A6419F48FAF783FC1CB3012C21D0AB
:1058A000022C1FD0032C1DD0042C1BD0052C19D08A
:1058B000062C17D0072C15D0082C13D0092C11D08A
:1058C0000A2C0FD00B2C0DD00C2C0BD00D2C09D08A
:1058D0000E2C07D00F2C05D0102C03D0112C01D08A
:1058E000122C00D104E040F2A7418A48FAF758FC94
:1058F000B9F1010F03DBB9F1040F00DC04E04FF450
:1059000095618448FAF74CFC6DB1012D0BD0022D46
:1059100009D0032D07D0042D05D0052D03D0062D69
:1059200001D0072D00D104E040F2A9417948FAF7EF
:1059300037FC092C13DDF768A4F10A0000EB4001E5
:10594000072000FA01F827EA0807A4F10A0000EB93
:10595000400005FA00F847EA0807F7600EE03769EB
:1059600004EB4401072000FA01F827EA080704EBDA
:10597000440005FA00F847EA08073761B76BC7F338
:10598000015A09F103000AF10101401A00EB8001FC
:105990001F2000FA01F827EA080709F103000AF1BD
:1059A0000101401A00EB800004FA00F847EA0807FA
:1059B000B763BDE8F0872DE9F04104460D460026A7
:1059C00000275148844205D05048844202D05048B4
:1059D000844200D104E040F2E6414E48FAF7E0FB91
:1059E000012D02DB042D00DC04E040F2E7414948D0
:1059F000FAF7D6FBA66B26F440166F1E46EA07564A
:105A0000A663BDE8F081F8B505460C4616460020B1
:105A100000903D48854205D03C48854202D03C4834
:105A2000854200D104E04FF4A1613A48FAF7B8FB8F
:105A3000142C05D0182C03D01C2C01D0202C00D104
:105A400004E040F209513348FAF7AAFBB6F5805F4B
:105A500000DA04E040F20A512E48FAF7A1FB009563
:105A600000982044009000980660F8BD70B5054687
:105A70000C4600262448854205D02448854202D0A1
:105A80002348854200D104E040F22E512148FAF724
:105A900087FB64B3B4F5803F29D0B4F5003F26D02E
:105AA000B4F5403F23D0B4F5802F20D0B4F5A02F1B
:105AB0001DD0B4F5C02F1AD0B4F5E02F17D0B4F52F
:105AC000002F14D0B4F5102F11D0B4F5202F0ED024
:105AD000B4F5302F0BD0B4F5402F08D0B4F5502FCB
