:020000040800F2
:10000000581A002029430008B92E0008334300087D
:10001000BB2E0008BF2E0008C32E00080000000001
:10002000000000000000000000000000C72E0008D3
:10003000C92E0008000000003F430008992F000867
:100040004343000843430008434300084343000878
:100050004343000843430008434300084343000868
:100060004343000843430008434300084343000858
:100070004343000843430008434300084343000848
:100080004343000843430008434300084343000838
:10009000434300084343000843430008CB2E0008B5
:1000A0004343000843430008434300084343000818
:1000B00043430008DD2E0008E52E000843430008F6
:1000C00043430008434300084343000843430008F8
:1000D00043430008012F0008092F0008112F0008D2
:1000E00043430008434300084343000843430008D8
:1000F00043430008434300084343000843430008C8
:1001000043430008434300084343000843430008B7
:10011000192F0008212F000843430008E72E00088C
:100120004343000843430008434300084343000897
:100130004343000843430008434300084343000887
:100140004343000843430008434300084343000877
:10015000434300084343000843430008292F000895
:100160004343000843430008434300084343000857
:100170004343000843430008434300084343000847
:100180004343000843430008DFF810D00CF0E8FABE
:1001900000480047A5010008AFF30080581A00206E
:1001A00000BFFEE701F076FC00F01AF801E000F075
:1001B0003DF8FCE77047704710B52F48006808B15C
:1001C00001F0C7FB01F0D7FB01F0E5FB10BD704764
:1001D000704710B501F038FB00F052F810BD7047C1
:1001E000002000BF1FE000EB4001244A02EB810128
:1001F00089884FF47A7292FBF1F100EB40021F4BB9
:1002000003EB8202D18000EB40011A4602EB810130
:10021000C988012905DA012100EB400203EB8202C3
:10022000D180411CC8B20728DDD3704770B50024C7
:1002300000BF1EE002F0BAFE054604EB44000F4981
:1002400001EB80008068281A04EB44010B4A02EBA2
:100250008101C98888420AD304EB4400114601EBAE
:100260008000856004EB440152F821008047601C47
:10027000C4B2072CDED370BDC800002000000020EF
:1002800010B5704890F83800002876D16D48B0F964
:100290004400B0F5487F10DD6A48B0F94400B0F57D
:1002A000966F0ADA6848007850B901F033F8664969
:1002B000087000206549086002E00020624908706B
:1002C0006048B0F9440040F2A46188420FDD5D4807
:1002D000B0F9440040F69801884208DA5C4800789A
:1002E00040B901205A4908705A49087002E00020BC
:1002F0005749087056480078012874D1554800784D
:100300000B2871D2DFE800F0060A131B2D3A4F5A72
:10031000717C91000020504908808DE0022000F09F
:1003200097FF4C49097808444A49087084E000F076
:1003300057FF484909780844464908707CE04FF463
:10034000FA6001F05AFB4548B0F9000044490860E2
:1003500044480068444908604448006844490860CB
:100360006AE0012039490860642042490860394840
:100370000078401C374908705EE061E03D48006845
:100380003D490968401A10F1030F0BDD3948006838
:1003900039490968401A032804DA2E480078401CBD
:1003A0002C49087048E03048006832302E49086017
:1003B00028480078401C274908703DE02A4800681A
:1003C00028490968401A10F1030F0BDD2648006820
:1003D00024490968401A032804DA1E480078401CA2
:1003E0001C49087028E028E025E0214800683230E8
:1003F0001F49086017480078401C164908701BE028
:100400001B48006819490968401A10F1030F0BDDF9
:100410001748006815490968401A032804DA0D488E
:100420000078401C0B49087006E00020074908606E
:1004300000F070FF00E000BF02E0002005490870F6
:1004400010BD0000B409002057000020C8000020A3
:100450005800002056000020540000208C0000208E
:10046000C0000020A0000020AC000020A40000205C
:10047000B0000020A80000209C000020FF20F849C8
:1004800081F84E006421F648A0F850100121A0F830
:100490005210FF20F24981F880011421F048A0F8A1
:1004A00082110021A0F88411FF20ED4981F820017C
:1004B0000021EB48A0F82211A0F82411FF20E84900
:1004C00081F832010021E648A0F83411A0F8361175
:1004D000FF20E34981F838010021E148A0F83A11F2
:1004E000A0F83C11FF20DE4981F886010021DC489C
:1004F000A0F88811A0F88A11FF20D94981F8400599
:100500000021D748A0F84215A0F84415FF20D4498F
:1005100081F84C050021D248A0F84E15A0F85015DE
:10052000704770B504460D462946204603F063FE29
:1005300070BDCB4A10700122C94B5A707047C84A2F
:1005400082F84C05012382F84D3570472DE9F041C2
:1005500004460D4600260027E178A81F814201D0FD
:10056000BDE8F081002006E0215C3144CEB2B9192B
:10057000CFB2411CC8B2A91E8142F5DC601910F847
:10058000020CB04204D1601910F8010CB84200D03E
:10059000E6E72078AA2805D16078612803D0607842
:1005A000FF2800D0DCE7A078202811D1A088AD4931
:1005B0000880E0884880208988806089C880A08978
:1005C0000881E0894881208A8881608AC881AEE0FC
:1005D000A0780F280DD1207940B2A3490870607926
:1005E00040B24870A07940B28870E07940B2C870DB
:1005F0009DE0A07806280CD120799C49487060794C
:10060000C870A0790871E17998484171217A8171A7
:100610008DE0A07807280AD1002005E0211D095CA3
:10062000934A1154411CC8B20628F7DB7FE0A0783A
:1006300003280AD1002005E0211D095C8D4A1154D0
:10064000411CC8B20728F7DB71E0A07803280AD163
:10065000002005E0211D095C874A1154411CC8B2E5
:100660000928F7DB63E0A078012860D0A078E028B3
:100670001ED12079012806D0022805D0102804D0E8
:10068000112804D102E003E002E001E000E000BF35
:1006900000BF2079724981F80C06084680F80D6683
:1006A00080F80E7600F20C61AF20FFF742FF3EE0CB
:1006B000A078B0B96A4890F80F062179884236D1FF
:1006C000674890F810066179884230D1644890F804
:1006D0001106A17988422AD10020614981F80006DB
:1006E00025E0A078E12811D12179607901EB002083
:1006F0001FFA80F85A48A0F814860021C0F818168E
:1007000000F21461FF20FFF71AFF10E0A078E22842
:100710000DD12079524981F80C06084680F80D6603
:1007200080F80E7600F20C61FF20FFF702FF00BF99
:1007300016E710B504465148007838B9AA2C05D1FF
:1007400001204E4908704E48047072E04B48007812
:10075000012809D1612C01D0FF2C05D10220474985
:1007600008704748447064E044480078022805D186
:10077000032042490870424884705AE03F4800789C
:1007800003280CD1FA2C0ADA04203C4908703C48B2
:10079000C4703C48047000203B49087049E0374869
:1007A0000078042819D137480078002815DD35482D
:1007B0000078401E33490870334800783249097880
:1007C000491C314A1170001D2D490C542D480078E8
:1007D00058BB0520294908702BE0284800780528D7
:1007E0000DD1062025490870274800782649097848
:1007F000491C254A1170001D21490C5419E01F485D
:100800000078062812D100201C4908701E48007884
:10081000001D1B490C541C480078401D1B490870E2
:10082000084601781648FFF791FE02E000201349C0
:10083000087010BD7CB50346342B68D007DC3BB391
:100840000D2B3CD0302B47D0332B6ED151E0402BB9
:100850006FD0412B7AD0E02B6AD0E22BF5D196E015
:10086000240200204E090020A8010020A809002031
:100870006B000020640000205E0900205D00002065
:10088000400800205B0000205C0000205900002090
:10089000FFE7D64890F80C460D78681C0870545550
:1008A000D24890F80D460D78681C08705455CF4812
:1008B00090F80E460D78681C0870545596E000209C
:1008C00007E0CB4C255C0E78741C0C709555441CCD
:1008D000E0B20428F5DB89E0002007E0C54C255C88
:1008E0000E78741C0C709555441CE0B21728F5DB8B
:1008F0007CE0002008E0BF4C193C255C0E78741C9D
:100900000C709555441CE0B20628F4DB6EE0002024
:1009100008E0B84CE41F255C0E78741C0C709555EB
:10092000441CE0B20728F4DB60E05EE001E00DE08B
:1009300019E0002007E0B04C255C0E78741C0C70A8
:100940009555441CE0B21428F5DB4FE0002007E089
:10095000AA4C255C0E78741C0C709555441CE0B2B2
:100960000E28F5DB42E0A14890F801460D78681C9E
:1009700008705455002007E0A14C255C0E78741CCB
:100980000C709555441CE0B20A28F5DB2EE0974820
:10099000B0F8140600B201909DF804400D78681C70
:1009A000087054559DF805400D78681C0870545522
:1009B0008E48D0F8180600909DF800400D78681C0D
:1009C000087054559DF801400D78681C0870545506
:1009D0009DF802400D78681C087054559DF803403E
:1009E0000D78681C0870545500E000BF00BF7CBD46
:1009F000F8B504460F4600200090AA219DF800207B
:100A0000501CC0B200907F48815439789DF8002076
:100A1000501CC0B200907B4881549DF80010481CC7
:100A2000C0B200907748445400219DF80020501C2B
:100A3000C0B2009073488154024669462046FFF7D1
:100A4000F9FE9DF80000001F6E49C87000250026C1
:100A5000002007E06B49095C2944CDB27119CEB280
:100A6000411CC8B29DF800108842F3DB9DF80010CD
:100A7000481CC0B20090634845549DF80010481CC3
:100A8000C0B200905F484654584890F8000640B104
:100A9000E02C06D1554880F80F4680F8105680F8B3
:100AA00011669DF800105748FFF73BFDF8BD10B5E3
:100AB000044604EB44004D4901EB4000408828B354
:100AC00004EB440001EB4000808804EB4401474AFA
:100AD00002EB4101498888420CDA04EB44001146DC
:100AE00001EB40008088401C04EB440102EB410113
:100AF00088800BE0012004EB44013C4A02EB4101F9
:100B0000888004EB440102EB4101487004EB44008F
:100B1000364901EB4000407868B1002004EB440105
:100B2000324A02EB4101487004EB440002EB400101
:100B30002046FFF75DFF10BD2C4A82F840050123D7
:100B400082F841350122294B83F80026704710B501
:100B50002DED028BB0EE408A00F01BF83020FFF73D
:100B6000A6FF3320FFF7A3FF3420FFF7A0FF4020AC
:100B7000FFF79DFF4120FFF79AFFE020FFF797FF67
:100B8000E220FFF794FF0D20FFF791FFBDEC028BF1
:100B900010BD164890F80006012821D11A480078A7
:100BA000322805DA18480078401C174908701CE004
:100BB00000201549087015480078401C134908703A
:100BC00008460078052804DA0121084880F8411514
:100BD0000BE000200D490870044981F8000604E08C
:100BE0000020094908700949087070472402002054
:100BF0006000002091090020EE090020400900203B
:100C000026080020F00100205E0000205A0000208D
:100C100000B52DED028B85B0B0EE408AFE4890F80D
:100C2000390000287CD1FC48B0F94200B0F5966F3D
:100C300009DA012000F00CFB0120F84908700020BF
:100C4000F749086019E0F448B0F9420040F2A461A5
:100C5000884209DA022000F0FBFA0220EF4908700E
:100C60000020EF49086008E0022000F0F1FA0220BD
:100C7000EA4908700120EA490860E948006801284B
:100C80001AD1002016E0E4493A3131F9101040F24F
:100C9000145291420DDDE0493A3131F9101040F221
:100CA000A462914205DA40F2DC52DB493A3121F884
:100CB0001020401C0428E6DBD748B0F93A00A0F227
:100CC000DC5000EE900AF8EEE00AB0EE600A9FED0C
:100CD000D51ADFEDD50A01F041FB8DED010ACE48B2
:100CE000B0F93C00A0F2DC5000EE900AF8EEE00A09
:100CF000B0EE600A9FEDCB1ADFEDCB0A01F02EFBC0
:100D00008DED020AC448B0F93E00A0F2DC5000EEBE
:100D1000900AF8EEE00AB0EE600A9FEDC41A00E017
:100D200081E0DFEDC10A01F019FB8DED030ABA483D
:100D3000B0F94000A0F2DC5000EE900AF8EEE00AB4
:100D4000B0EE600A9FEDB91ADFEDB70A01F006FBBD
:100D50008DED040AB648007858B19FEDB30A8DEDC9
:100D6000010A9FEDB10A8DED020A9FEDAF0A8DEDEC
:100D7000040A9DED010ADFEDAF0A20EE200ADFED47
:100D8000AE0A20EE200ABDEEC00A10EE100A00B234
:100D9000AA4908809DED020AB1EE400ADFEDA50ADE
:100DA00020EE200ADFEDA40A20EE200ABDEEC00AE4
:100DB00010EE100A00B248809748C08FA0F57A70F4
:100DC00000B288809DED040AB1EE400ADFED9C0A76
:100DD00020EE200ADFED9B0A20EE200ABDEEC00ABD
:100DE00010EE100A00B2C8808D480068012810D1AA
:100DF0000020088048808880C8809348008800B21E
:100E000008819248008800B248819148008800B269
:100E1000888101218F4880F8871100208E49087051
:100E20008E4908701EE08E48C07878B18A480078F4
:100E300028B9032000F00CFA8749087006E08748BB
:100E4000007818B900F02CFA8449087000207B491A
:100E5000088048804FF4AF7088800020C880888167
:100E60004881088105B0BDEC028B00BD10B5044679
:100E70007C48008800EE100AB8EE400ADFED7A0ADE
:100E800020EE200ABDEEC00A10EE100A00B277492B
:100E900008807448408800EE100AB8EE400ADFED82
:100EA000720A20EE200ABDEEC00A10EE100A00B24F
:100EB00048806C48808800EE100AB8EE400ADFEDEA
:100EC0006A0A20EE200ABDEEC00A10EE100A00B237
:100ED00088806448C08800EE100AB8EE400ADFED52
:100EE000620A20EE200ABDEEC00A10EE100A00B21F
:100EF000C8805C48008900EE100AB8EE400ADFEDB9
:100F00005A0A20EE200ABDEEC00A10EE100A00B206
:100F100008815448408900EE100AB8EE400ADFED1F
:100F2000520A20EE200ABDEEC00A10EE100A00B2EE
:100F300048814C48808900EE100AB8EE400ADFED87
:100F40004A0A20EE200ABDEEC00A10EE100A00B2D6
:100F500088814448C08900EE100AB8EE400ADFEDEF
:100F6000420A20EE200ABDEEC00A10EE100A00B2BE
:100F7000C8813F48007818B901203D49087027E032
:100F8000E4B1002017E0394931F91010002901DCE3
:100F900000210BE0354931F91010B1F57A7F02DDFF
:100FA0004FF47A7102E0314931F910102F4A22F8DA
:100FB0001010411CC8B20828E5DB09E0002005E05C
:100FC00000212A4A22F81010411CC8B20828F7DB79
:100FD000264802F0FEFA10BD10B502F0B9F8DFEDB8
:100FE000250A20EE200ABCEEC00A10EE100A2249A3
:100FF000088010BD10B521480088401C1F4908809A
:10100000084600880A2190FBF1F201FB12001B49FF
:1010100008800846008833E0B409002073000020EF
:10102000C400002000002042000000000000A04298
:10103000820000208F360E3B00C05A454009002038
:10104000C6F91B3B00004843B4000020B800002054
:10105000BC0000202402002071000020720000204B
:10106000A80900204E090020CDCCCC3D6809002005
:10107000760000200000C8426000002078000020B8
:1010800010BB9FED1B0A00F0CEFE9FED190AFFF783
:10109000BFFD9FED170A00F0BBFB9FED150A01F0A5
:1010A00097FB14484088401C1249488008464088F5
:1010B0000A2190FBF1F201FB12000E49488008461C
:1010C000408808B9FFF788FF03F014F9012001F008
:1010D0001FFD9FED090A00F011F89FED070AFFF7C9
:1010E00036FD0120FFF7C2FE02F0D3F810BD00006C
:1010F0000AD7233C780000206F12833A10B52DEDFB
:10110000028BB0EE408A00F020F800BF2D484078F6
:101110002D490978884214D02A4840782A49087015
:1011200000202A4988744FF487712848A0F81310CA
:101130002448C1692548C0F815100121244880F8C9
:10114000391100BFBDEC028B10BD22480078FF288A
:1011500004D020480078401C1E49087019480078C7
:101160001D490978884216D0164800781A49087037
:101170001448007A50B11348C07838B111484089FA
:10118000124908800F488089488004E04FF40040ED
:101190000E49088048800B484078104909788842F9
:1011A0000ED0084840780D4908704FF400400749B8
:1011B00088800121064880F8331100200549087015
:1011C00070470000200A00207F00002078090020DE
:1011D000240200207E0000207C0000207D000020F2
:1011E00010B50120F4498870F44890F8000688B9D9
:1011F0001020F24981F801060021F04880F802161B
:10120000012180F8031600F20161FF20FFF794FC32
:10121000012010BD0020FCE710B50020E6498870D1
:10122000E64890F8000688B91020E44981F80106E4
:101230000021E24880F80216022180F8031600F22D
:101240000161FF20FFF778FC012010BD0020FCE7C2
:1012500010B50446DA480078A0421FD0D74890F86D
:101260000006C8B9D4480470D54804700120D34999
:1012700081F801060121D14880F8021680F8031692
:10128000CD480178CD4880F8041600F20161FF20B6
:10129000FFF752FC012010BD0020FCE70120FAE717
:1012A00010B5C64890F8000688B91020C34981F8E7
:1012B00001060021C14880F80216072180F80316B4
:1012C00000F20161FF20FFF737FC012010BD002074
:1012D000FCE701B5B94890F80006C8B91020B74935
:1012E00081F801060021B54880F80216052180F832
:1012F00003169DF8001080F804169DF8011080F880
:10130000051600F20161FF20FFF716FC012008BD61
:101310000020FCE710B5A94890F8000688B9102015
:10132000A64981F801060021A44880F8021606218A
:1013300080F8031600F20161FF20FFF7FDFB01209A
:1013400010BD0020FCE707B59C4890F8000648BB9C
:1013500010209A4981F801060221984880F8021667
:10136000032180F803169DF8001080F804169DF8FC
:10137000011080F805169DF8041080F806169DF8F7
:10138000051080F807169DF8081080F808169DF8DB
:10139000091080F8091600F20161FF20FFF7CCFB6D
:1013A00001200EBD0020FCE713B5844890F800062C
:1013B00008BB1020814981F8010602217F4880F88E
:1013C0000216012180F803169DF8001080F804161B
:1013D0009DF8011080F805169DF8041080F8061697
:1013E0009DF8051080F8071600F20161FF20FFF755
:1013F000A3FB01201CBD0020FCE713B56F4890F84B
:10140000000600BB10206D4981F8010602216B48DF
:1014100080F8021680F803169DF8001080F8041674
:101420009DF8011080F805169DF8041080F8061646
:101430009DF8051080F8071600F20161FF20FFF704
:101440007BFB01201CBD0020FCE713B55B4890F836
:10145000000608BB1020594981F8010602215748AF
:1014600080F80216072180F803169DF8001080F816
:1014700004169DF8011080F805169DF8041080F8F8
:1014800006169DF8051080F8071600F20161FF208E
:10149000FFF752FB01201CBD0020FCE713B54748B5
:1014A00090F8000608BB1020444981F8010602218B
:1014B000424880F80216082180F803169DF80010B3
:1014C00080F804169DF8011080F805169DF80410A8
:1014D00080F806169DF8051080F8071600F20161E5
:1014E000FF20FFF729FB01201CBD0020FCE710B501
:1014F000324890F8000688B90120304981F8010689
:1015000000212E4880F80216032180F8031600F20D
:101510000161FF20FFF710FB012010BD0020FCE758
:1015200010B5264890F8000688B90120234981F8B3
:1015300001060021214880F80216042180F80316D4
:1015400000F20161FF20FFF7F7FA012010BD002033
:10155000FCE710B5194890F8000688B90120174932
:1015600081F801060021154880F80216052180F84F
:10157000031600F20161FF20FFF7DEFA012010BD23
:101580000020FCE710B50D4890F8000688B901204E
:101590000A4981F801060021084880F80216022154
:1015A00080F8031600F20161FF20FFF7C5FA012061
:1015B00010BD0020FCE70000A80900202402002044
:1015C0008000002010B504469848B0F94000B0F5FE
:1015D000AF6F0BDD9548B0F94000B0F5C86F05DA84
:1015E0000120934948709349087002E00020904917
:1015F00048708E48B0F93E00B0F5966F06DA8C4818
:10160000407818B901208A49087002E00020884912
:1016100008708848007801284AD18748C078002897
:1016200053D18248B0F93A0040F26C71884210DD23
:101630007E48B0F93C0040F24C41884209DA7B48D0
:10164000B0F93E00884204DA7848B0F94000884298
:1016500017DB7648B0F9400040F26C71884230DD0B
:101660007248B0F93C0040F24C41884229DA6F4898
:10167000B0F93E00884224DA6C48B0F93A0088425A
:101680001FDA6E480088B0F57A7F12DAD4ED000ACE
:101690006A48008800EE100AB8EE400A9FED681A0A
:1016A00000EE810ABCEEC00A10EE100A6349088001
:1016B00062E0FFF795FD0020604908805D490870F1
:1016C0005AE000205D49088056E05B48C078012858
:1016D00052D15648B0F93A0040F26C71884210DDA0
:1016E0005248B0F93C0040F24C41884209DA4F4878
:1016F000B0F93E00884204DA4C48B0F94000884214
:1017000017DB4A48B0F9400040F26C71884230DD86
:101710004648B0F93C0040F24C41884229DA43483F
:10172000B0F93E00884224DA4048B0F93A008842D5
:101730001FDA42480088B0F5967F12DAD4ED000A2D
:101740003E48008800EE100AB8EE400A9FED3C1AB1
:1017500000EE810ABCEEC00A10EE100A374908807C
:101760000AE0FFF759FD002034490880314908702C
:1017700002E000203149088010BD10B52E48C07825
:10178000002844D12948B0F9400040F24C41884239
:1017900017DA2648B0F93C00884212DA2348B0F93B
:1017A0003E0088420DDA2148B0F93A00884208DA52
:1017B0002448007838BBFFF79AFE012021490870C1
:1017C00025E01A48B0F9400040F26C7188421BDDF8
:1017D0001648B0F93C0040F24C41884214DA1348F4
:1017E000B0F93E0088420FDA1048B0F93A0040F2F2
:1017F0006C71884208DD1348007820B9FFF790FE2D
:1018000001201049087002E000200E49087010BD48
:1018100010B52DED020B054890F8390020B9684647
:10182000FFF7D0FEFFF7A9FF1CBD0000B4090020A0
:101830008200002086000020A809002084000020EB
:1018400000007A44870000207548B0F90000642148
:1018500090FBF1F000B2734908807148B0F90200C2
:10186000642190FBF1F000B26F4908806C488088D9
:101870006E4908806E48B0F9000042F22831884273
:101880000BDD6A48B0F900004942884205DA694830
:101890000088401C00B2674908806548B0F9000024
:1018A000654988420BDA6148B0F900004942884234
:1018B00005DD60480088401E00B25E4908805B4834
:1018C000B0F90000642190FBF1F05A490988C1EB9E
:1018D000011101EB410100EBC10000B25749088042
:1018E0005248B0F90000524908805548808A55494D
:1018F00008805348C08A544908805148B0F91800FC
:10190000524908604E48B0F91A00514908604C48E5
:10191000C069504908607047B4EEE00AF1EE10FA71
:1019200002DDB0EE600A0AE0B1EE601AB4EEC10A60
:10193000F1EE10FA03D2B1EE601AB0EE410A704730
:10194000884201DD084603E04A42904200DA4842FC
:10195000704700B5404800683E490968401A00EBEE
:1019600040003E49086014213C480068FFF7E8FF4A
:101970003A49086000BD00B5394800683349096834
:10198000401A38490860142136480068FFF7D8FF2C
:101990003449086000BD00B5334800682C49096827
:1019A000401A32490860142130480068FFF7C8FF28
:1019B0002E49086000BD10B52D480068B0B9002060
:1019C00025490860234800680A280CDA294800687D
:1019D000401C2849086008460068052806DD0120EB
:1019E0002349086002E0002022490860204800687E
:1019F000012801D1FFF710FC10BD1F490988814261
:101A000005DA1D49098814311B4A118007E00021BD
:101A1000194A118019490978491C184A11707047F0
:101A200064000020880000208A0000208E00002032
:101A30009000002092000020D8DCFFFF8C000020E6
:101A4000200A00209400002096000020A000002022
:101A5000A40000209C000020A8000020BC00002062
:101A6000AC000020B4000020B0000020B80000202E
:101A7000D0000020CC0000205400002056000020A0
:101A800010B501F0F1FD0120F84981F8380081F826
:101A9000390010BD10B501F0C3FA642001F0B4FAAA
:101AA00001F096FB01F022FC642001F0ADFAF04851
:101AB00002F00DF8EE4802F004F9ED4802F022FAC7
:101AC000EB4802F008FB642001F09EFAFFF7D8FF14
:101AD00001F0EAFA642001F097FAFEF7CFFC4FF428
:101AE000487001F091FA01F0B8F801F0E7FE01202A
:101AF00010BD40F6C411884203DDDE490978032990
:101B000003DCDC4909780A290DD10021D94A11707A
:101B1000D649B1F84E10491CD44AA2F84E10012102
:101B200082F8501012E0B0F5967F0FDD40F6B83124
:101B300088420BDA02B2CD49891CCE4B1B7821F8C2
:101B40001320CC490978491CCA4A1170704738B52E
:101B50000446C9A000680090C8484068C7490860AA
:101B600001F027FAC5494860084640680968401AEC
:101B700040F6C411884202D90020C1490870C0480B
:101B800001780078401CBE4A1070BE48445410468C
:101B9000007819287ED1182011460870B9480078BD
:101BA0000F2878D1B748007E38B1B648007EB64AD3
:101BB00012781DF802108842F3D10020B049087055
:101BC000B0484078AF49897801F0070140EA012028
:101BD000A6498882AB48C0788006400DA94989781B
:101BE00040EAE100A149C882A6484079C007400DFB
:101BF000A449097940EA8100A249C97840EAA110C4
:101C00009A4908839F4880790007400D9D4949798A
:101C100040EA6100954948839A48C0794006400DE2
:101C20009849897940EA2110904988839548407AFB
:101C30008007400D9349097A40EA41009149C979EA
:101C400040EAE1108949C8838E48807AC006400D79
:101C50008C49497A40EAA100844908848948C07ABD
:101C6000C0008849897A40EA6111804841848548EA
:101C7000007B8449497B01F0070140EA01207B4950
:101C800088848048807B8006400D7E49497B40EAFD
:101C9000E10001E072E067E07449C8847948007CA3
:101CA000C007400D7749C97B40EA81007549897BAF
:101CB00040EAA1106D4908857248407C0007400D3C
:101CC0007049097C40EA6100684948856D48807C1C
:101CD0004006400D6B49497C40EA211063498885E4
:101CE0006848007D8007400D6649C97C40EA410094
:101CF0006449897C40EAE1105C49C8856148407DBF
:101D0000C006400D5F49097D40EAA1005749088699
:101D10005C48807DC0005B49497D40EA61115348C1
:101D200041865848C07D514981F83400084690F8F2
:101D3000340000F0080040B90846B0F84E00401CDE
:101D4000A1F84E00022081F850004F480078401C56
:101D50004D4908700878C11700EB91718910A0EB0C
:101D60008101494A117009E0002005E0454A411C03
:101D7000515C1154411CC8B21828F7DB38BD10B5AE
:101D80000446D4ED000A4148008800EE100AB8EE7F
:101D9000400A9FED3F1A00EE810ABCEEC00A10EE29
:101DA000100A3A49088008460088B0F57A7F39DD84
:101DB000002008802D48B0F84E002C49C8860846FF
:101DC000C08E052803DA012081F8380003E00020E6
:101DD000264981F83800254890F83800C8B12348D2
:101DE0000078D8B92B480078401C2A490870087838
:101DF00000EBD0714910A0EB4101264A117010464A
:101E00000078012802D101F0B0FC07E001F02CFCC1
:101E100004E0164890F85000144908700020134957
:101E2000A1F84E0010BD10B52DED020B6846FFF76E
:101E3000A6FF0E4890F8380000286DD10B480078B6
:101E400001280DD1002008E00849891C31F8102034
:101E5000383121F81020411CC8B20A28F4DB37E0E1
:101E600002480078022833D100202FE0B409002076
:101E700020A10700D400002004142434D80000203E
:101E8000E0000020060A0020E1000020E40000201D
:101E900000007A44E20000202A4931F91010A1F52F
:101EA000806100EE101AF8EEC00A9FED270A9FED40
:101EB000271A01EE200ABDEEC00A10EE101A0AB26F
:101EC0002049263121F81020411CC8B20A28E3DB42
:101ED0001C481438B0F94200B0F5966F06DD194879
:101EE0001438B0F94200B0F5AF6F0DDB1548143867
:101EF000B0F94200B0F5C86F0ADD12481438B0F9E5
:101F00004200B0F5E16F03DA01201149087011E0D9
:101F100000200F4908700DE001200D4908700020D5
:101F200006E000220749263121F81020411CC8B2E2
:101F30000A28F6DB064800780249143981F839008E
:101F40001CBD0000C80900200080BB442FDD243FD9
:101F5000E6000020F0EE400AF5EEC00AF1EE10FABD
:101F600002DBB0EE600A7047B1EE600AFBE700B535
:101F7000B0EE403AB0EE602AB5EEC03AF1EE10FA9B
:101F800007D1B5EEC02AF1EE10FA02D19FEDFC1A8E
:101F900099E0B0EE430AFFF7DDFFF0EE403AB0EE15
:101FA000420AFFF7D7FFF0EE402AF4EEE23AF1EEF4
:101FB00010FA02D283EEA24A01E082EEA34A9FED1C
:101FC000F10AB4EEC04AF1EE10FA02D2F0EE441A71
:101FD0002DE0DFEDED0AB6EE000A14EE200AF0EE79
:101FE000404ABDEEE40A10EE100A00EE100AB8EE08
:101FF000C00A34EEC00AF0EE404AE44901EB800129
:1020000091ED000AF0EE401AE04A411C02EB81011A
:1020100091ED000A114601EB8001D1ED000A70EE4E
:10202000600AB0EE610A00EEA40AF0EE401AF4EE87
:10203000E32AF1EE10FA20DDB5EEC02AF1EE10FA37
:102040000ADBB5EEC03AF1EE10FA02DBB0EE611A2F
:1020500039E0B1EE611A36E09FEDCD1AB5EEC03A27
:10206000F1EE10FA04DB31EE610AB0EE401A2AE01C
:1020700031EEC10AB0EE401A25E0B5EEC03AF1EEFD
:1020800010FA10DB9FEDC31AB5EEC02AF1EE10FA7C
:1020900004DB31EE610AB0EE401A14E031EE210AA1
:1020A000B0EE401A0FE09FEDBC1AB5EEC02AF1EE7B
:1020B00010FA04DB31EE210AB0EE401A03E031EEF3
:1020C000610AB0EE401AB0EE410A00BD00B5B0EEB4
:1020D000405AF0EE605AF0EE450AB0EE650AFFF79E
:1020E00046FF00BDF0EE400AF6EE001A60EEA11ABF
:1020F000B0EE611AB0EE600A10EE100AA749A1EB2B
:10210000600000EE100A21EE002AF7EE081A42EEF7
:10211000401A61EE801AB0EE610A21EE002AF7EE55
:10212000081A42EE401A61EE801AB0EE610A70475A
:1021300000B5F0EE402AB0EE620AFFF7D3FF20EEC2
:10214000220A00BD10B52DED0A8BB0EE409AF0EEDC
:10215000609A9FED930B53EC102B51EC190B0AF086
:10216000FDF918D29FED900B53EC102B51EC190B8D
:102170000AF071F941EC1B0B9FED8D0B53EC102B0A
:102180000AF0C2F841EC1A0B53EC192B0AF063F970
:1021900041EC180B17E09FED840B53EC102B51EC26
:1021A000190B0AF058F941EC1B0B9FED810B53EC16
:1021B000102B0AF04DF941EC1A0B53EC192B0AF0D5
:1021C0004AF941EC180B9FED760B53EC102B51ECB8
:1021D000180B0AF0C3F920D29FED770B53EC102BAC
:1021E00051EC180B0AF090F841EC1C0B9FED740BAE
:1021F00053EC102B0AF02FF941EC1B0B9FED6E0BEB
:1022000053EC102B0AF080F841EC1A0B53EC182B0E
:102210000AF021F941EC180B1FE09FED670B53EC1E
:10222000102B51EC180B0AF010F941EC1C0B9FED30
:10223000660B53EC102B0AF00EF941EC1B0B9FEDD3
:102240005E0B53EC102B0AF05FF841EC1A0B53ECC9
:10225000182B0AF000F941EC180BB0EE480AF0EE2A
:10226000680ABDEC0A8B10BD10B52DED068BB0EEE3
:10227000408AF0EE608A01249FED550B53EC102B41
:1022800051EC180B0AF082F90AD89FED510B53EC70
:10229000102B51EC180B0AF0D8F841EC180BA41EC7
:1022A00020460AF04AF941EC190BB0EE480AF0EE6C
:1022B000680AFFF747FFB0EE40AAF0EE60AA53ECC1
:1022C000192B51EC1A0B0AF0C6F841EC100BBDECBF
:1022D000068B10BD10B52DED088BB0EE408AF0EEE8
:1022E000608A01249FED3C0B53EC102B51EC180B32
:1022F0000AF00AF841EC180B9FED350B53EC102B4C
:1023000051EC180B0AF042F90AD8A41E9FED300BCD
:1023100053EC102B51EC180B0AF097F841EC180B0A
:1023200020460AF00AF941EC1A0BB0EE480AF0EE2A
:10233000680AFFF799FFB0EE40BAF0EE60BA53ECCE
:102340001A2B51EC1B0B0AF086F841EC190B0AF022
:1023500035F900EE100ABDEC088B10BDF0EE401A06
:10236000F4EEE01AF1EE10FA3ADD31EEC10AB4EE05
:10237000E00AF1EE10FA3CD2B0EE600A39E000005B
:10238000000000008180803B0000804318C80008E6
:10239000DB0F4940DB0FC93FDB0FC9BFDF59375F98
:1023A0000000000000000000000000602FF0D93F96
:1023B00000000060305FF43F000000000000F03FCC
:1023C000000000C0CCCCCCBF000000C0CCCCCC3FC7
:1023D000F1D4C853FB210940F1D4C853FB21F93F84
:1023E00031EE810AB4EEE00AF1EE10FA01DDB0EE52
:1023F000600A7047F0EE401AB1EE412A32EE202A10
:10240000B4EEE12AF1EE10FA09D231EE202AB4EE50
:10241000E12AF1EE10FA02DDB0EE600A01E0B0EE62
:10242000610A7047F0EE402AB5EEC01AF1EE10FADC
:1024300002DDB0EE410A01E0B1EE410AB6EE003A2B
:1024400022EE033A23EE213AB4EEC30AF1EE10FA7B
:1024500006D29FEDD40A20EE800AF0EE400A4DE04D
:10246000B5EEC01AF1EE10FA02DDB0EE410A01E05D
:10247000B1EE410A22EE213AB4EEC30AF1EE10FAAF
:1024800006D29FEDC90A20EE800AF0EE400A35E040
:10249000B5EEC01AF1EE10FA02DDB0EE410A01E02D
:1024A000B1EE410AB4EEE10AF1EE10FA06D2B6EE50
:1024B000000A20EE800AF0EE400A1FE0B5EEC01AD6
:1024C000F1EE10FA02DDB0EE410A01E0B1EE410A90
:1024D000B0EE003A21EE833AB4EEC30AF1EE10FA00
:1024E00006D29FEDB20A20EE800AF0EE400A05E027
:1024F0009FEDAF0A20EE800AF0EE400A9FEDAD0A94
:1025000020EE800A20EE223AF7EE003A83EE830AAC
:10251000B7EE003A30EE030AF7EE003A83EE803A67
:1025200090ED000A71EE403A90ED000A03EE230AA6
:1025300080ED000A90ED000AB1EE423A23EE213A16
:10254000B4EEC30AF1EE10FA04D8B1EE420A20EE5E
:10255000210A0DE090ED000A22EE213AB4EEC30A02
:10256000F1EE10FA02DD22EE210A01E090ED000A00
:1025700080ED000A90ED000A31EE400A704710B578
:102580002DED028BB0EE408AF0EE608A9FED8A0B53
:1025900053EC102B51EC180B09F0F8FF0CD29FED07
:1025A000880B53EC102B51EC180B09F04EFF41EC4B
:1025B000100BBDEC028B10BD9FED830B53EC102B69
:1025C00051EC180B09F0CAFF0AD29FED7D0B53ECBA
:1025D000102B51EC180B09F097FE41EC100BE8E7BB
:1025E000B0EE480AF0EE680AE3E730B505460C465F
:1025F000F0EE403AD5ED000A60EEA00A94ED001A24
:10260000D4ED001A41EE210AB0EE600AFFF790FD0A
:10261000B0EE403AB5EEC03AF1EE10FA02D81FED36
:10262000A80A09E0B4EEE33AF1EE10FA02DDB0EEEA
:10263000630A01E0B0EE430AB0EE404AB5EEC03A9C
:10264000F1EE10FA06D11FEDB20A83ED000A82ED19
:10265000000A0FE084EE030AD5ED000A20EE200AFE
:1026600082ED000A84EE030AD4ED000A20EE200A6F
:1026700083ED000A30BDF0EE400A0B7802EB8303D5
:10268000C3ED000A0B785B1C0B700B78834201DBF7
:1026900000230B700B7802EB830393ED000A704765
:1026A00000B50246B0EE403A0B46F7EE000A43EEA4
:1026B000430AB0EE600AFFF73BFDD2ED000A20EEC0
:1026C000200AD2ED010A00EEC30A83ED000AF7EEFC
:1026D000000A43EE430AB0EE600AFFF729FDD2ED8F
:1026E000010A20EE200AD2ED000A00EE830A83EDF3
:1026F000010A00BD90ED000AD1ED010A20EE200A8A
:10270000D0ED010A91ED001A00EEC10A704790ED7C
:10271000000AD1ED000A20EE200AD0ED010A91ED69
:10272000011A00EE810A704790ED010AD1ED020A0C
:1027300020EE200AD0ED020A91ED011A00EEC10A46
:1027400082ED000A90ED020AD1ED000A20EE200A87
:10275000D0ED000A91ED021A00EEC10A82ED010AE5
:1027600090ED000AD1ED010A20EE200AD0ED010A19
:1027700091ED001A00EEC10A82ED020A704790ED59
:10278000000AD1ED000A20EE200AD0ED010A91EDF9
:10279000011A00EE810AD0ED020A91ED021A00EE54
:1027A000810A70479A99993FCDCC4C3FCDCC4C3E95
:1027B000CDCCCC3DC3F5C840000000000080664091
:1027C000000000000080764000000000008066C02D
:1027D00008B5C648D0ED000A9FEDC51AF4EEC10A4F
:1027E000F1EE10FA0BD2D0ED000AB7EE001A70EE3F
:1027F000810AC0ED000A0120BE49887002E0002075
:10280000BC498870B948D0ED010A9FEDB91AF4EEC1
:10281000C10AF1EE10FA0BD2D0ED010AB7EE001AA0
:1028200070EE810AC0ED010A01208DF8000002E07F
:1028300000208DF80000AD48D0ED020A9FEDAC1AE3
:10284000F4EEC10AF1EE10FA0BD2D0ED020AB7EEA7
:10285000001A70EE810AC0ED020A01208DF8010015
:1028600002E000208DF801009DF8000030B19DF8D5
:10287000010018B101209F49C87002E000209D4965
:10288000C87008BD30B500220024C5788B1F9D425A
:1028900000D030BD002306E0C55C1544EAB2A5189F
:1028A000ECB25D1CEBB28D1E9D42F5DC431813F8B3
:1028B000023C934204D1431813F8013CA34200D0D8
:1028C000E7E78378512B38D103795BB94379894D98
:1028D0006B7183795BB2AB71C3795BB2EB71037AD5
:1028E0002B7183E00379012B12D14379814D2B7237
:1028F000C3886B810389AB81837A2B719FED7E0A3C
:102900007A4B83ED010A2B461B785B1C2B706DE024
:102910000379022B6AD14379764DAB73C3882B823E
:1029200003896B824389AB828389EB82C3892B83C2
:10293000038A6B83837C2B7158E08378342B0DD111
:10294000D0F807306B4DEB619FED6B0A674B83ED61
:10295000020A2B465B785B1C6B7047E08378012B87
:102960000DD18388634D2B86C3886B860389AB8624
:102970004389EB8683892B87C3896B8736E083780D
:10298000042B33D1B0F9043000EE103AB8EEC00A8F
:10299000DFED5A0A20EE200A564B83ED080AB0F903
:1029A000063000EE103AB8EEC00ADFED540A20EE11
:1029B000200A504B83ED090AB0F9083000EE103AB6
:1029C000B8EEC00ADFED4D0A20EE200A494B83ED38
:1029D0000A0AB0F90A3000EE103AB8EEC00ADFED8C
:1029E000470A20EE200A434B83ED0B0A00BF50E755
:1029F00010B504464248007838B9AA2C05D1012008
:102A00003F4908703F4804706FE03D480078012856
:102A100009D1612C01D0FF2C05D102203849087062
:102A20003848447061E036480078022805D1032018
:102A3000334908703348847057E0314800780328E0
:102A40000CD1FA2C0ADA04202D4908702D48C470E4
:102A50002D48047000202D49087046E02848007871
:102A6000042819D128480078002815DD2648007868
:102A7000401E254908702548007824490978491CDA
:102A8000224A1170001D1F490C541F48007840BB9A
:102A900005201B49087028E01948007805280DD149
:102AA0000620174908701948007818490978491C08
:102AB000164A1170001D13490C5416E01048007896
:102AC00006280FD100200E49087010480078001D1C
:102AD0000C490C540D480078401DC1B20948FFF75D
:102AE000D1FE02E000200649087010BD900A0020C7
:102AF0000000FA43200A00200000000017B7D13878
:102B0000E90000205C0A0020E7000020E800002027
:102B10000146D548007800287ED00022D24B1A709A
:102B2000D24A1288C832D14B1A80D14A127DD14B79
:102B30005A76CF4AD37DCF4A9376CD4A9369CD4A10
:102B4000C2F81B30CA4AD369CA4AC2F81F30C84A01
:102B5000526A0A2392FBF3F3C64AC2F82330C44AEE
:102B6000126B0A2392FBF3F213B2C24AA2F8273087
:102B7000BF4A526B0A2392FBF3F213B2BD4AA2F88A
:102B80002930BB4A926B0A2392FBF3F213B2B94A83
:102B9000A2F82B30B64AB2F84C2000EE102AB8EE5C
:102BA000400ADFEDB50A20EE200ABCEEC00A10EEA6
:102BB000100A08B9002204E0C82801D9C82200E0A0
:102BC00002461046AB4A82F82D00A94A526C00EE2C
:102BD000102AB8EE400ADFEDA80A20EE200ABCEE6B
:102BE000C00A10EE100A08B9002204E0C82801D972
:102BF000C82200E0024610469E4A82F82E009C4AF7
:102C0000D26A00EE102AB8EE400ADFED9B0A20EEF1
:102C1000200ABCEEC00A00E012E010EE100A08B96B
:102C2000002204E0C82801D9C82200E0024610466C
:102C3000904A82F82F000123904A82F8213100BF88
:102C4000704710B50E218E4800F0C2FE10BD10B5C1
:102C50000E218C4800F0BCFE10BD10B5642000F0C1
:102C6000D3F94FF4165000F038FE322000F0CCF9C2
:102C70001C21854800F0ACFE642000F0C5F94FF43B
:102C8000964000F02AFE322000F0BEF91C217E485A
:102C900000F09EFE642000F0B7F94FF4164000F0FB
:102CA0001CFE322000F0B0F91C21774800F090FEA5
:102CB000642000F0A9F94FF4E13000F00EFE14207A
:102CC00000F0A2F90B21714800F082FE142000F000
:102CD0009BF90B216E4800F07BFE142000F094F964
:102CE0000B216C4800F074FE142000F08DF90B21CC
:102CF000694800F06DFE142000F086F90B2167484A
:102D000000F066FE142000F07FF90B21644800F00B
:102D10005FFE142000F078F9FFF793FF10BD10B5A7
:102D20000146002000225F4B1B782BB9B52903D147
:102D300001235C4C237095E05A4B1B78012B05D185
:102D4000622903D10223574C23708BE0554B1B782B
:102D5000022B05D10323534C2370534B197081E090
:102D6000504B1B78032B05D104234E4C23704F4B43
:102D7000197077E04B4B1B78042B05D10523494C88
:102D800023704B4B19706DE0464B1B78052B10D10F
:102D90000623444C2370464B1B7803EB0123454C20
:102DA000238023461B88622B5CDB00233D4C237071
:102DB00058E03C4B1B78062B54DB3A4B1B789B1F8F
:102DC0003C4C2488A41CA3420ADA364B1B789B1F78
:102DD000274CE154334B1B785B1C324C237041E091
:102DE000314B1B780344D8B21318DAB22F4B1B783F
:102DF0000344D8B21318DAB22E4B1B780344D8B26E
:102E00001318DAB22B4B1B8800EB1323D8B213181C
:102E1000DAB2002307E0164CE45C0444E0B2141874
:102E2000E2B25C1CE3B2234C2488A342F3DB104BD8
:102E3000204C24881B5D834211D10D4C1D4B1B88F7
:102E40005B1CE35C93420AD1174B1B78012B06D124
:102E5000164B1B78072B02D10123034C2370002350
:102E6000104C237010BD0000EA000020EC00002090
:102E70009C0A0020780900200AD7233C2402002065
:102E8000EE000020FC000020260100205701002059
:102E9000620100206D0100207801002083010020E4
:102EA0008E0100209F010020990100209A0100203E
:102EB0009B0100209C010020704700BFFEE700BF7F
:102EC000FEE700BFFEE77047704710B5802003F0B3
:102ED000C4FE10B1802003F016FF10BD10B500F045
:102EE0001BFC10BD704710B50121114807F0ABFD68
:102EF00028B101210E4807F003FEFEF77BF810BD54
:102F000010B500F0ADFD10BD10B500F09EFE10BD77
:102F100010B500F0BBFF10BD10B501F0A0F810BD5A
:102F200010B501F0B0F910BD10B500F071FC10BD86
:102F3000001400407FB5684604F0C1FD4FF47A717B
:102F40000198B0FBF1F4E4082146B1F1807F00D391
:102F50001DE021F07F40401E4FF0E02250615017ED
:102F60000F22002807DA13071E0E314B00F00F0561
:102F70002D1F5E5503E013071D0E2E4B1D5400BF81
:102F800000204FF0E02290610720106100BF6FF039
:102F9000040001F095FB7FBD2748D0E900305A1CA2
:102FA00040F100002449C1E9002070472248006830
:102FB000704710B500BF204A11684FF0E0225269F7
:102FC0004FF0E0239B69D21A4FF47A735A434FF0C3
:102FD000E0235B69B2FBF3F201EB4103C3EBC113E6
:102FE00002EBC300144C18CC4B402343E3D110BD7B
:102FF00030B50446FFF7DDFF054600BFFFF7D9FFF8
:10300000401BA042FAD330BD10B5044603E04FF494
:103010007A70FFF7EDFF201EA4F10104F7D110BD77
:1030200010B54FF4806001F099FAFFF783FF10BDEF
:1030300018ED00E000E400E0A001002000B58FB032
:10304000684602F096FD0121880504F050FE00BF9D
:10305000564803F0ABF80028FAD10090544801908C
:1030600054480290002003903220049000200590E4
:103070004FF48060069040000790800008900001A7
:103080000A904012099000200B9001200C90002023
:103090000D900E906946454802F015FC0121434809
:1030A00002F078FD0FB000BD00B58DB001A801F0B1
:1030B00009FC0121042004F01AFE0121080204F099
:1030C000FCFEFFF7BBFF03208DF8300020200B90A3
:1030D00000208DF833000BA9374803F0B9FE00201B
:1030E000099007904FF48030089000200A9007A8BC
:1030F00001F0F2FB002001908DF8080001208DF80E
:10310000090000200390059001208DF8180001A906
:1031100027484C3801F00DFB072301220F212448DA
:103120004C3801F09EFD012121484C3801F077FF19
:1031300001211F484C3801F080FC01211C484C380B
:1031400001F047FF1A484C3801F057FE0DB000BDA2
:103150009FED1A0AF0EE400A002010E0154931F800
:10316000101000EE101AB8EE401ADFED151AB0EE8E
:10317000600A01EE210AF0EE400A411CC8B2322872
:10318000ECDB9FED101A80EE810A9FED0F1A20EE06
:10319000010AB2EE061A20EE010AF7EE001A80EEDE
:1031A000211A9FED0A0A21EE000A704710640240BE
:1031B0004C200140000B00200008024000000000ED
:1031C0000AD7A33C0000804500404E456F12833A69
:1031D0001CB5684603F0E7FE0121102004F087FDCE
:1031E00001208DF804008DF8070000208DF80600FE
:1031F00002208DF80500072000906946384803F04A
:1032000027FE01208DF804008DF8060002208DF8BD
:103210000500802000906946314803F019FE022124
:103220002F4804F04BF801212D4804F047F8042101
:103230002B4804F043F88021294804F03FF81CBDD6
:1032400000F0010119B10221254A118302E0022197
:10325000234A518300F0020119B10121204A118350
:1032600002E001211E4A518300F0040119B104213A
:103270001B4A118302E00421194A518300F008011E
:1032800019B18021164A518302E08021144A11832A
:10329000704700B500201DE0124931F81010124AA5
:1032A0001256914204DA0121814019438BB202E0A7
:1032B000012181408B430B4931F81010491C89B220
:1032C000084A22F81010142902DB002122F81010FD
:1032D000411CC8B20428DFDB1846FFF7B1FF00BD70
:1032E00000100240AC010020A801002030B58BB0D6
:1032F0000025D44C01A803F056FE08A805F063F998
:1033000003A805F09CFF012C01D8012004E0CE4861
:10331000844200D900E0204604460121082004F040
:10332000A9FD0121022004F0C8FD0121084604F096
:10333000C4FD0121152004F0DAFC0C2001900220CC
:103340008DF8080003208DF8090000208DF80A0090
:1033500001208DF80B0001A9BC4803F079FD022281
:103360001146BA4804F088F802220321B74804F055
:1033700083F8B74800684008B0FBF4F0401E85B2FF
:1033800042F210700990ADF820500020ADF82800EE
:10339000ADF8220008A9AF4805F08AF86020ADF822
:1033A0000C000020ADF818000120ADF80E004FF41D
:1033B0007A60059003A9A74805F0E8FD0821A54813
:1033C00006F0B1F90120ADF80E004FF47A600590D7
:1033D00003A9A04805F0A2FE08219E4806F0CFF9F7
:1033E00001219C4805F0E9FA01219A4805F0D1FB3A
:1033F0004FF4D440019002208DF8080003208DF88E
:10340000090000208DF80A0001208DF80B0001A9A9
:10341000914803F01DFD012209218F4804F02CF88A
:1034200001220B218C4804F027F801220D218A4843
:1034300004F022F801220E21874804F01DF8844888
:103440000068B0FBF4F0401E85B242F210700990A3
:10345000ADF820500020ADF82800ADF822008DF81E
:103460002A0008A97D4805F023F86020ADF80C007B
:103470000020ADF81000ADF818000820ADF81A00D3
:103480004001ADF81C000020ADF81E000120ADF891
:103490000E004FF47A60059003A9704805F0C1FB57
:1034A00008216E4806F0CBF84FF47A60059003A926
:1034B0006A4805F07EFC0821684806F0FEF84FF4E3
:1034C0007A60059003A9654805F060FD082163480E
:1034D00006F029F94FF47A60059003A95F4805F0DA
:1034E0001DFE08215D4806F04AF901215B4807F0FE
:1034F000FCF80121594805F060FA0121574805F010
:1035000048FB4FF44070019002208DF80800032022
:103510008DF8090000208DF80A0001208DF80B00BD
:1035200001A94F4803F094FC032208214C4803F002
:10353000A3FF032209214A4803F09EFF4448006884
:10354000B0FBF4F0401E85B242F210700990ADF865
:1035500020500020ADF82800ADF822008DF82A0098
:1035600008A9404804F0A4FF6020ADF80C0000203A
:10357000ADF81000ADF818000820ADF81A004001B1
:10358000ADF81C000020ADF81E004FF47A600590E5
:1035900003A9344805F0FAFC0821304806F0C3F8C6
:1035A0004FF47A60059003A92E4805F0B7FD082175
:1035B0002A4806F0E4F801212A4807F096F801218C
:1035C000284805F0FAF90121264805F0E2FA0BB087
:1035D00030BDB0F90010890001F57A611F4A11640D
:1035E000B0F90210890001F57A61D163B0F90410D5
:1035F000890001F57A619163B0F90610890001F53F
:103600007A615163B0F90810890001F57A61114AB5
:1036100040321160B0F90A10890001F57A61121F79
:103620001160B0F90C10890001F57A610D4A403241
:103630001160B0F90E10890001F57A61121F116056
:103640007047000000093D0000BD01050000024078
:10365000CC010020000C004000100240000001409E
:10366000000802400004014000B587B005A803F03F
:103670009AFC02A806F0BBFE0121022004F0FAFB2E
:103680000121042004F033FB1D208DF804000220EA
:103690008DF8050001208DF806008DF8070001A8BF
:1036A00000F077FF8020059002208DF8180003209D
:1036B0008DF8190000208DF81A0002208DF81B00EB
:1036C00005A95D4803F0C4FB022207215A4803F014
:1036D000D3FE5320594908800420ADF808000A2081
:1036E000ADF80A000120ADF80C000020ADF80E0086
:1036F000ADF8100002A95148283806F092FD0121CA
:103700004E48283805F045FA012204214B48283854
:1037100007F05AF807B000BD10B5484818380088BF
:1037200000F0040000B34FF6FB70444918390880DC
:103730004FF6FF30088040481030006800F08000ED
:1037400090B93E48283806F0FEFE3D4908800846FC
:1037500000884988401A84B22046FEF7CAF93848E2
:1037600000883749488000BF10BD00B587B0684663
:1037700003F019FC0121202004F09FFB012104200B
:1037800004F0B5FA47208DF8080004208DF80900F0
:1037900001208DF80A008DF80B0002A800F0F9FE58
:1037A00008220721244803F067FE802000900220B1
:1037B0008DF804008DF8050001208DF8060000202A
:1037C0008DF8070069461C4803F042FB1D48039032
:1037D0000020ADF810004FF40050ADF81200C010FA
:1037E000ADF814000020ADF818000420ADF8160064
:1037F00003A9154807F0DBFE012240F225511248CB
:1038000008F071FB0121104808F01AF807B000BD5C
:1038100010B540F225510C4808F08BFC58B140F22D
:103820002551094808F010FD0748001D0088C4B262
:103830002046FEF78CF910BD000802402804004025
:10384000B4010020A0860100001401403EB50446EA
:103850000121202004F00EFB1E4804F04DFD0194D0
:103860005320ADF800000020ADF80800ADF80200CC
:103870006946184804F01CFE0121164807F0ADF80F
:1038800001221146134806F09FFF0121114805F05F
:1038900080F90021202004F0EDFA3EBD08B5372064
:1038A0008DF8000007208DF8010001208DF802003E
:1038B0008DF80300684600F06CFE08BD10B54FF4AB
:1038C0007A70FFF7C3FFFFF7E9FF0121202004F022
:1038D000D1FA10BD00140040704710B58AB00446FC
:1038E00006A807F048FF0121102004F0E6FA0121A4
:1038F000084604F0FCF925208DF80C0003208DF813
:103900000D0000208DF80E0001208DF80F0003A897
:1039100000F03FFE07220921FE4803F0ADFD07221B
:103920000A21FC4803F0A8FD4FF40070019002202A
:103930008DF808008DF8090000208DF80A0001209C
:103940008DF80B0001A9F34803F082FA4FF4806070
:10395000019002208DF808008DF8090001208DF8F3
:103960000A0000208DF80B0001A9EA4803F070FA64
:10397000E94807F0B7FD06940020ADF81C00ADF84B
:103980001E00ADF82000ADF824000C20ADF8220098
:103990000020ADF81000ADF812004FF40070ADF843
:1039A00014000020ADF8160006A9DB4807F0FFFD63
:1039B00004A9D94807F0EBFE012240F22551D64870
:1039C00008F091FA0121D44807F03AFF0AB010BD7F
:1039D00070B505460E4600240AE0295DCF480278FE
:1039E0000078401CCD4B1870CD488154601CC4B287
:1039F000B442F2DBC848808900F0800028B9012277
:103A000040F22771C44808F06EFA70BDC5490A78C3
:103A10000978491CC34B1970C34988541946097861
:103A2000642902DB00211A461170704710B510E0BE
:103A3000BE490A780978491CBC4B1970BA49885CA0
:103A4000FFF76DF9B9480078642802DB0020B74918
:103A50000870B4480078B54909788842E8D110BDAB
:103A600010B5AD48008800F0080010B1AA48808861
:103A7000C4B240F22551A84808F05BFB50B140F2B7
:103A80002551A54808F0E0FBA3488088C4B2204631
:103A9000FFF7BCFF40F227719F4808F04AFBA8B12E
:103AA000A34801780078401CA14A10709C48405CF3
:103AB000994988801046007898490978884205D14C
:103AC0009548808920F080009349888110BD10B509
:103AD0008AB0044606A807F04EFE0121480404F00F
:103AE000C9F90121082004F002F926208DF80C0004
:103AF00004208DF80D0001208DF80E008DF80F00C8
:103B000003A800F046FD072205218A4803F0B4FC13
:103B100007220621874803F0AFFC202001900220F5
:103B20008DF808008DF8090000208DF80A000120AA
:103B30008DF80B0001A97F4803F08AF9402001901D
:103B400002208DF808008DF8090001208DF80A0088
:103B500000208DF80B0001A9764803F079F906944E
:103B60000020ADF81C00ADF81E00ADF82000ADF847
:103B700024000C20ADF822000020ADF81000ADF8B4
:103B800012004FF40070ADF814000020ADF81600DC
:103B900006A9694807F00BFD04A9674807F0F7FD7F
:103BA000012240F22551644808F09DF90121624844
:103BB00007F046FE0AB010BD70B505460E4600245B
:103BC0000AE0295D5D4802780078401C5B4B187064
:103BD0005B488154601CC4B2B442F2DB56480C30DE
:103BE000008800F0800028B9012240F22771524875
:103BF00008F079F970BD53490A780978491C514B8E
:103C000019705149885419460978642902DB00214A
:103C10001A461170704700B510E04C490A780978CF
:103C2000491C4A4B19704849885CFFF755FE4748C4
:103C30000078642802DB002044490870414800787D
:103C4000424909788842E8D100BD10B53A48008859
:103C500000F0080018B13848001D0088C4B240F2D6
:103C60002551354808F065FA58B140F225513248DF
:103C700008F0EAFA3048001D0088C4B22046FFF779
:103C8000BAFF40F227712C4808F053FAC0B130480F
:103C900001780078401C2E4A10702948405C264963
:103CA000091D08801046007824490978884207D108
:103CB00021480C30008820F080001F490C3108801A
:103CC00010BD10B58AB0044606A807F054FD0121C6
:103CD000880404F0CFF80121022004F008F827201E
:103CE0008DF80C0002208DF80D0000208DF80E00DC
:103CF00001208DF80F0003A800F04BFC07220A21D9
:103D0000144803F0B9FB07220B21124803F0B4FB5F
:103D100022E000000000024000100140B901002034
:103D2000640B0020BA010020640C0020BB010020BD
:103D3000B8010020000C024000440040BD010020FA
:103D4000C80C0020BE010020C80D0020BF010020CB
:103D5000BC010020000402404FF48060019002206A
:103D60008DF808008DF8090000208DF80A00012068
:103D70008DF80B0001A9FE4803F06AF84FF40060CB
:103D8000019002208DF808008DF8090001208DF8BF
:103D90000A0000208DF80B0001A9F54803F058F83F
:103DA00006940020ADF81C00ADF81E00ADF8200010
:103DB000ADF824000C20ADF822000020ADF8100072
:103DC000ADF812004FF40070ADF814000020ADF80B
:103DD000160006A9E74807F0EAFB04A9E54807F042
:103DE000D6FC012240F22551E24808F07CF801217E
:103DF000E04807F025FD0AB010BD70B505460E4637
:103E000000240AE0295DDC4802780078401CDA4B87
:103E10001870DA488154601CC4B2B442F2DBD54851
:103E20000C30008800F0800028B9012240F2277190
:103E3000D04808F058F870BDD1490A780978491C73
:103E4000CF4B1970CF49885419460978642902DB91
:103E500000211A461170704700B510E0CA490A786F
:103E60000978491CC84B1970C649885CFFF734FDB6
:103E7000C5480078642802DB0020C3490870C048A8
:103E80000078C14909788842E8D100BD10B5B94829
:103E9000008800F0080018B1B648001D0088C4B2C0
:103EA00040F22551B34808F044F958B140F2255189
:103EB000B04808F0C9F9AF48001D0088C4B22046D8
:103EC000FFF7BAFF40F22771AA4808F032F9C0B1F3
:103ED000AE4801780078401CAC4A1070A748405C9E
:103EE000A449091D088010460078A3490978884232
:103EF00007D1A0480C30008820F080009D490C318B
:103F0000088010BD10B588B0044604A807F033FC43
:103F10000121C80403F0AEFF0121084603F0E7FECB
:103F200034208DF80C0003208DF80D0001208DF851
:103F30000E008DF80F0003A800F02BFB08220021D3
:103F4000934803F099FA08220121914803F094FA6A
:103F50000120019002208DF808008DF80900002052
:103F60008DF80A0001208DF80B0001A9884802F0A5
:103F70006FFF022001908DF808008DF809000120E4
:103F80008DF80A0000208DF80B0001A9804802F08E
:103F90005FFF04940020ADF81400ADF81600ADF8F2
:103FA0001800ADF81C000C20ADF81A0004A97948DF
:103FB00007F0FDFA012240F22551764807F093FF01
:103FC0000121744807F03CFC08B010BD70B50546EF
:103FD0000E4600240AE0295D6F4802780078401CF4
:103FE0006D4B18706D488154601CC4B2B442F2DB52
:103FF00068480C30008800F0800028B9012240F2A7
:104000002771644807F06FFF70BD65490A78097829
:10401000491C634B1970634988541946097864290F
:1040200002DB00211A461170704710B510E05E499E
:104030000A780978491C5C4B19705A49885CFEF76C
:10404000D7FC59480078642802DB002056490870E4
:1040500053480078544909788842E8D110BD10B51A
:104060004C48008800F0080018B14A48001D00883C
:10407000C4B240F22551474808F05BF858B140F20D
:104080002551444808F0E0F84248001D0088C4B2B9
:104090002046FFF7BAFF40F227713E4808F049F882
:1040A000C0B1424801780078401C404A10703B483B
:1040B000405C3849091D0880104600783649097867
:1040C000884207D133480C30008820F08000314905
:1040D0000C31088010BD10B588B0044604A807F064
:1040E0004AFB0121080503F0C5FE0121042003F06D
:1040F000FEFD0121082003F0FAFD35208DF80C00AB
:1041000001208DF80D0000208DF80E0001208DF8A3
:104110000F0003A800F03DFA08220C21244803F008
:10412000ABF908220221234803F0A6F94FF480508E
:10413000019002208DF808008DF8090000208DF80C
:104140000A0001208DF80B0001A9194802F080FE39
:104150000420019002208DF808008DF8090001204C
:104160008DF80A0000208DF80B0001A9114823E00A
:104170000004024000480040C10100202C0E002035
:10418000C20100202C0F0020C3010020C00100202C
:1041900000000240004C0040C5010020900F0020AC
:1041A000C601002090100020C7010020C40100209B
:1041B00000080240000C024002F04AFE0494002075
:1041C000ADF81400ADF81600ADF81800ADF81C00FD
:1041D0000C20ADF81A0004A94C4807F0E8F90122B8
:1041E00040F22551494807F07EFE0121474807F07B
:1041F00027FB08B010BD70B505460E4600240AE046
:10420000295D434802780078401C414B18704148B2
:104210008154601CC4B2B442F2DB3C48808900F097
:10422000800028B9012240F22771384807F05BFE70
:1042300070BD39490A780978491C374B19703749DC
:10424000885419460978642902DB00211A46117046
:10425000704710B510E032490A780978491C304B94
:1042600019702E49885CFCF764FA2D4800786428A0
:1042700002DB00202A49087027480078284909787D
:104280008842E8D110BD10B52048008800F0080031
:1042900010B11E488088C4B240F225511B4807F077
:1042A00048FF50B140F22551184807F0CDFF17489C
:1042B0008088C4B22046FFF7BCFF40F22771134844
:1042C00007F037FFA8B1174801780078401C154A5D
:1042D00010701048405C0D498880104600780C49E9
:1042E0000978884205D10948808920F08000074973
:1042F000888110BD10B5FFF799FBFFF78CFCFFF725
:10430000ABFDFFF792FEFFF7A4FF10BD0050004089
:10431000C9010020F4100020CA010020F41100207F
:10432000CB010020C801002006488047064800470E
:10433000FEE7FEE7FEE7FEE7FEE7FEE7FEE7FEE755
:10434000FEE7FEE729440008890100080CB50020BB
:10435000019000907648006840F48030744908600D
:1043600000BF7348006800F4003000900198401CC2
:104370000190009818B90198B0F5A06FF1D16C4880
:10438000006800F4003010B10120009001E000202E
:1043900000900098012846D165484030006840F000
:1043A00080506349403108606248006840F48040B2
:1043B000604908605E48083000685D49083108605F
:1043C0000846006840F4004008600846006840F471
:1043D000A05008605848091F0860081F006840F096
:1043E0008070091F086000BF5148006800F000702D
:1043F0000028F9D040F20560504908604C48083068
:10440000006820F003004A49083108600846006847
:1044100040F00200086000BF45480830006800F026
:104420000C000828F8D10CBD10B54548006840F4D0
:104430007000434908603E48006840F001003C4974
:10444000086000203A4908310860394800683D4951
:104450000840374908603C48091D0860081F00688B
:1044600020F48020091F0860002031490C310860C9
:10447000FFF76CFF4FF0006031498039086010BDD4
:1044800070B500200022022300240221284D0835A7
:104490002D6805F00C0020B1042806D0082834D17E
:1044A00007E02A4D2A4E356033E02A4D284E35600C
:1044B0002FE01F4D2D1D2D68C5F380541C4D2D1D63
:1044C0002D6805F03F0154B1224DB5FBF1F5184EB2
:1044D000361D3668C6F3881605FB06F209E01B4D4B
:1044E000B5FBF1F5124E361D3668C6F3881605FB8E
:1044F00006F20F4D2D1D2D68C5F301456D1C6B0097
:10450000B2FBF3F5124E356003E0104D104E3560EE
:1045100000BF00BF064D08352D68C5F303150E4ECC
:10452000705D0B4D2D68C540094E356070BD0000B3
:10453000003802400070004008544007003C024030
:1045400088ED00E0FFFFF6FE103000240024F400A8
:10455000CC01002000127A00D001002010B50446E2
:10456000B4F5E06F0BD0B4F5C06F08D0B4F5A06F10
:1045700005D0B4F5806F02D0B4F5407F00D103E0E0
:1045800073215F48FBF70CFE5E4820435E490860DC
:1045900010BD2DE9F0410446002500270F26E078E4
:1045A00010B1E078012800D103E087215448FBF7DF
:1045B000F7FD6078102800DA03E088215048FBF707
:1045C000EFFDA078102800DA03E089214C48FBF7C2
:1045D000E7FDE07818B34C48006800F4E060C0F5EF
:1045E000E060C0F30725C5F10400C7B22E41607832
:1045F000B840C5B2A078304005432807050E4348AF
:1046000021784554207800F01F010120884021784E
:104610004911890001F1E021C1F8000109E0207889
:1046200000F01F010120884039492278521141F8D9
:104630002200BDE8F08170B504460D46B4F1005F7C
:1046400002D0B4F1006F00D103E0B1212C48FBF798
:10465000A7FD3048854200D203E0B2212848FBF78D
:104660009FFD2D4905EA010020432749091F0860E5
:1046700070BD70B504460D46102C03D0042C01D03B
:10468000022C00D103E0C4211D48FBF789FD0DB1C8
:10469000012D00D103E0C5211948FBF781FD3DB193
:1046A0001948001D006820431749091D086006E0ED
:1046B0001548001D0068A0431349091D086070BD1E
:1046C00010B50446042C01D0601D00B903E0DC21C4
:1046D0000B48FBF765FD042C08D14FF0E020006982
:1046E00040F004004FF0E021086107E04FF0E020C7
:1046F000006920F004004FF0E021086110BD0000C7
:104700001CCC00080000FA050CED00E000E400E01D
:1047100080E100E0FFFF0F0080FFFF1F10B50121C7
:10472000080203F08DFC00214FF4807003F088FC38
:1047300010BD2DE9F04105460C4600260027F7483C
:10474000854205D0F648854202D0F648854200D120
:1047500003E0E921F448FBF723FD206858B1206805
:10476000B0F1807F07D02068B0F1007F03D02068CF
:10477000B0F1407F00D103E0EA21EB48FBF710FDE8
:10478000207910B12079012800D103E0EB21E6481F
:10479000FBF706FD607910B16079012800D103E0D4
:1047A000EC21E148FBF7FCFCA06858B1A068B0F12F
:1047B000805F07D0A068B0F1005F03D0A068B0F1BF
:1047C000405F00D103E0ED21D748FBF7E9FCE0684A
:1047D000D8B3E068B0F1807F37D0E068B0F1007FF7
:1047E00033D0E068B0F1407F2FD0E068B0F1806F47
:1047F0002BD0E068B0F1A06F27D0E068B0F1C06FB7
:1048000023D0E068B0F1E06F1FD0E068B0F1006F36
:104810001BD0E068B0F1106F17D0E068B0F1206FE6
:1048200013D0E068B0F1306F0FD0E068B0F1406FA6
:104830000BD0E068B0F1506F07D0E068B0F1606F66
:1048400003D0E068B0F1706F00D103E0EE21B6480C
:10485000FBF7A6FC206918B12069B0F5006F00D104
:1048600003E0EF21B048FBF79BFC207D012803DB30
:10487000207D102800DC03E0F021AB48FBF790FC22
:104880006E68AA4806402179206840EA0120064364
:104890006E60AE68A6480640D4E903100843A168DC
:1048A0000843617940EA41000643AE60EE6A26F4AF
:1048B0007006207D401EC0B2074346EA0756EE62EE
:1048C000BDE8F08100210160017141718160C1602A
:1048D000016101210175704770B50446002520680B
:1048E00018B32068012820D0206802281DD0206835
:1048F00005281AD02068062817D02068072814D069
:104900002068092811D0206811280ED020681228AC
:104910000BD02068152808D02068162805D02068FC
:10492000172802D02068192800D104E04FF4A9719B
:104930007D48FBF735FC606858B16068B0F5803F92
:1049400007D06068B0F5003F03D06068B0F5403F25
:1049500000D104E040F253117348FBF721FCA0683A
:1049600058B1A068B0F5804F07D0A068B0F5004FEF
:1049700003D0A068B0F5404F00D104E04FF4AA7115
:104980006948FBF70DFCE068D8B3E068B0F5807FBC
:1049900037D0E068B0F5007F33D0E068B0F5407FF5
:1049A0002FD0E068B0F5806F2BD0E068B0F5A06F35
:1049B00027D0E068B0F5C06F23D0E068B0F5E06FB5
:1049C0001FD0E068B0F5006F1BD0E068B0F5106F45
:1049D00017D0E068B0F5206F13D0E068B0F5306F05
:1049E0000FD0E068B0F5406F0BD0E068B0F5506FC5
:1049F00007D0E068B0F5606F03D0E068B0F5706F85
:104A000000D104E040F255114748FBF7C9FB494883
:104A1000056849480540D4E900010843A1680843F6
:104A2000E168084305433D48C0F8045370BD0021C8
:104A3000016041608160C160704770B504460D46F9
:104A40003648844205D03648844202D035488442F4
:104A500000D104E040F28B113348FBF7A1FB0DB10C
:104A6000012D00D104E04FF4C6712F48FBF798FBED
:104A700025B1A06840F00100A06003E0A06820F02C
:104A80000100A06070BD70B505460C4600262348A5
:104A9000854205D02248854202D02248854200D175
:104AA00004E04FF4E3712048FBF77AFB234884428B
:104AB0000FD0234884420CD02248844209D0B4F558
:104AC000000F06D0B4F5800F03D0B4F5400F00D02E
:104AD00004B904E040F2C7111348FBF761FB6E68AC
:104AE0001848C043064026436E6070BD70B504464A
:104AF0000E4615460948844205D00948844202D032
:104B00000848844200D104E040F2E3110648FBF774
:104B100047FBB6F5805F17DA1BE00000002001407C
:104B2000002101400022014064CC0008FFFEFFFC90
:104B3000FDF7FFC004230140E030FCFF00028000CD
:104B4000000240000002C0004FF4F271FD48FBF784
:104B500027FBB5F5805F00DA04E040F2E511F94883
:104B6000FBF71EFB6662A56270BD70B505460C467C
:104B70000026F548854205D0F448854202D0F44825
:104B8000854200D104E04FF40371EE48FBF708FBC7
:104B90001CB3012C21D0022C1FD0032C1DD0042CBF
:104BA0001BD0052C19D0062C17D0072C15D0082C9B
:104BB00013D0092C11D00A2C0FD00B2C0DD00C2C9B
:104BC0000BD00D2C09D00E2C07D00F2C05D0102C9B
:104BD00003D0112C01D0122C00D104E040F20D21A1
:104BE000D848FBF7DDFA6E6826F01F0626436E6094
:104BF00070BD10B504460CB1012C00D104E04FF497
:104C00001371D048FBF7CCFA3CB1D248006840F4AD
:104C10000000CD49C1F8040306E0CE48006820F446
:104C20000000C949C1F8040310BD10B504460CB119
:104C3000012C00D104E040F26221C248FBF7B0FA37
:104C40003CB1C448006840F48000BF49C1F8040387
:104C500006E0C048006820F48000BB49C1F80403A6
:104C600010BD2DE9F04706460C461746984600252C
:104C7000A946B548864205D0B448864202D0B44819
:104C8000864200D104E04FF43271AE48FBF788FA57
:104C90001CB3012C21D0022C1FD0032C1DD0042CBE
:104CA0001BD0052C19D0062C17D0072C15D0082C9A
:104CB00013D0092C11D00A2C0FD00B2C0DD00C2C9A
:104CC0000BD00D2C09D00E2C07D00F2C05D0102C9A
:104CD00003D0112C01D0122C00D104E040F2C921E4
:104CE0009848FBF75DFA012F02DB102F00DC04E08F
:104CF00040F2CA219348FBF753FAB8F1000F14D0E1
:104D0000B8F1010F11D0B8F1020F0ED0B8F1030FB6
:104D10000BD0B8F1040F08D0B8F1050F05D0B8F1E9
:104D2000060F02D0B8F1070F00D104E040F2CB210A
:104D30008448FBF735FA092C13DDF568A4F10A0065
:104D400000EB4001072000FA01F925EA0905A4F16A
:104D50000A0000EB400008FA00F945EA0905F56091
:104D60000EE0356904EB4401072000FA01F925EA59
:104D7000090504EB440008FA00F945EA0905356124
:104D8000072F11DA756B781E00EB80011F2000FAE7
:104D900001F925EA0905781E00EB800004FA00F904
:104DA00045EA0905756326E00D2F11DA356BF81F0A
:104DB00000EB80011F2000FA01F925EA0905F81F20
:104DC00000EB800004FA00F945EA0905356312E0BA
:104DD000F56AA7F10D0000EB80011F2000FA01F930
:104DE00025EA0905A7F10D0000EB800004FA00F99F
:104DF00045EA0905F562BDE8F08710B5044652485A
:104E0000844205D05148844202D05148844200D1A6
:104E100004E040F23F314B48FBF7C2F9A06840F094
:104E20008040A06010BD70B504460025464884420D
:104E300005D04648844202D04548844200D104E06F
:104E400040F24E313F48FBF7ABF9A06800F4800018
:104E500008B1012500E00025284670BD70B5044664
:104E60000D463948844205D03848844202D038483B
:104E7000844200D104E040F26B313248FBF790F9F4
:104E80000DB1012D00D104E04FF45B712D48FBF70B
:104E900087F925B1A06840F48060A06003E0A068B5
:104EA00020F48060A06070BD70B504460D462648B1
:104EB000844205D02548844202D02548844200D14E
:104EC00004E04FF461711F48FBF76AF90DB1012D41
:104ED00000D104E040F285311A48FBF761F925B1B1
:104EE000A06840F00200A06003E0A06820F002008B
:104EF000A06070BD2DE9F04104460D460026002754
:104F00001148844205D01148844202D0104884429E
:104F100000D104E040F2A1310A48FBF741F9012D2C
:104F200002DB082D00DC04E040F2A2310548FBF76B
:104F300037F9666826F460466F1E46EA47366660B3
:104F4000BDE8F08164CC0008002001400021014050
:104F5000002201400423014070B504460D46F94883
:104F6000844205D0F848844202D0F848844200D1F7
:104F700004E040F2BE31F648FBF712F90DB1012D05
:104F800000D104E040F2BF31F148FBF709F925B147
:104F9000606840F40060606003E0606820F40060D6
:104FA000606070BD10B50446E648844205D0E6480E
:104FB000844202D0E548844200D104E040F2D53179
:104FC000E348FBF7EDF8E06C80B210BDE148006803
:104FD000704770B504460D46DA48844205D0DA4879
:104FE000844202D0D948844200D104E040F21B41FF
:104FF000D748FBF7D5F80DB1012D00D104E040F200
:105000001C41D348FBF7CCF825B1A06840F4807070
:10501000A06003E0A06820F48070A06070BD70B54F
:1050200004460D46C748844205D0C748844202D092
:10503000C648844200D104E040F23341C448FBF743
:10504000AFF80DB1012D00D104E040F23441C04869
:10505000FBF7A6F825B1A06840F40070A06003E05B
:10506000A06820F40070A06070BD10B504460CB1BB
:10507000012C00D104E040F24E41B548FBF790F816
:1050800044B1B448001F006840F40050AD49C1F875
:10509000040307E0AF48001F006820F40050A9494E
:1050A000C1F8040310BD2DE9F04706460C469146B1
:1050B0001D460027B846BA46A248864205D0A248F7
:1050C000864202D0A148864200D104E040F2A641C7
:1050D0009F48FBF765F81CB3012C21D0022C1FD090
:1050E000032C1DD0042C1BD0052C19D0062C17D056
:1050F000072C15D0082C13D0092C11D00A2C0FD056
:105100000B2C0DD00C2C0BD00D2C09D00E2C07D055
:105110000F2C05D0102C03D0112C01D0122C00D153
:1051200004E040F2A7418A48FBF73AF8B9F1010FD1
:1051300003DBB9F1040F00DC04E04FF4956184480F
:10514000FBF72EF86DB1012D0BD0022D09D0032DE8
:1051500007D0042D05D0052D03D0062D01D0072D35
:1051600000D104E040F2A9417948FBF719F8092C75
:1051700013DDF768A4F10A0000EB4001072000FAF4
:1051800001F827EA0807A4F10A0000EB400005FA3D
:1051900000F847EA0807F7600EE0376904EB4401BE
:1051A000072000FA01F827EA080704EB440005FA93
:1051B00000F847EA08073761B76BC7F3015A09F1EE
:1051C00003000AF10101401A00EB80011F2000FAE0
:1051D00001F827EA080709F103000AF10101401A62
:1051E00000EB800004FA00F847EA0807B763BDE85F
:1051F000F0872DE9F04104460D460026002751486E
:10520000844205D05048844202D05048844200D1A4
:1052100004E040F2E6414E48FAF7C2FF012D02DBFE
:10522000042D00DC04E040F2E7414948FAF7B8FFFA
:10523000A66B26F440166F1E46EA0756A663BDE825
:10524000F081F8B505460C461646002000903D4812
:10525000854205D03C48854202D03C48854200D179
:1052600004E04FF4A1613A48FAF79AFF142C05D0F4
:10527000182C03D01C2C01D0202C00D104E040F2CB
:1052800009513348FAF78CFFB6F5805F00DA04E085
:1052900040F20A512E48FAF783FF00950098204407
:1052A000009000980660F8BD70B505460C460026D3
:1052B0002448854205D02448854202D023488542AF
:1052C00000D104E040F22E512148FAF769FF64B39F
:1052D000B4F5803F29D0B4F5003F26D0B4F5403F67
:1052E00023D0B4F5802F20D0B4F5A02F1DD0B4F575
:1052F000C02F1AD0B4F5E02F17D0B4F5002F14D07A
:10530000B4F5102F11D0B4F5202F0ED0B4F5302FF6
:105310000BD0B4F5402F08D0B4F5502F05D0B4F51C
:10532000602F02D0B4F5702F00D104E040F22F516D
:105330000748FAF735FFAE6826F470262643AE60BC
:1053400070BD00000020014000210140002201400A
:1053500064CC00080823014070B504460D460026C1
:10536000E148844205D0E148844202D0E0488442CA
:1053700000D104E04FF4AA61DE48FAF711FF45B10D
:10538000B5F5801F05D0B5F5001F02D0B5F5401F5B
:1053900000D104E040F25151D648FAF701FFA66867
:1053A00026F440162E43A66070BD10B50446CE48C4
:1053B000844205D0CD48844202D0CD48844200D1F9
:1053C00004E040F26451CB48FAF7EAFEA06840F4EA
:1053D0008000A06010BD70B504460025C24884421C
:1053E00005D0C248844202D0C148844200D104E0C2
:1053F00040F27251BF48FAF7D3FEA06800F4800073
:1054000008B1012500E00025284670BD70B50446AE
:105410000D46B548844205D0B448844202D0B44811
:10542000844200D104E040F28E51B248FAF7B8FE4F
:105430000DB1012D00D104E040F28F51AD48FAF7D3
:10544000AFFE25B1606840F48060606003E0606892
:1054500020F48060606070BD70B504460D46A248BF
:10546000844205D0A148844202D0A148844200D1A0
:1054700004E04FF4B5619F48FAF792FE0DB1012D9B
:1054800000D104E040F2A9519A48FAF789FE25B10B
:10549000606840F48050606003E0606820F48050F1
:1054A000606070BD38B505460C46002000908E48FF
:1054B000854205D08D48854202D08D48854200D175
:1054C00004E040F2C6518B48FAF76AFE142C05D06E
:1054D000182C03D01C2C01D0202C00D104E040F269
:1054E000C7518448FAF75CFE009504F12800009942
:1054F000084400900098006880B238BD2DE9F04162
:1055000004460D46164600277748844205D0774862
:10551000844202D07648844200D104E040F23161F6
:105520007448FAF73DFE0EB1012E00D104E040F2BE
:1055300032617048FAF734FE40F2052085420AD005
:10554000B5F5837F07D040F20740854203D042F291
:105550001A00854200D104E040F233616548FAF751
:105560001FFEEFB2012000FA07F71EB16068384352
:10557000606002E06068B8436060BDE8F08170B5CB
:1055800005460C4600265848854205D057488542B6
:1055900002D05748854200D104E040F25661554898
:1055A000FAF7FEFD012C09D0022C07D0042C05D0FF
:1055B000082C03D0102C01D0202C00D104E040F2A4
:1055C00057614C48FAF7ECFD2868204008B10126E5
:1055D00000E00026304670BD70B504460D464248D6
:1055E000844205D04148844202D04148844200D1DF
:1055F00004E04FF4CF613F48FAF7D2FD05F0C00058
:1056000008B905B104E040F279613A48FAF7C8FDFB
:10561000E843206070BD2DE9F04105460C460026A8
:105620000027B0463048854205D03048854202D038
:105630002F48854200D104E04FF4D2612D48FAF79B
:10564000AFFD40F2052084420AD0B4F5837F07D035
:1056500040F20740844203D042F21A00844200D153
:1056600004E040F291612348FAF79AFD2712686836
:105670000121A14000EA01082868384020B1B8F1B2
:10568000000F01D0012600E000263046BDE8F08181
:1056900070B505460C4600261348854205D01348D0
:1056A000854202D01248854200D104E040F2B76141
:1056B0001048FAF775FD40F2052084420AD0B4F58F
:1056C000837F07D040F20740844203D042F21A00A1
:1056D000844200D104E04FF4D7610648FAF760FD38
:1056E0002612F043286070BD0020014000210140D7
:1056F0000022014064CC000810B50446FE488442F4
:105700003AD0FD481830844236D0FB4830308442CD
:1057100032D0F948483084422ED0F7486030844275
:105720002AD0F5487830844226D0F348903084421D
:1057300022D0F148A83084421ED0F04884421BD0C9
:10574000EE481830844217D0EC483030844213D0F1
:10575000EA48483084420FD0E848603084420BD099
:10576000E6487830844207D0E4489030844203D041
:10577000E248A830844200D103E0BF21E048FAF7B4
:105780000FFD206820F00100206000202060606094
:10579000A060E060206121206061D748844204D18C
:1057A0003D20D549103988608CE0D34818308442B8
:1057B00005D14FF47460D0491039886082E0CE483A
:1057C0003030844205D14FF47410CB4910398860D1
:1057D00078E0C9484830844205D14FF07460C6492A
:1057E000103988606EE0C4486030844204D1C548F6
:1057F000C1491039C86065E0BF487830844204D19F
:10580000C148BD491039C8605CE0BB489030844253
:1058100004D1BE48B8491039C86053E0B648A83032
:10582000844205D14FF03D50B3491039C86049E07A
:10583000B248844204D13D20B0490839086041E0B3
:10584000AE481830844205D14FF47460AB49083932
:10585000086037E0A9483030844205D14FF4741015
:10586000A649083908602DE0A4484830844205D193
:105870004FF07460A1490839086023E09F48603008
:10588000844204D19F489D49091F08601AE09B4843
:105890007830844204D19C489849091F086011E07F
:1058A00096489030844204D198489449091F086072
:1058B00008E09248A830844204D14FF03D508F490F
:1058C000091F086010BD70B505460C4600268A48C1
:1058D00085423AD088481830854236D086483030E4
:1058E000854232D08448483085422ED0824860308C
:1058F00085422AD080487830854226D07E48903034
:10590000854222D07C48A83085421ED07B48854203
:105910001BD07A481830854217D0784830308542FD
:1059200013D07648483085420FD0744860308542A5
:105930000BD072487830854207D07048903085424D
:1059400003D06E48A830854200D104E04FF49E7128
:105950006B48FAF725FC2068D8B12068B0F1007FC9
:1059600017D02068B0F1806F13D02068B0F1C06FFD
:105970000FD02068B0F1006F0BD02068B0F1206F1D
:1059800007D02068B0F1406F03D02068B0F1606F9D
:1059900000D104E040F23D115948FAF701FCE068FB
:1059A00028B1E068402802D0E068802800D104E0F7
:1059B0004FF49F715248FAF7F3FB206920B1206938
:1059C000B0F5803F00D204E040F23F114C48FAF7B6
:1059D000E7FB6069B0F5007F01D0606900B904E0C1
:1059E0004FF4A0714648FAF7DBFBA069B0F5806F71
:1059F00001D0A06900B904E040F241114048FAF733
:105A0000CFFBE06938B1E069B0F5006F03D0E06921
:105A1000B0F5805F00D104E04FF4A1713848FAF787
:105A2000BFFB206A38B1206AB0F5005F03D0206A5E
:105A3000B0F5804F00D104E040F243113048FAF74E
:105A4000AFFB606A18B1606AB0F5807F00D104E0F6
:105A50004FF4A2712A48FAF7A3FBA06A58B1A06AD2
:105A6000B0F5803F07D0A06AB0F5003F03D0A06A30
:105A7000B0F5403F00D104E040F245112048FAF76C
:105A80008FFBE06A10B1E06A042800D104E04FF413
:105A9000A3711B48FAF784FB206B40B1206B0128EF
:105AA00005D0206B022802D0206B032800D104E02F
:105AB00040F247111248FAF773FB606B58B1606B04
:105AC000B0F5000F07D0606BB0F1807F03D0606B42
:105AD000B0F1C07F00D104E04FF4A4710848FAF798
