:020000040800F2
:10000000082B00201D03000863AA0008539E000867
:1000100061AA00088B7B000825B4000800000000DE
:1000200000000000000000000000000053AB0008CA
:100030008D7B00080000000051AB000855AB0008A4
:1000400037030008370300083703000837030008A8
:100050003703000837030008370300083703000898
:100060003703000837030008370300083703000888
:100070003703000837030008370300083703000878
:100080003703000837030008370300083703000868
:100090003703000837030008370300083703000858
:1000A000CDAD000837030008370300083703000808
:1000B0003703000837030008370300083703000838
:1000C0003703000837030008370300083703000828
:1000D0003703000801B400080DB4000819B4000883
:1000E000370300083703000837030008E9AD0008AC
:1000F00037030008370300083703000837030008F8
:1001000037030008370300083703000837030008E7
:1001100091B10008370300083703000837030008CF
:1001200037030008370300083703000837030008C7
:1001300037030008370300083703000837030008B7
:1001400037030008370300083703000837030008A7
:100150003703000837030008370300083703000897
:100160003703000837030008370300083703000887
:1001700037030008370300083703000800000000B9
:10018000370300083703000800F002F800F0B6F863
:100190000AA090E8000C82448344AAF10107DA45E2
:1001A00001D100F0ABF8AFF2090EBAE80F0013F07E
:1001B000010F18BFFB1A43F001031847582A01002A
:1001C000782A01000A444FF0000C10F8013B13F0AC
:1001D000070408BF10F8014B1D1108BF10F8015BA0
:1001E000641E05D010F8016B641E01F8016BF9D193
:1001F00013F0080F1EBF10F8014BAD1C0C1B09D1EA
:100200006D1E58BF01F801CBFAD505E014F8016B5B
:1002100001F8016B6D1EF9D59142D6D370470000ED
:100220000023002400250026103A28BF78C1FBD8FF
:10023000520728BF30C148BF0B6070476E2905F0D8
:100240004986702905F08B87662911F01E8465297F
:1002500011F01B84672911F01884612911F01784AB
:1002600003681B0A28BF41F08001692905F0F68563
:10027000642905F0F385752905F0F0856F2905F0EF
:100280001887782905F05787E92905F0B386E4290E
:1002900005F0B086F52905F0AD86EF2905F0158744
:1002A000F82905F056870368DB0928BF41F0800173
:1002B000632906F0A985732906F0AE85E32906F0C7
:1002C000B985F32906F0BE85002070471FB511F0EF
:1002D0008EFB9DE8030006F0A3FE06F085FE0400F9
:1002E0000020002110F0BAFC401C606000200021BA
:1002F00010F09EFCE0601FBD10B510BD06F043FE7F
:100300001146FFF7E3FF0FF09FF806F099FF03B4E3
:10031000FFF7F2FF03BC07F021F80000094880470F
:1003200009480047FEE7FEE7FEE7FEE7FEE7FEE7D7
:10033000FEE7FEE7FEE7FEE704480549054A064BEF
:1003400070470000BDAD00088901000808250020A5
:10035000082B00200827002008270020FE4880EDF9
:100360003A0A70472DE9F047DFF8EC9300262DEDAF
:100370000A8B0446B0EE408AF0EE608A8846354625
:100380003746D9F8AC0010F034FF53EC182B10F0BE
:100390005BFF6FD3D9F8B00010F02BFF53EC182B94
:1003A00011F08CF8F5D3B4F90000B4F90610401A36
:1003B00010F01FFF53EC182B10F046FF00D201265F
:1003C000B4F90E00B4F91410401A10F012FF53ECF7
:1003D000182B10F039FF00D2761CB4F91C00B4F9C8
:1003E0002210401A10F005FF53EC182B10F02CFFD0
:1003F00000D2761C9FEDD90B012E3BDC53EC102B69
:1004000051EC180B10F05CFF8946064649EC180BBE
:10041000B4F90000B4F90610401A10F0EAFE53ECEB
:10042000182B11F04BF800D20125B4F90E00B4F9E5
:10043000141049EC186B401A10F0DBFE53EC182B2B
:1004400011F03CF800D26D1CB4F91C00B4F9221074
:1004500049EC186B401A10F0CCFE53EC182B11F03D
:100460002DF800D26D1C002D05DD0220BDEC0A8B9D
:10047000BDE8F08765E000269FEDBACB06EB4609A4
:1004800004EB8905B5F90A0010F0B3FE98ED048B72
:1004900053EC182B11F020F941EC190BB5F90400BD
:1004A00010F0A7FE53EC182B11F016F953EC192B92
:1004B00010F006FF41EC190BB5F9080010F099FE99
:1004C00098ED028B53EC182B11F006F941EC1A0B46
:1004D000B5F9020010F08DFE53EC182B11F0FCF86A
:1004E00053EC1A2B10F0ECFE41EC1A0BB5F9060098
:1004F00010F07FFE98ED008B53EC182B11F0ECF808
:1005000041EC1B0B34F9290010F073FE53EC182B4F
:1005100011F0E2F853EC1B2B10F0D2FE53EC1A2B27
:1005200010F0F0FB53EC192B10F0ECFB53EC1C2BF0
:1005300010F08AFE00D27F1C761C032E9EDB022F59
:1005400001DA012092E7002090E788490A684B68A9
:10055000D00180EAD20080EA031048608B68520321
:1005600080EAC30382EA5312520282EAD0208B60EF
:100570000860704710B52DED048BF0EE408AFFF750
:10058000E4FF00EE100AB8EE400ADFED790A20EE33
:10059000200A9FED789A20EE090A0BF011FAB0EECE
:1005A000408AFFF7D2FF00EE100AB8EE400A20EEB4
:1005B000090AB5EEC00AF1EE10FA01D1B7EE000A51
:1005C00010EE100A11F072F941EC100B0BF0ACFABE
:1005D0009FED691B51EC100B53EC112B10F070FECA
:1005E00010F05EFB00EE100A0BF085FD20EE280AED
:1005F00020EE080ABDEC048B10BD2DE9F041054644
:100600002DED048BB0EE608AF0EE408A0F4618EEB6
:10061000100A11F04BF997ED301B53EC112B10F031
:100620004FFE41EC190B18EE900A11F03FF995EDD1
:10063000301B53EC112B10F043FE53EC192B10F030
:1006400061FB0024C5E9300118EE100A11F02EF903
:1006500007EBC40898ED001B53EC112B10F030FE93
:1006600041EC190B18EE900A11F020F905EBC406C5
:1006700096ED001B53EC112B10F022FE53EC192BBE
:1006800010F040FBC6E9000118EE100A11F00EF957
:1006900098ED241B53EC112B10F012FE41EC190BBA
:1006A00018EE900A11F002F996ED241B53EC112B71
:1006B00010F006FE53EC192B10F024FB641CC6E965
:1006C0002401062CC0DB002418EE100A11F0EEF80D
:1006D00041EC100B07EBC40090ED121B51EC100B1A
:1006E00053EC112B10F0ECFD41EC190B18EE900AB5
:1006F00011F0DCF805EBC40696ED121B53EC112B40
:1007000010F0DEFD53EC192B10F0FCFA641CC6E966
:100710001201092CD8DB002418EE100A11F0C6F8DB
:1007200041EC100B07EBC40090ED0C1B51EC100BCF
:1007300053EC112B10F0C4FD41EC190B18EE900A8C
:1007400011F0B4F805EBC40696ED0C1B53EC112B1D
:1007500010F0B6FD14E00000881700200000000033
:10076000000004400000000000000000B408002069
:10077000DB0FC9400000802F00000000000000C017
:1007800053EC192B10F0BEFA641CC6E90C01032CC3
:10079000C2DBBDEC048BBDE8F0812DE9F04F0446CF
:1007A0002DED068B83B00D46086810F022FD41EC5C
:1007B0001A0B686810F01DFD41EC190BA86810F0C9
:1007C00018FD41EC180B94ED300B9FEDFE1B51EC26
:1007D000100B53EC112B10F095FAC4E9300194ED95
:1007E0000C0B53EC1A2B51EC100B10F08BFAC4E9E4
:1007F0000C0194ED0E0B53EC192B51EC100B10F077
:1008000081FAC4E90E0194ED100B53EC182B51EC56
:10081000100B10F077FAC4E9100153EC1A2B51ECCD
:100820001A0B10F04DFD029194ED001B064653EC9F
:10083000112B10F067FAC4E9000153EC192B51ECAD
:100840001A0B10F03DFD894649EC100B94ED021B8C
:10085000054653EC112B51EC100B10F053FAC4E980
:10086000020153EC182B51EC1A0B10F029FD8B46AA
:100870004BEC100B94ED041B804653EC112B51EC08
:10088000100B10F03FFAC4E9040153EC192B51ECA2
:10089000190B10F015FD019194ED061B074653EC62
:1008A000112B10F02FFAC4E9060153EC182B51EC70
:1008B000190B10F005FD009194ED081B824653ECD6
:1008C000112B10F01FFAC4E9080153EC182B51EC5E
:1008D000180B10F0F5FC94ED0A1B53EC112B10F0E3
:1008E00011FAC4E90A01029953EC1A2B41EC106B7E
:1008F00051EC100B10F0E4FC94ED121B53EC112B97
:1009000010F000FA49EC105BC4E9120153EC192B0A
:1009100051EC100B10F0D4FC94ED141B53EC112B84
:1009200010F0F0F94BEC108BC4E9140153EC182BC8
:1009300051EC100B10F0C4FC94ED161B53EC112B72
:1009400010F0E0F949EC105BC4E9160153EC1A2BE6
:1009500051EC100B10F0B4FC94ED181B53EC112B60
:1009600010F0D0F9C4E91801019953EC192B41ECAE
:10097000107B51EC100B10F0A3FC94ED1A1B53EC00
:10098000112B10F0BFF9C4E91A010099554641EC4A
:1009900010AB0E4653EC182B51EC100B10F090FCE2
:1009A00094ED1C1B53EC112B10F0ACF9C4E91C01A5
:1009B00053EC1A2B51EC180B10F082FC53EC1A2B51
:1009C00010F07EFC94ED1E1B53EC112B10F09AF9E5
:1009D00046EC105BC4E91E0153EC192B51EC100BD3
:1009E00010F06EFC94ED201B53EC112B10F08AF9E3
:1009F000C4E9200153EC182B51EC180B10F060FCEB
:100A0000894649EC100B074653EC182B51EC100BA0
:100A100010F056FC94ED221B53EC112B10F072F9E0
:100A2000C4E9220153EC1A2B51EC1A0B10F048FCCC
:100A3000884648EC100B054653EC1A2B51EC100B72
:100A400010F03EFC53EC1A2B10F03AFC94ED241BF2
:100A500053EC112B10F056F9C4E9240153EC192B77
:100A600051EC190B10F02CFC8A464AEC100B064690
:100A700053EC192B51EC100B10F022FC53EC192BFA
:100A800010F01EFC94ED261B53EC112B10F03AF9DC
:100A900049EC107BC4E9260153EC182B51EC100BE8
:100AA00010F00EFC53EC182B10F00AFC94ED281BF0
:100AB00053EC112B10F026F948EC105BC4E9280127
:100AC00053EC192B51EC100B10F0FAFB53EC192BD3
:100AD00010F0F6FB94ED2A1B53EC112B10F012F9D9
:100AE00048EC105BC4E92A0153EC182B51EC100BB5
:100AF00010F0E6FB53EC182B10F0E2FB94ED2C1BEE
:100B000053EC112B10F0FEF84AEC106BC4E92C01E9
:100B100053EC182B51EC100B10F0D2FB53EC182BAC
:100B200010F0CEFB94ED2E1B53EC112B10F0EAF8D5
:100B3000C4E92E0103B0BDEC068BBDE8F08F2DE9B2
:100B4000F04F93462DED108B0D46044693B090ED7B
:100B50000CEB53EC1E2B51EC1E0B10F0B1FB94ED83
:100B6000000B41EC190B8DED080B94ED308B53EC21
:100B7000102B51EC180B10F0A3FB53EC192B10F0B9
:100B8000ABFD94ED0EDB41EC1F0B53EC1D2B51EC38
:100B90001D0B10F095FB94ED060B41EC190B8DED40
:100BA000060B53EC102B51EC180B10F089FB53EC97
:100BB000192B10F091FD41EC100B8DED040B94ED11
:100BC00010CB03E0000000000000F03F53EC1C2BB2
:100BD00051EC1C0B10F074FB94ED0A0B41EC190B5B
:100BE0008DED020B53EC102B51EC180B10F068FB41
:100BF00053EC192B10F070FD41EC110B53EC1D2B35
:100C00008DED001B51EC1E0B10F05AFB94ED020B06
:100C100041EC190B53EC102B51EC180B10F050FB5E
:100C200053EC192B10F058FD41EC1B0B53EC1C2B13
:100C300051EC1E0B10F044FB94ED040B41EC190B2E
:100C400053EC102B51EC180B10F03AFB53EC192B12
:100C500010F042FD41EC1A0B53EC1C2B51EC1D0B18
:100C600010F02EFB94ED080B41EC190B53EC102BFC
:100C700051EC180B10F024FB53EC192B10F02CFD49
:100C80009DED020B41EC190B53EC102B51EC1E0B9C
:100C900010F016FB41EC110B51EC180B8DED101BF5
:100CA00094ED160B53EC102B10F00AFB41EC110BDA
:100CB00051EC1E0B8DED0E1B9DED060B53EC102B16
:100CC00010F0FEFA41EC110B51EC180B8DED0C1BE2
:100CD00094ED140B53EC102B10F0F2FA41EC110BC5
:100CE00051EC1E0B8DED0A1B9DED080B53EC102BE8
:100CF00010F0E6FA94ED120B41EC1E0B53EC102BA6
:100D000051EC180B10F0DCFA53EC1E2B10F0E4FC45
:100D10009DED0A1B53EC112B0FF0F4FF9DED0C1B06
:100D200053EC112B10F0D8FC9DED0E1B53EC112B46
:100D30000FF0E8FF9DED101B53EC112B10F0CCFCD5
:100D40009FEDFE1B53EC112B10F0BAFA9DED020B38
:100D500041EC1E0B53EC102B51EC1D0B10F0B0FAB4
:100D600041EC110B51EC180B8DED101B94ED1C0B8D
:100D700053EC102B10F0A4FA41EC110B51EC1D0BAD
:100D80008DED0E1B9DED060B53EC102B10F098FA19
:100D900041EC110B51EC180B8DED0C1B94ED1A0B63
:100DA00053EC102B10F08CFA41EC110B51EC1D0B95
:100DB0008DED0A1B9DED080B53EC102B10F080FA03
:100DC00094ED180B41EC1D0B53EC102B51EC180B50
:100DD00010F076FA53EC1D2B10F07EFC9DED0A1BF3
:100DE00053EC112B0FF08EFF9DED0C1B53EC112BD0
:100DF00010F072FC9DED0E1B53EC112B0FF082FFD7
:100E00009DED101B53EC112B10F066FC9FEDCB1BDE
:100E100053EC112B10F054FA9DED020B41EC1D0B1D
:100E200053EC102B51EC1C0B10F04AFA41EC110B57
:100E300051EC180B8DED021B94ED220B53EC102B93
:100E400010F03EFA41EC110B51EC1C0B8DED0A1B1E
:100E50009DED060B53EC102B10F032FA41EC110B08
:100E600051EC180B8DED0C1B94ED200B53EC102B5B
:100E700010F026FA41EC110B51EC1C0B8DED061B0A
:100E80009DED080B53EC102B10F01AFA94ED1E0B8D
:100E900041EC1C0B53EC102B51EC180B10F010FA1A
:100EA00053EC1C2B10F018FC9DED061B53EC112B82
:100EB0000FF028FF9DED0C1B53EC112B10F00CFCD8
:100EC0009DED0A1B53EC112B0FF01CFF9DED021B37
:100ED00053EC112B10F000FC9FED981B53EC112BE1
:100EE00010F0EEF99DED040B41EC180B53EC102BB8
:100EF00051EC1F0B10F0E4F910919DED001B8246A0
:100F000053EC112B10F0DCF941EC110B53EC192BC5
:100F10008DED0A1B51EC1F0B10F0D2F953EC192B7D
:100F200010F0CEF941EC110B53EC1A2B8DED081B90
:100F30009DED040B51EC100B10F0C2F9814653ECFF
:100F40001A2B119110F0BCF941EC110B8DED061B21
:100F50009FED7C0B51EC1B0B53EC102B10F0B0F9F8
:100F600053EC1A2B10F0ACF953EC192B10F0A8F934
:100F70009DED001B41EC1C0B53EC1B2B51EC110B9A
:100F800010F09EF9074653EC1B2B029110F098F9D4
:100F900053EC1C2B10F0A0FB9DED061B53EC112B0A
:100FA0000FF0B0FE9DED081B53EC112B0FF0AAFEC5
:100FB0009DED0A1B53EC112B10F08EFB41EC1C0B2A
:100FC0009FED620B53EC102B10F0A8F87DD053EC82
:100FD000192B51EC1B0B10F073F953EC182B10F07C
:100FE0006FF941EC110B53EC1D2B8DED0E1B02998B
:100FF00041EC107B51EC100B10F062F941EC110B3D
:101000008DED0C1B9DED000B53EC102B9DED040B97
:1010100051EC100B10F054F953EC1E2B10F050F95A
:1010200041EC110B53EC192B8DED081B51EC190BF6
:1010300010F046F953EC1E2B10F042F941EC110B65
:1010400053EC1D2B8DED0A1B51EC190B10F038F9E8
:1010500041EC110B53EC182B8DED061B9DED040B91
:1010600051EC100B10F02CF99DED061B53EC112BDD
:1010700010F032FB53EC1A2B10F022F99DED0A1BF5
:1010800053EC112B0FF03EFE9DED081B53EC112B82
:1010900010F022FB9DED0C1B53EC112B0FF032FED8
:1010A0009DED0E1B53EC112B10F016FB41EC100BB9
:1010B00053EC1A2B8DED060B51EC1B0B10F000F9C5
:1010C0008846064648EC100B00E065E153EC182B0F
:1010D00051EC100B10F0F4F841EC110B53EC1E2BFB
:1010E0008DED041B029941EC107B51EC100B10F0BC
:1010F000E7F841EC110B51EC1F0B8DED021B9DED40
:10110000000B53EC102B10F0DBF853EC1D2B10F000
:10111000D7F841EC110B53EC1A2B8DED081B51EC59
:101120001A0B10F0CDF853EC1D2B10F0C9F841EC60
:10113000110B53EC1E2B8DED001B0BE0000000008B
:101140000000E03F00000000000000400000000040
:101150000000000051EC1A0B10F0B2F841EC1A0B31
:1011600053EC182B51EC1F0B10F0AAF853EC1A2B70
:1011700010F0B2FA53EC192B10F0A2F89DED001B01
:1011800053EC112B0FF0BEFD9DED081B53EC112B02
:1011900010F0A2FA9DED021B53EC112B0FF0B2FDE3
:1011A0009DED041B53EC112B10F096FA41EC100B43
:1011B00053EC1D2B8DED040B48EC106B51EC100B18
:1011C00010F07EF841EC110B53EC1E2B8DED001B43
:1011D000119941EC109B51EC100B10F071F841EC9F
:1011E000110B53EC182B8DED021B109941EC10AB39
:1011F00051EC100B10F064F841EC1A0B53EC1B2B64
:1012000051EC1B0B10F05CF853EC182B10F058F855
:1012100041EC180B53EC1E2B51EC1B0B10F050F84B
:1012200041EC1B0B53EC1D2B51EC1F0B10F048F83D
:1012300053EC1B2B10F050FA53EC192B10F040F824
:1012400053EC182B0FF05EFD53EC1A2B10F044FA00
:101250009DED021B53EC112B0FF054FD9DED001B77
:1012600053EC112B10F038FA9DED060B41EC190BE5
:1012700053EC1C2B51EC100B0FF0F8FD41EC180B4C
:1012800053EC1C2B85ED008B9DED040B51EC100BEA
:101290000FF0ECFD41EC1A0B53EC1C2B85ED02AB6F
:1012A00051EC190B0FF0E2FD41EC190B85ED049B9D
:1012B00094ED100B53EC102B10F002F894ED0E0B84
:1012C00041EC1B0B53EC102B51EC1A0B0FF0F8FFF9
:1012D00094ED0C0B41EC1C0B53EC102B51EC180B48
:1012E0000FF0EEFF53EC1C2B0FF00CFD53EC1B2BFF
:1012F0000FF008FD1FED6D1B53EC112B0FF0E0FFFD
:1013000094ED061B94ED000B41EC1B0B53EC112BE1
:1013100051EC100B0FF0F6FC94ED0A1B53EC112B63
:101320000FF0F0FC53EC1B2B10F0D6F994ED301BB2
:1013300053EC112B0FF09AFD41EC1B0B53EC192BC6
:1013400051EC190B0FF0BCFF41EC190B53EC1A2BAD
:1013500051EC1A0B0FF0B4FF41EC1A0B53EC182BA5
:1013600051EC180B0FF0ACFF53EC1A2B0FF0CAFC2A
:1013700053EC192B0FF0C6FC53EC1B2B0FF0C2FCE7
:1013800041EC100B0AF07AFE8BED000B012013B03C
:10139000BDEC108BBDE8F08F0020F8E72DE9F04F91
:1013A0000D462DED108B04468BB091ED00AB53EC48
:1013B0001A2B51EC1A0B0FF083FF94ED0CCB53EC6E
:1013C0001C2B0FF07DFF53EC1C2B0FF079FF94EDDD
:1013D00030FB41EC180B53EC1A2B51EC1F0B0FF0A8
:1013E0006FFF8B464BEC100B074653EC1A2B51EC5E
:1013F000100B0FF065FF94ED00EB53EC1E2B0FF07C
:101400005FFF53EC182B10F067F941EC190B53EC0C
:101410001E2B51EC1A0B0FF053FF53EC1C2B0FF04B
:101420004FFF4BEC107B94ED121B41EC180B53EC6F
:10143000112B51EC100B0FF043FF53EC192B10F054
:1014400073F853EC182B0FF05DFC41EC1B0B1FEDF8
:10145000C30B51EC1A0B53EC102B0FF031FF8946E4
:1014600049EC100B95ED029B064653EC192B51EC01
:10147000100B0FF025FF53EC1C2B0FF021FF94ED08
:101480000EDB53EC1D2B0FF01BFF41EC180B1FED77
:10149000D30B51EC1F0B53EC102B0FF011FF8246B6
:1014A00053EC1A2B06910FF00BFF53EC192B0FF096
:1014B00007FF94ED021B53EC112B0FF001FF53ECCF
:1014C0001B2B0FF01FFC53EC182B10F005F941EC0F
:1014D000180B53EC1C2B51EC1A0B0FF0F1FE04917E
:1014E00094ED06BB804653EC1B2B0FF0E9FE41EC5C
:1014F000110B4BEC107B8DED001B94ED141B51EC8C
:10150000100B53EC112B0FF0DBFE53EC182B10F0EB
:101510000BF89DED001B53EC112B0FF0F3FB41EC8E
:10152000110B49EC106B8DED001B95ED048B51EC0C
:10153000100B53EC182B0FF0C3FE53EC1C2B0FF0C9
:10154000BFFE94ED10CB53EC1C2B0FF0B9FE41EC19
:10155000110B53EC1A2B8DED021B069941EC10ABCD
:1015600051EC100B0FF0ACFE53EC182B0FF0A8FE53
:1015700094ED041B53EC112B0FF0A2FE9DED001B0C
:1015800053EC112B0FF0BEFB9DED021B53EC112B06
:1015900010F0A2F841EC100B8DED000B049994EDC6
:1015A0000AAB41EC108B53EC1A2B51EC100B0FF0E3
:1015B00087FE41EC110B4BEC107B8DED021B94ED83
:1015C000161B51EC100B53EC112B0FF079FE9DED17
:1015D000001B53EC112B0FF0A7FF9DED021B53ECEA
:1015E000112B0FF08FFB41EC110B8DED001B9FEDCC
:1015F000FE0B51EC1E0B53EC102B0FF061FE53EC65
:101600001E2B0FF05DFE41EC110B8DED021B9FEDCB
:10161000F60B51EC1F0B53EC102B0FF051FE059104
:1016200094ED241B814653EC112B0FF049FE9DEDE8
:10163000001B53EC112B0FF065FB9DED021B53ECCF
:10164000112B10F049F841EC110B53EC1E2B8DEDD2
:10165000001B51EC190B0FF033FE53EC1D2B0FF058
:101660002FFE41EC110B53EC192B8DED081B51ECA7
:101670001F0B0FF025FE039194ED181B064653EC4B
:10168000112B0FF01DFE9DED001B53EC112B0FF0E5
:101690004BFF9DED081B53EC112B0FF033FB41EC7E
:1016A000110B8DED001B9FEDD20B51EC1E0B53EC7B
:1016B000102B0FF005FE8B464BEC100B054653EC40
:1016C0001B2B51EC100B0FF0FBFD41EC110B8DEDC2
:1016D000081B9FEDC70B51EC1F0B53EC102B0FF0A9
:1016E000EFFD049194ED2A1B804653EC112B0FF073
:1016F000E7FD9DED001B53EC112B0FF003FB9DED5F
:10170000081B53EC112B0FF0E7FF41EC110B53ECCE
:101710001E2B8DED001B51EC180B0FF0D1FD53EC7F
:101720001C2B0FF0CDFD41EC1E0B53EC182B51EC94
:101730001F0B0FF0C5FD029194ED1E1B074653ECE5
:10174000112B0FF0BDFD9DED001B53EC112B0FF085
:10175000EBFE53EC1E2B0FF0D5FA4BEC105B41EC7B
:101760001F0B53EC1A2B51EC100B0FF0A9FD41ECA1
:101770001E0B049994ED2C1B41EC108B53EC112B98
:1017800051EC100B0FF09CFD53EC1F2B0FF0BAFA2D
:1017900053EC1E2B0FF0A0FF41EC1F0B53EC192B49
:1017A00051EC190B0FF08CFD53EC1D2B0FF088FD45
:1017B00053EC1D2B0FF084FD41EC1E0B039953ECF1
:1017C000192B41EC106B51EC100B0FF079FD53EC21
:1017D0001B2B0FF075FD53EC1F2B0FF093FA53ECFE
:1017E0001E2B0FF079FF41EC1F0B53EC1B2B51EC20
:1017F000190B0FF065FD53EC1D2B0FF061FD41EC53
:101800001E0B039994ED1A1B41EC106B53EC112B3A
:1018100051EC100B0FF054FD53EC1F2B0FF084FE16
:1018200053EC1E2B0FF06EFA41EC1F0B9FED720B69
:1018300051EC190B53EC102B0FF042FD53EC182B0D
:101840000FF03EFD53EC1D2B0FF03AFD53EC1C2B1B
:101850000FF036FD41EC1E0B069953EC192B41ECB1
:1018600010AB51EC100B0FF02BFD53EC182B0FF0BD
:1018700027FD94ED081B53EC112B0FF021FD53ECC9
:101880001F2B0FF03FFA53EC1E2B0FF025FF41ECFE
:101890001E0B53EC1D2B51EC190B0FF011FD53ECEB
:1018A0001A2B0FF00DFD41EC190B039994ED1C1B45
:1018B00041EC106B53EC112B51EC100B0FF000FDB1
:1018C00053EC1E2B0FF030FE53EC192B0FF01AFACD
:1018D00041EC1D0B9FED44EB51EC1B0B53EC1E2B0D
:1018E0000FF0EEFC53EC1B2B0FF0EAFC41EC190B54
:1018F000059994ED261B41EC109B53EC112B51ECF8
:10190000100B0FF0DDFC53EC1D2B0FF0FBF953EC2B
:10191000192B0FF0E1FE41EC1D0B53EC1B2B51EC8E
:10192000180B0FF0CDFC53EC1C2B0FF0C9FC41EC55
:10193000190B029994ED201B41EC107B53EC112BF9
:1019400051EC100B0FF0BCFC53EC1D2B0FF0ECFD19
:1019500053EC192B0FF0D6F99FED250B41EC190B29
:1019600053EC102B51EC1B0B0FF0AAFC53EC1A2B71
:101970000FF0A6FC41EC1B0B049994ED2E1B41ECDF
:10198000108B53EC112B51EC100B0FF099FC53EC16
:10199000192B0FF0B7F953EC1B2B0FF09DFE41EC08
:1019A0001B0B53EC182B51EC180B0FF089FC53EC6C
:1019B0001C2B0FF085FC53EC1C2B0FF081FC41EC31
:1019C000190B029953EC182B41EC107B51EC100BC6
:1019D0000FF076FC53EC1A2B0FF072FC53EC1B2B20
:1019E0000FF090F90CE00000000000000000D03F74
:1019F000000000000000E03F000000000000004088
:101A000053EC192B0FF068FE41EC190B53EC1A2B19
:101A100051EC180B0FF054FC53EC1C2B0FF050FC46
:101A200041EC180B029994ED221B41EC107B53EC16
:101A3000112B51EC100B0FF043FC53EC192B0FF052
:101A400073FD53EC182B0FF05DF941EC180B53ECC0
:101A50001E2B51EC1A0B0FF033FC53EC1A2B0FF02A
:101A60002FFC41EC190B059994ED281B41EC109BC0
:101A700053EC112B51EC100B0FF022FC53EC182BF4
:101A80000FF040F953EC192B0FF026FE41EC100B30
:101A90000BB07DE430B50446B0F88C0089B000048A
:101AA0000690B4F88E000D4600040790B4F890003C
:101AB00088340004089002A80CF0E8FB029906980C
:101AC0002B46401A06900399079806AA401A0790D9
:101AD00004990898401A08902088616A80B20CF036
:101AE00081FA09B030BDF0B50D462DED048B87B0FD
:101AF0006946FFF7CFFF9FEDFE8B00246F469FEDF9
:101B0000FE9A03AE57F8240000EE100A06EB84009C
:101B1000B8EEC00A20EE090A80ED000A20EE000AA5
:101B200010EE100A0FF0C2FE53EC182B0FF0EAF87B
:101B300041EC180B641C032CE4DBB0EE480AF0EE19
:101B4000680A0AF09BFAB0EE408AF0EE608A002440
:101B500056F824000FF0AAFE53EC182B0FF086F96C
:101B60000FF09EF800EE100A05EB8400641CD0ED27
:101B7000000A032C30EE200A80ED000AE8DB686DD5
:101B8000401C68650CF0ECFDE86707B0BDEC048B09
:101B9000F0BD2DE9F04104460CF016FC40BB0CF002
:101BA000A1FB042824D0D54920460E46FFF79BFF11
:101BB000D34DD5E95C01814205DB304603F0E5FBFE
:101BC0000020C5F87401208E4FF00406C00515D51D
:101BD00004F118000CF0EAFB8009B0F5C87F0AD2C6
:101BE000D5F8B800002850DD401EC5F8B8004AE01E
:101BF0000120BDE8F081C5F8B86044E0D4F8A01039
:101C0000D5F81401081A01D4034600E04342BB4A48
:101C10004FF4A02C583A634505DDD4E929035365F8
:101C2000C2E913102FE00312D4F8A470D5F81801FC
:101C30005B43381A01D4864601E0C0F1000EE64548
:101C400005DDD4F8A800D164C2E914701BE00012CD
:101C500000FB0033D4F8A800D5F81C11401A01D4B9
:101C6000014600E0414261450DDC001200FB0030FE
:101C7000B0F5403FB4DBA034C5F8B86094E80B0081
:101C80004C3282E80B000020B3E70220B1E72DE9D7
:101C9000F04F9B4C2DED028B93B0D4F8A81090ED33
:101CA000000B04EBC10181ED000BD4F8A810491C16
:101CB000C4F8A81090ED020B04EBC10181ED000BFC
:101CC000D4F8A810491CC4F8A81090ED040B04EB3C
:101CD000C10080ED000BD4F8A800401CC4F8A80097
:101CE000152802DB0020C4F8A800182284490CA89B
:101CF00003F083FF1822824904A803F07EFF012627
:101D00000DF1300A0DF1100BA146002406EB460838
:101D100008EB040109EBC1050AEBC40795ED001BB4
:101D200097ED000B53EC112B51EC100B0FF0C6FB91
:101D300003D295ED000B87ED000B0BEBC40795ED7F
:101D4000001B97ED000B53EC112B51EC100B0FF017
:101D50007BFA03D295ED000B87ED000B641C032C7E
:101D6000D6DB761C072ED0DB9DED0C1B9DED040B06
:101D700053EC112B51EC100B0FF0AEFC9DED0E1B34
:101D80009DED060B41EC180B53EC112B51EC100B95
:101D90000FF0A2FC53EC182B0FF056FA0BD39DED6D
:101DA0000E1B9DED060B53EC112B51EC100B0FF09D
:101DB00093FC41EC180B9DED101B9DED080B53ECB3
:101DC000112B51EC100B0FF087FC53EC182B0FF07C
:101DD0003BFA0BD39DED101B9DED080B53EC112B23
:101DE00051EC100B0FF078FC41EC180B13B0B0EE77
:101DF000480AF0EE680ABDEC028BBDE8F08F10B522
:101E000004462DED068B9CB0002155200E91CDE9A6
:101E10000F1011909FED3B8B0AA80CF005FA12A948
:101E20000AA80CF07BFD16AA0EA912A80CF099FDC9
:101E30006A460AA916A80CF094FD0198B2EE059A1C
:101E400000F5967001900298B0EE490A00F5967080
:101E50000290039800F596700390FEF78BFBBDEEA1
:101E6000C00A019910EE100AB0EE490A0844019028
:101E7000FEF780FBBDEEC00A029810EE101AB0EE1D
:101E8000490A08440290FEF775FBBDEEC00A0399AB
:101E900010EE100A08440390204601A9FEF77DFCCD
:101EA00094ED300B9FED191B51EC100B53EC112BE3
:101EB0000FF004FB5DD21AAA04A92046FEF73FFEEC
:101EC00060B39DED080B9FED138B51EC100B53ECA1
:101ED000182B0FF001FC41EC100B53EC102B0FF002
:101EE000EFF941EC190B9DED060B53EC182B16E0A6
:101EF000000000000000000000008037A81800204B
:101F0000881700200000000000408F400000000003
:101F1000000034400000000000C0724029E051EC95
:101F2000100B0FF0D9FB41EC100B53EC102B0FF002
:101F3000C7F99DED040B41EC1A0B53EC182B51EC37
:101F4000100B0FF0C9FB41EC100B53EC102B0FF0F2
:101F5000B7F953EC1A2B0EF0D5FE53EC192B0EF0FB
:101F6000D1FE41EC100B0AF089F8B0EE408AF0EE99
:101F7000608A9FEDFD0B51EC180B53EC102B0EF00B
:101F800075FF1CB041EC100BBDEC068B10BD10B5FD
:101F9000E821F74803F0CAFEF648F74920F8BC1FCD
:101FA0004A0CC280C181828281834284F048E82148
:101FB000E83003F0BBFEEF490020C1F8B40010BDCB
:101FC0002DE9F043EB4D04462DED108BC3B0006BB3
:101FD000C5F8A0012046FFF7DCFD00287ED1D5F82A
:101FE000941105F1BC08012911D1B4F98C003D9080
:101FF000B4F98E003E90B4F990003F903DA9DC48C2
:10200000FEF7CBFB04F18C01404600F0A4FB1FED72
:1020100048DB9FEDDABB9FEDDBCB9FEDDCAB9FEDAB
:10202000DDEBD34ED5F80801E83E002802DD401E66
:10203000C5F8080196ED300B53EC1D2B51EC100B3D
:102040000FF03CFA7DD2CA49E822E839684603F02D
:10205000D4FDC7483DA9E838FEF79FFBC44940AA14
:1020600020390F46A1F1C800FEF769FD00287BD09A
:10207000BF483946E838FFF791F9B0EE408AF0EEF4
:10208000608A95ED400B51EC180B53EC102B0FF0C0
:1020900023FB96ED300B41EC190B53EC1B2B51EC51
:1020A000100B0FF019FB41EC100B51EC190B53EC1A
:1020B000102B0EF0DBFE41EC100B09F0DFFF96ED6C
:1020C00030FBB0EE409AF0EE609A53EC1B2B51ECD3
:1020D0001F0B0FF001FB53EC1F2B00E0E9E00FF0AA
:1020E000EFF841EC1F0B53EC1C2B51EC180B0FF0CD
:1020F000E7F853EC1F2B0EF0B9FE41EC100B09F082
:10210000BDFFD5F8E8000FF0D1FB95ED381B53EC7F
:10211000112B0FF0D5F853EC192B0FF095F803D3D2
:10212000D5F80801002826DD9148E8226946E838FC
:1021300003F063FDD5F8E8000FF0B8FB95ED381B10
:1021400001E010E010E053EC112B0FF0B9F853EC64
:10215000192B0FF079F85CD24FF4FA7001F03CFEC5
:102160000A20C5F8080154E08148E8226946E838A9
:1021700003F043FD4DE0D5F89801012849D1D5F889
:10218000B400401CC5F8B40000200CF09DFF96ED93
:10219000320B53EC1A2B51EC100B0FF091F80EF0A0
:1021A000F9FF3A9096ED340B53EC1A2B51EC100BCF
:1021B0000FF086F80EF0EEFF3B9096ED360B53ECE9
:1021C0001A2B51EC100B0FF07BF80EF0E3FF3C9054
:1021D00003213AA80CF0EAFE96ED300B53EC1E2BCF
:1021E00051EC100B0FF06AF911D29FED6C0A6049A7
:1021F000E839F0EE400A0846FEF7FFF95C48394638
:10220000E838FFF7CBF8B0EE408AF0EE608A85ED53
:10221000408B208E564FC0050CD5B4F87400C00515
:1022200008D507F1E800FFF7EAFDB0EE408AF0EECE
:10223000608A01E09FED4C8B97ED300B1FEDCD1BBD
:1022400051EC100B53EC112B0EF0FEFF31D348492B
:1022500040AAC83189464648FEF771FC00287CD068
:10226000D4F8AC000EF0C5FF41EC100B53EC102B72
:102270009FED4B0B51EC100B0EF0F8FD41EC1F0BDA
:102280004846FFF704FDB0EE409AF0EE609A53EC3A
:102290001F2B51EC190B0FF011F90BD29FED420BD4
:1022A00051EC180B53EC102B0EF0CEFF02D2FFF7BF
:1022B0006EFEDBE153EC1F2B51EC190B0EF0C4FF4B
:1022C00051D251EC180B9FED3A9B53EC192B0EF0A9
:1022D000BBFFF5D297ED300B9FED371B51EC100B88
:1022E00053EC112B0FF0EAF8EAD296ED300B53ECD9
:1022F0001D2B51EC100B0EF011FF7CD149461C48F0
:10230000FFF74CF8B0EE408AF0EE608A85ED408B26
:1023100097ED309B53EC1B2B51EC190B0FF0DCF9B4
:1023200053EC192B0EF0CCFF41EC190B53EC1C2B8A
:1023300051EC180B0EF0C4FF53EC192B0EF096FD68
:1023400041EC100B09F09AFEB0EE408AF0EE608A84
:10235000D5F8E8000FF0AAFA00E088E195ED381B07
:1023600053EC112B2CE078E1000000000000084045
:10237000B8150020881700200080FFFF0000000033
:102380000000F03F000000000000004000000000DE
:102390000000F0400000000000409F406666E63EFE
:1023A0009A9999999999A941000000000000F83F75
:1023B00000000000000010400000000000003E404F
:1023C0000EF07EFF53EC182B0EF03EFFFFF46FAFC4
:1023D0009DED400B49464046FDF7C4FF02283FF4FF
:1023E00066AF00287ED1D5F898010128FAD10020E7
:1023F0000CF06AFE00E02FE097ED320B53EC1A2B45
:1024000051EC100B0EF05CFF0EF0C4FE3A9097ED0D
:10241000340B53EC1A2B51EC100B0EF051FF0EF055
:10242000B9FE3B9097ED360B53EC1A2B51EC100B89
:102430000EF046FF0EF0AEFE3C9003213AA80CF0E1
:10244000B5FD01200CF0DEFD1920009001900290F6
:1024500068460CF0CFFDF6E0D5F8B4000EF0C9FEEA
:1024600097ED301B53EC112B0EF000FD9FEDE71B99
:1024700053EC112B0FF022F8A8D34946E548FEF79C
:102480008DFF97ED30DBB0EE408AF0EE608A53ECC2
:102490001B2B51EC1D0B0FF01FF953EC1D2B0EF0F5
:1024A0000FFF41EC1B0B53EC1C2B51EC180B0EF0E7
:1024B00007FF53EC1B2B0EF0D9FC41EC100B09F07D
:1024C000DDFDB0EE40BAF0EE60BAD5F8E8000FF0EE
:1024D000EDF995ED381B53EC112B0EF0F1FE53EC9A
:1024E0001B2B00E087E00EF0AFFEC5D39DED400B47
:1024F00049464046FDF736FF00287CD196ED361B55
:1025000097ED360B53EC112B51EC100B0FF0E4F858
:1025100041EC100B53EC102B0EF0D2FE96ED341B59
:1025200097ED340B41EC1B0B53EC112B51EC100BC2
:102530000FF0D2F841EC100B53EC102B0EF0C0FE54
:1025400096ED321B97ED320B41EC1C0B53EC112B2B
:1025500051EC100B0FF0C0F841EC100B53EC102BAA
:102560000EF0AEFE53EC1C2B0EF0CCFB53EC1B2BF1
:102570000EF0C8FB41EC100B09F080FDB0EE40BA44
:10258000F0EE60BAD4F8AC000EF033FE53EC1B2B27
:102590000EF096FE9FEDA01B53EC112B0EF090FE5B
:1025A00041EC1B0B53EC192B0EF088FF1AD39FED57
:1025B0009C0B51EC1B0B53EC102B0EF07FFFBFF468
:1025C00076AED5F8B4000EF014FE97ED301B53EC48
:1025D000112B0EF04BFC9FED941B53EC112B0EF0C6
:1025E00033FEECD2D5F8980101287FF460AE0020CC
:1025F0000CF06AFD00E039E085ED408B97ED320B81
:1026000053EC1A2B51EC100B0EF05AFE0EF0C2FDDB
:102610003A9097ED340B53EC1A2B51EC100B0EF053
:102620004FFE0EF0B7FD3B9097ED360B53EC1A2B97
:1026300051EC100B0EF044FE0EF0ACFD3C9003216B
:102640003AA80CF0B3FCF7EE000A9FED790A714945
:10265000A1F1E800FDF7D1FF29E697ED300B53EC2F
:102660001E2B51EC100B0EF029FFF5D3002043B0C8
:10267000BDEC108BBDE8F08370B56E4C0546D4F808
:102680000C0110B9284600F091F8D5F8B01044F6C6
:10269000206081420ADAD4F8102111448142C4F842
:1026A00010114FF0000005DBC4F810012846BDE80A
:1026B000704085E470BD04224FF4C871AFF247004A
:1026C0000CF036BBAFF24F000CF0F2BD514810B524
:1026D000E821E83803F02AFBFFF759FC4FF4D471E6
:1026E000544803F023FB534CB7EE000A04F59070F6
:1026F00084ED3A0A02F095FD0A20C4F87001B2EEAA
:10270000000A84ED570A1E209FED4B0AC4F87C0195
:1027100084ED620A9FED490A84ED610A9FED480A43
:10272000002084ED630A10BD10B5FFF7CFFF00282D
:1027300005D1AFF27D00BDE810400CF081BB10BDAB
:1027400010B5AFF2CB000CF0B3FDAFF29500BDE8D1
:1027500010400CF0D3BD30B50022C2EBC20331F9FA
:10276000124030F91350AC420ADD02EB42040D88EE
:1027700020F8245000EB84044D8865808D88A58066
:1027800000EB430331F91240B3F906309C4209DAF9
:1027900002EB420300EB83030C88DC804C881C8135
:1027A0008C885C81521C032AD7DB30BD70B5214D6B
:1027B000D0F8AC200446EAB1D3170020192103F069
:1027C00074F945F8AC0F54F8AC2F0020D31705214D
:1027D00003F06BF9686022680020D317962103F09C
:1027E00064F90EF006FDC5E90D01AC3D0120C5F808
:1027F0000C0170BD6FF00040C5F8AC009FED110BEF
:10280000C5F8B00085ED380BF0E700000AD7A370DB
:102810003D0AE73FB8150020000000000000103E10
:102820000000000000000440333333333333C33F30
:102830000000000088170020CDCCCC3E3333333F5E
:102840009A99193F0000C0FFFFFFDF4110B5FF4913
:10285000C4074FF040434FF0804205D08B66CB66F3
:10286000C1E91C328A67CA67840709D5C1F80031FB
:10287000C1F80431C1E94232C1F81021C1F8142174
:10288000400709D5C1F89831C1F89C31C1E96832D7
:10289000C1F8A821C1F8AC2110BD2DE9F14F0020ED
:1028A00082B0824681460298806F00287ED0002246
:1028B0000020401C0428FCDB029800EBC203D3E993
:1028C0000010A1FB0167D3E9065400FB017701FB6F
:1028D0000077AB46AD1BCDE900670326A5FB06C814
:1028E000A64664EB070404FB0684002705FB0745A6
:1028F000DDE900671CEB06047D41A4FB016705FBD5
:10290000017504FB0055D3E90C47341B65EB070543
:10291000CDE900455D46A5FB05670324A6FB0458E9
:102920000EFB0B770BFB0E7707FB04844FF0000CBC
:1029300006FB0C44D3E91263761B63EB04034C18CB
:10294000A4FB017C40EB000505FB01C504FB005521
:10295000A7FB014C05FB01C507FB0055A4FB017C4F
:1029600005FB01C504FB0054F6196341DDE9004590
:10297000AD0045EA9475A400A4FB017C05FB01C1F0
:1029800004FB0014F01B73EB040103D50023404249
:1029900063EB0101BAEB000479EB010301DA824633
:1029A0008946521C032A83DB504600E016E0494664
:1029B0000EF0AAFF00EE900AA54890ED0E1A80EEE8
:1029C000810A10EE100A0FF01DF8A04AD2F80C226E
:1029D00003B09200BDE8F04F03F054B8002003B0FC
:1029E0000146BDE8F08F2DE9F14F0020009A014625
:1029F000926FE2B300240022521C042AFCDB009AEE
:102A000002EBC405AA46D5E90029A2FB023CD5E9A0
:102A100006769E46FB1A0325A3FB057809FB02CC2C
:102A200002FB09CB66EB0B0606FB05854FF0000C9D
:102A300003FB0C5617EB0E03A3FB027C46EB0B06C5
:102A400006FB02C203FB0923DAE90C25BA1AAB41E3
:102A500003D50025524265EB0303851A71EB03058C
:102A600001DA10461946641C032CC4DB00E015E0B3
:102A70000EF04AFF00EE900A754890ED0E1A80EEB7
:102A8000810A10EE100A0EF0BDFF704AD2F80C2237
:102A9000BDE8F84F02EB420202F0F4BF002001460D
:102AA000BDE8F88F2DE9FE43684D80460024D5F837
:102AB00010626F4605EBC4013246D1E9020102F013
:102AC000CEFF05EB8401B1F884100904401847F8E3
:102AD000240004F10104032CECDB5C48982108304D
:102AE00003F024F90120FFF7B1FE95F8E801019900
:102AF000042807D1D5F81802B0F5201F02DD052003
:102B000085F8E801524C0098636AC11A01D40E4658
:102B100000E01E1A0198A26A801A01D4074601E05B
:102B2000019FD71BBE4206DD002901D4084606E0FE
:102B30000098181A03E0002801D50198101A029A8B
:102B4000E16A521A01D4134601E0029BCB1A834278
:102B500005DB002A01D4104601E00298081AD8F8D3
:102B600024100BF0A2FED5F81812814206DD0321D5
:102B700068460CF0EFFA02200CF03EFB0098606211
:102B80000198A0620298E062BDE8FE83304AC2E983
:102B9000020170472E4AC2E9060170472C4AC2E979
:102BA00004017047294AD2F8E0310360D2E9740287
:102BB000C1E900027047254AD2F8E0310360D2E94A
:102BC0007602C1E9000270472DE9FE4781460020E8
:102BD000EA468A6F22B901EB800339F91020DA67DF
:102BE00001EB800239F91030D46F1D1B4AF82050D8
:102BF000136E9D4200DD1566D36E9D4200DAD566E8
:102C00000123002422464FEAE578A3FB056704FB75
:102C1000057403FB0844334602EB420601EBC6068B
:102C200006EBC00CDCE90076FF186641CCE90076C3
:102C3000521C042AE9DB401C0328CADB886F401CB5
:102C400088670120C1F89000BDE8FE873019002098
:102C5000901B002030B5002302EB830550F8234081
:102C60005B1CEC66032BF7DBC2F88810916F79B11F
:102C7000002102EB810450F82130E56F5B1B00D589
:102C80005B42256E9D4200DA2366491C0329F0DB76
:102C9000906F401C90670120C2F8900030BD10B5C5
:102CA00000210B4600EB8102491CD46ED4671366E9
:102CB0000329F7DBD0F8881040F8783FC0E9051306
:102CC00010BDD0E92210081A70470146D1E9180258
:102CD000824200DB1046896E814200DB0846704765
:102CE0002DE9F0478046501E012686408946C2F1F4
:102CF0002007404602F0C6FE04460D4640464946BF
:102D00003A4602F0ACFE3A4602F0BCFEB04203DDA9
:102D1000641C45F1000505E07142884202DA641E38
:102D200045F1FF3520462946BDE8F087F7490020E8
:102D3000086248628862C862086448648864C8643B
:102D4000086348638863C863086548658865C86523
:102D5000704730B5EE4AD2F8483223B1D2E99054E8
:102D60002D1A8C4101DAC2E990015B1CC2F848328D
:102D700030BD30B5E64AD2F8583223B1D2E9945486
:102D80002D1A8C4101DAC2E994015B1CC2F8583259
:102D900030BD30B5DE4AD2F828322BB1D2E98845B1
:102DA000041B71EB050401DAC2E988015B1CC2F85F
:102DB000283230BD30B5D64AD2F838322BB1D2E9FC
:102DC0008C45041B71EB050401DAC2E98C015B1C24
:102DD000C2F8383230BD2DE9F0470246CC48012513
:102DE00008308046C36E016E046FC91A436E1B1B08
:102DF0008B4200DB1946836ED8F87400181A88429B
:102E000000DB0146C14F6037F86B884204DA0024CA
:102E100000F010FA204687E7108E0124BC4EC00552
:102E20004FF000010ED5D6F880303068834209DBC0
:102E3000B2F87420D20506D5D6F8B021824201DB63
:102E4000052400E00C4674B3600719D5AF48C838B4
:102E50008146FFF722FD000D40EA01300915C6E961
:102E60007601D7E904321B1A8A4102DA0025FFF7FE
:102E7000A1FF9821484602F059FF0420FFF7E6FC25
:102E8000E0070ED04046FFF708FDC6E97C01D7E910
:102E900006340246181A8C4103DA00251046FFF763
:102EA00078FF284640E7FFE702203DE71EB50446CD
:102EB00090F83000C0F38110032804D19449201DFC
:102EC0000831FFF781FE94F87400C0F381100328E5
:102ED00005D18E4904F14800C839FFF775FED4F8D2
:102EE000B8008B4AC0F38113A0326946032B0FD080
:102EF000C0F3411003281AD1002004EB8003D3F85B
:102F0000A0309B1341F82030401C0328F5DB09E07A
:102F1000002004EB4003B3F98C3041F82030401C12
:102F20000328F6DB6846D4F8C010FFF793FE1EBDF9
:102F30002DE9F04705460020296BCA056AD501F046
:102F40005001402900D1012095F8741001F0500182
:102F5000402900D1012095F8B8106D4C01F05001C6
:102F6000402900D030B100F065F90020C4F8E0013C
:102F700084F8E801654ED4F80812E86A60368142A8
:102F800028D0C4F808020A28306B0CDA4000206010
:102F9000716B00EE100A491CC4F80C12B8EEC00A9E
:102FA00009F0A9F805E02060706BC4F80C0296EDFA
:102FB0000E0A84ED850AD4F80C02C0F11000C4F8A2
:102FC00010024FF48040C4F8180296F8341019200B
:102FD0008840F0632846FFF769FF94F8E811DFF8AE
:102FE000309105274FF0020809F1A009072911D2F5
:102FF000DFE801F0041127305E7E8500D4F8E0019F
:10300000411CC4F8E0110A2804DB00F013F9012088
:1030100084F8E80186E0D4F89800012810D1284609
:10302000FFF7D9FE10B1012803D004E084F8E8715D
:1030300001E084F8E8814846FFF731FEFFF776FEAD
:1030400070E0032084F8E8012846FFF72BFD00F02C
:10305000F1F867E02846FFF7BEFEE8B3012861D12A
:10306000B5F8B8004FF00403C00515D54846FFF782
:103070002CFE0146C017C4E97410D6E902C2BCEBAD
:103080000101824102DA84F8E87108E04846FFF75E
:1030900018FE316A884202D384F8E83124E0F4E96A
:1030A0007601FFF766FED4E90601FFF752FE39E02C
:1030B000B5F8B800C0050BD54846FFF706FE014637
:1030C000C017C4E97410D6E90232591A824108DBEC
:1030D0002846FFF780FE00E003E010B1012803D08E
:1030E00020E084F8E8711DE02846FFF7DBFCD6E716
:1030F000062084F8E80101200CF07EF80DE0284657
:10310000FFF769FE012805D038B10BE0301B002025
:103110003019002084F8E88104E000F08BF848467C
:10312000FFF7BDFD0020FFE510B50021401000288D
:1031300002D001F10101F9DC4FF0010001F10101C0
:1031400000FA01F0434C00EE100AC4E90C01B8EE9D
:10315000C00A08F0D0FF84ED0E0A94F8341019204C
:103160008840E06310BD10B54FF418713A4802F082
:10317000DDFD4021374802F0D9FD0720FFF766FB4F
:10318000344840F2DC510022C0E906121421C0E9A3
:1031900002124FF41671C0E9041230492E4C01623C
:1031A0000120C4F8E4011920FFF7BEFF0020C4F895
:1031B000080210BD10B54FF41871274802F0B6FD93
:1031C0000720FFF743FB244801210022C0F8E41147
:1031D00080F8E811032101200CF004F80722642193
:1031E000AFF2B320BDE810400BF0A2BD10B5012036
:1031F0000CF002F8AFF2C720BDE810400CF058B850
:1032000010B5FFF7B0FF002805D1AFF25700BDE8B9
:1032100010400BF015BE10BD10B5FFF7E7FFAFF281
:103220006B00BDE810400CF069B80B49D1E97C0196
:1032300070477047084810B59821083002F076FDB5
:103240009821074802F072FDBDE810400520FFF705
:10325000FDBA0000901B0020301900200008AF2F9D
:10326000681A0020F0B516462DED028B85B01F467A
:103270000C4605463C22FE49A1F10C0002F0EFFC91
:10328000FB4950224C31A1F1100002F0E8FCF84952
:1032900096E80D000C3901F13C0C8CE80D005CCC7B
:1032A00001F1980080E85C009FEDF28AD1F82401DA
:1032B000401CC1F82401062802DD0620C1F82401C3
:1032C000C0F106060C46A0351AE004EB06116A466A
:1032D000384648310BF045FB06EB460004EB800115
:1032E0006A4628460AF028FEF0EEC00AB0EEC81A78
:1032F000F4EEC10AF1EE10FA01D2B0EE408A761C6B
:10330000062EE2DB05B0B0EE480ABDEC028BF0BD44
:1033100070B514462DED048B0E46B0EE408A0025A4
:103320009FEDD59A416BF0EE498A002904DBD0F875
:10333000BC00032800D10125CD492422B431081F47
:1033400002F08DFCCA480C38002380ED388A00EB6F
:1033500083015B1C91ED2F0A0A2B70EE288AF6DBA5
:10336000B2EE040AC822C8EE800AC0ED390A9FED09
:10337000C31A322E1DDB9FEDC20AC0F81C21B6F520
:103380007A7FC8EE001A00EE104AB8EEC00A61EE6D
:10339000801A81EE810A2FDB9FEDBA0AC8EE001A6F
:1033A00000EE104AB8EEC00A61EE801A81EE810A82
:1033B00022E041F2883194FBF1F14942D0F81C310E
:1033C00001EB8101C918C0F81C1102D50021C0F819
:1033D0001C119FEDAD0AC8EE001A00EE104AB8EEBF
:1033E000C00A61EE801A81EE810A29B9D0F828114D
:1033F000012901D1B0EE490AD0F8201109B1B0EE8F
:10340000480AA2498C4201D1B0EE480AB5EEC00A82
:10341000F1EE10FA01D0C0ED3A0A90ED3A1A9C4B49
:1034200071EE600AF0EEE00A10EE901A994227DD84
:10343000D0ED2E0AF5EEC00AF1EE10FA20D1002DE3
:103440001ED0C0F81C2120460DF0D3FE41EC190B14
:1034500018EE100A0EF02AFA9FED8E1B53EC112B7A
:103460000DF004FD53EC192B0DF02AFF9FED8B1B83
:1034700053EC112B0DF0FAFC0DF012FC00EE100ACB
:10348000BDEC048B70BD2DE9F04F04462DED048B8F
:10349000A9B09FED799A4FF0000A754ECDF810A0B3
:1034A0000C3ECDF814A0CDF818A0D6F820110220BB
:1034B00003297DD000209FED7B8A20AD06EB8001A3
:1034C00091ED2A0A05EB8001401CB8EEC00A0428E1
:1034D00020EE080A81ED000AF0DB0FA80AF0A4FE36
:1034E00024A80AF005FF624B24AA9C330FA92046AA
:1034F0002793FFF7B7FEF0EE408A04F118000AF0B8
:1035000055FF81096148D6F83021824200DB02462E
:10351000B0EE680A2046FFF7FBFED6ED3B0AB34645
:103520000BA820EE200A86ED2E0A0AF07DFE13A9D4
:103530000BA80BF090FB4E480FAAF0300BA90646E3
:103540000BF00FFA31460BA80BF0E8F900210DF152
:103550003C080DF14C090DF1100E002213461046E7
:1035600001EB410C0CEB000759F8276008EB8007D2
:10357000401C7F680328C6FB0723F3DB900F40EA5B
:1035800083004EF82100491C0329E6DBDBF820010B
:103590005E4600286AD05046CDF818A0404200EEA2
:1035A000100AB8EEC00A20EE080A08F009FA00E096
:1035B000A2E08DED000A8DED019A8DED029A06983C
:1035C000404200EE100AB8EEC00A20EE080A08F0E9
:1035D0008DFC8DED030A9DED060ADFED330AD6F86A
:1035E0003001B8EEC00A41F2883190FBF1F080EE74
:1035F000201A00EE100AF8EEC01A81EE210AB0EE91
:10360000001AC0EE011ABDEEE10A10EE101A4900D0
:1036100000EE101A0691B8EEC00A60EE200A00EE25
:10362000100AB8EEC00A20EE800ABDEEC00A8DED89
:10363000060AB8EEC00A20EE080A08F0C1F98DEDBE
:10364000070A8DED089A8DED099A9DED060AB8EEF0
:10365000C00A20EE080A08F049FC8DED0A0A1CAAEF
:10366000694620A80BF0D5F96A461FE04BE0000040
:10367000DC1B0020002474490000000000409C4531
:1036800000004843000048420000C84340420F0089
:103690000E2DB23D00000000000079400000000047
:1036A0000088B34000008030E102374707A91CA81A
:1036B0000BF0AFF96F46DFED958AD4F8BC00002817
:1036C00013DD002007EB800191ED000A05EB80017E
:1036D00081ED000A20EE280A06EB8001401C042838
:1036E000BDEEC00A81ED2A0AECDBD4F8BC00F6EE90
:1036F000009A03280CD108E0C6F8200129B0BDECDF
:10370000048BBDE8F08F069848E700F03DFEE0B37B
:1037100096ED2A0AB8EEC00A20EE080A8DED1C0AC2
:1037200096ED2B0AB8EEC00A20EE080A8DED1D0AB0
:1037300096ED2C0AB8EEC00A20EE080A8DED1E0A9E
:1037400096ED2D0AB8EEC00A20EE080A8DED1F0A8C
:10375000D6F820010028D1D096ED2E0A20EE290AB5
:1037600008F02EF920EE280ABDEEC00A86ED2A0ADE
:10377000C6F8ACA0C6F8B0A096ED2E0A20EE290A35
:1037800008F0B4FB20EE280A00E004E0BDEEC00A19
:1037900086ED2D0A2BE096ED2E0A20EE290A08F080
:1037A0000FF98DED070A8DED089A8DED099A96EDCA
:1037B0002E0A20EE290A08F099FB8DED0A0A6A46C6
:1037C00007A920A80BF025F968460BF0CDF90020D9
:1037D00007EB800191ED000A06EB8001401C20EE12
:1037E000280A0428BDEEC00A81ED2A0AF0DBD4F8CD
:1037F000C01027980BF00CFCD6F820010028AAD0A6
:10380000401E79E770B590F8B810414ACC064FF0E9
:1038100000034FF0030101D4C2E94813B0F820417E
:10382000E40509D4048EE40503D5B0F87440E4053A
:1038300002D4C2E948131AE0D2F8341139B1D0E900
:103840003013C91A4FF47A73B1FBF3F105E0D0F8E5
:10385000B01044F62064A14202DBC2F830110AE045
:10386000D2F82C512944C2F82C11A14201DA0020CF
:1038700070BDC2E94B31FFF706FEF8E710B54FF413
:103880009C71234802F052FA214C4FF080400021F5
:10389000C4F8FC0044F8A80F1D48A8300BF0B8FB92
:1038A0004FF47A70B7EE000A606784ED110A10BD1C
:1038B000174880ED3B0A002070471549C1F82801E0
:1038C000002070471249C1F83401002070470422DB
:1038D0004FF41671AFF2D3000BF02ABAAFF2DB004F
:1038E0000BF0E6BC10B5FFF7C9FF09490020C1F88D
:1038F0002801C1F83401AFF22900BDE810400BF0F7
:103900009FBAAFF235000BF0F9BC00000000804E0A
:10391000D01B00201FB501461022684602F028F98E
:10392000F7489DE80E0080E80E00F6499DF80C006F
:1039300081F8B001002004B010BD1FB5F0490EC9D8
:103940008DE80E00EF49102291F8B0118DF80C109F
:10395000694602F00DF90020EDE72DE9F04F91B036
:1039600000251821684602F0E1F90024182106A874
:1039700002F0DCF9E348A046C14690F8C0110129E5
:103980007ED1D0F8B8B1D0F8B4A10022C2EBC20009
:1039900000EB4001DB4800EB810E9EF850000F90D9
:1039A000002864D000215FE0DDE900076D1C5EF8AF
:1039B00021300E93181847EBE376CDE900060EEBA5
:1039C0008100EDB243690D93DDE9027C4FEAE376B5
:1039D000DB1946EB0C06CDE90236836ADDE9047C8F
:1039E000DE170C93DB1946EB0C06CDE90436C06BF1
:1039F0000E9BDDE9067C83FB0063360C46EA03463A
:103A0000F6194CEB2343CDE906630D9BDDE9087CF9
:103A100083FB00634FEA164646EA0346F6194CEB71
:103A20002343CDE908630C9BDDE90A7C83FB00633B
:103A30004FEA164646EA0346F6194CEB2343CDE916
:103A40000A6380FB00634FEA164646EA034616EB1C
:103A5000080849EB23490444584501DA834602E04B
:103A6000504500DD8246491C0F9888429CDC521C60
:103A7000052A8BDBA348AAEB0B01D0F8BC0100E0C0
:103A800056E0814254DBA5FB0823E0170026109086
:103A900006FB083005FB0900CDE90C2084FB04205F
:103AA000110C41EA00410014CDE90E0106A800EB1B
:103AB000C601D1E90003A0FB05B203FB05220021EA
:103AC00000FB012C684600EBC601D1E90001A0FB18
:103AD000043701FB0471109A00FB0210190C41EA33
:103AE00000490CAA4FEA204A92E889000F9983EA1C
:103AF000070880EA010252EA080212D0421A63EB78
:103B00000703BBEB09006CEB0A0C4FEA0C4141EADE
:103B10001041000401F0C9FF7A4901EB8601C1F8A8
:103B2000A401761C032EC1DB7648012180F8B01178
:103B300011B00020BDE8F08FF8B5724D0E46044676
:103B4000D5E96D01091A052291FBF2F1301A90FBBB
:103B5000F1F0C0B28DF80000042801D92020F8BD92
:103B6000C0EBC00000EB400005EB800191F8500075
:103B7000052816D0421C81F850209DF80010C1EB9A
:103B8000C10101EB410105EB810202EB8001CE6333
:103B9000236842F8203060684861A068886200208D
:103BA000F8BD01F14003181F1022194602F057F822
:103BB0009DF800001022C0EBC00000EB400005EBB8
:103BC0008000011D02F04BF89DF800001022C0EBB0
:103BD000C00000EB400005EB800000F1180114303C
:103BE00002F03DF89DF800001022C0EBC00000EB91
:103BF000400005EB800000F12C01283002F02FF886
:103C00000420BAE730B585B0044603A968460AF037
:103C1000A7FB04A80AF058FC02282BD0D4F8E40033
:103C20000399401A374991F8B02112B308B3D1F87B
:103C3000A421009C80FB0232150445EA1342224471
:103C40000092D1F8A821019C80FB0232150445EABC
:103C5000134222440192D1F8AC11029A80FB011068
:103C6000030443EA114010440290032168460BF01C
:103C700071FA0CE0606B032809D10AF083FB30B1C4
:103C800068460399FFF758FF08B9FFF766FE05B0CD
:103C9000002030BD10B54FF4E2711A4802F046F82A
:103CA00018481949C0F8B4114FF4AA01C0F8B81166
:103CB0004FF4A021C0F8BC11012180F8C0110020F0
:103CC00010BD1049C1F8B801002070470D49C1F876
:103CD000B401002070470B49C1F8BC0100207047B7
:103CE00058B10849D1F8A4210260D1F8A821426056
:103CF000D1F8AC11816000207047052070470000AA
:103D0000AC1E0020081D00200000D8FF2420F5E78D
:103D100020B12D4981F8C0010020EFE72420EDE714
:103D2000294B93F8B1010028E8D0D3E96D10401A6F
:103D3000052190FBF1F00020C0EBC00101EB410137
:103D400003EB810191F8502022B1002100E0491CD1
:103D50008A42FCDC401C0528EEDB0020CEE708226E
:103D600096211A480AF0E4BF18480BF0A1BA10B522
:103D7000FFF790FF4FF49A731022154915480BF086
:103D800029F820B9AFF229000BF05AF808B1012048
:103D900010BD0D49012081F8B101002010BD10B502
:103DA000094C94F8B101002808D008480BF080FABB
:103DB000AFF255000BF0A2FA08B1012010BD0020AF
:103DC00084F8B10110BD0000081D0020053C00086A
:103DD0003B39000815390008002803DDFE4901229F
:103DE000C1E920020020704710B5B821FA4801F05F
:103DF0009DFF9FEDFA0AF84880ED030A9FEDF80A4F
:103E000080ED020A9FEDF70A4FF0804180ED000A35
:103E1000B3EE0E0A80ED010A41664FF4FA619FEDA0
:103E2000F20AC16780ED270A002010BD70B5EA4C88
:103E3000002594ED001AB4EEC01AF1EE10FA17D373
:103E400094ED011AB4EEC01AF1EE10FA10DC2069FC
:103E5000012817D194ED030AB4EEE00AF1EE10FA4E
:103E600006D394ED020AB4EEE00AF1EE10FA09DD91
:103E7000606F20B9D848A16D18300BF0C9F8012047
:103E8000C4E91D05D4E91E01884204DB606F0128E6
:103E900000D1E565656770BD10B504462DED028B58
:103EA000B0EE408A0AF0CAF9CB49002220B918EED8
:103EB000100ACE4B984202DD0A614A6102E00869AD
:103EC000002808D1486920444861B0F5FA7F02DD36
:103ED0000120C1E90402BDEC028B10BDF0B58DB02C
:103EE0000D461446064669460AF0B5FE09AA314653
:103EF00028460AF036FD294630460AF00FFD00211B
:103F0000EC460DF1240E00231A46184601EB41073A
:103F10003D180EEB80065CF825507668401CC5FB0A
:103F200006320328F4DB980F40EA820044F82100AF
:103F3000491C0329E7DB0DB0F0BDA7490020C1F8FB
:103F40008C00704710B590ED000AD0ED010AB8EE74
:103F5000C00AB8EEE01AF8EEE00A20EE000A01EE20
:103F6000200AD0ED020AB8EEE01AF8EEE00A01EEFF
:103F7000200A08F0C0F8DFED9E0A20EE200A10BDEE
:103F800000229549012330B1012810D0C1F89830A2
:103F900041F88C2F31E081ED280A81ED290A9FED4F
:103FA000950A81ED2A0AE1E924328A607047D1ED51
:103FB000280A91ED271A70EE600AF0EEE00AF4EE9E
:103FC000C10AF1EE10FA16D2D1F89400401CC1F8E3
:103FD0009400D1ED290A312830EE800A81ED290ABA
:103FE000E4DD0220DFED840AC1F8900080EE201AA3
:103FF00081ED2A1A704741F8902F4A6070472DE9E9
:10400000F04798462DED088B8AB017468A4604463D
:104010009FED788A0025704E039504950595D6F896
:10402000880000287DD00AF0B9F910B103A80AF081
:1040300089F9D6F880004FF00109002817DDC6F88D
:1040400084900AF0ABF948B103A80AF0AFF98009EF
:10405000B0F5C87F02D2D6F8800004E0D6F8800020
:10406000001BC6F88000002801DCC6F884500AF066
:1040700077FB002855D000209FED5D9A57F820105F
:1040800000EE101A58F82010401CB8EEC00A0328A1
:1040900060EE090A00EE101AB8EEC00A20EE800A9F
:1040A00000EE098AEADB3846FFF74CFFF0EE408A63
:1040B0004FF07E5788EE280AF7EE00AA10EE100A9D
:1040C000B84201DDB0EE6A0A10EE100ADFF82C816A
:1040D000BFEE00BA404501D9B0EE4B0A07F02AFA0C
:1040E000D6F88C00B0EE40AA98B196ED000AB4EE76
:1040F000E80AF1EE10FA0CDD96ED010AB4EEE80ADA
:10410000F1EE10FA05D2B0EE4A0AD6F89000FFF7A9
:1041100037FF68460AF0C2F92F490C22AC316846D5
:1041200000E0E2E001F0F8FC18B9D6F898000128A8
:104130006BD129489DE80E00AC3080E80E00009855
:1041400018B9019808B90298F0B36846FFF7FAFE6B
:10415000B0EE408AB5EEC08AF1EE10FA55D0F2EE1C
:10416000049A38EE690A20EE000A07F0C4FF86EDD3
:10417000010A38EE290A20EE000A07F0BCFF86ED9E
:10418000000A9DED020AB8EEC00A60EE090AB0EE20
:10419000480A80EE808A18EE100AB84201DDB0EEBF
:1041A0006A8A18EE100A404501D9B0EE4B8AB0EE8B
:1041B000480A07F0BFF9D6ED270A30EE600A86ED0F
:1041C000020AB0EE480A00E024E007F0B3F9D6EDA9
:1041D000270A30EE200A14E0CC1E00200000B44272
:1041E0000000B4C2000070427B142E3E00401C460A
:1041F000000080370000000000004842000080BF3F
:1042000003E086ED030AC6F88C50DFF88481F16D77
:1042100021B32FE01FED0D0A86ED000AB3EE0E0A62
:1042200086ED010AD6F89800012808D01FED140A7F
:1042300086ED020A1FED170A86ED030AE5E796ED03
:104240002A0A96ED271A70EE410A30EE010AC6EDF1
:10425000020A86ED030AC6F89850D6E70027C6F88A
:104260005C9006EB0710414618300AF019F87F1CE5
:10427000042FF6DB464906AA0C310F465046FFF7DD
:104280002DFE394650460AF049FB03A80AF08EF885
:1042900000EE100ADFED3F0A2046B8EE400A20EE9D
:1042A000200AFFF7F9FDF0EE4A0AB0EE680AFFF7C0
:1042B000BDFDD6E91E01884201DA2044B067706F67
:1042C00090B9306E20443066B0F57A7F0CDD30490D
:1042D00030223039A1F11000356601F0C0FC2C48C5
:1042E0004146103809F0DCFF706F0AB0BDEC088B56
:1042F000BDE8F08770B588B0044604A809F0F8FF5F
:10430000D4E93001451A684609F08EFF064604AB31
:1043100004F1A00269462846FFF771FE0AF088FE04
:1043200008B0304670BD04224FF49671AFF23B00E6
:104330000AF0FEBCAFF243000AF0BABF10B5FFF7B7
:1043400053FD00280DD1124800215838C0F88C10B8
:104350000121C0F88810AFF23100BDE810400AF02A
:104360006FBD10BD10B5AFF273000AF0A1FFAFF240
:104370007B00BDE810400AF09BBF05490120583979
:10438000C1F88C000020704701485838406F7047D2
:10439000241F00200000803CF0B51D462DED028B4F
:1043A00099B090ED000AD0ED010A1746B8EEC00AA8
:1043B000B8EEE01AF8EEE00A0E4620EE000A0446D7
:1043C00001EE200AD0ED020AB8EEE01AF8EEE00A9B
:1043D00001EE200A07F08FFEF0EEC00A10EE900A00
:1043E000B0F18D4F7EDDD6ED000AB8EEE01ADFEDBC
:1043F000FE0A21EE201A8DED041A96ED011AB8EE90
:10440000C11A21EE201A8DED051A96ED021AB8EEAA
:10441000C11A21EE201A8DED061A96ED031AB8EE98
:10442000C11A61EE200ACDED070A9FEDF08A10AAAD
:104430008DED0C8AD4ED000A0CA904A8F8EEE00A70
:1044400080EE801A8DED0D1AD4ED010AF8EEE00A27
:1044500080EE801A8DED0E1AD4ED020AF8EEE00A15
:1044600080EE801A8DED0F1A0AF0D3FA14A904A871
:104470000AF060FA6A4614A910A80AF0CAFA9DED7B
:10448000021ADDED010ADA4921EE010A00EEA00A66
:1044900010EE100A884202DA9FEDD60A11E010EE03
:1044A000100AD549884202DA9FEDD40A09E010EEDD
:1044B000100AD349884202DAB5EE000A01E09FED06
:1044C000D10A01EE907AB8EEE12ADFEDCF2A8DED28
:1044D000088AC2EE221A21EE800A21EE001A8DED22
:1044E000091A00E038E020EEC00A6A4604A98DED02
:1044F0000A0A8DED0B8A08A80AF08BFA6A4604A90D
:1045000010460AF0EAF968460AF0ECFADDED000A16
:104510009FEDBE0A60EE800AFDEEE00AC5ED000ADE
:10452000DDED010A60EE800AFDEEE00AC5ED010A4C
:10453000DDED020A60EE800AFDEEE00AC5ED020A3A
:10454000DDED030A20EE800ABDEEC00A85ED030A08
:1045500019B0BDEC028BF0BD96E80F0085E80F00A6
:10456000F6E72DE9F0410C462DED068B054690ED62
:10457000000AD0ED010AB8EEC00AB8EEE01AF8EE73
:10458000E00A20EE000A01EE200AD0ED020AB8EEA1
:10459000E01AF8EEE00A01EE200A07F0ACFD10EE9A
:1045A000100A4FF07E5800264FF0804740453FDD0F
:1045B000D5ED020AB7EE009AF8EEE00AC0EE808A66
:1045C00039EE680A9FED89AAB5EEC00AF1EE10FA3D
:1045D00001DCB0EE4A0AF6EE009A20EE290A07F056
:1045E0008AFDB0EE408A38EE890AB5EEC00AF1EED7
:1045F00010FA01DCB0EE4A0A20EE290A07F07BFD32
:10460000F0EE408A95ED000AB8EEC00A60EE000AAE
:1046100095ED010AB8EEC01AB8EEC00A41EE000AE4
:10462000B0EE600A07F067FD10EE100A404503DCAB
:10463000C4E90076A66025E0DFED740A28EEA01A32
:10464000BDEEC11A84ED001A95ED011AF8EEC11AFB
:1046500081EE801A21EE081A61EE200AFDEEE00AD2
:10466000C4ED010AD5ED000AF8EEE00A80EE801AEA
:1046700021EE080ADFED660A20EE200ABDEEC00A30
:1046800084ED020AE660BDEC068BBDE8F08170B5F2
:1046900090ED000AD0ED010A0546B8EEC00AB8EE6A
:1046A000E01AF8EEE00A0C4620EE000A01EE200ABD
:1046B000D0ED020AB8EEE01AF8EEE00A01EE200AA8
:1046C000D0ED030AB8EEE01AF8EEE00A01EE200A97
:1046D000B5EEC00AF1EE10FA07D84FF08040206026
:1046E00000206060A060C86070BD07F004FDB7EEF8
:1046F000001AC1EE000A9FED450A20EE800AD5EDB2
:10470000000AF8EEE00A60EE800AFDEEE00AC4ED71
:10471000000AD5ED010AF8EEE00A60EE800AFDEE2F
:10472000E00AC4ED010AD5ED020AF8EEE00A60EEF7
:10473000800AFDEEE00AC4ED020AD5ED030AF8EEA8
:10474000E00A20EE800ABDEEC00A84ED030A70BDC7
:1047500070B5044690F8300088B040067ED5A06958
:10476000002801DB014600E041424FF48032002680
:10477000284D91420BDAE169002900DA4942914261
:1047800005DA216A002900DA4942914267DB0028F4
:1047900000DA40424FF4C80188420BDCE06900288F
:1047A00000DA4042884205DC206A002800DA4042F4
:1047B000884201DD032000E00220A863696BA06A43
:1047C000814242D0686394ED0A0A9FED131AF8EE15
:1047D000C00A80EE810ADFED110A20EE200A10EEF9
:1047E000100A0DF063F81BE00000803000000000AC
:1047F00017B75139A69BC43B0AD7233C8FC2753DDE
:10480000CDCC4C3ECDCCCC3E0014CD470000804EEC
:10481000000080CE841F0020002474490000004E58
:104820009FEDFA1B53EC112B0CF04AFD9FEDF91B89
:1048300053EC112B0CF044FD9FEDF81B53EC112BA6
:104840000CF014FB0CF0A6FC28630496296BA069FD
:104850000AF02BF80590296BE06901E022E023E0E3
:104860000AF023F80690296B206A0AF01EF80790D8
:104870006A4604A9EB480AF074F80098E94A8001F6
:104880000090019869468001019002988001029091
:1048900003988001039010460AF00DF8E14908469C
:1048A000FFF7F5FE08B070BDAE63FBE770B50446D8
:1048B0002DED048B8EB0D0F82001410676D5D94D70
:1048C000D4F81011D84B2A68891AD4F82C215A43ED
:1048D0008A4201DA032100E00221A963800504F580
:1048E000887602D5CF493046B5E0002107A809F007
:1048F00037FDCC490C223C3107A801F00DF920B955
:10490000D4F82801A96D88427ED020886B4680B2F9
:1049100007AA616A09F066FB9DED000ADDED010A58
:10492000B8EEC00AB8EEE01AF8EEE00A20EE000A8F
:1049300001EE200ADDED020AB8EEE01AF8EEE00A18
:1049400001EE200A07F0D7FBB0EE408A9FEDB70AD0
:1049500068EE000A9FEDB61A80EE810ADFEDB50A17
:1049600020EE200AD4ED4A0AF8EEE00A60EE800A52
:104970001FED571A80EE810AF6EE000A20EE209A0B
:10498000B0EE490A07F01CF8F0EE408AB0EE490A92
:1049900007F0ACFA18EE100A4FF08041884206DAB0
:1049A0000020C5E912102865686532E055E05FED2A
:1049B000690A68EEA00AFDEEE00AC5ED120A5FED95
:1049C0006C0A20EE200ADDED000AF8EEE00A60EE47
:1049D000200A80EE881AFDEEC10AC5ED130ADDED4E
:1049E000010AF8EEE00A60EE200A80EE881AFDEE79
:1049F000C10AC5ED140ADDED020AF8EEE00A20EE68
:104A0000200AC0EE080A00E00DE0BDEEE00A85EDE8
:104A1000150A07AB93E8070005F13C0383E807009C
:104A2000D4F82801A8657F4903AA4831304609F027
:104A300098FF7C480AAA5C3003A9044609F091FF5C
:104A40002146304609F06AFF03AA0AA9754809F011
:104A500088FF744903A8FFF71AFE0EB0BDEC048B63
:104A600070BD1FB5044669466E4809F057FF6D4A90
:104A700069462032204609F074FF6A491DCC103186
:104A800081E81D001FBD2DE9F0470446654E90F8F2
:104A9000740006F15C0A06F12008012500F05001BF
:104AA000103692B004F5887904F15C07402906D0ED
:104AB00094F8200100F0500040280DD01DE0314650
:104AC0003846FFF74EFDB4F82001C0050CD551461D
:104AD000484609F023FF07E05146484609F01EFF0B
:104AE000B4F87400C00508D569464E4809F016FFB1
:104AF00042466946304609F034FFB4F82001C0054B
:104B0000204602D5FFF7D2FE01E0FFF721FE324634
:104B10004449404609F025FF94F8740040066FD5DB
:104B2000208EB4F820110843C0056DD50FAA394670
:104B300030460AF071F8D4E9172080FB0001C2FB6F
:104B40000201626E374FC2FB02014FF08042801AB1
:104B500071F1020014DB04A809F060FCDDE9042017
:104B600080FB0001C2FB0201069AC2FB02014FF06A
:104B70008042801A71F1020002DB0420B8630BE06E
:104B8000B86B042808D041F28832022806D00328E6
:104B900004D0012852D009E0002507E0E16E91FB26
:104BA000F2F5012D00DA0125032800D0AD002248DE
:104BB00000244543109807948002294609F075FEA9
:104BC00008900F9829464042800209F06EFECDE918
:104BD00009040BAA314607A809F0C3FE32460BA907
:104BE000104609F068FE31460846FFF750FD694659
:104BF0000C4809F093FE42466946304609F0B1FE82
:104C000012B00020BDE8F08720E00000112D4454D0
:104C1000FB2109400000000000007040000000007F
:104C200000806640841F002071981C00DB0F494003
:104C30000000344300008037A69BC400E06E90FB68
:104C4000F2F0012800DA01204500AFE733461946AB
:104C50003846E26EFFF7A0FBC9E770B50446008E48
:104C6000C105D4F8200107D4B4F87410C90503D4E1
:104C7000C10501D4002070BDC0F30120032807D076
:104C80002046FFF700FF2348A16B0AF001FBF1E784
:104C900004F588711F482EC980E82E00F3E71E48EE
:104CA0000AF006BB1B4810B56C21103801F03EF825
:104CB00018484FF080411038016101600162C16302
:104CC000C165002010BD184810B5082213A1006866
:104CD00000F022FF08B1322010BD1322BDE81040C1
:104CE000C8210D480AF024B810B5FFF7DBFF0028F3
:104CF00005D1AFF22D00BDE810400AF0A1B810BDFB
:104D000010B505480AF0D4FAAFF24500BDE81040EE
:104D10000AF0F4BA941F00205B4C0008654D504C1B
:104D200020352E31000000005C08002000209FED9F
:104D3000FE0AFE4ADFEDFE0A02EB8001401C81ED17
:104D4000080AC0B2C1ED0B0A0328F5D37047F74A31
:104D5000002002EB8001D1ED080A91ED2D0AF4EE5E
:104D6000C00AF1EE10FA01D281ED080AD1ED0B0A6A
:104D7000F4EEC00AF1EE10FA01DD81ED0B0A401CE1
:104D8000C0B20328E5D370473EB50B46B0F84810D3
:104D900009040091B0F84A10009A09040191B0F892
:104DA0004C1009040291E1494C6E121B0092019AC9
:104DB0008C6E121B0192029AC96E511A0291816E79
:104DC000B0F844006A4680B209F00CF93EBDF0B577
:104DD000D64F00242546D7F894208DB02E46012AC0
:104DE00001D1C7F8946009A9FFF7CEFF05A809F023
:104DF0007FFA059909986022A0EBA13009900699E5
:104E00000A98A0EBA1300A9007990B98A0EBA1306B
:104E1000C8490B90081F00F022FF0DF1240CC54873
:104E20009CE80E00143080E80E00684609F0F6FA9F
:104E3000C04960226C31081F00F011FFBD489DE899
:104E40000E00803080E80E0000210922D7F82C04E3
:104E5000401CC7F82C0401EB410007EB8000DDF893
:104E600000C0D0F84C33491C93FBF2F31C44D0F83B
:104E70005033092993FBF2F31D44D0F8543393FBCC
:104E8000F2F31E44D0F8B83393FBF2F3634400937B
:104E9000D0F8BC33DDF804C093FBF2F36344019314
:104EA000D0F8C003029B90FBF2F018440290CDDBD7
:104EB000002C00DA6442002D00DA6D42002E00DA88
:104EC00076420098002800DA4042009001980028BD
:104ED00000DA404201900298002800DA4042029035
:104EE000009900208C4200DA012001998D4200DAFD
:104EF000401C02998E4200DA401CD7F82C14092974
:104F000000DB401C04280DD197F8240402280BD99B
:104F100001468648D7F8282464300AF003F80120B7
:104F200009F0FAFF0DB0F0BD09F0E8FFFAE72DE94E
:104F3000F0417E4D00272DED048B06463C4685F85A
:104F400024749FED7D9B9FED7E8BC5F8287405EB47
:104F50008400D5ED0F0A90ED330AB4EEE00AF1EECD
:104F600010FA1EDB95ED140B53EC182B51EC100BC3
:104F70000CF0B2FB41EC100B06F0CAFD53EC192B00
:104F800051EC100B0CF060F90BD295F824040121C0
:104F9000401C85F82404D5F82804A1400843C5F82E
:104FA0002804641CE4B2032CD1D395F82404B8B3CC
:104FB000002406EBC40090ED000B51EC100B0CF03C
:104FC000E9F805EB8401641CE4B24866032CF0D3D5
:104FD000C5F82C74A868042802DA95F82404A8609F
:104FE00095F8240403281BD15749E868884217DC48
:104FF00095ED140B53EC182B51EC100B0CF06CFBD3
:1050000041EC100B06F084FD53EC192B51EC100B06
:105010000CF01AF904D2A868032801D10420A86072
:105020004A49286988421DDA4949E868884219DCFA
:1050300095ED140B53EC182B51EC100B0CF04CFBB2
:1050400041EC100B06F064FD9FED421B51EC100B80
:1050500053EC112B0CF0F8F804D2A868042801D105
:105060000520A860BDEC048BBDE8F0812DE9F0417E
:105070002E4C0746D4F8A404012802D00025284667
:10508000F2E73649F7EE000AA1F1E800B7EE000AB0
:105090000646FBF7B2FA254A3046503202F5AC71AB
:1050A000FBF74DFD0500EAD06068401C606094EDA0
:1050B000140B51EC100B0CF06DF8B96E09F0F5FB08
:1050C00000EE100ADFED260AB8EEC00A20EE200A34
:1050D00010EE100A0CF0EAFBC4E9140194ED6A0B1F
:1050E00051EC100B0CF056F8A06594ED6C0B51ECE4
:1050F000100B0CF04FF8E06594ED6E0B51EC100BBB
:105100000CF048F8206694ED680B9FED161B51ECEF
:10511000100B53EC112B0CF0D1F9B0D231469FEDAE
:10512000130AF0EE400A23E000401CC6F01F0020E6
:1051300000401C46402300209A9999999999B93FBB
:10514000000000000000F03FAE47E13D00007A4360
:10515000BC74933C9CC420B07268913FB82100207D
:1051600000008037000000000070A740CDCCCC3E8E
:105170000846FBF742FA82E7D0ED030A90ED040AF5
:1051800000210122F4EEC00A0223F1EE10FA12DD32
:1051900090ED051AF4EEC10AF1EE10FA0BDDB4EE53
:1051A000C10A0164F1EE10FA02DBC0E91123704775
:1051B000C0E911327047B4EEE00AF1EE10FA12DDE8
:1051C00090ED051AB4EEC10AF1EE10FA0BDDF4EE23
:1051D000C10A0264F1EE10FA02DBC0E91113704754
:1051E000C0E911317047F4EEC00A0364F1EE10FA21
:1051F00002DBC0E911127047C0E91121704700239A
:1052000019469FEDFE0AC36400EB8102491C82ED42
:10521000000A82ED090A0329F6DB0121C0E91D130A
:10522000704730B504461420A0650A20206600258A
:1052300084F870502046FFF7E2FF656530BD70B519
:105240002DED048B86B06946FFF79EFD9FEDEC8B3C
:105250001FED3D9A00246E4603AD56F8240000EE83
:10526000100A05EB8400B8EEC00A20EE090A80EDB2
:10527000000A20EE000A10EE100A0CF017FB53ECA7
:10528000182B0BF03FFD41EC180B641C032CE4DBE6
:10529000B0EE480AF0EE680A06F0F0FEDA4EB0EE24
:1052A000408AF0EE608A002455F824000CF0FEFAE3
:1052B00053EC182B0BF0DAFD0BF0F2FC00EE100AA9
:1052C00006EB840000F58060641CD0ED0C0A032C12
:1052D00030EE200A80ED0C0AE6DBD6F88404401C90
:1052E000C6F884040120C6F8AC0406B0BDEC048BFB
:1052F00070BD70B505462DED028B86B004AA03A9DA
:10530000684609F0FDF99FEDBE8B00246E4606EB62
:10531000840090ED000A20EE000A10EE100A0CF056
:10532000C5FA53EC182B0BF0EDFC41EC180B641C88
:10533000032CECDBB0EE480AF0EE680A06F09EFEA5
:10534000B0EE408AF0EE608A002456F824000CF09B
:10535000ADFA53EC182B0BF089FD0BF0A1FC00EE1D
:10536000100A05EB8400641CD0ED000A032C30EE1B
:10537000200A80ED000AE8DB686D401C68650120AA
:10538000E86706B0BDEC028B70BDF0B504460021A5
:10539000F7EE001A9FED992A94ED140A04EB8100B0
:1053A000B8EEC01AD0ED000A80EE810AB5EEC00A50
:1053B000F1EE10FA02DBB0EE401A01E0B1EE401A55
:1053C000D0ED060AF5EEC00AF1EE10FA01DAF1EEC0
:1053D000600A71EE600AC0ED0C0A80ED060A94EDD9
:1053E0000F1AD0ED092A71EE610A00EEA20AC0EE92
:1053F000010AC0ED090AF5EEC00AF1EE10FA01DA71
:10540000F1EE600AC0ED030A491C80ED002A032971
:10541000C2DB2046FFF7B0FEE06CB0F57A7F01DA20
:10542000401CE06494F870700021052604230325D5
:105430000122206C062F09D2DFE807F00309102BA8
:1054400052376267A267E16484F87020F0BDE06FB4
:105450000128FBD1022084F870000DE004EB8000ED
:10546000D4ED190A90ED030AB4EEE00AF1EE10FA59
:1054700004DB84F8703031E0A167F0BDD4ED1A0A86
:10548000B4EEE00AF1EE10FA22D934E06267A267C6
:10549000F0BD04EB8000D4ED190A90ED030AB4EEE0
:1054A000E00AF1EE10FAE4DAF0BD04EB8000D4ED8E
:1054B0001A0A90ED030AB4EEE00AF1EE10FA07D9E9
:1054C000006B524EB04206D9216EE06C8842EBDB95
:1054D00084F87050DAE784F87030E1646167CBE7F4
:1054E00004EB8000D4ED1B0A90ED030AB4EEE00A51
:1054F000F1EE10FAD8D884F87060E164C6E710B510
:10550000044600EE104AB8EEC00ADFED410A20EE74
:10551000200A9FED401AC0EE010AB6EE000A20EE06
:10552000800A10EE100A0CF0C1F941EC100B06F0E5
:10553000E3F99FED391B51EC100B53EC112B0BF0E1
:10554000BFFE0BF027FE01462F48C0E9204110BDE9
:105550002DE9F04F00242DED028B91B00546049407
:1055600005940694C06E44F62061274E884206DBFF
:10557000D6F88010884210D0FFF7C1FF0DE0D6F8B2
:1055800048231044C6F8480388427DDBE96E814217
:1055900001D0FFF7B4FFC6F84843286BC6F8B00443
:1055A0002846FFF74CFE06F5906003C8814204DBF5
:1055B0001B48FFF7EAFEC6F88444D6F8A804012881
:1055C00002D12846FFF703FCD6F8A40401285BD1DA
:1055D00004A808F041FF9DED040ADDED050A20EE68
:1055E000000A00EEA00ADDED060A00EEA00A06F0B1
:1055F00082FD86ED030ADFED0B0A15E000000000D6
:105600000000000000000000F01F0020CDCC4CBDC9
:10561000368D274000247449000000000000D0416E
:10562000202400200000804620EE200AC149A14627
:10563000ADF82040BDEEC00A099110EE100AADF899
:105640001C00ADF81E4007A8FDF7BEFA684608F03A
:1056500043FF316F009809F028F90446716F0198F3
:1056600009F023F90444B16F029809F01EF90444CB
:10567000F16F039809F019F904EB00089DE80F0099
:1056800000240DF1340A00E0A2E006F170079FED5E
:10569000AA8A87E80F000DF1280B05EB4407A96ED5
:1056A00037F8480F000409F000F900EE100A4AF834
:1056B000240006EB8400B8EEC00A20EE080A80ED54
:1056C000050A388801044BF82410641CE4B2032C4A
:1056D000E3D398480AA9E8380446FBF75EF8316836
:1056E000D6F82803884273DB95ED390AD6ED360AE1
:1056F000B8EEC00AF5EEC00A20EE080AF1EE10FA84
:1057000005D070EE600AF0EEE00AC6ED370A86EDCD
:10571000360AB068062818D2DFE800F00303030356
:105720000D249FED860AC82086ED0E0AB7EE000A0A
:1057300086ED0F0A08E09FED820A86ED0E0A9FEDC6
:10574000810A642086ED0F0A3064288EC00509980E
:1057500012D4FDF748F90CF0D7F800EE100A5FED0F
:10576000530A11E09FED780A86ED0E0A9FED770A45
:10577000322086ED0F0AE7E7FDF78FF80CF0C4F84A
:1057800000EE100ADFED720A982180EE201A86EDF5
:10579000041A099800F0CAFAD6F88410414543DA91
:1057A00096ED040AB5EEC00AF1EE10FA3CDDD6ED36
:1057B0000E0AB4EEE00AF1EE10FA35D2316C7068E0
:1057C000884206DA2846FFF751FC002859D00CE041
:1057D00056E06049D6F8B000884206DB2846FFF75D
:1057E00045FC00284DD0C6F80490002006EB80014F
:1057F000401C91ED050AC0B281ED2D0A0328F5D3B6
:10580000FFF7A5FA002006EB8001401C91ED080A85
:10581000D1ED0B0AC0B2032830EE600A81ED330AE5
:10582000F1D34D48FFF783FB002006EB8001401CBD
:1058300091ED260AD1ED050AC0B2032830EE600AC8
:10584000B0EEC00A81ED290AEFD396ED290AD6ED14
:105850002A0A002030EE200AD6ED2B0A30EE200A6C
:1058600086ED2C0A06EB8001401C91ED050AC0B2C2
:1058700081ED260A0328F5D3E821204600F056FAE8
:10588000002011B0BDEC028BBDE8F08F10B54FF4D5
:105890009761324800F04AFA304C0A2020604007F5
:1058A0002067FFF743FA04F58660FFF7BAFC20682B
:1058B000C4F880049FED2A0A04F580601E2180ED63
:1058C0001B0A9FED280AC4F88C1480ED260A9FED70
:1058D000260A80ED250A9FED250A80ED270A19206A
:1058E000FDF722FC002010BD012240F25231AFF240
:1058F0009F3009F01DBAAFF2A73009F0D9BC10B53E
:10590000FFF7C4FF002805D1AFF22300BDE8104027
:1059100009F096BA10BD10B5AFF2CB3009F0C8FC53
:10592000AFF23B00BDE8104009F0E8BC0B488068CE
:1059300070470000A0220020000080370080BB4498
:10594000000096439A99993F000070423333B33F69
:105950000050C347CDCC4C3D98210020F01F0020C3
:1059600000000042CDCCCC3ECDCC4C3F3333333F56
:1059700053EA020C00F069802DE9F04B4FF000066D
:10598000002B1FBFB3FA83F503FA05F424FA05F6DA
:105990005E4012BF1643B2FA82F502FA05F4C5F171
:1059A00020051EBF22FA05FC44EA0C04203556EA05
:1059B000044C4FEA144418BF641C4FF000084FF029
:1059C0000009904271EB030C39D3002919BFB1FAD9
:1059D00081F701FA07F6B0FA80F700FA07F6C7F187
:1059E00020071EBF20FA07FC46EA0C062037B6FB4C
:1059F000F4FCA7EB0507103F07F01F0BCBF12006C7
:105A00000CFA0BFB2CFA06F644BFB3460026202FF7
:105A1000A4BF5E464FF0000B5BEA060C08BF4FF0D8
:105A2000010B19EB0B09ABFB027C48EB0608C01B12
:105A300006FB02CC0BFB03CC71EB0C01C1E70B4660
:105A4000024641464846BDE8F08B13B54FF00000D2
:105A50004FF00001AFF30080BDE81C407047B2F189
:105A600020030AD5C2F1200301FA02F120FA03F360
:105A700000FA02F041EA0301704700FA03F14FF027
:105A800000007047B2F120030AD5C2F1200320FACA
:105A900002F001FA03F341FA02F140EA0300704711
:105AA00041FA03F04FEAE171704710B54C1084EAF7
:105AB000530404D54042C1F1000138BF491E1B42C6
:105AC00004D55242C3F1000338BF5B1EFFF750FFFD
:105AD00014F0804F04D04042C1F1000138BF491E8C
