:020000040800F2
:10000000681E0020315F0008A54A00083B5F000819
:10001000A74A0008AB4A0008AF4A000800000000E9
:10002000000000000000000000000000B34A0008CB
:10003000B54A000800000000475F0008A14B000817
:100040004B5F00084B5F00084B5F00084B5F0008E8
:100050004B5F00084B5F00084B5F00084B5F0008D8
:100060004B5F00084B5F00084B5F00084B5F0008C8
:100070004B5F00084B5F00084B5F00084B5F0008B8
:100080004B5F00084B5F00084B5F00084B5F0008A8
:100090004B5F00084B5F00084B5F0008B74A000841
:1000A0004B5F00084B5F00084B5F00084B5F000888
:1000B0004B5F0008C94A0008D14A00084B5F00089E
:1000C0004B5F00084B5F00084B5F00084B5F000868
:1000D0004B5F0008ED4A0008F54A0008FD4A000899
:1000E0004B5F00084B5F00084B5F00084B5F000848
:1000F0004B5F00084B5F00084B5F00084B5F000838
:100100004B5F00084B5F00084B5F00084B5F000827
:100110001B4B0008234B00084B5F0008D34A000824
:100120004B5F00084B5F00084B5F00084B5F000807
:100130004B5F00084B5F00084B5F00084B5F0008F7
:100140004B5F00084B5F00084B5F00084B5F0008E7
:100150004B5F00084B5F00084B5F00082B4B00080B
:100160004B5F00084B5F00084B5F00084B5F0008C7
:100170004B5F00084B5F00084B5F00084B5F0008B7
:100180004B5F00084B5F0008DFF810D00EF08AF9D3
:1001900000480047A5010008AFF30080681E00205A
:1001A00000BFFEE703F05AFA00F0AEF801E000F0FD
:1001B000D1F8FCE710B501F079FB7948036879487C
:1001C0000268794801687948006801F043FF78487F
:1001D0000068401C7649086002F0C4F810BD704702
:1001E000704710B573480068401C724908600120D0
:1001F00002F0F4F97049097808446F490870012049
:1002000002F00FFA6D49097808446C4908706C488F
:1002100000786C490870012002F026FA68490978D4
:10022000084467490870084600786649097888429A
:1002300001D002F073FB6048007801280CD16248BD
:1002400003786248B0F900206148B0F9001041F22B
:10025000883003F07DF912E057480078022803D176
:100260000020554908700AE0574803785748B0F90C
:1002700000205748B0F90010002003F069F94F48FA
:100280000078012802D101F02EFC06E04B480078EE
:10029000022802D100204949087049480078042802
:1002A00002D100204649087010BD10B5012049490F
:1002B000087001F078FD00F095F8002046490860CC
:1002C0000846006802F0F0FF10BD704710B53C48CA
:1002D000007808B902F014FD39480078012801D1EE
:1002E00002F08AFD36480078022801D102F06BFE48
:1002F00033480078032801D102F0F6FE3748006841
:10030000401C3649086010BD002000BF1FE000EB14
:100310004001334A02EB810189884FF47A7292FBE3
:10032000F1F100EB40022E4B03EB8202D18000EB97
:1003300040011A4602EB8101C988012905DA012131
:1003400000EB400203EB8202D180411CC8B20728B7
:10035000DDD3704770B5002400BF1EE004F02AFC16
:10036000054604EB44001E4901EB80008068281A12
:1003700004EB44011A4A02EB8101C98888420AD37E
:1003800004EB4400114601EB8000856004EB44015E
:1003900052F821008047601CC4B2072CDED370BD28
:1003A0007C04002078040020A00100209C01002093
:1003B000F80000208C040020D8010020D901002082
:1003C000DA010020DD010020760400207404002002
:1003D000720400200A0100206C04002000000020AC
:1003E0000400002010B56848B0F9440040F2A46150
:1003F00088420EDD6448B0F9440040F69801884216
:1004000007DA6248007838B901F05AF85F49087095
:1004100002E000205D4908705B48B0F94400B0F587
:10042000487F0EDD5848B0F94400B0F5966F08DA01
:100430005748007840B9012055490870554908606F
:1004400002E00020524908705148007801287CD110
:1004500050480068062858D006DC062876D2DFE827
:1004600000F012161F2C314C0B2872D004DC072828
:1004700058D00A286AD159E00C2874D0A0F2E7308D
:1004800000287BD174E000204349086077E0022017
:1004900000F0B4FF3F49096808443E4908606EE037
:1004A00001F076FB002002F027F800F06FFF3949D9
:1004B000096808443749086061E04FF4FA6001F0C8
:1004C0006DFB5CE001F00FFB00203449086034490B
:1004D0000860962033490860334890ED000B51ECDA
:1004E000100B0DF0AEFE31490860022002F004F856
:1004F00040F6B83001F052FB41E001202C49087071
:100500004FF47A7001F04AFB39E000202849087066
:10051000284800680A2804DC1E480068401C1D4961
:1005200008602CE00A201B49086028E001202249CD
:100530000870002021490860042001F0DDFF154803
:100540000068401C1349086019E019E016E000E05B
:1005500009E0642001F035FB1049086047F2305093
:1005600001F01CFB0BE040F2E7300A49086006E0AE
:10057000002001F0C1FF00F0A3FF00E000BF02E097
:1005800000200449086010BDC20D00205800002062
:1005900059000020FC000020F40000208801002009
:1005A0008C01002084010020A00000209001002088
:1005B000D80100208C0400200A010020F80000204F
:1005C000FF20F94981F84E006421F748A0F8501047
:1005D0000121A0F85210FF20F34981F88001142175
:1005E000F148A0F882110021A0F88411FF20EE4903
:1005F00081F820010021EC48A0F82211A0F8241174
:10060000FF20E94981F832010021E748A0F83411C0
:10061000A0F83611FF20E44981F838010021E248B2
:10062000A0F83A11A0F83C11FF20DF4981F88601BB
:100630000021DD48A0F88811A0F88A11FF20DA49CE
:1006400081F840050021D848A0F84215A0F84415CB
:10065000FF20D54981F84C050021D348A0F84E155C
:10066000A0F85015704770B504460D46294620463F
:1006700005F0C5FB70BDCC4A10700122CA4B5A7000
:100680007047C94A82F84C05012382F84D357047FE
:100690002DE9F04104460D4600260027E178A81F09
:1006A000814201D0BDE8F081002006E0215C3144A8
:1006B000CEB2B919CFB2411CC8B2A91E8142F5DC35
:1006C000601910F8020CB04204D1601910F8010C46
:1006D000B84200D0E6E72078AA2805D160786128E2
:1006E00003D06078FF2800D0DCE7A078202811D163
:1006F000A088AE490880E088488020898880608989
:10070000C880A0890881E0894881208A8881608A20
:10071000C881CAE0A0780F280DD1207940B2A44941
:100720000870607940B24870A07940B28870E07972
:1007300040B2C870B9E0A07806280CD120799D4954
:1007400048706079C870A0790871E1799948417161
:10075000217A8171A9E0A07807280AD1002005E05C
:10076000211D095C944A1154411CC8B20628F7DBCC
:100770009BE0A07803280AD1002005E0211D095C38
:100780008E4A1154411CC8B20728F7DB8DE0A078CF
:1007900003280AD1002005E0211D095C884A115474
:1007A000411CC8B20928F7DB7FE0A07805280AD1F0
:1007B000002005E0211D095C824A1154411CC8B289
:1007C0000928F7DB71E0A07808280AD1002005E0AD
:1007D000211D095C7C4A1154411CC8B20828F7DB72
:1007E00063E0A078012860D0A078E0281ED12079AD
:1007F000012806D0022805D0102804D0112804D1E1
:1008000002E003E002E001E000E000BF00BF207969
:10081000654981F80C06084680F80D6680F80E766A
:1008200000F20C61AF20FFF726FF3EE0A078B0B9E0
:100830005D4890F80F062179884236D15A4890F8E1
:1008400010066179884230D1574890F81106A17995
:1008500088422AD10020544981F8000625E0A0787A
:10086000E12811D12179607901EB00201FFA80F88D
:100870004D48A0F814860021C0F8181600F2146143
:10088000FF20FFF7FEFE10E0A078E2280DD12079CE
:10089000454981F80C06084680F80D6680F80E760A
:1008A00000F20C61FF20FFF7E6FE00BFFAE610B58C
:1008B00004464648007838B9AA2C05D1012043499E
:1008C0000870434804708EE040480078012809D140
:1008D000612C01D0FF2C05D102203C4908703C4816
:1008E000447080E039480078022805D10320374958
:1008F00008703748847076E03448007803280CD1BB
:10090000FA2C0ADA0420314908703148C4703148A1
:10091000047000203049087065E02C4800780428F5
:1009200019D12C480078002815DD2A480078401E8F
:10093000284908702848007827490978491C264A20
:100940001170001D22490C542248007858BB052024
:100950001E49087047E01D48007805280DD1062083
:100960001A4908701C4800781B490978491C1A4A22
:100970001170001D16490C5435E014480078062803
:100980002ED100201149087013480078001D10492D
:100990000C5411480078401D104908700846017831
:1009A0000B48FFF775FE1EE0FC050020260D002019
:1009B00080050020880D00206B00002064000020CE
:1009C000360D00203F0D0020710000205E00002049
:1009D000180C00205C0000205D0000205A00002060
:1009E0000020E249087010BD7CB50346342B4FD07F
:1009F00007DC7BB10D2B23D0302B2ED0332B6FD1C6
:100A000038E0402B52D0412B5DD0E02B6AD0E22B56
:100A1000F5D17BE0D64890F80C460D78681C08703C
:100A20005455D34890F80D460D78681C08705455FD
:100A3000CF4890F80E460D78681C0870545594E025
:100A4000002007E0CB4C255C0E78741C0C7095558B
:100A5000441CE0B20428F5DB87E0002007E0C64C28
:100A6000255C0E78741C0C709555441CE0B2172858
:100A7000F5DB7AE0002008E0BF4C193C255C0E78DD
:100A8000741C0C709555441CE0B20628F4DB6CE035
:100A9000002008E0B84CE41F255C0E78741C0C7034
:100AA0009555441CE0B20728F4DB5EE0002007E027
:100AB000B24C255C0E78741C0C709555441CE0B249
:100AC0001428F5DB51E0002007E0AD4C255C0E78E2
:100AD000741C0C709555441CE0B20E28F5DB44E004
:100AE00042E0FFE7A24890F801460D78681C0870C4
:100AF0005455002007E0A34C255C0E78741C0C7044
:100B00009555441CE0B20A28F5DB2EE09848B0F871
:100B1000140600B201909DF804400D78681C08701E
:100B200054559DF805400D78681C08705455904840
:100B3000D0F8180600909DF800400D78681C0870E9
:100B400054559DF801400D78681C087054559DF867
:100B500002400D78681C087054559DF803400D78CC
:100B6000681C0870545500E000BF00BF7CBDF8B59C
:100B700004460F4600200090AA219DF80020501C3A
:100B8000C0B200908048815439789DF80020501CF4
:100B9000C0B200907C4881549DF80010481CC0B23F
:100BA00000907948445400219DF80020501CC0B2A8
:100BB000009075488154024669462046FFF714FFAD
:100BC0009DF80000001F7049C87000250026002015
:100BD00007E06D49095C2944CDB27119CEB2411CC0
:100BE000C8B29DF800108842F3DB9DF80010481C45
:100BF000C0B20090644845549DF80010481CC0B233
:100C00000090614846545A4890F8000640B1E02CE4
:100C100006D1574880F80F4680F8105680F81166C4
:100C20009DF800105848FFF71EFDF8BD10B50446AA
:100C300004EB44004E4901EB4000408828B304EB2C
:100C4000440001EB4000808804EB4401484A02EB79
:100C50004101498888420CDA04EB4400114601EB5B
:100C600040008088401C04EB440102EB4101888075
:100C70000BE0012004EB44013D4A02EB4101888076
:100C800004EB440102EB4101487004EB4400384995
:100C900001EB4000407868B1002004EB4401344A85
:100CA00002EB4101487004EB440002EB4001204696
:100CB000FFF75DFF10BD2E4A82F84005012382F840
:100CC000413501222A4B83F80026704710B52DEDDF
:100CD000028BB0EE408A00F01BF83020FFF7A6FF31
:100CE0003320FFF7A3FF3420FFF7A0FF4020FFF7DA
:100CF0009DFF4120FFF79AFFE020FFF797FFE220DA
:100D0000FFF794FF0D20FFF791FFBDEC028B10BDA4
:100D1000174890F80006012821D11C480078322895
:100D200005DA1A480078401C184908701CE00020B9
:100D30001649087016480078401C15490870084686
:100D40000078052804DA0121094880F841150BE0F4
:100D500000200F490870064981F8000604E00020D1
:100D60000A4908700A490870704700005E000020B8
:100D7000FC05002060000020710D0020FC0D00200B
:100D8000180D0020FE0B0020C80500205F00002089
:100D90005B00002000B52DED028B85B0B0EE408ADF
:100DA000F84890F8390000287ED1F648B0F94200A2
:100DB000B0F5966F06DA012000F020FB0020F24922
:100DC000086013E0EF48B0F9420040F2A4618842A5
:100DD00006DA022000F012FB0020EB49086005E073
:100DE000022000F00BFB0120E7490860E64800689C
:100DF00001281AD1002016E0E2493A3131F91010E9
:100E000040F2145291420DDDDE493A3131F91010B1
:100E100040F2A462914205DA40F2DC52D9493A31FB
:100E200021F81020401C0428E6DBD648B0F93A002F
:100E3000A0F2DC5000EE900AF8EEE00AB0EE600A94
:100E40009FEDD21ADFEDD20A03F07EF88DED010A94
:100E5000CC48B0F93C00A0F2DC5000EE900AF8EE6D
:100E6000E00AB0EE600A9FEDC91ADFEDC90A03F08F
:100E70006BF88DED020AC348B0F93E00A0F2DC50D9
:100E800000EE900AF8EEE00AB0EE600A9FEDC11A9B
:100E9000DFEDBF0A03F058F88DED030AB948B0F949
:100EA0004000A0F2DC5000E093E000EE900AF8EE83
:100EB000E00AB0EE600A9FEDB71ADFEDB50A03F065
:100EC00043F88DED040AB448007858B19FEDB00A9C
:100ED0008DED010A9FEDAE0A8DED020A9FEDAC0A81
:100EE0008DED040A9DED010ADFEDAC0A20EE200A2B
:100EF000DFEDAB0A20EE200ABDEEC00A10EE100AAC
:100F000000B2A84908809DED020AB1EE400ADFED6B
:100F1000A30A20EE200ADFEDA20A20EE200ABDEE91
:100F2000C00A10EE100A00B248809648C08FA0F5A3
:100F30007A7000B288809DED040AB1EE400ADFEDC0
:100F40009A0A20EE200ADFED990A20EE200ABDEE73
:100F5000C00A10EE100A00B2C8808B480068012851
:100F60002DD18848B0F94400B0F5487F1BDD854895
:100F7000B0F94400B0F5966F15DA0020088048807B
:100F800088808B480088404200B2C8808948008829
:100F900000B208818848008800B2488187480088EC
:100FA00000B288810BE000207E49088048804FF421
:100FB000AF7088800020C880088148818881012125
:100FC0007F4880F8871100207E4908707E490870AC
:100FD0001EE07E48C07878B17A48007828B90320AE
:100FE00000F00CFA7749087006E07748007818B9E5
:100FF00000F02CFA7449087000206A490880488083
:101000004FF4AF7088800020C880888148810881B3
:1010100005B0BDEC028B00BD10B504466C480088DD
:1010200000EE100AB8EE400ADFED6A0A20EE200A50
:10103000BDEEC00A10EE100A00B26749088064488D
:10104000408800EE100AB8EE400ADFED620A20EE9A
:10105000200ABDEEC00A10EE100A00B248805C48BB
:10106000808800EE100AB8EE400ADFED5A0A20EE42
:10107000200ABDEEC00A10EE100A00B28880544863
:10108000C08800EE100AB8EE400ADFED520A20EEEA
:10109000200ABDEEC00A10EE100A00B2C8804C480B
:1010A000008900EE100AB8EE400ADFED4A0A20EE91
:1010B000200ABDEEC00A10EE100A00B208814448B2
:1010C000408900EE100AB8EE400ADFED420A20EE39
:1010D000200ABDEEC00A10EE100A00B248813C485A
:1010E000808900EE100AB8EE400ADFED3A0A20EEE1
:1010F000200ABDEEC00A10EE100A00B28881344802
:10110000C08900EE100AB8EE400ADFED320A20EE88
:10111000200ABDEEC00A10EE100A00B2C8812F48A6
:10112000007818B901202D49087027E0E4B10020AB
:1011300017E0294931F91010002901DC00210BE0EA
:10114000254931F91010B1F57A7F02DD4FF47A713B
:1011500002E0214931F910101F4A22F81010411CF9
:10116000C8B20828E5DB09E0002005E000211A4AA2
:1011700022F81010411CC8B20828F7DB164804F00A
:101180002CF810BDC20D0020E0000020000020421D
:10119000000000000000A042860000208F360E3BB9
:1011A00000C05A45180D0020C6F91B3B00004843FB
:1011B000F0000020E4000020E8000020EC00002007
:1011C000FC050020790000207A000020880D002016
:1011D000260D0020CDCCCC3D480D00207B0000200A
:1011E00010B503F0B9FDDFED2B0A20EE200ABCEEAE
:1011F000C00A10EE100A284908804FF49660088053
:1012000010BD10B525480088401C244908800846B8
:1012100000880A2190FBF1F201FB12001F490880AF
:101220000846008810BB9FED1E0A02F0F0FB9FED00
:101230001C0AFFF7AFFD9FED1A0A00F01BFB9FEDA4
:10124000180A03F0BBF815484088401C1349488031
:10125000084640880A2190FBF1F201FB12000F4979
:1012600048800846408808B9FFF7BAFF04F046FEF8
:10127000012003F043FA9FED0B0A00F015F89FEDF3
:10128000090AFFF723FD0120FFF7C6FE03F005FE64
:1012900010BD00000000C842600000207C0000205B
:1012A0000AD7233C6F12833A10B52DED028BB0EEB6
:1012B000408A00F020F800BF2D4840782D49097879
:1012C000884214D02A4840782A49087000202A49C8
:1012D00088744FF487712848A0F813102448C16916
:1012E0002548C0F815100121244880F8391100BFA5
:1012F000BDEC028B10BD22480078FF2804D02048A6
:101300000078401C1E490870194800781D4909786A
:10131000884216D0164800781A4908701448007A96
:1013200050B11348C07838B111484089124908803B
:101330000F488089488004E04FF400400E4908803F
:1013400048800B4840781049097888420ED00848F8
:1013500040780D4908704FF400400749888001210A
:10136000064880F8331100200549087070470000D6
:10137000300E002083000020580D0020FC050020C6
:1013800082000020800000208100002010B5012094
:10139000A2498870A24890F8000688B91020A04998
:1013A00081F8010600219E4880F80216012180F88C
:1013B000031600F20161FF20FFF77DFC012010BD44
:1013C0000020FCE710B5002094498870944890F8FC
:1013D000000688B91020924981F801060021904842
:1013E00080F80216022180F8031600F20161FF2046
:1013F000FFF761FC012010BD0020FCE710B504469A
:1014000088480078A0421FD0854890F80006C8B9E7
:1014100082480470834804700120814981F80106E4
:1014200001217F4880F8021680F803167B48017876
:101430007B4880F8041600F20161FF20FFF73BFCB7
:10144000012010BD0020FCE70120FAE710B5744828
:1014500090F8000688B91020714981F80106002132
:101460006F4880F80216072180F8031600F2016128
:10147000FF20FFF720FC012010BD0020FCE701B594
:10148000674890F80006C8B91020654981F8010640
:101490000021634880F80216052180F803169DF8A4
:1014A000001080F804169DF8011080F8051600F26F
:1014B0000161FF20FFF7FFFB012008BD0020FCE7D2
:1014C00010B5574890F8000688B91020544981F8A3
:1014D00001060021524880F80216062180F8031602
:1014E00000F20161FF20FFF7E6FB012010BD0020A4
:1014F000FCE707B54A4890F8000648BB1020484969
:1015000081F801060221464880F80216032180F87E
:1015100003169DF8001080F804169DF8011080F85D
:1015200005169DF8041080F806169DF8051080F841
:1015300007169DF8081080F808169DF8091080F825
:10154000091600F20161FF20FFF7B5FB01200EBD77
:101550000020FCE710B5324890F8000688B9012059
:101560002F4981F8010600212D4880F80216032139
:1015700080F8031600F20161FF20FFF79CFB0120B9
:1015800010BD0020FCE710B5254890F8000688B98A
:101590000120234981F801060021214880F8021624
:1015A000042180F8031600F20161FF20FFF783FB9E
:1015B000012010BD0020FCE710B5194890F8000686
:1015C00088B90120164981F801060021144880F8E5
:1015D0000216052180F8031600F20161FF20FFF7D3
:1015E0006AFB012010BD0020FCE710B50C4890F804
:1015F000000688B901200A4981F80106002108483F
:1016000080F80216022180F8031600F20161FF2023
:10161000FFF751FB012010BD0020FCE7880D0020E2
:10162000FC0500208400002010B504469848B0F95D
:101630004000B0F5AF6F0BDD9548B0F94000B0F554
:10164000C86F05DA0120934948709349087002E099
:101650000020904948708E48B0F93E00B0F5966F72
:1016600006DA8C48407818B901208A49087002E0EF
:101670000020884908708848007801284AD18748A6
:10168000C078002853D18248B0F93A0040F26C711A
:10169000884210DD7E48B0F93C0040F24C4188425F
:1016A00009DA7B48B0F93E00884204DA7848B0F99C
:1016B0004000884217DB7648B0F9400040F26C7178
:1016C000884230DD7248B0F93C0040F24C4188421B
:1016D00029DA6F48B0F93E00884224DA6C48B0F944
:1016E0003A0088421FDA6E480088B0F57A7F12DA35
:1016F000D4ED000A6A48008800EE100AB8EE400AED
:101700009FED681A00EE810ABCEEC00A10EE100AC6
:101710006349088062E0FFF739FE002060490880D5
:101720005D4908705AE000205D49088056E05B483A
:10173000C078012852D15648B0F93A0040F26C7195
:10174000884210DD5248B0F93C0040F24C418842DA
:1017500009DA4F48B0F93E00884204DA4C48B0F943
:101760004000884217DB4A48B0F9400040F26C71F3
:10177000884230DD4648B0F93C0040F24C41884296
:1017800029DA4348B0F93E00884224DA4048B0F9EB
:101790003A0088421FDA42480088B0F5967F12DA94
:1017A000D4ED000A3E48008800EE100AB8EE400A68
:1017B0009FED3C1A00EE810ABCEEC00A10EE100A42
:1017C000374908800AE0FFF7FDFD00203449088012
:1017D0003149087002E000203149088010BD10B581
:1017E0002E48C078002844D12948B0F9400040F282
:1017F0004C41884217DA2648B0F93C00884212DA98
:101800002348B0F93E0088420DDA2148B0F93A0089
:10181000884208DA2448007838BBFFF79BFE012095
:101820002149087025E01A48B0F9400040F26C7177
:1018300088421BDD1648B0F93C0040F24C4188421A
:1018400014DA1348B0F93E0088420FDA1048B0F9B4
:101850003A0040F26C71884208DD1348007820B9E4
:10186000FFF791FE01201049087002E000200E49A8
:10187000087010BD10B52DED020B054890F8390029
:1018800020B96846FFF7D0FEFFF7A9FF1CBD000096
:10189000C20D0020860000208A000020880D002054
:1018A0008800002000007A448B00002010B52DED48
:1018B000068B9249B1F900000CF0B2FC41EC180B18
:1018C0009FED8F0B53EC102B0CF03BFC8E4A03C2A8
:1018D0008A49B1F902000CF0A3FC41EC180B9FED12
:1018E000880B53EC102B0CF02CFC884A03C2834964
:1018F000B1F904000CF094FC854A03C29FED850BFE
:1019000053EC102B854890ED000B51EC100B0CF0B4
:10191000CFFC18D29FED820B53EC102B7C4890ED3E
:10192000000B51EC100B0CF0ABFC0CD29FED7E0BBE
:1019300053EC102B7E4890ED000B51EC100B0CF08B
:10194000E7FA7B4A03C29FED760B53EC102B7348EA
:1019500090ED000B51EC100B0CF092FC18D29FEDA7
:101960006D0B53EC102B6A4890ED000B51EC100BF3
:101970000CF09EFC0CD29FED6C0B53EC102B6C48C2
:1019800090ED000B51EC100B0CF063FB684A03C2A6
:101990009FED5B0B53EC102B5D4890ED000B51EC71
:1019A000100B0CF0CEFB41EC190B9FED620B53ECCE
:1019B000102B5F4890ED000B51EC100B0CF04FFB1F
:1019C00041EC180B53EC192B0CF0A2FA5B4A03C242
:1019D0004F4890ED000B514880ED000B584890EDBA
:1019E000000B53EC102B554890ED000B51EC100BF5
:1019F0000CF02FFB534A03C25348B0F91400C82817
:101A00000DDA5148B0F9140010F1C80F07DD4E4847
:101A1000B0F914004D49096808444C4908604A4827
:101A2000B0F91600C8280DDA4748B0F9160010F1D1
:101A3000C80F07DD4448B0F9160045490968084455
:101A400043490860414800680CF0EAFB41EC1A0B7E
:101A50009FED400B53EC102B0CF001FB41EC190BEC
:101A60009FED3E0B53EC102B0CF06BFB41EC180B75
:101A70000CF0E7FB3B490860354800680CF0D0FBF0
:101A800041EC1A0B9FED330B53EC102B0CF0E7FAE3
:101A900041EC190B9FED310B53EC102B0CF051FB6B
:101AA00041EC180B0CF0CDFB2F4908602D48006865
:101AB0002E490968401A2E4908602B4800682D49B4
:101AC0000968401A2C4908602C4800882C49088075
:101AD0002A4840882B4908802B4840682B490860D9
:101AE000BDEC068B10BD002018490860184908603D
:101AF0001E4908601F49086070470000640000200C
:101B000000000000000059409000002098000020D4
:101B1000A8000020000000000094C140B000002098
:101B2000000000000094C1C0000000000000F03F71
:101B3000B80000200000000000807640A0000020D7
:101B4000A8010020B0010020300E0020D8000020A5
:101B5000DC000020333333333333FF3F0000000019
:101B600000408F40C8000020CC00002094010020DD
:101B70009C01002098010020A00100206B000020A3
:101B8000C0000020C20000203F0D0020C400002043
:101B90000020524908605249086070474F4909685F
:101BA000814205DA4D49096814314C4A116007E059
:101BB00000214A4A11604B490968491C494A116091
:101BC000704710B50146464B1B6841F2883493FBC1
:101BD000F4F202EBD2735B10A2EB430303B90846A5
:101BE0003F4B1B6841F2883493FBF4F202EBD27353
:101BF0005B10A2EB4303012B00D1002010BD70B598
:101C00002DED0A8B05463649096841F2883291FB71
:101C1000F2F000EBD0714910A0EB410111BB284656
:101C20000CF0FEFA41EC190B2D48006841F28831A6
:101C300090FBF1F201FB120630460CF0F1FA41EC98
:101C40001B0B9FED290B53EC102B0CF07AFA41EC97
:101C50001A0B53EC192B0CF002FA41EC180B0CF098
:101C6000F0FA04461E49096841F2883291FBF2F00D
:101C700000EBD0714910A0EB410101292AD128467F
:101C80000CF0CEFA41EC190B1548006841F288318E
:101C900090FBF1F201FB120630460CF0C1FA41EC68
:101CA0001C0B9FED110B53EC102B0CF04AFA41EC7E
:101CB0001B0B9FED0F0B53EC102B0CF0CDF941ECEF
:101CC0001A0B53EC192B0CF0CAF941EC180B0CF061
:101CD000B8FA04462046BDEC0A8B70BDF400002023
:101CE000F8000020FC000020000000000088B34045
:101CF000000000000000F03FB749096829B90A2830
:101D000003D10121B44A11602AE0B34909680129CD
:101D100005D1B24908700221AF4A116020E0AE49F6
:101D20000968022905D1AE4908700321AA4A116049
:101D300016E0A9490968032905D1AA4908700421B8
:101D4000A54A11600CE0A4490968042905D1A649F7
:101D500008700021A04A116002E000219E4A116033
:101D60009F490978A14A118011460978090209B2F0
:101D700011801146B1F90010984A127811439B4A1C
:101D80001180994909789A4A118011460978090207
:101D900009B211801146B1F90010924A127811432C
:101DA000934A1180704708B592A00068009092484D
:101DB00000788DF800000221684603F001FD08BD9F
:101DC00010B52DED0C8B04468C48006828B90A2C00
:101DD00003D101208949086034E08848006801285F
:101DE00005D1874804700220844908602AE08348AE
:101DF0000068022805D18348047003207F490860E9
:101E000020E07E480068032805D17F480470042044
:101E10007A49086016E079480068042805D17B48B3
:101E200004700520754908600CE0744800680528B6
:101E300005D17748047000207049086002E0002056
:101E40006E4908606E48007872490880084600882C
:101E500009287DD06C4800786F49088008460078D2
:101E6000000200B208800846B0F900006549097810
:101E70000843694908806648007868490880084630
:101E80000078000200B208800846B0F900005F49FF
:101E90000978084361490880614890ED000B53ECD4
:101EA000102B9FED600B51EC100B0CF0D8F841ECAF
:101EB000190B5948B0F900000CF0B2F941EC1A0BBB
:101EC00053EC192B0CF024F841EC180B0CF0B9F979
:101ED00000B251490880554890ED000B53EC102B8F
:101EE0009FED500B51EC100B0CF0B9F841EC190BB5
:101EF0004A48B0F900000CF093F941EC1A0B53EC8E
:101F0000192B0CF0A6F841EC180B0CF09AF900B262
:101F100042490880464800680CF082F941EC1B0BEE
:101F20003D49B1F90010C1F150000CF079F941ECD4
:101F30001D0B9FED400B53EC102B0CF002F941EC04
:101F40001C0B53EC1B2B0CF08AF841EC1A0B00E035
:101F500039E09FED3A0B53EC102B0CF080F841EC7C
:101F6000190B9FED380B53EC102B0CF0EAF841ECF9
:101F7000180B0CF066F900B2274908802C4800685D
:101F80000CF04EF941EC190B2449B1F90010C1F1E4
:101F90003C01C1F110000CF043F941EC1B0B9FED2B
:101FA0002B0B53EC102B0CF0CCF841EC1A0B53EC30
:101FB000192B0CF054F841EC180B0CF042F900B25C
:101FC0001649088004E0002013490880134908805E
:101FD000BDEC0C8B10BD00000C0100201001002096
:101FE0001101002012010020130100200001002037
:101FF00002010020000A00000A0100201401002054
:1020000018010020190100201A0100201B010020E6
:102010001C0100200401002006010020080100200E
:10202000980000209A999999999901409000002070
:10203000C400002000000000000064400000000018
:1020400000001040000000000000084000000000F8
:1020500000005E407FB50024AA222146641C51483E
:102060004254FF222146641C4254F1222146641C42
:10207000425408222146641C42549DF80020214607
:10208000641C42549DF801202146641C42549DF872
:1020900004202146641C42549DF805202046611C02
:1020A000CCB240490A549DF808202046611CCCB2AD
:1020B0003C490A549DF809202046611CCCB239499C
:1020C0000A549DF80C202046611CCCB235490A54B4
:1020D0009DF80D202046611CCCB232490A540025DF
:1020E0000026002007E02F49095C2944CDB2711970
:1020F000CEB2411CC8B22B49C978091D8142F2DC1D
:102100002046611CCCB227490D542046611CCCB23C
:1021100024490E540846C078801DC1B2214803F0FE
:102120005BFA7FBDF1B50024AA222146641C1D483C
:102130004254FF222146641C4254F1222146641C71
:10214000425402222146641C42549DF8002021463C
:10215000641C42549DF801202146641C4254002511
:102160000026002007E00F49095C2944CDB271190F
:10217000CEB2411CC8B20B49C978091D8142F2DCBC
:102180002046611CCCB207490D542046611CCCB2DC
:1021900004490E540846C078801DC1B2014803F0BE
:1021A0001BFAF8BD930D0020884201DD084603E0CC
:1021B0004A42904200DA4842704710B504460B4646
:1021C000E01A00EB4000A94908603221A7480068E6
:1021D000FFF7EAFFA549086010BD2DE9F05F2DED7E
:1021E000088BB0EE408AF0EE608AB0EE419AF0EED5
:1021F000619A05460E461746AC1B20460CF010F8B7
:1022000041EC1B0B53EC182B0BF029FF41EC1A0B84
:102210000CF017F8814696490968601A0CF000F82E
:1022200041EC1B0B53EC192B0BF019FF41EC1A0B73
:102230000CF007F882468E480068A04201D08C4816
:1022400004600A212046FFF7AFFF04468948006872
:10225000204488490860884890ED000B51EC100B31
:102260000BF0EFFF834659464046FFF79DFF80463F
:1022700009EB080050448149086039467F480068EE
:10228000FFF792FF7D490860BDEC088BBDE8F09F29
:102290002DE9F05F2DED088BB0EE408AF0EE608AFC
:1022A000B0EE419AF0EE619A05460E461746AC1B19
:1022B00020460BF0B5FF41EC1B0B53EC182B0BF039
:1022C000CEFE41EC1A0B0BF0BCFF81466C4909684D
:1022D000601A0BF0A5FF41EC1B0B53EC192B0BF014
:1022E000BEFE41EC1A0B0BF0ACFF8246644800685E
:1022F000A04201D0624804600A212046FFF754FF43
:1023000004466048006820445E4908605A4890EDE1
:10231000000B51EC100B0BF094FF834659464046DE
:10232000FFF742FF804609EB080050445649086019
:10233000394655480068FFF737FF53490860BDEC40
:10234000088BBDE8F09F10B504460B46E01A8000EC
:102350004E49086078214D480068FFF725FF4B493A
:10236000086010BD10B50020444908604649086067
:102370003E490860454908604548006828B145481D
:10238000016845480068FFF718FF4448006860B1DD
:102390001E224348016843480068434B93ED001BED
:1023A000424B93ED000BFFF718FF4148006860B106
:1023B0001E22404801683B4800683F4B93ED001BDC
:1023C0003E4B93ED000BFFF708FF3D48006860B1FE
:1023D00014223C48B0F9001000203B4B93ED001B49
:1023E0003A4B93ED000BFFF7F8FE3948006860B1F7
:1023F0001E2238480168384800682B4B93ED001BBB
:102400002A4B93ED000BFFF743FF3448006860B19F
:102410001E223348016830480068274B93ED001BAB
:10242000264B93ED000BFFF733FF2E48006860B199
:1024300014222D48B0F900100020234B93ED001B0F
:10244000224B93ED000BFFF723FF2848006860B193
:10245000274890ED000B51EC100B0BF0F2FE0446F8
:10246000214624480068FFF76EFF10BDEC000020F5
:10247000740100207001002038010020E4000020D9
:102480007C01002078010020E8000020F0000020FE
:10249000B8010020C400002084010020BC010020FD
:1024A0009C01002088010020300100202001002034
:1024B000D0010020780400205001002040010020BD
:1024C000C8010020060100206801002058010020FA
:1024D000C0010020A00100208C010020D4010020B8
:1024E0007C040020CC01002008010020C401002051
:1024F000B0010020900100200021214A1160214AF2
:102500001160214A1160214A1160214A1160214A5B
:102510001160214A1160214A1160012806D0022869
:102520000ED0032816D0042828D11DE00121194A15
:102530001160134A1160134A1160144A11601DE0C2
:102540000121144A11600E4A11600E4A11600F4AAF
:10255000116013E001210F4A1160094A11600A4A13
:1025600011600B4A116009E001210A4A1160044A16
:102570001160094A1160094A116000BF00BF70472D
:10258000B8010020BC010020C8010020C0010020CB
:10259000CC010020C4010020D0010020D401002083
:1025A0001CB50121102007F0A6F900208DF80400C9
:1025B00001208DF807004020009069463C4806F055
:1025C0004BFA202000906946394806F045FA102061
:1025D00000906946364806F03FFA1CBD70B50546C6
:1025E0004021334806F029FB04463248007870B198
:1025F0006CB930480078401C2E49087008460078B5
:1026000002280CD15CB900200870012070BD294857
:10261000007820B9012C02D1012026490870002041
:10262000F4E770B505462021214806F006FB044674
:102630002148007870B16CB91F480078401C1E49D1
:1026400008700846007802280CD15CB90020087098
:10265000012070BD1848007820B9012C02D101205A
:10266000154908700020F4E770B5054610211048A0
:1026700006F0E3FA04461148007870B16CB90F48CF
:102680000078401C0D4908700846007802280CD1DB
:102690005CB900200870012070BD0848007820B99E
:1026A000012C02D10120054908700020F4E7000048
:1026B00000100240DE010020DF010020E0010020C8
:1026C00010B504468020FE490860084604710020C9
:1026D0008871032048710020C871FA4806F0BCF9DF
:1026E00010BD10B50120FFF7EBFF0120F64908608F
:1026F000F649C1F89C02052002F07EFA0020F2495A
:10270000091D0860052002F077FA0020EF49C1F8A2
:102710009802052002F070FA10BD10B50120FFF7F5
:10272000CFFF0120E84908600020E849C1F89C0279
:10273000052002F061FA0120E349091D0860052027
:1027400002F05AFA10BD10B500240020FFF7B8FFC0
:102750000120DD490860052002F04EFADB48D0F880
:102760001C0208B1012400E000240020D6490860C2
:10277000052002F041FA204610BD70B50546012043
:10278000FFF79EFF0020D0490860D049C1F89C02A5
:10279000052002F031FA07241DE00120A040284066
:1027A00020B10120C849091D086003E00020C64986
:1027B000091D0860052002F01FFA0120C2490860C7
:1027C000052002F019FA0020C049C1F8980205203E
:1027D00002F012FA641E002CDFDA70BD10B5044658
:1027E000FFF77FFF7820FFF7C8FFFFF7ACFF00205F
:1027F000FFF7C3FFFFF7A7FF2046FFF7BEFFFFF776
:10280000A2FFFFF78AFF10BD10B50446FFF769FF6E
:102810007820FFF7B2FFFFF796FF4020FFF7ADFFEC
:10282000FFF791FF2046FFF7A8FFFFF78CFFFFF7A8
:1028300074FF10BD70B504460D461DB1E0B2FFF740
:10284000E3FF02E0E0B2FFF7C9FF70BD70B50646D6
:10285000002418E004F1B0000021FFF7EBFF002195
:102860000846FFF7E7FF00211020FFF7E3FF0025F0
:1028700005E001213046FFF7DDFF681CC5B2802D61
:10288000F7DB601CC4B2082CE4DB70BD06E041F647
:10289000650100E0491E0029FCD1401E0028F6D148
:1028A0007047014605E0002001E0421CD0B27B28C1
:1028B000FBDB0A1EA1F10101F5D1704770B504469A
:1028C0000D4605F1B0000021FFF7B4FF102141EAE9
:1028D00014100021FFF7AEFF04F00F000021FFF7F6
:1028E000A9FF70BD10B500218D20FFF7A3FF0021C7
:1028F0001420FFF79FFF0021AF20FFF79BFF10BDC3
:1029000010B500218D20FFF795FF00211020FFF763
:1029100091FF0021AE20FFF78DFF10BD70B50024A0
:1029200018E004F1B0000021FFF784FF0021084601
:10293000FFF780FF00211020FFF77CFF002505E056
:1029400001210020FFF776FF681CC5B2802DF7DB60
:10295000601CC4B2082CE4DB70BD70B5002418E024
:1029600004F1B0000021FFF765FF00210846FFF7E2
:1029700061FF00211020FFF75DFF002505E0012128
:102980000846FFF757FF681CC5B2802DF7DB601CB7
:10299000C4B2082CE4DB70BD2DE9F04707460E46B3
:1029A0009046994600250024A8F12000C5B27F2F4B
:1029B00002DD0027B01CC6B2B9F1100F24D1314698
:1029C0003846FFF77BFF002408E004EB0511404A7E
:1029D000505C0121FFF72EFF601CC4B2082CF4DB11
:1029E000701CC1B23846FFF769FF002409E004EB10
:1029F00005110831364A505C0121FFF71BFF601CAE
:102A0000C4B2082CF3DB12E031463846FFF756FF1C
:102A100000240AE005EB45012E4A02EB4101085D66
:102A20000121FFF707FF601CC4B2062CF2DBBDE8F2
:102A3000F08710B50246012000E050430B1EA1F1C3
:102A40000104E1B2F9D110BD2DE9F05F06468A46D6
:102A500091461D460A9F4FF0000B00242DE0281BD5
:102A6000401EC1B20A20FFF7E4FFB9FBF0F00A21D3
:102A7000B0FBF1F201FB1208BBF1000F10D1681E90
:102A8000A0420DDDB8F1000F08D107FB0461C8B208
:102A90003B4620225146FFF77FFF0CE04FF0010B31
:102AA00008F13001CAB207FB0461C8B23B46514687
:102AB000FFF772FF00BF601CC4B2AC42CFDB0BE07B
:102AC000640400200004024098824042008040429A
:102AD00064E700083CE50008BDE8F09F2DE9F041FF
:102AE00004460F461546984600260FE0AA5D434669
:102AF00039462046FFF750FF04F10800C4B2782C95
:102B000002DD0024B81CC7B2701CC6B2A85D002844
:102B1000ECD1BDE8F0812DE9F04180460E46154626
:102B2000002731464046FFF7C9FE00240AE0FE4A6E
:102B300002EB851108570121FFF77CFE781CC7B214
:102B4000601CC4B2102CF2DB701CC1B24046FFF70F
:102B5000B5FE00240CE06900491CF34A02EB411168
:102B600008570121FFF766FE781CC7B2601CC4B28B
:102B7000102CF0DBBDE8F0812DE9F05F06460F4632
:102B800090461C46DDF828A04FF0000BE11704EB3F
:102B90005171C910A4EBC10131B92046E11704EB12
:102BA0005171C1F3C70506E02046E11704EB5171EE
:102BB000C910491CCDB23D4615E029463046FFF705
:102BC0007DFEB1460BE059460BF1010B1AF80100EE
:102BD0000121FFF72FFE09F1010000F0FF09C145B7
:102BE000F1DB681CC5B2A542E7DBBDE8F09F10B57C
:102BF0000121022006F07FFEC020CC4908600120A0
:102C0000087100208871032048710020C871C848ED
:102C100005F022FF0120C7490860C749C1F89C029E
:102C2000C82001F0F5FF0021AE20FFF703FE0021D0
:102C30000846FFF7FFFD00211020FFF7FBFD0021F4
:102C40004020FFF7F7FD0021B020FFF7F3FD002142
:102C50008120FFF7EFFD0021FF20FFF7EBFD0021B2
:102C6000A120FFF7E7FD0021A620FFF7E3FD0021EB
:102C7000A820FFF7DFFD00213F20FFF7DBFD00214B
:102C8000C820FFF7D7FD0021D320FFF7D3FD002197
:102C90000846FFF7CFFD0021D520FFF7CBFD00212F
:102CA0008020FFF7C7FD0021D820FFF7C3FD0021DA
:102CB0000520FFF7BFFD0021D920FFF7BBFD002154
:102CC000F120FFF7B7FD0021DA20FFF7B3FD002167
:102CD0001220FFF7AFFD0021DB20FFF7ABFD002145
:102CE0003020FFF7A7FD00218D20FFF7A3FD002175
:102CF0001420FFF79FFD0021AF20FFF79BFD10BDC3
:102D000010B58CB08DA003C8CDE90A0106230AAA2C
:102D100001210520FFF7E2FE8AA103C9CDE90801E0
:102D2000062308AA02210520FFF7D8FE87A103C9C0
:102D3000CDE90601062306AA03210520FFF7CEFEF2
:102D400084A103C9CDE90401062304AA04210520B6
:102D5000FFF7C4FE81A103C9CDE90201062302AA3F
:102D600005210846FFF7BAFE7E48B0F9004006206C
:102D700003232246022100905A20FFF765FE7A487D
:102D80000468062003232246194600905A20FFF7C4
:102D90005BFE764804680620032322460421009047
:102DA0005A20FFF751FE724890ED000B51EC100BCA
:102DB0000BF047FA0446002C0ADA64426DA0006862
:102DC0000190062301AA05216E20FFF787FE09E086
:102DD00069A000680190062301AA05216E20FFF773
:102DE0007DFE00BF062003232246052100905A20C5
:102DF000FFF72AFE0CB010BD10B58CB05FA103C95F
:102E0000CDE90A0106230AAA01210520FFF766FE83
:102E10005CA000680990062309AA02210520FFF79B
:102E20005DFE59A000680890062308AA032105202A
:102E3000FFF754FE55A30FCB04AC0FC4062304AA1E
:102E400004210520FFF74AFE54A103C9CDE9020180
:102E5000062302AA19460520FFF740FE42480468EF
:102E6000002C0ADA644243A000680190062301AAFC
:102E700002214620FFF732FE09E03FA000680190E2
:102E8000062301AA02214620FFF728FE00BF0620E4
:102E900003462246022100901E20FFF7D5FD41483F
:102EA0000468002C0ADA644232A00068019006230C
:102EB00001AA03214620FFF711FE09E02EA00068B9
:102EC0000190062301AA03214620FFF707FE00BF59
:102ED000062003462246032100901E20FFF7B4FD82
:102EE00031480478062001232246052100901E2047
:102EF000FFF7AAFD2D48047806200123224605216C
:102F000000903C20FFF7A0FD29480478062001230B
:102F10002246052100905A20FFF796FD25480468B7
:102F200006200423224647E0E40100206404002038
:102F300000040240988240420080404274657374ED
:102F40005F555400322D4F504D560000332D7261A5
:102F500064610000342D4F4600000000352D494DBE
:102F6000550000000401002078040020C800002063
:102F7000A00000202D0000002B00000072616461A1
:102F80007200000078000000790000004B455931C4
:102F9000204B455932204B455933000074696D650B
:102FA000000000007C040020D8010020D90100208E
:102FB000DA0100208C040020014600902820FFF751
:102FC00043FD0CB010BD10B58AB09AA103C9CDE97C
:102FD0000801062308AA01210520FFF77FFDAFF2B3
:102FE0005C0000680790062307AA02210520FFF76E
:102FF00075FDAFF26C0000680690062306AA032157
:103000000520FFF76BFDAFF27C030FCB02AC0FC4C2
:10301000062302AA04210520FFF760FD8748046803
:10302000002C0BDA6442AFF2B40000680190062372
:1030300001AA02214620FFF751FD0AE0AFF2C800C5
:1030400000680190062301AA02214620FFF746FDF1
:1030500000BF062003462246022100901E20FFF7F3
:10306000F3FC77480468002C0BDA6442AFF2FC00F2
:1030700000680190062301AA03214620FFF72EFDD8
:103080000AE0AFF20C1000680190062301AA0321A8
:103090004620FFF723FD00BF0620034622460321FA
:1030A00000901E20FFF7D0FC66480478062001231C
:1030B0002246052100901E20FFF7C6FC62480478D6
:1030C000062001232246052100903C20FFF7BCFC8E
:1030D0005E480478062001232246052100905A20EC
:1030E000FFF7B2FC0AB010BD10B58AB058A103C9F1
:1030F000CDE90801062308AA01210520FFF7EEFC0F
:1031000055A000680790062307AA02210520FFF7B3
:10311000E5FC52A000680690062306AA03210520BC
:10312000FFF7DCFC4EA000680590062305AA0421E9
:103130000520FFF7D3FCAFF2AC130FCB01AC0FC4EB
:10314000062301AA05210846FFF7C8FC4548B0F947
:103150000040002C0BDA6442AFF2E81000680090E7
:1031600006236A4602214620FFF7B8FC0AE0AFF2C8
:10317000F8100068009006236A4602214620FFF7F7
:10318000ADFC00BF062003462246022100901E200F
:10319000FFF75AFC3448B0F90040002C0BDA6442C7
:1031A000AFF230200068009006236A4603214620D3
:1031B000FFF794FC0AE0AFF240200068009006237D
:1031C0006A4603214620FFF789FC00BF062003461C
:1031D0002246032100901E20FFF736FC2348B0F959
:1031E0000040062003462246042100901E20FFF7DF
:1031F0002BFC144804780620012322460146009047
:103200001E20FFF721FC10480478062001232246E7
:10321000014600903C20FFF717FC0C48047806207C
:1032200001232246014600905A20FFF70DFC0AB008
:1032300010BD0000616E6F5F4F4600009C010020D2
:10324000A0010020D8010020D9010020DA010020CF
:103250004F70656E4D56000044310000443200004E
:103260004430000006010020080100200401002075
:103270001CB50121102006F03EFB04200090012027
:103280008DF8040000208DF8060002208DF807005C
:103290008DF805006946174805F0DEFB0122042180
:1032A000144805F03EFE1CBD10B5044624B90122A9
:1032B0000421104805F035FE012C04D10022042120
:1032C0000C4805F02EFE10BD10B50122042109485E
:1032D00005F027FE00220421064805F022FE4FF4E7
:1032E000967001F095FC01220421024805F019FEB8
:1032F00010BD00000010024030B502460B46002011
:1033000010E012F8014B6040002109E000F00104D8
:103310001CB18C2484EA600000E040104C1CE1B237
:103320000829F3DB1C1EA3F10105ABB2E9D130BDC6
:1033300010B52DED048B0024AC480AF06FF9C4B22F
:10334000AB480078112818D1AA2C13D1A9480078CD
:1033500055280ED10020A6490870A7480078A74933
:103360000870A548407848700020A5490870A54914
:103370000870D1E09F480470CEE0A148007830B1D9
:1033800001280FD002282AD003287DD14AE09B488B
:10339000847080789C49088099480078401C98493E
:1033A0000870B8E095499948B0F90000C01C0C5469
:1033B00096480088401C00B2944908800846B0F93D
:1033C00000009149B1F90010884207DB00208F49C5
:1033D00008808B480078401C894908709BE08A4827
:1033E000B0F90000C01C85490C5487480088C01CF7
:1033F00081B28248FFF780FF824908708248B0F9A5
:103400000000C01C7D49085C7E490978884203D0D1
:103410000020BDEC048B10BD79480078401C784931
:10342000087078E07A48008830B979480088401CF4
:1034300000B2774908806CE075480088012868D19F
:103440000020734908801BE06C497148B0F9000006
:10345000C01C095C6F486E4AB2F90020815467496C
:103460006B48B0F90000401D085C6B49684AB2F92E
:103470000020885466480088401C00B264490880D7
:103480006348B0F9000000E044E00228DCDB614959
:10349000B1F900000AF0C4FE41EC190B9FED5F0B7F
:1034A00053EC102B0AF04DFE41EC180B0AF0C9FE4C
:1034B0005C4908605849B1F900000AF0B1FE41ECDE
:1034C000190B9FED560B53EC102B0AF03AFE41EC12
:1034D000180B0AF0B6FE544908604848C0795349B1
:1034E0000870084600782A2802D100205049086058
:1034F0000020434908703F49087011203C4908707A
:1035000000204049087040490880404908804049EF
:10351000088000E000BF00BF00207AE710E000BF95
:10352000324A128802F08002002AF9D002782F4B2A
:103530001B1D1A80401C3F4A1268521C3D4B1A60EA
:103540003C4A12688A42EADB00223A4B1A60704712
:103550002DE9FF4306460F4690469946002000900D
:10356000019002900390002533480680334807807D
:103570003348A0F80080002404E01F48005D0DF8E7
:103580000400641C022CF8DB07258DF8025000248F
:103590000FE02948015DE01C0DF800102748015D8F
:1035A000601D0DF800102648015DE01D0DF80010AB
:1035B000641C022CEDDBA81C0DF80090E81C81B205
:1035C0006846FFF799FEE91C0DF801001D480178D7
:1035D000281D0DF800101B484178681D0DF80010DB
:1035E0000D216846FFF79AFFBDE8FF8300480040C1
:1035F000A1040020A004002054ED0008B10D00201B
:103600009B0400209A040020A20400209C040020B7
:103610009E04002096040020980400200000000072
:1036200000002440780400207C040020880400204E
:103630008C040020A40400209004002092040020A8
:103640009404002056ED000810B501F011FE012091
:10365000F74981F8380081F8390010BD10B501F044
:10366000E3FA642001F0D4FA01F0B6FB01F042FC69
:10367000642001F0CDFA4FF4E13001F032FF4FF455
:10368000E13002F028F84FF4E13002F01EF9E94889
:1036900002F03CFAE74802F022FB642001F0B8FA9D
:1036A000FFF7D2FF01F004FB642001F0B1FAFCF750
:1036B00087FF4FF4487001F0ABFAFEF771FFFFF798
:1036C000D7FD4FF47A7001F0A3FAFFF790FAFFF7F5
:1036D00025F901F0F7FE012010BD40F6C411884223
:1036E00003DDD5490978032903DCD34909780A2980
:1036F0000DD10021D04A1170CD49B1F84E10491CAE
:10370000CB4AA2F84E10012182F8501012E0B0F519
:10371000967F0FDD40F6B83188420BDA02B2C44919
:10372000891CC54B1B7821F81320C3490978491C13
:10373000C14A1170704738B50446C0A000680090B7
:10374000BF484068BE49086001F037FABC4948608C
:10375000084640680968401A40F6C411884202D9F8
:103760000020B8490870B74801780078401CB54A75
:103770001070B54844541046007819287ED118209E
:1037800011460870B04800780F2878D1AE48007E06
:1037900038B1AD48007EAD4A12781DF8021088425B
:1037A000F3D10020A7490870A7484078A649897836
:1037B00001F0070140EA01209D498882A248C078B3
:1037C0008006400DA049897840EAE1009849C88206
:1037D0009D484079C007400D9B49097940EA810026
:1037E0009949C97840EAA11091490883964880799F
:1037F0000007400D9449497940EA61008C494883AB
:103800009148C0794006400D8F49897940EA2110DE
:10381000874988838C48407A8007400D8A49097A15
:1038200040EA41008849C97940EAE1108049C883EB
:103830008548807AC006400D8349497A40EAA10054
:103840007B4908848048C07AC0007F49897A40EA71
:103850006111774841847C48007B7B49497B01F0BA
:10386000070140EA0120724988847748807B8006FE
:10387000400D7549497B40EAE10001E072E067E0F4
:103880006B49C8847048007CC007400D6E49C97BF5
:1038900040EA81006C49897B40EAA11064490885AF
:1038A0006948407C0007400D6749097C40EA610097
:1038B0005F4948856448807C4006400D6249497CE8
:1038C00040EA21105A4988855F48007D8007400DF5
:1038D0005D49C97C40EA41005B49897C40EAE110CE
:1038E0005349C8855848407DC006400D5649097D5A
:1038F00040EAA1004E4908865348807DC0005249E5
:10390000497D40EA61114A4841864F48C07D484997
:1039100081F83400084690F8340000F0080040B9FF
:103920000846B0F84E00401CA1F84E00022081F875
:10393000500046480078401C444908700878C11778
:1039400000EB91718910A0EB8101404A117009E0F0
:10395000002005E03C4A411C515C1154411CC8B296
:103960001828F7DB38BD10B50446D4ED000A3848F6
:10397000008800EE100AB8EE400A9FED361A00EEFD
:10398000810ABCEEC00A10EE100A314908800846D0
:103990000088B0F57A7F39DD002008802448B0F82F
:1039A0004E002349C8860846C08E052803DA012048
:1039B00081F8380003E000201D4981F838001C48D8
:1039C00090F83800C8B11A480078D8B92248007871
:1039D000401C21490870087800EBD0714910A0EB19
:1039E00041011D4A117010460078012802D101F0F2
:1039F000C0FC07E001F03CFC04E00D4890F85000EA
:103A00000B49087000200A49A1F84E0010BD10B5FE
:103A10002DED020B6846FFF7A6FF054890F8380029
:103A200000286FD102480078012822D100201DE033
:103A3000C20D002020A10700A80400200414243493
:103A4000AC040020B4040020140E0020B5040020B3
:103A5000B804002000007A44B6040020344931F84C
:103A60001020383121F81020411CC8B20A28F5DB9B
:103A700023E02F48801E007802281ED100201AE083
:103A80002B49123131F91010A1F5806100EE101AA6
:103A9000F8EEC00A9FED270A9FED271A01EE200AD3
:103AA000BDEEC00A10EE101A0AB22149383121F8D1
:103AB0001020411CC8B20A28E2DB1D48801EB0F964
:103AC0004200B0F5966F06DD1948801EB0F942003D
:103AD000B0F5AF6F0DDB1648801EB0F94200B0F5AF
:103AE000C86F0ADD1248801EB0F94200B0F5E16FE0
:103AF00003DA01201149087012E000200F49087014
:103B00000EE0FFE701200D490870002006E00022CA
:103B10000749383121F81020411CC8B20A28F6DBC9
:103B2000064800780249891E81F839001CBD000052
:103B3000C40D00200080BB442FDD243FBA040020C8
:103B4000F0EE400AF5EEC00AF1EE10FA02DBB0EE3C
:103B5000600A7047B1EE600AFBE700B5B0EE403A8C
:103B6000B0EE602AB5EEC03AF1EE10FA07D1B5EE2C
:103B7000C02AF1EE10FA02D19FEDFC1A99E0B0EEE6
:103B8000430AFFF7DDFFF0EE403AB0EE420AFFF7DE
:103B9000D7FFF0EE402AF4EEE23AF1EE10FA02D24C
:103BA00083EEA24A01E082EEA34A9FEDF10AB4EE51
:103BB000C04AF1EE10FA02D2F0EE441A2DE0DFED29
:103BC000ED0AB6EE000A14EE200AF0EE404ABDEE11
:103BD000E40A10EE100A00EE100AB8EEC00A34EE45
:103BE000C00AF0EE404AE44901EB800191ED000A81
:103BF000F0EE401AE04A411C02EB810191ED000A0F
:103C0000114601EB8001D1ED000A70EE600AB0EEC2
:103C1000610A00EEA40AF0EE401AF4EEE32AF1EE97
:103C200010FA20DDB5EEC02AF1EE10FA0ADBB5EE8F
:103C3000C03AF1EE10FA02DBB0EE611A39E0B1EEF3
:103C4000611A36E09FEDCD1AB5EEC03AF1EE10FAEA
:103C500004DB31EE610AB0EE401A2AE031EEC10A0F
:103C6000B0EE401A25E0B5EEC03AF1EE10FA10DBE6
:103C70009FEDC31AB5EEC02AF1EE10FA04DB31EE67
:103C8000610AB0EE401A14E031EE210AB0EE401A9B
:103C90000FE09FEDBC1AB5EEC02AF1EE10FA04DB7E
:103CA00031EE210AB0EE401A03E031EE610AB0EEC7
:103CB000401AB0EE410A00BD00B5B0EE405AF0EE39
:103CC000605AF0EE450AB0EE650AFFF746FF00BD08
:103CD000F0EE400AF6EE001A60EEA11AB0EE611A9C
:103CE000B0EE600A10EE100AA749A1EB600000EEEA
:103CF000100A21EE002AF7EE081A42EE401A61EE91
:103D0000801AB0EE610A21EE002AF7EE081A42EEA0
:103D1000401A61EE801AB0EE610A704700B5F0EE0D
:103D2000402AB0EE620AFFF7D3FF20EE220A00BD60
:103D300010B52DED0A8BB0EE409AF0EE609A9FED33
:103D4000930B53EC102B51EC190B0AF099FA18D283
:103D50009FED900B53EC102B51EC190B0AF07FF9EF
:103D600041EC1B0B9FED8D0B53EC102B0AF0D0F8A0
:103D700041EC1A0B53EC192B0AF071F941EC180BBA
:103D800017E09FED840B53EC102B51EC190B0AF04C
:103D900066F941EC1B0B9FED810B53EC102B0AF0E5
:103DA0005BF941EC1A0B53EC192B0AF058F941EC72
:103DB000180B9FED760B53EC102B51EC180B0AF0FF
:103DC0005FFA20D29FED770B53EC102B51EC180BC0
:103DD0000AF09EF841EC1C0B9FED740B53EC102B7A
:103DE0000AF03DF941EC1B0B9FED6E0B53EC102BD1
:103DF0000AF08EF841EC1A0B53EC182B0AF02FF94D
:103E000041EC180B1FE09FED670B53EC102B51ECAE
:103E1000180B0AF01EF941EC1C0B9FED660B53ECDE
:103E2000102B0AF01CF941EC1B0B9FED5E0B53ECC1
:103E3000102B0AF06DF841EC1A0B53EC182B0AF01A
:103E40000EF941EC180BB0EE480AF0EE680ABDEC32
:103E50000A8B10BD10B52DED068BB0EE408AF0EE4A
:103E6000608A01249FED550B53EC102B51EC180B7D
:103E70000AF01EFA0AD89FED510B53EC102B51ECAF
:103E8000180B0AF0E6F841EC180BA41E20460AF0C5
:103E9000C7F941EC190BB0EE480AF0EE680AFFF7DB
:103EA00047FFB0EE40AAF0EE60AA53EC192B51EC9C
:103EB0001A0B0AF0D4F841EC100BBDEC068B10BDC8
:103EC00010B52DED088BB0EE408AF0EE608A01242B
:103ED0009FED3C0B53EC102B51EC180B0AF018F82B
:103EE00041EC180B9FED350B53EC102B51EC180BDC
:103EF0000AF0DEF90AD8A41E9FED300B53EC102B0C
:103F000051EC180B0AF0A5F841EC180B20460AF00A
:103F100087F941EC1A0BB0EE480AF0EE680AFFF799
:103F200099FFB0EE40BAF0EE60BA53EC1A2B51ECA8
:103F30001B0B0AF094F841EC190B0AF0D1F900EED2
:103F4000100ABDEC088B10BDF0EE401AF4EEE01A3A
:103F5000F1EE10FA3ADD31EEC10AB4EEE00AF1EE0C
:103F600010FA3CD2B0EE600A39E000000000000018
:103F70008180803B0000804358ED0008DB0F494002
:103F8000DB0FC93FDB0FC9BFDF59375F00000000FF
:103F900000000000000000602FF0D93F000000602A
:103FA000305FF43F000000000000F03F000000C060
:103FB000CCCCCCBF000000C0CCCCCC3FF1D4C8539B
:103FC000FB210940F1D4C853FB21F93F31EE810AAE
:103FD000B4EEE00AF1EE10FA01DDB0EE600A7047CF
:103FE000F0EE401AB1EE412A32EE202AB4EEE12A78
:103FF000F1EE10FA09D231EE202AB4EEE12AF1EE08
:1040000010FA02DDB0EE600A01E0B0EE610A70471E
:10401000F0EE402AB5EEC01AF1EE10FA02DDB0EE75
:10402000410A01E0B1EE410AB6EE003A22EE033A4F
:1040300023EE213AB4EEC30AF1EE10FA06D29FED58
:10404000D40A20EE800AF0EE400A4DE0B5EEC01A28
:10405000F1EE10FA02DDB0EE410A01E0B1EE410AE4
:1040600022EE213AB4EEC30AF1EE10FA06D29FED29
:10407000C90A20EE800AF0EE400A35E0B5EEC01A1B
:10408000F1EE10FA02DDB0EE410A01E0B1EE410AB4
:10409000B4EEE10AF1EE10FA06D2B6EE000A20EE16
:1040A000800AF0EE400A1FE0B5EEC01AF1EE10FAF9
:1040B00002DDB0EE410A01E0B1EE410AB0EE003A95
:1040C00021EE833AB4EEC30AF1EE10FA06D29FED68
:1040D000B20A20EE800AF0EE400A05E09FEDAF0A3A
:1040E00020EE800AF0EE400A9FEDAD0A20EE800A35
:1040F00020EE223AF7EE003A83EE830AB7EE003A5A
:1041000030EE030AF7EE003A83EE803A90ED000AB3
:1041100071EE403A90ED000A03EE230A80ED000AAA
:1041200090ED000AB1EE423A23EE213AB4EEC30A12
:10413000F1EE10FA04D8B1EE420A20EE210A0DE0A9
:1041400090ED000A22EE213AB4EEC30AF1EE10FA25
:1041500002DD22EE210A01E090ED000A80ED000A66
:1041600090ED000A31EE400A704710B52DED028B3C
:10417000B0EE408AF0EE608A9FED8A0B53EC102B74
:1041800051EC180B0AF094F80CD29FED880B53EC0D
:10419000102B51EC180B09F05CFF41EC100BBDEC3F
:1041A000028B10BD9FED830B53EC102B51EC180BC1
:1041B0000AF066F80AD29FED7D0B53EC102B51EC00
:1041C000180B09F0A5FE41EC100BE8E7B0EE480A29
:1041D000F0EE680AE3E730B505460C46F0EE403AEB
:1041E000D5ED000A60EEA00A94ED001AD4ED001A95
:1041F00041EE210AB0EE600AFFF790FDB0EE403AC2
:10420000B5EEC03AF1EE10FA02D81FEDA80A09E0A7
:10421000B4EEE33AF1EE10FA02DDB0EE630A01E02B
:10422000B0EE430AB0EE404AB5EEC03AF1EE10FAF5
:1042300006D11FEDB20A83ED000A82ED000A0FE0FD
:1042400084EE030AD5ED000A20EE200A82ED000A72
:1042500084EE030AD4ED000A20EE200A83ED000A62
:1042600030BDF0EE400A0B7802EB8303C3ED000A89
:104270000B785B1C0B700B78834201DB00230B7007
:104280000B7802EB830393ED000A704700B50246FA
:10429000B0EE403A0B46F7EE000A43EE430AB0EEAA
:1042A000600AFFF73BFDD2ED000A20EE200AD2EDB6
:1042B000010A00EEC30A83ED000AF7EE000A43EE9E
:1042C000430AB0EE600AFFF729FDD2ED010A20EEA5
:1042D000200AD2ED000A00EE830A83ED010A00BD38
:1042E00090ED000AD1ED010A20EE200AD0ED010A7E
:1042F00091ED001A00EEC10A704790ED000AD1ED71
:10430000000A20EE200AD0ED010A91ED011A00EE1C
:10431000810A704790ED010AD1ED020A20EE200AD1
:10432000D0ED020A91ED011A00EEC10A82ED000AF9
:1043300090ED020AD1ED000A20EE200AD0ED000A2D
:1043400091ED021A00EEC10A82ED010A90ED000A19
:10435000D1ED010A20EE200AD0ED010A91ED001AFC
:1043600000EEC10A82ED020A704790ED000AD1ED1D
:10437000000A20EE200AD0ED010A91ED011A00EEAC
:10438000810AD0ED020A91ED021A00EE810A70470F
:104390009A99993FCDCC4C3FCDCC4C3ECDCCCC3D29
:1043A000C3F5C84000000000008066400000000027
:1043B0000080764000000000008066C008B5C64856
:1043C000D0ED000A9FEDC51AF4EEC10AF1EE10FA25
:1043D0000BD2D0ED000AB7EE001A70EE810AC0EDE4
:1043E000000A0120BE49887002E00020BC498870A4
:1043F000B948D0ED010A9FEDB91AF4EEC10AF1EE09
:1044000010FA0BD2D0ED010AB7EE001A70EE810A55
:10441000C0ED010A01208DF8000002E000208DF8B7
:104420000000AD48D0ED020A9FEDAC1AF4EEC10ACF
:10443000F1EE10FA0BD2D0ED020AB7EE001A70EED0
:10444000810AC0ED020A01208DF8010002E000207F
:104450008DF801009DF8000030B19DF8010018B101
:1044600001209F49C87002E000209D49C87008BD26
:1044700030B500220024C5788B1F9D4200D030BD8E
:10448000002306E0C55C1544EAB2A518ECB25D1C39
:10449000EBB28D1E9D42F5DC431813F8023C9342AB
:1044A00004D1431813F8013CA34200D0E7E7837816
:1044B000512B38D103795BB94379894D6B7183797D
:1044C0005BB2AB71C3795BB2EB71037A2B7183E0A2
:1044D0000379012B12D14379814D2B72C3886B81F3
:1044E0000389AB81837A2B719FED7E0A7A4B83ED32
:1044F000010A2B461B785B1C2B706DE00379022BA5
:104500006AD14379764DAB73C3882B8203896B8262
:104510004389AB828389EB82C3892B83038A6B83B4
:10452000837C2B7158E08378342B0DD1D0F8073081
:104530006B4DEB619FED6B0A674B83ED020A2B46D7
:104540005B785B1C6B7047E08378012B0DD183880F
:10455000634D2B86C3886B860389AB864389EB86C4
:1045600083892B87C3896B8736E08378042B33D10B
:10457000B0F9043000EE103AB8EEC00ADFED5A0A86
:1045800020EE200A564B83ED080AB0F9063000EE03
:10459000103AB8EEC00ADFED540A20EE200A504B64
:1045A00083ED090AB0F9083000EE103AB8EEC00AFF
:1045B000DFED4D0A20EE200A494B83ED0A0AB0F9DF
:1045C0000A3000EE103AB8EEC00ADFED470A20EEDE
:1045D000200A434B83ED0B0A00BF50E710B5044699
:1045E0004248007838B9AA2C05D101203F4908700B
:1045F0003F4804706FE03D480078012809D1612CE4
:1046000001D0FF2C05D10220384908703848447089
:1046100061E036480078022805D10320334908704C
:104620003348847057E03148007803280CD1FA2CC5
:104630000ADA04202D4908702D48C4702D480470F2
:1046400000202D49087046E028480078042819D138
:1046500028480078002815DD26480078401E2549A6
:1046600008702548007824490978491C224A1170AD
:10467000001D1F490C541F48007840BB05201B49F2
:10468000087028E01948007805280DD10620174940
:1046900008701948007818490978491C164A1170A1
:1046A000001D13490C5416E01048007806280FD15D
:1046B00000200E49087010480078001D0C490C5469
:1046C0000D480078401DC1B20948FFF7D1FE02E055
:1046D00000200649087010BDA00E00200000FA431B
:1046E000300E00200000000017B7D138BD040020B4
:1046F0006C0E0020BB040020BC0400200146D548FD
:10470000007800287ED00022D24B1A70D24A12883C
:10471000C832D14B1A80D14A127DD14B5A76CF4A3A
:10472000D37DCF4A9376CD4A9369CD4AC2F81B30E8
:10473000CA4AD369CA4AC2F81F30C84A526A0A2311
:1047400092FBF3F3C64AC2F82330C44A126B0A2321
:1047500092FBF3F213B2C24AA2F82730BF4A526B5F
:104760000A2392FBF3F213B2BD4AA2F82930BB4AE6
:10477000926B0A2392FBF3F213B2B94AA2F82B30E0
:10478000B64AB2F84C2000EE102AB8EE400ADFED2F
:10479000B50A20EE200ABCEEC00A10EE100A08B9D5
:1047A000002204E0C82801D9C82200E002461046D1
:1047B000AB4A82F82D00A94A526C00EE102AB8EEDE
:1047C000400ADFEDA80A20EE200ABCEEC00A10EE77
:1047D000100A08B9002204E0C82801D9C82200E064
:1047E000024610469E4A82F82E009C4AD26A00EE8B
:1047F000102AB8EE400ADFED9B0A20EE200ABCEE3C
:10480000C00A00E012E010EE100A08B9002204E02D
:10481000C82801D9C82200E002461046904A82F812
:104820002F000123904A82F8213100BF704710B554
:104830000E218E4800F0D0FE10BD10B50E218C4820
:1048400000F0CAFE10BD10B5642000F0E1F94FF48D
:10485000165000F046FE322000F0DAF91C2185489F
:1048600000F0BAFE642000F0D3F94FF4964000F057
:1048700038FE322000F0CCF91C217E4800F0ACFE5E
:10488000642000F0C5F94FF4164000F02AFE3220F3
:1048900000F0BEF91C21774800F09EFE642000F075
:1048A000B7F94FF4E13000F01CFE142000F0B0F92D
:1048B0000B21714800F090FE142000F0A9F90B21A3
:1048C0006E4800F089FE142000F0A2F90B216C481C
:1048D00000F082FE142000F09BF90B21694800F0E3
:1048E0007BFE142000F094F90B21674800F074FE61
:1048F000142000F08DF90B21644800F06DFE1420A7
:1049000000F086F9FFF793FF10BD10B501460020B7
:1049100000225F4B1B782BB9B52903D101235C4CD6
:10492000237095E05A4B1B78012B05D1622903D1E6
:104930000223574C23708BE0554B1B78022B05D17B
:104940000323534C2370534B197081E0504B1B7859
:10495000032B05D104234E4C23704F4B197077E085
:104960004B4B1B78042B05D10523494C23704B4B33
:1049700019706DE0464B1B78052B10D10623444C73
:104980002370464B1B7803EB0123454C23802346C1
:104990001B88622B5CDB00233D4C237058E03C4BB2
:1049A0001B78062B54DB3A4B1B789B1F3C4C24880E
:1049B000A41CA3420ADA364B1B789B1F274CE154F8
:1049C000334B1B785B1C324C237041E0314B1B781E
:1049D0000344D8B21318DAB22F4B1B780344D8B271
:1049E0001318DAB22E4B1B780344D8B21318DAB27C
:1049F0002B4B1B8800EB1323D8B21318DAB2002319
:104A000007E0164CE45C0444E0B21418E2B25C1C0B
:104A1000E3B2234C2488A342F3DB104B204C2488C0
:104A20001B5D834211D10D4C1D4B1B885B1CE35C4D
:104A300093420AD1174B1B78012B06D1164B1B78DA
:104A4000072B02D10123034C23700023104C237049
:104A500010BD0000BE040020C0040020AC0E0020E9
:104A6000580D00200AD7233CFC050020C20400207A
:104A7000D0040020FA0400202B0500203605002079
:104A8000410500204C05002057050020620500204C
:104A9000730500206D0500206E0500206F050020C5
:104AA00070050020704700BFFEE700BFFEE700BFB3
:104AB000FEE77047704710B5802003F0D2FE10B1BA
:104AC000802003F024FF10BD10B500F029FC10BDBC
:104AD000704710B50121174807F0B9FD28B1012131
:104AE000144807F011FEFCF78CFB10BD10B500F068
:104AF000BBFD10BD10B500F0ACFE10BD10B540F20E
:104B000025510D4809F019F930B140F225510A48F4
:104B100009F09EF9FEF70CFC10BD10B501F0A3F8EA
:104B200010BD10B501F0B3F910BD10B500F074FC64
:104B300010BD000000140040004800407FB56846EA
:104B400004F0C1FD4FF47A710198B0FBF1F4E40870
:104B50002146B1F1807F00D31DE021F07F40401E4F
:104B60004FF0E022506150170F22002807DA130798
:104B70001E0E314B00F00F052D1F5E5503E013078D
:104B80001D0E2E4B1D5400BF00204FF0E0229061FF
:104B90000720106100BF6FF0040001F095FB7FBD9E
:104BA0002748D0E900305A1C40F100002449C1E9EF
:104BB0000020704722480068704710B500BF204AA7
:104BC00011684FF0E02252694FF0E0239B69D21A3E
:104BD0004FF47A735A434FF0E0235B69B2FBF3F270
:104BE00001EB4103C3EBC11302EBC300144C18CC1F
:104BF0004B402343E3D110BD30B50446FFF7DDFF42
:104C0000054600BFFFF7D9FF401BA042FAD330BDD5
:104C100010B5044603E04FF47A70FFF7EDFF201E55
:104C2000A4F10104F7D110BD10B54FF4806001F07C
:104C300099FAFFF783FF10BD18ED00E000E400E0F3
:104C40007805002000B58FB0684602F096FD01217E
:104C5000880504F050FE00BF564803F0ABF800286A
:104C6000FAD10090544801905448029000200390DB
:104C700032200490002005904FF4806006904000A0
:104C800007908000089000010A90401209900020CF
:104C90000B9001200C9000200D900E906946454825
:104CA00002F015FC0121434802F078FD0FB000BD71
:104CB00000B58DB001A801F009FC0121042004F029
:104CC0001AFE0121080204F0FCFEFFF7BBFF0320DF
:104CD0008DF8300020200B9000208DF833000BA9B8
:104CE000374803F0B9FE0020099007904FF4803058
:104CF000089000200A9007A801F0F2FB0020019024
:104D00008DF8080001208DF809000020039005901F
:104D100001208DF8180001A927484C3801F00DFB3F
:104D2000072301220F2124484C3801F09EFD012168
:104D300021484C3801F077FF01211F484C3801F021
:104D400080FC01211C484C3801F047FF1A484C38C0
:104D500001F057FE0DB000BD9FED1A0AF0EE400ABB
:104D6000002010E0154931F8101000EE101AB8EECE
:104D7000401ADFED151AB0EE600A01EE210AF0EEDE
:104D8000400A411CC8B23228ECDB9FED101A80EEBD
:104D9000810A9FED0F1A20EE010AB2EE061A20EEEC
:104DA000010AF7EE001A80EE211A9FED0A0A21EEA1
:104DB000000A7047106402404C200140100F002090
:104DC00000080240000000000AD7A33C0000804514
:104DD00000404E456F12833A1CB5684603F0E7FE6B
:104DE0000121102004F087FD01208DF804008DF8CA
:104DF000070000208DF8060002208DF805000B202A
:104E000000906946384803F027FE01208DF8040021
:104E10008DF8060002208DF805008020009069467C
:104E2000314803F019FE08212F4804F04BF8022105
:104E30002D4804F047F801212B4804F043F8802165
:104E4000294804F03FF81CBD00F0010119B1082108
:104E5000254A118302E00821234A518300F0020110
:104E600019B10221204A118302E002211E4A518316
:104E700000F0040119B101211B4A118302E0012154
:104E8000194A518300F0080119B18021164A518353
:104E900002E08021144A1183704700B500201DE014
:104EA000124931F81010124A1256914204DA0121C7
:104EB000814019438BB202E0012181408B430B49B1
:104EC00031F81010491C89B2084A22F81010142930
:104ED00002DB002122F81010411CC8B20428DFDBDD
:104EE0001846FFF7B1FF00BD001002408405002006
:104EF0008005002030B58BB00025D44C01A803F00C
:104F000056FE08A805F063F903A805F09CFF012CE4
:104F100001D8012004E0CE48844200D900E02046B8
:104F200004460121082004F0A9FD0121022004F01B
:104F3000C8FD0121084604F0C4FD0121152004F03C
:104F4000DAFC0C20019002208DF8080003208DF877
:104F5000090000208DF80A0001208DF80B0001A93E
:104F6000BC4803F079FD02221146BA4804F088F8E3
:104F700002220321B74804F083F8B74800684008CC
:104F8000B0FBF4F0401E85B242F210700990ADF80B
:104F900020500020ADF82800ADF8220008A9AF4845
:104FA00005F08AF86020ADF80C000020ADF818007C
:104FB0000120ADF80E004FF47A60059003A9A748D0
:104FC00005F0E8FD0821A54806F0B1F90120ADF88B
:104FD0000E004FF47A60059003A9A04805F0A2FEE8
:104FE00008219E4806F0CFF901219C4805F0E9FA16
:104FF00001219A4805F0D1FB4FF4D44001900220E2
:105000008DF8080003208DF8090000208DF80A00B3
:1050100001208DF80B0001A9914803F01DFD01222C
:1050200009218F4804F02CF801220B218C4804F050
:1050300027F801220D218A4804F022F801220E21CE
:10504000874804F01DF884480068B0FBF4F0401E67
:1050500085B242F210700990ADF820500020ADF8F2
:105060002800ADF822008DF82A0008A97D4805F037
:1050700023F86020ADF80C000020ADF81000ADF86A
:1050800018000820ADF81A004001ADF81C000020FF
:10509000ADF81E000120ADF80E004FF47A600590C7
:1050A00003A9704805F0C1FB08216E4806F0CBF853
:1050B0004FF47A60059003A96A4805F07EFC082148
:1050C000684806F0FEF84FF47A60059003A9654839
:1050D00005F060FD0821634806F029F94FF47A6075
:1050E000059003A95F4805F01DFE08215D4806F004
:1050F0004AF901215B4807F0FCF80121594805F005
:1051000060FA0121574805F048FB4FF440700190C8
:1051100002208DF8080003208DF8090000208DF88A
:105120000A0001208DF80B0001A94F4803F094FC00
:10513000032208214C4803F0A3FF032209214A4817
:1051400003F09EFF44480068B0FBF4F0401E85B2B7
:1051500042F210700990ADF820500020ADF8280000
:10516000ADF822008DF82A0008A9404804F0A4FFF9
:105170006020ADF80C000020ADF81000ADF818006C
:105180000820ADF81A004001ADF81C000020ADF871
:105190001E004FF47A60059003A9344805F0FAFC2C
:1051A0000821304806F0C3F84FF47A60059003A94F
:1051B0002E4805F0B7FD08212A4806F0E4F8012141
:1051C0002A4807F096F80121284805F0FAF901214C
:1051D000264805F0E2FA0BB030BDB0F900108900A6
:1051E00001F57A611F4A1164B0F90210890001F5D6
:1051F0007A61D163B0F90410890001F57A61916395
:10520000B0F90610890001F57A615163B0F9081010
:10521000890001F57A61114A40321160B0F90A1033
:10522000890001F57A61121F1160B0F90C10890034
:1052300001F57A610D4A40321160B0F90E10890013
:1052400001F57A61121F11607047000000093D00EE
:1052500000BD010500000240A4050020000C004034
:10526000001002400000014000080240000401401C
:1052700000B587B005A803F09AFC02A806F0BBFEB3
:105280000121022004F0FAFB0121042004F033FB89
:105290001D208DF8040002208DF8050001208DF8F6
:1052A00006008DF8070001A800F077FF8020059028
:1052B00002208DF8180003208DF8190000208DF8C9
:1052C0001A0002208DF81B0005A95D4803F0C4FBFD
:1052D000022207215A4803F0D3FE5320594908807F
:1052E0000420ADF808000A20ADF80A000120ADF84E
:1052F0000C000020ADF80E00ADF8100002A95148D6
:10530000283806F092FD01214E48283805F045FA6C
:10531000012204214B48283807F05AF807B000BD95
:1053200010B548481838008800F0040000B34FF664
:10533000FB704449183908804FF6FF300880404818
:105340001030006800F0800090B93E48283806F020
:10535000FEFE3D490880084600884988401A84B20C
:105360002046FEF7BAF9384800883749488000BF20
:1053700010BD00B587B0684603F019FC012120205C
:1053800004F09FFB0121042004F0B5FA47208DF8BA
:10539000080004208DF8090001208DF80A008DF81E
:1053A0000B0002A800F0F9FE08220721244803F0B0
:1053B00067FE8020009002208DF804008DF8050023
:1053C00001208DF8060000208DF8070069461C4872
:1053D00003F042FB1D4803900020ADF810004FF48D
:1053E0000050ADF81200C010ADF814000020ADF868
:1053F00018000420ADF8160003A9154807F0DBFEDD
:10540000012240F22551124808F071FB0121104899
:1054100008F01AF807B000BD10B540F225510C484D
:1054200008F08BFC58B140F22551094808F010FDF6
:105430000748001D0088C4B22046FEF77CF910BD65
:1054400000080240280400408C050020A0860100CE
:10545000001401403EB504460121202004F00EFB5B
:105460001E4804F04DFD01945320ADF800000020CB
:10547000ADF80800ADF802006946184804F01CFEBB
:105480000121164807F0ADF801221146134806F035
:105490009FFF0121114805F080F90021202004F030
:1054A000EDFA3EBD08B537208DF8000007208DF8D5
:1054B000010001208DF802008DF80300684600F01D
:1054C0006CFE08BD10B54FF47A70FFF7C3FFFFF70D
:1054D000E9FF0121202004F0D1FA10BD00140040A2
:1054E000704710B58AB0044606A807F048FF0121AE
:1054F000102004F0E6FA0121084604F0FCF925200A
:105500008DF80C0003208DF80D0000208DF80E00A2
:1055100001208DF80F0003A800F03FFE07220921AB
:10552000FE4803F0ADFD07220A21FC4803F0A8FD68
:105530004FF40070019002208DF808008DF80900EA
:1055400000208DF80A0001208DF80B0001A9F34816
:1055500003F082FA4FF48060019002208DF8080079
:105560008DF8090001208DF80A0000208DF80B004D
:1055700001A9EA4803F070FAE94807F0B7FD06947C
:105580000020ADF81C00ADF81E00ADF82000ADF80D
:1055900024000C20ADF822000020ADF81000ADF87A
:1055A00012004FF40070ADF814000020ADF81600A2
:1055B00006A9DB4807F0FFFD04A9D94807F0EBFE78
:1055C000012240F22551D64808F091FA0121D44831
:1055D00007F03AFF0AB010BD70B505460E4600242C
:1055E0000AE0295DCF4802780078401CCD4B187046
:1055F000CD488154601CC4B2B442F2DBC8488089F3
:1056000000F0800028B9012240F22771C44808F058
:105610006EFA70BDC5490A780978491CC34B1970E8
:10562000C349885419460978642902DB00211A46C7
:105630001170704710B510E0BE490A780978491C0E
:10564000BC4B1970BA49885CFCF756FBB948007826
:10565000642802DB0020B7490870B4480078B549D7
:1056600009788842E8D110BD10B5AD48008800F037
:10567000080010B1AA488088C4B240F22551A84859
:1056800008F05BFB50B140F22551A54808F0E0FB63
:10569000A3488088C4B22046FFF7BCFF40F22771C0
:1056A0009F4808F04AFBA8B1A34801780078401C45
:1056B000A14A10709C48405C994988801046007847
:1056C00098490978884205D19548808920F0800062
:1056D0009349888110BD10B58AB0044606A807F02A
:1056E0004EFE0121480404F0C9F90121082004F00C
:1056F00002F926208DF80C0004208DF80D00012001
:105700008DF80E008DF80F0003A800F046FD07226B
:1057100005218A4803F0B4FC07220621874803F0DC
:10572000AFFC2020019002208DF808008DF80900C0
:1057300000208DF80A0001208DF80B0001A97F4898
:1057400003F08AF94020019002208DF808008DF8BE
:10575000090001208DF80A0000208DF80B0001A936
:10576000764803F079F906940020ADF81C00ADF8F6
:105770001E00ADF82000ADF824000C20ADF822008A
:105780000020ADF81000ADF812004FF40070ADF835
:1057900014000020ADF8160006A9694807F00BFDBB
:1057A00004A9674807F0F7FD012240F2255164483B
:1057B00008F09DF90121624807F046FE0AB010BDCD
:1057C00070B505460E4600240AE0295D5D48027862
:1057D0000078401C5B4B18705B488154601CC4B25D
:1057E000B442F2DB56480C30008800F0800028B943
:1057F000012240F22771524808F079F970BD5349EF
:105800000A780978491C514B197051498854194636
:105810000978642902DB00211A461170704710B51F
:1058200010E04C490A780978491C4A4B19704849DC
:10583000885CFCF7C5FA47480078642802DB002042
:105840004449087041480078424909788842E8D1C3
:1058500010BD10B53A48008800F0080018B138486B
:10586000001D0088C4B240F22551354808F065FAA1
:1058700058B140F22551324808F0EAFA3048001D8C
:105880000088C4B22046FFF7BAFF40F227712C48C7
:1058900008F053FAC0B1304801780078401C2E4A15
:1058A00010702948405C2649091D08801046007880
:1058B00024490978884207D121480C30008820F01B
:1058C00080001F490C31088010BD10B58AB0044615
:1058D00006A807F054FD0121880404F0CFF8012147
:1058E000022004F008F827208DF80C0002208DF823
:1058F0000D0000208DF80E0001208DF80F0003A888
:1059000000F04BFC07220A21144803F0B9FB0722E0
:105910000B21124803F0B4FB22E00000000002401B
:105920000010014091050020740F00209205002016
:10593000741000209305002090050020000C024008
:105940000044004095050020D81000209605002056
:10595000D811002097050020940500200004024083
:105960004FF48060019002208DF808008DF8090046
:1059700000208DF80A0001208DF80B0001A9FE48D7
:1059800003F06AF84FF40060019002208DF80800DF
:105990008DF8090001208DF80A0000208DF80B0019
:1059A00001A9F54803F058F806940020ADF81C0052
:1059B000ADF81E00ADF82000ADF824000C20ADF8C5
:1059C00022000020ADF81000ADF812004FF4007076
:1059D000ADF814000020ADF8160006A9E74807F05E
:1059E000EAFB04A9E54807F0D6FC012240F2255164
:1059F000E24808F07CF80121E04807F025FD0AB0F4
:105A000010BD70B505460E4600240AE0295DDC484D
:105A100002780078401CDA4B1870DA488154601C18
:105A2000C4B2B442F2DBD5480C30008800F08000EC
:105A300028B9012240F22771D04808F058F870BD0B
:105A4000D1490A780978491CCF4B1970CF4988543D
:105A500019460978642902DB00211A461170704743
:105A600000B510E0CA490A780978491CC84B19707A
:105A7000C649885CFFF734FDC5480078642802DB1E
:105A80000020C3490870C0480078C149097888429D
:105A9000E8D100BD10B5B948008800F0080018B181
:105AA000B648001D0088C4B240F22551B34808F042
:105AB00044F958B140F22551B04808F0C9F9AF484F
:105AC000001D0088C4B22046FFF7BAFF40F22771DC
:105AD000AA4808F032F9C0B1AE4801780078401CFD
