:020000040800F2
:10000000102B00201D03000863AA0008539E00085F
:1000100061AA00088B7B000809B4000800000000FA
:1000200000000000000000000000000053AB0008CA
:100030008D7B00080000000051AB000855AB0008A4
:1000400037030008370300083703000837030008A8
:100050003703000837030008370300083703000898
:100060003703000837030008370300083703000888
:100070003703000837030008370300083703000878
:100080003703000837030008370300083703000868
:100090003703000837030008370300083703000858
:1000A000B1AD000837030008370300083703000824
:1000B0003703000837030008370300083703000838
:1000C0003703000837030008370300083703000828
:1000D00037030008E5B30008F1B30008FDB30008DA
:1000E000370300083703000837030008CDAD0008C8
:1000F00037030008370300083703000837030008F8
:1001000037030008370300083703000837030008E7
:1001100075B10008370300083703000837030008EB
:1001200037030008370300083703000837030008C7
:1001300037030008370300083703000837030008B7
:1001400037030008370300083703000837030008A7
:100150003703000837030008370300083703000897
:100160003703000837030008370300083703000887
:1001700037030008370300083703000800000000B9
:10018000370300083703000800F002F800F0B6F863
:100190000AA090E8000C82448344AAF10107DA45E2
:1001A00001D100F0ABF8AFF2090EBAE80F0013F07E
:1001B000010F18BFFB1A43F001031847682A01001A
:1001C000882A01000A444FF0000C10F8013B13F09C
:1001D000070408BF10F8014B1D1108BF10F8015BA0
:1001E000641E05D010F8016B641E01F8016BF9D193
:1001F00013F0080F1EBF10F8014BAD1C0C1B09D1EA
:100200006D1E58BF01F801CBFAD505E014F8016B5B
:1002100001F8016B6D1EF9D59142D6D370470000ED
:100220000023002400250026103A28BF78C1FBD8FF
:10023000520728BF30C148BF0B6070476E2905F0D8
:100240004986702905F08B87662911F02884652975
:1002500011F02584672911F02284612911F021848D
:1002600003681B0A28BF41F08001692905F0F68563
:10027000642905F0F385752905F0F0856F2905F0EF
:100280001887782905F05787E92905F0B386E4290E
:1002900005F0B086F52905F0AD86EF2905F0158744
:1002A000F82905F056870368DB0928BF41F0800173
:1002B000632906F0A985732906F0AE85E32906F0C7
:1002C000B985F32906F0BE85002070471FB511F0EF
:1002D00098FB9DE8030006F0A3FE06F085FE0400EF
:1002E0000020002110F0C4FC401C606000200021B0
:1002F00010F0A8FCE0601FBD10B510BD06F043FE75
:100300001146FFF7E3FF0FF093F806F099FF03B4EF
:10031000FFF7F2FF03BC07F021F80000094880470F
:1003200009480047FEE7FEE7FEE7FEE7FEE7FEE7D7
:10033000FEE7FEE7FEE7FEE704480549054A064BEF
:1003400070470000A1AD00088901000810250020B9
:10035000102B00201027002010270020FE4880EDE1
:100360003A0A70472DE9F047DFF8EC9300262DEDAF
:100370000A8B0446B0EE408AF0EE608A8846354625
:100380003746D9F8AC0010F03EFF53EC182B10F0B4
:1003900065FF6FD3D9F8B00010F035FF53EC182B80
:1003A00011F096F8F5D3B4F90000B4F90610401A2C
:1003B00010F029FF53EC182B10F050FF00D201264B
:1003C000B4F90E00B4F91410401A10F01CFF53ECED
:1003D000182B10F043FF00D2761CB4F91C00B4F9BE
:1003E0002210401A10F00FFF53EC182B10F036FFBC
:1003F00000D2761C9FEDD90B012E3BDC53EC102B69
:1004000051EC180B10F066FF8946064649EC180BB4
:10041000B4F90000B4F90610401A10F0F4FE53ECE1
:10042000182B11F055F800D20125B4F90E00B4F9DB
:10043000141049EC186B401A10F0E5FE53EC182B21
:1004400011F046F800D26D1CB4F91C00B4F922106A
:1004500049EC186B401A10F0D6FE53EC182B11F033
:1004600037F800D26D1C002D05DD0220BDEC0A8B93
:10047000BDE8F08765E000269FEDBACB06EB4609A4
:1004800004EB8905B5F90A0010F0BDFE98ED048B68
:1004900053EC182B11F02AF941EC190BB5F90400B3
:1004A00010F0B1FE53EC182B11F020F953EC192B7E
:1004B00010F010FF41EC190BB5F9080010F0A3FE85
:1004C00098ED028B53EC182B11F010F941EC1A0B3C
:1004D000B5F9020010F097FE53EC182B11F006F955
:1004E00053EC1A2B10F0F6FE41EC1A0BB5F906008E
:1004F00010F089FE98ED008B53EC182B11F0F6F8F4
:1005000041EC1B0B34F9290010F07DFE53EC182B45
:1005100011F0ECF853EC1B2B10F0DCFE53EC1A2B13
:1005200010F0FAFB53EC192B10F0F6FB53EC1C2BDC
:1005300010F094FE00D27F1C761C032E9EDB022F4F
:1005400001DA012092E7002090E788490A684B68A9
:10055000D00180EAD20080EA031048608B68520321
:1005600080EAC30382EA5312520282EAD0208B60EF
:100570000860704710B52DED048BF0EE408AFFF750
:10058000E4FF00EE100AB8EE400ADFED790A20EE33
:10059000200A9FED789A20EE090A0BF005FAB0EEDA
:1005A000408AFFF7D2FF00EE100AB8EE400A20EEB4
:1005B000090AB5EEC00AF1EE10FA01D1B7EE000A51
:1005C00010EE100A11F07CF941EC100B0BF0A0FAC0
:1005D0009FED691B51EC100B53EC112B10F07AFEC0
:1005E00010F068FB00EE100A0BF079FD20EE280AEF
:1005F00020EE080ABDEC048B10BD2DE9F041054644
:100600002DED048BB0EE608AF0EE408A0F4618EEB6
:10061000100A11F055F997ED301B53EC112B10F027
:1006200059FE41EC190B18EE900A11F049F995EDBD
:10063000301B53EC112B10F04DFE53EC192B10F026
:100640006BFB0024C5E9300118EE100A11F038F9EF
:1006500007EBC40898ED001B53EC112B10F03AFE89
:1006600041EC190B18EE900A11F02AF905EBC406BB
:1006700096ED001B53EC112B10F02CFE53EC192BB4
:1006800010F04AFBC6E9000118EE100A11F018F943
:1006900098ED241B53EC112B10F01CFE41EC190BB0
:1006A00018EE900A11F00CF996ED241B53EC112B67
:1006B00010F010FE53EC192B10F02EFB641CC6E951
:1006C0002401062CC0DB002418EE100A11F0F8F803
:1006D00041EC100B07EBC40090ED121B51EC100B1A
:1006E00053EC112B10F0F6FD41EC190B18EE900AAB
:1006F00011F0E6F805EBC40696ED121B53EC112B36
:1007000010F0E8FD53EC192B10F006FB641CC6E951
:100710001201092CD8DB002418EE100A11F0D0F8D1
:1007200041EC100B07EBC40090ED0C1B51EC100BCF
:1007300053EC112B10F0CEFD41EC190B18EE900A82
:1007400011F0BEF805EBC40696ED0C1B53EC112B13
:1007500010F0C0FD14E00000901700200000000021
:10076000000004400000000000000000C00800205D
:10077000DB0FC9400000802F00000000000000C017
:1007800053EC192B10F0C8FA641CC6E90C01032CB9
:10079000C2DBBDEC048BBDE8F0812DE9F04F0446CF
:1007A0002DED068B83B00D46086810F02CFD41EC52
:1007B0001A0B686810F027FD41EC190BA86810F0BF
:1007C00022FD41EC180B94ED300B9FEDFE1B51EC1C
:1007D000100B53EC112B10F09FFAC4E9300194ED8B
:1007E0000C0B53EC1A2B51EC100B10F095FAC4E9DA
:1007F0000C0194ED0E0B53EC192B51EC100B10F077
:100800008BFAC4E90E0194ED100B53EC182B51EC4C
:10081000100B10F081FAC4E9100153EC1A2B51ECC3
:100820001A0B10F057FD029194ED001B064653EC95
:10083000112B10F071FAC4E9000153EC192B51ECA3
:100840001A0B10F047FD894649EC100B94ED021B82
:10085000054653EC112B51EC100B10F05DFAC4E976
:10086000020153EC182B51EC1A0B10F033FD8B46A0
:100870004BEC100B94ED041B804653EC112B51EC08
:10088000100B10F049FAC4E9040153EC192B51EC98
:10089000190B10F01FFD019194ED061B074653EC58
:1008A000112B10F039FAC4E9060153EC182B51EC66
:1008B000190B10F00FFD009194ED081B824653ECCC
:1008C000112B10F029FAC4E9080153EC182B51EC54
:1008D000180B10F0FFFC94ED0A1B53EC112B10F0D9
:1008E0001BFAC4E90A01029953EC1A2B41EC106B74
:1008F00051EC100B10F0EEFC94ED121B53EC112B8D
:1009000010F00AFA49EC105BC4E9120153EC192B00
:1009100051EC100B10F0DEFC94ED141B53EC112B7A
:1009200010F0FAF94BEC108BC4E9140153EC182BBE
:1009300051EC100B10F0CEFC94ED161B53EC112B68
:1009400010F0EAF949EC105BC4E9160153EC1A2BDC
:1009500051EC100B10F0BEFC94ED181B53EC112B56
:1009600010F0DAF9C4E91801019953EC192B41ECA4
:10097000107B51EC100B10F0ADFC94ED1A1B53ECF6
:10098000112B10F0C9F9C4E91A010099554641EC40
:1009900010AB0E4653EC182B51EC100B10F09AFCD8
:1009A00094ED1C1B53EC112B10F0B6F9C4E91C019B
:1009B00053EC1A2B51EC180B10F08CFC53EC1A2B47
:1009C00010F088FC94ED1E1B53EC112B10F0A4F9D1
:1009D00046EC105BC4E91E0153EC192B51EC100BD3
:1009E00010F078FC94ED201B53EC112B10F094F9CF
:1009F000C4E9200153EC182B51EC180B10F06AFCE1
:100A0000894649EC100B074653EC182B51EC100BA0
:100A100010F060FC94ED221B53EC112B10F07CF9CC
:100A2000C4E9220153EC1A2B51EC1A0B10F052FCC2
:100A3000884648EC100B054653EC1A2B51EC100B72
:100A400010F048FC53EC1A2B10F044FC94ED241BDE
:100A500053EC112B10F060F9C4E9240153EC192B6D
:100A600051EC190B10F036FC8A464AEC100B064686
:100A700053EC192B51EC100B10F02CFC53EC192BF0
:100A800010F028FC94ED261B53EC112B10F044F9C8
:100A900049EC107BC4E9260153EC182B51EC100BE8
:100AA00010F018FC53EC182B10F014FC94ED281BDC
:100AB00053EC112B10F030F948EC105BC4E928011D
:100AC00053EC192B51EC100B10F004FC53EC192BC8
:100AD00010F000FC94ED2A1B53EC112B10F01CF9C4
:100AE00048EC105BC4E92A0153EC182B51EC100BB5
:100AF00010F0F0FB53EC182B10F0ECFB94ED2C1BDA
:100B000053EC112B10F008F94AEC106BC4E92C01DE
:100B100053EC182B51EC100B10F0DCFB53EC182BA2
:100B200010F0D8FB94ED2E1B53EC112B10F0F4F8C1
:100B3000C4E92E0103B0BDEC068BBDE8F08F2DE9B2
:100B4000F04F93462DED108B0D46044693B090ED7B
:100B50000CEB53EC1E2B51EC1E0B10F0BBFB94ED79
:100B6000000B41EC190B8DED080B94ED308B53EC21
:100B7000102B51EC180B10F0ADFB53EC192B10F0AF
:100B8000B5FD94ED0EDB41EC1F0B53EC1D2B51EC2E
:100B90001D0B10F09FFB94ED060B41EC190B8DED36
:100BA000060B53EC102B51EC180B10F093FB53EC8D
:100BB000192B10F09BFD41EC100B8DED040B94ED07
:100BC00010CB03E0000000000000F03F53EC1C2BB2
:100BD00051EC1C0B10F07EFB94ED0A0B41EC190B51
:100BE0008DED020B53EC102B51EC180B10F072FB37
:100BF00053EC192B10F07AFD41EC110B53EC1D2B2B
:100C00008DED001B51EC1E0B10F064FB94ED020BFC
:100C100041EC190B53EC102B51EC180B10F05AFB54
:100C200053EC192B10F062FD41EC1B0B53EC1C2B09
:100C300051EC1E0B10F04EFB94ED040B41EC190B24
:100C400053EC102B51EC180B10F044FB53EC192B08
:100C500010F04CFD41EC1A0B53EC1C2B51EC1D0B0E
:100C600010F038FB94ED080B41EC190B53EC102BF2
:100C700051EC180B10F02EFB53EC192B10F036FD35
:100C80009DED020B41EC190B53EC102B51EC1E0B9C
:100C900010F020FB41EC110B51EC180B8DED101BEB
:100CA00094ED160B53EC102B10F014FB41EC110BD0
:100CB00051EC1E0B8DED0E1B9DED060B53EC102B16
:100CC00010F008FB41EC110B51EC180B8DED0C1BD7
:100CD00094ED140B53EC102B10F0FCFA41EC110BBB
:100CE00051EC1E0B8DED0A1B9DED080B53EC102BE8
:100CF00010F0F0FA94ED120B41EC1E0B53EC102B9C
:100D000051EC180B10F0E6FA53EC1E2B10F0EEFC31
:100D10009DED0A1B53EC112B0FF0FEFF9DED0C1BFC
:100D200053EC112B10F0E2FC9DED0E1B53EC112B3C
:100D30000FF0F2FF9DED101B53EC112B10F0D6FCC1
:100D40009FEDFE1B53EC112B10F0C4FA9DED020B2E
:100D500041EC1E0B53EC102B51EC1D0B10F0BAFAAA
:100D600041EC110B51EC180B8DED101B94ED1C0B8D
:100D700053EC102B10F0AEFA41EC110B51EC1D0BA3
:100D80008DED0E1B9DED060B53EC102B10F0A2FA0F
:100D900041EC110B51EC180B8DED0C1B94ED1A0B63
:100DA00053EC102B10F096FA41EC110B51EC1D0B8B
:100DB0008DED0A1B9DED080B53EC102B10F08AFAF9
:100DC00094ED180B41EC1D0B53EC102B51EC180B50
:100DD00010F080FA53EC1D2B10F088FC9DED0A1BDF
:100DE00053EC112B0FF098FF9DED0C1B53EC112BC6
:100DF00010F07CFC9DED0E1B53EC112B0FF08CFFC3
:100E00009DED101B53EC112B10F070FC9FEDCB1BD4
:100E100053EC112B10F05EFA9DED020B41EC1D0B13
:100E200053EC102B51EC1C0B10F054FA41EC110B4D
:100E300051EC180B8DED021B94ED220B53EC102B93
:100E400010F048FA41EC110B51EC1C0B8DED0A1B14
:100E50009DED060B53EC102B10F03CFA41EC110BFE
:100E600051EC180B8DED0C1B94ED200B53EC102B5B
:100E700010F030FA41EC110B51EC1C0B8DED061B00
:100E80009DED080B53EC102B10F024FA94ED1E0B83
:100E900041EC1C0B53EC102B51EC180B10F01AFA10
:100EA00053EC1C2B10F022FC9DED061B53EC112B78
:100EB0000FF032FF9DED0C1B53EC112B10F016FCC4
:100EC0009DED0A1B53EC112B0FF026FF9DED021B2D
:100ED00053EC112B10F00AFC9FED981B53EC112BD7
:100EE00010F0F8F99DED040B41EC180B53EC102BAE
:100EF00051EC1F0B10F0EEF910919DED001B824696
:100F000053EC112B10F0E6F941EC110B53EC192BBB
:100F10008DED0A1B51EC1F0B10F0DCF953EC192B73
:100F200010F0D8F941EC110B53EC1A2B8DED081B86
:100F30009DED040B51EC100B10F0CCF9814653ECF5
:100F40001A2B119110F0C6F941EC110B8DED061B17
:100F50009FED7C0B51EC1B0B53EC102B10F0BAF9EE
:100F600053EC1A2B10F0B6F953EC192B10F0B2F920
:100F70009DED001B41EC1C0B53EC1B2B51EC110B9A
:100F800010F0A8F9074653EC1B2B029110F0A2F9C0
:100F900053EC1C2B10F0AAFB9DED061B53EC112B00
:100FA0000FF0BAFE9DED081B53EC112B0FF0B4FEB1
:100FB0009DED0A1B53EC112B10F098FB41EC1C0B20
:100FC0009FED620B53EC102B10F0B2F87DD053EC78
:100FD000192B51EC1B0B10F07DF953EC182B10F072
:100FE00079F941EC110B53EC1D2B8DED0E1B029981
:100FF00041EC107B51EC100B10F06CF941EC110B33
:101000008DED0C1B9DED000B53EC102B9DED040B97
:1010100051EC100B10F05EF953EC1E2B10F05AF946
:1010200041EC110B53EC192B8DED081B51EC190BF6
:1010300010F050F953EC1E2B10F04CF941EC110B51
:1010400053EC1D2B8DED0A1B51EC190B10F042F9DE
:1010500041EC110B53EC182B8DED061B9DED040B91
:1010600051EC100B10F036F99DED061B53EC112BD3
:1010700010F03CFB53EC1A2B10F02CF99DED0A1BE1
:1010800053EC112B0FF048FE9DED081B53EC112B78
:1010900010F02CFB9DED0C1B53EC112B0FF03CFEC4
:1010A0009DED0E1B53EC112B10F020FB41EC100BAF
:1010B00053EC1A2B8DED060B51EC1B0B10F00AF9BB
:1010C0008846064648EC100B00E065E153EC182B0F
:1010D00051EC100B10F0FEF841EC110B53EC1E2BF1
:1010E0008DED041B029941EC107B51EC100B10F0BC
:1010F000F1F841EC110B51EC1F0B8DED021B9DED36
:10110000000B53EC102B10F0E5F853EC1D2B10F0F6
:10111000E1F841EC110B53EC1A2B8DED081B51EC4F
:101120001A0B10F0D7F853EC1D2B10F0D3F841EC4C
:10113000110B53EC1E2B8DED001B0BE0000000008B
:101140000000E03F00000000000000400000000040
:101150000000000051EC1A0B10F0BCF841EC1A0B27
:1011600053EC182B51EC1F0B10F0B4F853EC1A2B66
:1011700010F0BCFA53EC192B10F0ACF89DED001BED
:1011800053EC112B0FF0C8FD9DED081B53EC112BF8
:1011900010F0ACFA9DED021B53EC112B0FF0BCFDCF
:1011A0009DED041B53EC112B10F0A0FA41EC100B39
:1011B00053EC1D2B8DED040B48EC106B51EC100B18
:1011C00010F088F841EC110B53EC1E2B8DED001B39
:1011D000119941EC109B51EC100B10F07BF841EC95
:1011E000110B53EC182B8DED021B109941EC10AB39
:1011F00051EC100B10F06EF841EC1A0B53EC1B2B5A
:1012000051EC1B0B10F066F853EC182B10F062F841
:1012100041EC180B53EC1E2B51EC1B0B10F05AF841
:1012200041EC1B0B53EC1D2B51EC1F0B10F052F833
:1012300053EC1B2B10F05AFA53EC192B10F04AF810
:1012400053EC182B0FF068FD53EC1A2B10F04EFAEC
:101250009DED021B53EC112B0FF05EFD9DED001B6D
:1012600053EC112B10F042FA9DED060B41EC190BDB
:1012700053EC1C2B51EC100B0FF002FE41EC180B41
:1012800053EC1C2B85ED008B9DED040B51EC100BEA
:101290000FF0F6FD41EC1A0B53EC1C2B85ED02AB65
:1012A00051EC190B0FF0ECFD41EC190B85ED049B93
:1012B00094ED100B53EC102B10F00CF894ED0E0B7A
:1012C00041EC1B0B53EC102B51EC1A0B10F002F8F5
:1012D00094ED0C0B41EC1C0B53EC102B51EC180B48
:1012E0000FF0F8FF53EC1C2B0FF016FD53EC1B2BEB
:1012F0000FF012FD1FED6D1B53EC112B0FF0EAFFE9
:1013000094ED061B94ED000B41EC1B0B53EC112BE1
:1013100051EC100B0FF000FD94ED0A1B53EC112B58
:101320000FF0FAFC53EC1B2B10F0E0F994ED301B9E
:1013300053EC112B0FF0A4FD41EC1B0B53EC192BBC
:1013400051EC190B0FF0C6FF41EC190B53EC1A2BA3
:1013500051EC1A0B0FF0BEFF41EC1A0B53EC182B9B
:1013600051EC180B0FF0B6FF53EC1A2B0FF0D4FC16
:1013700053EC192B0FF0D0FC53EC1B2B0FF0CCFCD3
:1013800041EC100B0AF06EFE8BED000B012013B048
:10139000BDEC108BBDE8F08F0020F8E72DE9F04F91
:1013A0000D462DED108B04468BB091ED00AB53EC48
:1013B0001A2B51EC1A0B0FF08DFF94ED0CCB53EC64
:1013C0001C2B0FF087FF53EC1C2B0FF083FF94EDC9
:1013D00030FB41EC180B53EC1A2B51EC1F0B0FF0A8
:1013E00079FF8B464BEC100B074653EC1A2B51EC54
:1013F000100B0FF06FFF94ED00EB53EC1E2B0FF072
:1014000069FF53EC182B10F071F941EC190B53ECF8
:101410001E2B51EC1A0B0FF05DFF53EC1C2B0FF041
:1014200059FF4BEC107B94ED121B41EC180B53EC65
:10143000112B51EC100B0FF04DFF53EC192B10F04A
:101440007DF853EC182B0FF067FC41EC1B0B1FEDE4
:10145000C30B51EC1A0B53EC102B0FF03BFF8946DA
:1014600049EC100B95ED029B064653EC192B51EC01
:10147000100B0FF02FFF53EC1C2B0FF02BFF94EDF4
:101480000EDB53EC1D2B0FF025FF41EC180B1FED6D
:10149000D30B51EC1F0B53EC102B0FF01BFF8246AC
:1014A00053EC1A2B06910FF015FF53EC192B0FF08C
:1014B00011FF94ED021B53EC112B0FF00BFF53ECBB
:1014C0001B2B0FF029FC53EC182B10F00FF941ECFB
:1014D000180B53EC1C2B51EC1A0B0FF0FBFE049174
:1014E00094ED06BB804653EC1B2B0FF0F3FE41EC52
:1014F000110B4BEC107B8DED001B94ED141B51EC8C
:10150000100B53EC112B0FF0E5FE53EC182B10F0E1
:1015100015F89DED001B53EC112B0FF0FDFB41EC7A
:10152000110B49EC106B8DED001B95ED048B51EC0C
:10153000100B53EC182B0FF0CDFE53EC1C2B0FF0BF
:10154000C9FE94ED10CB53EC1C2B0FF0C3FE41EC05
:10155000110B53EC1A2B8DED021B069941EC10ABCD
:1015600051EC100B0FF0B6FE53EC182B0FF0B2FE3F
:1015700094ED041B53EC112B0FF0ACFE9DED001B02
:1015800053EC112B0FF0C8FB9DED021B53EC112BFC
:1015900010F0ACF841EC100B8DED000B049994EDBC
:1015A0000AAB41EC108B53EC1A2B51EC100B0FF0E3
:1015B00091FE41EC110B4BEC107B8DED021B94ED79
:1015C000161B51EC100B53EC112B0FF083FE9DED0D
:1015D000001B53EC112B0FF0B1FF9DED021B53ECE0
:1015E000112B0FF099FB41EC110B8DED001B9FEDC2
:1015F000FE0B51EC1E0B53EC102B0FF06BFE53EC5B
:101600001E2B0FF067FE41EC110B8DED021B9FEDC1
:10161000F60B51EC1F0B53EC102B0FF05BFE0591FA
:1016200094ED241B814653EC112B0FF053FE9DEDDE
:10163000001B53EC112B0FF06FFB9DED021B53ECC5
:10164000112B10F053F841EC110B53EC1E2B8DEDC8
:10165000001B51EC190B0FF03DFE53EC1D2B0FF04E
:1016600039FE41EC110B53EC192B8DED081B51EC9D
:101670001F0B0FF02FFE039194ED181B064653EC41
:10168000112B0FF027FE9DED001B53EC112B0FF0DB
:1016900055FF9DED081B53EC112B0FF03DFB41EC6A
:1016A000110B8DED001B9FEDD20B51EC1E0B53EC7B
:1016B000102B0FF00FFE8B464BEC100B054653EC36
:1016C0001B2B51EC100B0FF005FE41EC110B8DEDB7
:1016D000081B9FEDC70B51EC1F0B53EC102B0FF0A9
:1016E000F9FD049194ED2A1B804653EC112B0FF069
:1016F000F1FD9DED001B53EC112B0FF00DFB9DED4B
:10170000081B53EC112B0FF0F1FF41EC110B53ECC4
:101710001E2B8DED001B51EC180B0FF0DBFD53EC75
:101720001C2B0FF0D7FD41EC1E0B53EC182B51EC8A
:101730001F0B0FF0CFFD029194ED1E1B074653ECDB
:10174000112B0FF0C7FD9DED001B53EC112B0FF07B
:10175000F5FE53EC1E2B0FF0DFFA4BEC105B41EC67
:101760001F0B53EC1A2B51EC100B0FF0B3FD41EC97
:101770001E0B049994ED2C1B41EC108B53EC112B98
:1017800051EC100B0FF0A6FD53EC1F2B0FF0C4FA19
:1017900053EC1E2B0FF0AAFF41EC1F0B53EC192B3F
:1017A00051EC190B0FF096FD53EC1D2B0FF092FD31
:1017B00053EC1D2B0FF08EFD41EC1E0B039953ECE7
:1017C000192B41EC106B51EC100B0FF083FD53EC17
:1017D0001B2B0FF07FFD53EC1F2B0FF09DFA53ECEA
:1017E0001E2B0FF083FF41EC1F0B53EC1B2B51EC16
:1017F000190B0FF06FFD53EC1D2B0FF06BFD41EC3F
:101800001E0B039994ED1A1B41EC106B53EC112B3A
:1018100051EC100B0FF05EFD53EC1F2B0FF08EFE02
:1018200053EC1E2B0FF078FA41EC1F0B9FED720B5F
:1018300051EC190B53EC102B0FF04CFD53EC182B03
:101840000FF048FD53EC1D2B0FF044FD53EC1C2B07
:101850000FF040FD41EC1E0B069953EC192B41ECA7
:1018600010AB51EC100B0FF035FD53EC182B0FF0B3
:1018700031FD94ED081B53EC112B0FF02BFD53ECB5
:101880001F2B0FF049FA53EC1E2B0FF02FFF41ECEA
:101890001E0B53EC1D2B51EC190B0FF01BFD53ECE1
:1018A0001A2B0FF017FD41EC190B039994ED1C1B3B
:1018B00041EC106B53EC112B51EC100B0FF00AFDA7
:1018C00053EC1E2B0FF03AFE53EC192B0FF024FAB9
:1018D00041EC1D0B9FED44EB51EC1B0B53EC1E2B0D
:1018E0000FF0F8FC53EC1B2B0FF0F4FC41EC190B40
:1018F000059994ED261B41EC109B53EC112B51ECF8
:10190000100B0FF0E7FC53EC1D2B0FF005FA53EC16
:10191000192B0FF0EBFE41EC1D0B53EC1B2B51EC84
:10192000180B0FF0D7FC53EC1C2B0FF0D3FC41EC41
:10193000190B029994ED201B41EC107B53EC112BF9
:1019400051EC100B0FF0C6FC53EC1D2B0FF0F6FD05
:1019500053EC192B0FF0E0F99FED250B41EC190B1F
:1019600053EC102B51EC1B0B0FF0B4FC53EC1A2B67
:101970000FF0B0FC41EC1B0B049994ED2E1B41ECD5
:10198000108B53EC112B51EC100B0FF0A3FC53EC0C
:10199000192B0FF0C1F953EC1B2B0FF0A7FE41ECF4
:1019A0001B0B53EC182B51EC180B0FF093FC53EC62
:1019B0001C2B0FF08FFC53EC1C2B0FF08BFC41EC1D
:1019C000190B029953EC182B41EC107B51EC100BC6
:1019D0000FF080FC53EC1A2B0FF07CFC53EC1B2B0C
:1019E0000FF09AF90CE00000000000000000D03F6A
:1019F000000000000000E03F000000000000004088
:101A000053EC192B0FF072FE41EC190B53EC1A2B0F
:101A100051EC180B0FF05EFC53EC1C2B0FF05AFC32
:101A200041EC180B029994ED221B41EC107B53EC16
:101A3000112B51EC100B0FF04DFC53EC192B0FF048
:101A40007DFD53EC182B0FF067F941EC180B53ECAC
:101A50001E2B51EC1A0B0FF03DFC53EC1A2B0FF020
:101A600039FC41EC190B059994ED281B41EC109BB6
:101A700053EC112B51EC100B0FF02CFC53EC182BEA
:101A80000FF04AF953EC192B0FF030FE41EC100B1C
:101A90000BB07DE430B50446B0F88C0089B000048A
:101AA0000690B4F88E000D4600040790B4F890003C
:101AB00088340004089002A80CF0DCFB0299069818
:101AC0002B46401A06900399079806AA401A0790D9
:101AD00004990898401A08902088616A80B20CF036
:101AE00075FA09B030BDF0B50D462DED048B87B009
:101AF0006946FFF7CFFF9FEDFE8B00246F469FEDF9
:101B0000FE9A03AE57F8240000EE100A06EB84009C
:101B1000B8EEC00A20EE090A80ED000A20EE000AA5
:101B200010EE100A0FF0CCFE53EC182B0FF0F4F867
:101B300041EC180B641C032CE4DBB0EE480AF0EE19
:101B4000680A0AF08FFAB0EE408AF0EE608A00244C
:101B500056F824000FF0B4FE53EC182B0FF090F958
:101B60000FF0A8F800EE100A05EB8400641CD0ED1D
:101B7000000A032C30EE200A80ED000AE8DB686DD5
:101B8000401C68650CF0E0FDE86707B0BDEC048B15
:101B9000F0BD2DE9F04104460CF00AFC40BB0CF00E
:101BA00095FB042824D0D54920460E46FFF79BFF1D
:101BB000D34DD5E95C01814205DB304603F0E5FBFE
:101BC0000020C5F87401208E4FF00406C00515D51D
:101BD00004F118000CF0DEFB8009B0F5C87F0AD2D2
:101BE000D5F8B800002850DD401EC5F8B8004AE01E
:101BF0000120BDE8F081C5F8B86044E0D4F8A01039
:101C0000D5F81401081A01D4034600E04342BB4A48
:101C10004FF4A02C583A634505DDD4E929035365F8
:101C2000C2E913102FE00312D4F8A470D5F81801FC
:101C30005B43381A01D4864601E0C0F1000EE64548
:101C400005DDD4F8A800D164C2E914701BE00012CD
:101C500000FB0033D4F8A800D5F81C11401A01D4B9
:101C6000014600E0414261450DDC001200FB0030FE
:101C7000B0F5403FB4DBA034C5F8B86094E80B0081
:101C80004C3282E80B000020B3E70220B1E72DE9D7
:101C9000F04F9B4C2DED028B93B0D4F8A81090ED33
:101CA000000B04EBC10181ED000BD4F8A810491C16
:101CB000C4F8A81090ED020B04EBC10181ED000BFC
:101CC000D4F8A810491CC4F8A81090ED040B04EB3C
:101CD000C10080ED000BD4F8A800401CC4F8A80097
:101CE000152802DB0020C4F8A800182284490CA89B
:101CF00003F083FF1822824904A803F07EFF012627
:101D00000DF1300A0DF1100BA146002406EB460838
:101D100008EB040109EBC1050AEBC40795ED001BB4
:101D200097ED000B53EC112B51EC100B0FF0D0FB87
:101D300003D295ED000B87ED000B0BEBC40795ED7F
:101D4000001B97ED000B53EC112B51EC100B0FF017
:101D500085FA03D295ED000B87ED000B641C032C74
:101D6000D6DB761C072ED0DB9DED0C1B9DED040B06
:101D700053EC112B51EC100B0FF0B8FC9DED0E1B2A
:101D80009DED060B41EC180B53EC112B51EC100B95
:101D90000FF0ACFC53EC182B0FF060FA0BD39DED59
:101DA0000E1B9DED060B53EC112B51EC100B0FF09D
:101DB0009DFC41EC180B9DED101B9DED080B53ECA9
:101DC000112B51EC100B0FF091FC53EC182B0FF072
:101DD00045FA0BD39DED101B9DED080B53EC112B19
:101DE00051EC100B0FF082FC41EC180B13B0B0EE6D
:101DF000480AF0EE680ABDEC028BBDE8F08F10B522
:101E000004462DED068B9CB0002155200E91CDE9A6
:101E10000F1011909FED3B8B0AA80CF0F9F912A955
:101E20000AA80CF06FFD16AA0EA912A80CF08DFDE1
:101E30006A460AA916A80CF088FD0198B2EE059A28
:101E400000F5967001900298B0EE490A00F5967080
:101E50000290039800F596700390FEF78BFBBDEEA1
:101E6000C00A019910EE100AB0EE490A0844019028
:101E7000FEF780FBBDEEC00A029810EE101AB0EE1D
:101E8000490A08440290FEF775FBBDEEC00A0399AB
:101E900010EE100A08440390204601A9FEF77DFCCD
:101EA00094ED300B9FED191B51EC100B53EC112BE3
:101EB0000FF00EFB5DD21AAA04A92046FEF73FFEE2
:101EC00060B39DED080B9FED138B51EC100B53ECA1
:101ED000182B0FF00BFC41EC100B53EC102B0FF0F8
:101EE000F9F941EC190B9DED060B53EC182B16E09C
:101EF000000000000000000000008037B018002043
:101F0000901700200000000000408F4000000000FB
:101F1000000034400000000000C0724029E051EC95
:101F2000100B0FF0E3FB41EC100B53EC102B0FF0F8
:101F3000D1F99DED040B41EC1A0B53EC182B51EC2D
:101F4000100B0FF0D3FB41EC100B53EC102B0FF0E8
:101F5000C1F953EC1A2B0EF0DFFE53EC192B0EF0E7
:101F6000DBFE41EC100B0AF07DF8B0EE408AF0EE9B
:101F7000608A9FEDFD0B51EC180B53EC102B0EF00B
:101F80007FFF1CB041EC100BBDEC068B10BD10B5F3
:101F9000E821F74803F0CAFEF648F74920F8BC1FCD
:101FA0004A0CC280C181828281834284F048E82148
:101FB000E83003F0BBFEEF490020C1F8B40010BDCB
:101FC0002DE9F043EB4D04462DED108BC3B0006BB3
:101FD000C5F8A0012046FFF7DCFD00287ED1D5F82A
:101FE000941105F1BC08012911D1B4F98C003D9080
:101FF000B4F98E003E90B4F990003F903DA9DC48C2
:10200000FEF7CBFB04F18C01404600F0A4FB1FED72
:1020100048DB9FEDDABB9FEDDBCB9FEDDCAB9FEDAB
:10202000DDEBD34ED5F80801E83E002802DD401E66
:10203000C5F8080196ED300B53EC1D2B51EC100B3D
:102040000FF046FA7DD2CA49E822E839684603F023
:10205000D4FDC7483DA9E838FEF79FFBC44940AA14
:1020600020390F46A1F1C800FEF769FD00287BD09A
:10207000BF483946E838FFF791F9B0EE408AF0EEF4
:10208000608A95ED400B51EC180B53EC102B0FF0C0
:102090002DFB96ED300B41EC190B53EC1B2B51EC47
:1020A000100B0FF023FB41EC100B51EC190B53EC10
:1020B000102B0EF0E5FE41EC100B09F0D3FF96ED6E
:1020C00030FBB0EE409AF0EE609A53EC1B2B51ECD3
:1020D0001F0B0FF00BFB53EC1F2B00E0E9E00FF0A0
:1020E000F9F841EC1F0B53EC1C2B51EC180B0FF0C3
:1020F000F1F853EC1F2B0EF0C3FE41EC100B09F06E
:10210000B1FFD5F8E8000FF0DBFB95ED381B53EC81
:10211000112B0FF0DFF853EC192B0FF09FF803D3BE
:10212000D5F80801002826DD9148E8226946E838FC
:1021300003F063FDD5F8E8000FF0C2FB95ED381B06
:1021400001E010E010E053EC112B0FF0C3F853EC5A
:10215000192B0FF083F85CD24FF4FA7001F03CFEBB
:102160000A20C5F8080154E08148E8226946E838A9
:1021700003F043FD4DE0D5F89801012849D1D5F889
:10218000B400401CC5F8B40000200CF091FF96ED9F
:10219000320B53EC1A2B51EC100B0FF09BF80FF095
:1021A00003F83A9096ED340B53EC1A2B51EC100BCC
:1021B0000FF090F80EF0F8FF3B9096ED360B53ECD5
:1021C0001A2B51EC100B0FF085F80EF0EDFF3C9040
:1021D00003213AA80CF0DEFE96ED300B53EC1E2BDB
:1021E00051EC100B0FF074F911D29FED6C0A60499D
:1021F000E839F0EE400A0846FEF7FFF95C48394638
:10220000E838FFF7CBF8B0EE408AF0EE608A85ED53
:10221000408B208E564FC0050CD5B4F87400C00515
:1022200008D507F1E800FFF7EAFDB0EE408AF0EECE
:10223000608A01E09FED4C8B97ED300B1FEDCD1BBD
:1022400051EC100B53EC112B0FF008F831D3484927
:1022500040AAC83189464648FEF771FC00287CD068
:10226000D4F8AC000EF0CFFF41EC100B53EC102B68
:102270009FED4B0B51EC100B0EF002FE41EC1F0BCF
:102280004846FFF704FDB0EE409AF0EE609A53EC3A
:102290001F2B51EC190B0FF01BF90BD29FED420BCA
:1022A00051EC180B53EC102B0EF0D8FF02D2FFF7B5
:1022B0006EFEDBE153EC1F2B51EC190B0EF0CEFF41
:1022C00051D251EC180B9FED3A9B53EC192B0EF0A9
:1022D000C5FFF5D297ED300B9FED371B51EC100B7E
:1022E00053EC112B0FF0F4F8EAD296ED300B53ECCF
:1022F0001D2B51EC100B0EF01BFF7CD149461C48E6
:10230000FFF74CF8B0EE408AF0EE608A85ED408B26
:1023100097ED309B53EC1B2B51EC190B0FF0E6F9AA
:1023200053EC192B0EF0D6FF41EC190B53EC1C2B80
:1023300051EC180B0EF0CEFF53EC192B0EF0A0FD54
:1023400041EC100B09F08EFEB0EE408AF0EE608A90
:10235000D5F8E8000FF0B4FA00E088E195ED381BFD
:1023600053EC112B2CE078E1000000000000084045
:10237000C0150020901700200080FFFF0000000023
:102380000000F03F000000000000004000000000DE
:102390000000F0400000000000409F406666E63EFE
:1023A0009A9999999999A941000000000000F83F75
:1023B00000000000000010400000000000003E404F
:1023C0000EF088FF53EC182B0EF048FFFFF46FAFB0
:1023D0009DED400B49464046FDF7C4FF02283FF4FF
:1023E00066AF00287ED1D5F898010128FAD10020E7
:1023F0000CF05EFE00E02FE097ED320B53EC1A2B51
:1024000051EC100B0EF066FF0EF0CEFE3A9097EDF9
:10241000340B53EC1A2B51EC100B0EF05BFF0EF04B
:10242000C3FE3B9097ED360B53EC1A2B51EC100B7F
:102430000EF050FF0EF0B8FE3C9003213AA80CF0CD
:10244000A9FD01200CF0D2FD19200090019002900E
:1024500068460CF0C3FDF6E0D5F8B4000EF0D3FEEC
:1024600097ED301B53EC112B0EF00AFD9FEDE71B8F
:1024700053EC112B0FF02CF8A8D34946E548FEF792
:102480008DFF97ED30DBB0EE408AF0EE608A53ECC2
:102490001B2B51EC1D0B0FF029F953EC1D2B0EF0EB
:1024A00019FF41EC1B0B53EC1C2B51EC180B0EF0DD
:1024B00011FF53EC1B2B0EF0E3FC41EC100B09F069
:1024C000D1FDB0EE40BAF0EE60BAD5F8E8000FF0FA
:1024D000F7F995ED381B53EC112B0EF0FBFE53EC86
:1024E0001B2B00E087E00EF0B9FEC5D39DED400B3D
:1024F00049464046FDF736FF00287CD196ED361B55
:1025000097ED360B53EC112B51EC100B0FF0EEF84E
:1025100041EC100B53EC102B0EF0DCFE96ED341B4F
:1025200097ED340B41EC1B0B53EC112B51EC100BC2
:102530000FF0DCF841EC100B53EC102B0EF0CAFE40
:1025400096ED321B97ED320B41EC1C0B53EC112B2B
:1025500051EC100B0FF0CAF841EC100B53EC102BA0
:102560000EF0B8FE53EC1C2B0EF0D6FB53EC1B2BDD
:102570000EF0D2FB41EC100B09F074FDB0EE40BA46
:10258000F0EE60BAD4F8AC000EF03DFE53EC1B2B1D
:102590000EF0A0FE9FEDA01B53EC112B0EF09AFE47
:1025A00041EC1B0B53EC192B0EF092FF1AD39FED4D
:1025B0009C0B51EC1B0B53EC102B0EF089FFBFF45E
:1025C00076AED5F8B4000EF01EFE97ED301B53EC3E
:1025D000112B0EF055FC9FED941B53EC112B0EF0BC
:1025E0003DFEECD2D5F8980101287FF460AE0020C2
:1025F0000CF05EFD00E039E085ED408B97ED320B8D
:1026000053EC1A2B51EC100B0EF064FE0EF0CCFDC7
:102610003A9097ED340B53EC1A2B51EC100B0EF053
:1026200059FE0EF0C1FD3B9097ED360B53EC1A2B83
:1026300051EC100B0EF04EFE0EF0B6FD3C90032157
:102640003AA80CF0A7FCF7EE000A9FED790A714951
:10265000A1F1E800FDF7D1FF29E697ED300B53EC2F
:102660001E2B51EC100B0EF033FFF5D3002043B0BE
:10267000BDEC108BBDE8F08370B56E4C0546D4F808
:102680000C0110B9284600F091F8D5F8B01044F6C6
:10269000206081420ADAD4F8102111448142C4F842
:1026A00010114FF0000005DBC4F810012846BDE80A
:1026B000704085E470BD04224FF4C871AFF247004A
:1026C0000CF02ABBAFF24F000CF0E6BD514810B53C
:1026D000E821E83803F02AFBFFF759FC4FF4D471E6
:1026E000544803F023FB534CB7EE000A04F59070F6
:1026F00084ED3A0A02F095FD0A20C4F87001B2EEAA
:10270000000A84ED570A1E209FED4B0AC4F87C0195
:1027100084ED620A9FED490A84ED610A9FED480A43
:10272000002084ED630A10BD10B5FFF7CFFF00282D
:1027300005D1AFF27D00BDE810400CF075BB10BDB7
:1027400010B5AFF2CB000CF0A7FDAFF29500BDE8DD
:1027500010400CF0C7BD30B50022C2EBC20331F906
:10276000124030F91350AC420ADD02EB42040D88EE
:1027700020F8245000EB84044D8865808D88A58066
:1027800000EB430331F91240B3F906309C4209DAF9
:1027900002EB420300EB83030C88DC804C881C8135
:1027A0008C885C81521C032AD7DB30BD70B5214D6B
:1027B000D0F8AC200446EAB1D3170020192103F069
:1027C00074F945F8AC0F54F8AC2F0020D31705214D
:1027D00003F06BF9686022680020D317962103F09C
:1027E00064F90EF010FDC5E90D01AC3D0120C5F8FE
:1027F0000C0170BD6FF00040C5F8AC009FED110BEF
:10280000C5F8B00085ED380BF0E700000AD7A370DB
:102810003D0AE73FC0150020000000000000103E08
:102820000000000000000440333333333333C33F30
:102830000000000090170020CDCCCC3E3333333F56
:102840009A99193F0000C0FFFFFFDF4110B5FF4913
:10285000C4074FF040434FF0804205D08B66CB66F3
:10286000C1E91C328A67CA67840709D5C1F80031FB
:10287000C1F80431C1E94232C1F81021C1F8142174
:10288000400709D5C1F89831C1F89C31C1E96832D7
:10289000C1F8A821C1F8AC2110BD2DE9F14F0020ED
:1028A00082B0824681460298806F00287ED0002246
:1028B0000020401C0428FCDB029800EBC203D3E993
:1028C0000010A1FB0167D3E9065400FB017701FB6F
:1028D0000077AB46AD1BCDE900670326A5FB06C814
:1028E000A64664EB070404FB0684002705FB0745A6
:1028F000DDE900671CEB06047D41A4FB016705FBD5
:10290000017504FB0055D3E90C47341B65EB070543
:10291000CDE900455D46A5FB05670324A6FB0458E9
:102920000EFB0B770BFB0E7707FB04844FF0000CBC
:1029300006FB0C44D3E91263761B63EB04034C18CB
:10294000A4FB017C40EB000505FB01C504FB005521
:10295000A7FB014C05FB01C507FB0055A4FB017C4F
:1029600005FB01C504FB0054F6196341DDE9004590
:10297000AD0045EA9475A400A4FB017C05FB01C1F0
:1029800004FB0014F01B73EB040103D50023404249
:1029900063EB0101BAEB000479EB010301DA824633
:1029A0008946521C032A83DB504600E016E0494664
:1029B0000EF0B4FF00EE900AA54890ED0E1A80EEDE
:1029C000810A10EE100A0FF027F8A04AD2F80C2264
:1029D00003B09200BDE8F04F03F054B8002003B0FC
:1029E0000146BDE8F08F2DE9F14F0020009A014625
:1029F000926FE2B300240022521C042AFCDB009AEE
:102A000002EBC405AA46D5E90029A2FB023CD5E9A0
:102A100006769E46FB1A0325A3FB057809FB02CC2C
:102A200002FB09CB66EB0B0606FB05854FF0000C9D
:102A300003FB0C5617EB0E03A3FB027C46EB0B06C5
:102A400006FB02C203FB0923DAE90C25BA1AAB41E3
:102A500003D50025524265EB0303851A71EB03058C
:102A600001DA10461946641C032CC4DB00E015E0B3
:102A70000EF054FF00EE900A754890ED0E1A80EEAD
:102A8000810A10EE100A0EF0C7FF704AD2F80C222D
:102A9000BDE8F84F02EB420202F0F4BF002001460D
:102AA000BDE8F88F2DE9FE43684D80460024D5F837
:102AB00010626F4605EBC4013246D1E9020102F013
:102AC000CEFF05EB8401B1F884100904401847F8E3
:102AD000240004F10104032CECDB5C48982108304D
:102AE00003F024F90120FFF7B1FE95F8E801019900
:102AF000042807D1D5F81802B0F5201F02DD052003
:102B000085F8E801524C0098636AC11A01D40E4658
:102B100000E01E1A0198A26A801A01D4074601E05B
:102B2000019FD71BBE4206DD002901D4084606E0FE
:102B30000098181A03E0002801D50198101A029A8B
:102B4000E16A521A01D4134601E0029BCB1A834278
:102B500005DB002A01D4104601E00298081AD8F8D3
:102B600024100BF096FED5F81812814206DD0321E1
:102B700068460CF0E3FA02200CF032FB0098606229
:102B80000198A0620298E062BDE8FE83304AC2E983
:102B9000020170472E4AC2E9060170472C4AC2E979
:102BA00004017047294AD2F8E0310360D2E9740287
:102BB000C1E900027047254AD2F8E0310360D2E94A
:102BC0007602C1E9000270472DE9FE4781460020E8
:102BD000EA468A6F22B901EB800339F91020DA67DF
:102BE00001EB800239F91030D46F1D1B4AF82050D8
:102BF000136E9D4200DD1566D36E9D4200DAD566E8
:102C00000123002422464FEAE578A3FB056704FB75
:102C1000057403FB0844334602EB420601EBC6068B
:102C200006EBC00CDCE90076FF186641CCE90076C3
:102C3000521C042AE9DB401C0328CADB886F401CB5
:102C400088670120C1F89000BDE8FE873819002090
:102C5000981B002030B5002302EB830550F8234079
:102C60005B1CEC66032BF7DBC2F88810916F79B11F
:102C7000002102EB810450F82130E56F5B1B00D589
:102C80005B42256E9D4200DA2366491C0329F0DB76
:102C9000906F401C90670120C2F8900030BD10B5C5
:102CA00000210B4600EB8102491CD46ED4671366E9
:102CB0000329F7DBD0F8881040F8783FC0E9051306
:102CC00010BDD0E92210081A70470146D1E9180258
:102CD000824200DB1046896E814200DB0846704765
:102CE0002DE9F0478046501E012686408946C2F1F4
:102CF0002007404602F0C6FE04460D4640464946BF
:102D00003A4602F0ACFE3A4602F0BCFEB04203DDA9
:102D1000641C45F1000505E07142884202DA641E38
:102D200045F1FF3520462946BDE8F087F7490020E8
:102D3000086248628862C862086448648864C8643B
:102D4000086348638863C863086548658865C86523
:102D5000704730B5EE4AD2F8483223B1D2E99054E8
:102D60002D1A8C4101DAC2E990015B1CC2F848328D
:102D700030BD30B5E64AD2F8583223B1D2E9945486
:102D80002D1A8C4101DAC2E994015B1CC2F8583259
:102D900030BD30B5DE4AD2F828322BB1D2E98845B1
:102DA000041B71EB050401DAC2E988015B1CC2F85F
:102DB000283230BD30B5D64AD2F838322BB1D2E9FC
:102DC0008C45041B71EB050401DAC2E98C015B1C24
:102DD000C2F8383230BD2DE9F0470246CC48012513
:102DE00008308046C36E016E046FC91A436E1B1B08
:102DF0008B4200DB1946836ED8F87400181A88429B
:102E000000DB0146C14F6037F86B884204DA0024CA
:102E100000F010FA204687E7108E0124BC4EC00552
:102E20004FF000010ED5D6F880303068834209DBC0
:102E3000B2F87420D20506D5D6F8B021824201DB63
:102E4000052400E00C4674B3600719D5AF48C838B4
:102E50008146FFF722FD000D40EA01300915C6E961
:102E60007601D7E904321B1A8A4102DA0025FFF7FE
:102E7000A1FF9821484602F059FF0420FFF7E6FC25
:102E8000E0070ED04046FFF708FDC6E97C01D7E910
:102E900006340246181A8C4103DA00251046FFF763
:102EA00078FF284640E7FFE702203DE71EB50446CD
:102EB00090F83000C0F38110032804D19449201DFC
:102EC0000831FFF781FE94F87400C0F381100328E5
:102ED00005D18E4904F14800C839FFF775FED4F8D2
:102EE000B8008B4AC0F38113A0326946032B0FD080
:102EF000C0F3411003281AD1002004EB8003D3F85B
:102F0000A0309B1341F82030401C0328F5DB09E07A
:102F1000002004EB4003B3F98C3041F82030401C12
:102F20000328F6DB6846D4F8C010FFF793FE1EBDF9
:102F30002DE9F04705460020296BCA056AD501F046
:102F40005001402900D1012095F8741001F0500182
:102F5000402900D1012095F8B8106D4C01F05001C6
:102F6000402900D030B100F065F90020C4F8E0013C
:102F700084F8E801654ED4F80812E86A60368142A8
:102F800028D0C4F808020A28306B0CDA4000206010
:102F9000716B00EE100A491CC4F80C12B8EEC00A9E
:102FA00009F09DF805E02060706BC4F80C0296ED06
:102FB0000E0A84ED850AD4F80C02C0F11000C4F8A2
:102FC00010024FF48040C4F8180296F8341019200B
:102FD0008840F0632846FFF769FF94F8E811DFF8AE
:102FE000309105274FF0020809F1A009072911D2F5
:102FF000DFE801F0041127305E7E8500D4F8E0019F
:10300000411CC4F8E0110A2804DB00F013F9012088
:1030100084F8E80186E0D4F89800012810D1284609
:10302000FFF7D9FE10B1012803D004E084F8E8715D
:1030300001E084F8E8814846FFF731FEFFF776FEAD
:1030400070E0032084F8E8012846FFF72BFD00F02C
:10305000F1F867E02846FFF7BEFEE8B3012861D12A
:10306000B5F8B8004FF00403C00515D54846FFF782
:103070002CFE0146C017C4E97410D6E902C2BCEBAD
:103080000101824102DA84F8E87108E04846FFF75E
:1030900018FE316A884202D384F8E83124E0F4E96A
:1030A0007601FFF766FED4E90601FFF752FE39E02C
:1030B000B5F8B800C0050BD54846FFF706FE014637
:1030C000C017C4E97410D6E90232591A824108DBEC
:1030D0002846FFF780FE00E003E010B1012803D08E
:1030E00020E084F8E8711DE02846FFF7DBFCD6E716
:1030F000062084F8E80101200CF072F80DE0284663
:10310000FFF769FE012805D038B10BE0381B00201D
:103110003819002084F8E88104E000F08BF8484674
:10312000FFF7BDFD0020FFE510B50021401000288D
:1031300002D001F10101F9DC4FF0010001F10101C0
:1031400000FA01F0434C00EE100AC4E90C01B8EE9D
:10315000C00A08F0C4FF84ED0E0A94F83410192058
:103160008840E06310BD10B54FF418713A4802F082
:10317000DDFD4021374802F0D9FD0720FFF766FB4F
:10318000344840F2DC510022C0E906121421C0E9A3
:1031900002124FF41671C0E9041230492E4C01623C
:1031A0000120C4F8E4011920FFF7BEFF0020C4F895
:1031B000080210BD10B54FF41871274802F0B6FD93
:1031C0000720FFF743FB244801210022C0F8E41147
:1031D00080F8E811032101200BF0F8FF0722642199
:1031E000AFF2B320BDE810400BF096BD10B5012042
:1031F0000BF0F6FFAFF2C720BDE810400CF04CB862
:1032000010B5FFF7B0FF002805D1AFF25700BDE8B9
:1032100010400BF009BE10BD10B5FFF7E7FFAFF28D
:103220006B00BDE810400CF05DB80B49D1E97C01A2
:1032300070477047084810B59821083002F076FDB5
:103240009821074802F072FDBDE810400520FFF705
:10325000FDBA0000981B0020381900200008AF2F8D
:10326000701A0020F0B516462DED028B85B01F4672
:103270000C4605463C22FE49A1F10C0002F0EFFC91
:10328000FB4950224C31A1F1100002F0E8FCF84952
:1032900096E80D000C3901F13C0C8CE80D005CCC7B
:1032A00001F1980080E85C009FEDF28AD1F82401DA
:1032B000401CC1F82401062802DD0620C1F82401C3
:1032C000C0F106060C46A0351AE004EB06116A466A
:1032D000384648310BF039FB06EB460004EB800121
:1032E0006A4628460AF01CFEF0EEC00AB0EEC81A84
:1032F000F4EEC10AF1EE10FA01D2B0EE408A761C6B
:10330000062EE2DB05B0B0EE480ABDEC028BF0BD44
:1033100070B514462DED048B0E46B0EE408A0025A4
:103320009FEDD59A416BF0EE498A002904DBD0F875
:10333000BC00032800D10125CD492422B431081F47
:1033400002F08DFCCA480C38002380ED388A00EB6F
:1033500083015B1C91ED2F0A0A2B70EE288AF6DBA5
:10336000B2EE040AC822C8EE800AC0ED390A9FED09
:10337000C31A322E1DDB9FEDC20AC0F81C21B6F520
:103380007A7FC8EE001A00EE104AB8EEC00A61EE6D
:10339000801A81EE810A2FDB9FEDBA0AC8EE001A6F
:1033A00000EE104AB8EEC00A61EE801A81EE810A82
:1033B00022E041F2883194FBF1F14942D0F81C310E
:1033C00001EB8101C918C0F81C1102D50021C0F819
:1033D0001C119FEDAD0AC8EE001A00EE104AB8EEBF
:1033E000C00A61EE801A81EE810A29B9D0F828114D
:1033F000012901D1B0EE490AD0F8201109B1B0EE8F
:10340000480AA2498C4201D1B0EE480AB5EEC00A82
:10341000F1EE10FA01D0C0ED3A0A90ED3A1A9C4B49
:1034200071EE600AF0EEE00A10EE901A994227DD84
:10343000D0ED2E0AF5EEC00AF1EE10FA20D1002DE3
:103440001ED0C0F81C2120460DF0DDFE41EC190B0A
:1034500018EE100A0EF034FA9FED8E1B53EC112B70
:103460000DF00EFD53EC192B0DF034FF9FED8B1B6F
:1034700053EC112B0DF004FD0DF01CFC00EE100AB6
:10348000BDEC048B70BD2DE9F04F04462DED048B8F
:10349000A9B09FED799A4FF0000A754ECDF810A0B3
:1034A0000C3ECDF814A0CDF818A0D6F820110220BB
:1034B00003297DD000209FED7B8A20AD06EB8001A3
:1034C00091ED2A0A05EB8001401CB8EEC00A0428E1
:1034D00020EE080A81ED000AF0DB0FA80AF098FE42
:1034E00024A80AF0F9FE624B24AA9C330FA92046B7
:1034F0002793FFF7B7FEF0EE408A04F118000AF0B8
:1035000049FF81096148D6F83021824200DB02463A
:10351000B0EE680A2046FFF7FBFED6ED3B0AB34645
:103520000BA820EE200A86ED2E0A0AF071FE13A9E0
:103530000BA80BF084FB4E480FAAF0300BA90646EF
:103540000BF003FA31460BA80BF0DCF900210DF16A
:103550003C080DF14C090DF1100E002213461046E7
:1035600001EB410C0CEB000759F8276008EB8007D2
:10357000401C7F680328C6FB0723F3DB900F40EA5B
:1035800083004EF82100491C0329E6DBDBF820010B
:103590005E4600286AD05046CDF818A0404200EEA2
:1035A000100AB8EEC00A20EE080A08F0FDF900E0A3
:1035B000A2E08DED000A8DED019A8DED029A06983C
:1035C000404200EE100AB8EEC00A20EE080A08F0E9
:1035D00081FC8DED030A9DED060ADFED330AD6F876
:1035E0003001B8EEC00A41F2883190FBF1F080EE74
:1035F000201A00EE100AF8EEC01A81EE210AB0EE91
:10360000001AC0EE011ABDEEE10A10EE101A4900D0
:1036100000EE101A0691B8EEC00A60EE200A00EE25
:10362000100AB8EEC00A20EE800ABDEEC00A8DED89
:10363000060AB8EEC00A20EE080A08F0B5F98DEDCA
:10364000070A8DED089A8DED099A9DED060AB8EEF0
:10365000C00A20EE080A08F03DFC8DED0A0A1CAAFB
:10366000694620A80BF0C9F96A461FE04BE000004C
:10367000E41B0020002474490000000000409C4529
:1036800000004843000048420000C84340420F0089
:103690000E2DB23D00000000000079400000000047
:1036A0000088B34000008030E102374707A91CA81A
:1036B0000BF0A3F96F46DFED958AD4F8BC00002823
:1036C00013DD002007EB800191ED000A05EB80017E
:1036D00081ED000A20EE280A06EB8001401C042838
:1036E000BDEEC00A81ED2A0AECDBD4F8BC00F6EE90
:1036F000009A03280CD108E0C6F8200129B0BDECDF
:10370000048BBDE8F08F069848E700F03DFEE0B37B
:1037100096ED2A0AB8EEC00A20EE080A8DED1C0AC2
:1037200096ED2B0AB8EEC00A20EE080A8DED1D0AB0
:1037300096ED2C0AB8EEC00A20EE080A8DED1E0A9E
:1037400096ED2D0AB8EEC00A20EE080A8DED1F0A8C
:10375000D6F820010028D1D096ED2E0A20EE290AB5
:1037600008F022F920EE280ABDEEC00A86ED2A0AEA
:10377000C6F8ACA0C6F8B0A096ED2E0A20EE290A35
:1037800008F0A8FB20EE280A00E004E0BDEEC00A25
:1037900086ED2D0A2BE096ED2E0A20EE290A08F080
:1037A00003F98DED070A8DED089A8DED099A96EDD6
:1037B0002E0A20EE290A08F08DFB8DED0A0A6A46D2
:1037C00007A920A80BF019F968460BF0C1F90020F1
:1037D00007EB800191ED000A06EB8001401C20EE12
:1037E000280A0428BDEEC00A81ED2A0AF0DBD4F8CD
:1037F000C01027980BF000FCD6F820010028AAD0B2
:10380000401E79E770B590F8B810414ACC064FF0E9
:1038100000034FF0030101D4C2E94813B0F820417E
:10382000E40509D4048EE40503D5B0F87440E4053A
:1038300002D4C2E948131AE0D2F8341139B1D0E900
:103840003013C91A4FF47A73B1FBF3F105E0D0F8E5
:10385000B01044F62064A14202DBC2F830110AE045
:10386000D2F82C512944C2F82C11A14201DA0020CF
:1038700070BDC2E94B31FFF706FEF8E710B54FF413
:103880009C71234802F052FA214C4FF080400021F5
:10389000C4F8FC0044F8A80F1D48A8300BF0ACFB9E
:1038A0004FF47A70B7EE000A606784ED110A10BD1C
:1038B000174880ED3B0A002070471549C1F82801E0
:1038C000002070471249C1F83401002070470422DB
:1038D0004FF41671AFF2D3000BF01EBAAFF2DB005B
:1038E0000BF0DABC10B5FFF7C9FF09490020C1F899
:1038F0002801C1F83401AFF22900BDE810400BF0F7
:1039000093BAAFF235000BF0EDBC00000000804E22
:10391000D81B00201FB501461022684602F028F986
:10392000F7489DE80E0080E80E00F6499DF80C006F
:1039300081F8B001002004B010BD1FB5F0490EC9D8
:103940008DE80E00EF49102291F8B0118DF80C109F
:10395000694602F00DF90020EDE72DE9F04F91B036
:1039600000251821684602F0E1F90024182106A874
:1039700002F0DCF9E348A046C14690F8C0110129E5
:103980007ED1D0F8B8B1D0F8B4A10022C2EBC20009
:1039900000EB4001DB4800EB810E9EF850000F90D9
:1039A000002864D000215FE0DDE900076D1C5EF8AF
:1039B00021300E93181847EBE376CDE900060EEBA5
:1039C0008100EDB243690D93DDE9027C4FEAE376B5
:1039D000DB1946EB0C06CDE90236836ADDE9047C8F
:1039E000DE170C93DB1946EB0C06CDE90436C06BF1
:1039F0000E9BDDE9067C83FB0063360C46EA03463A
:103A0000F6194CEB2343CDE906630D9BDDE9087CF9
:103A100083FB00634FEA164646EA0346F6194CEB71
:103A20002343CDE908630C9BDDE90A7C83FB00633B
:103A30004FEA164646EA0346F6194CEB2343CDE916
:103A40000A6380FB00634FEA164646EA034616EB1C
:103A5000080849EB23490444584501DA834602E04B
:103A6000504500DD8246491C0F9888429CDC521C60
:103A7000052A8BDBA348AAEB0B01D0F8BC0100E0C0
:103A800056E0814254DBA5FB0823E0170026109086
:103A900006FB083005FB0900CDE90C2084FB04205F
:103AA000110C41EA00410014CDE90E0106A800EB1B
:103AB000C601D1E90003A0FB05B203FB05220021EA
:103AC00000FB012C684600EBC601D1E90001A0FB18
:103AD000043701FB0471109A00FB0210190C41EA33
:103AE00000490CAA4FEA204A92E889000F9983EA1C
:103AF000070880EA010252EA080212D0421A63EB78
:103B00000703BBEB09006CEB0A0C4FEA0C4141EADE
:103B10001041000401F0C9FF7A4901EB8601C1F8A8
:103B2000A401761C032EC1DB7648012180F8B01178
:103B300011B00020BDE8F08FF8B5724D0E46044676
:103B4000D5E96D01091A052291FBF2F1301A90FBBB
:103B5000F1F0C0B28DF80000042801D92020F8BD92
:103B6000C0EBC00000EB400005EB800191F8500075
:103B7000052816D0421C81F850209DF80010C1EB9A
:103B8000C10101EB410105EB810202EB8001CE6333
:103B9000236842F8203060684861A068886200208D
:103BA000F8BD01F14003181F1022194602F057F822
:103BB0009DF800001022C0EBC00000EB400005EBB8
:103BC0008000011D02F04BF89DF800001022C0EBB0
:103BD000C00000EB400005EB800000F1180114303C
:103BE00002F03DF89DF800001022C0EBC00000EB91
:103BF000400005EB800000F12C01283002F02FF886
:103C00000420BAE730B585B0044603A968460AF037
:103C10009BFB04A80AF04CFC02282BD0D4F8E4004B
:103C20000399401A374991F8B02112B308B3D1F87B
:103C3000A421009C80FB0232150445EA1342224471
:103C40000092D1F8A821019C80FB0232150445EABC
:103C5000134222440192D1F8AC11029A80FB011068
:103C6000030443EA114010440290032168460BF01C
:103C700065FA0CE0606B032809D10AF077FB30B1DC
:103C800068460399FFF758FF08B9FFF766FE05B0CD
:103C9000002030BD10B54FF4E2711A4802F046F82A
:103CA00018481949C0F8B4114FF4AA01C0F8B81166
:103CB0004FF4A021C0F8BC11012180F8C0110020F0
:103CC00010BD1049C1F8B801002070470D49C1F876
:103CD000B401002070470B49C1F8BC0100207047B7
:103CE00058B10849D1F8A4210260D1F8A821426056
:103CF000D1F8AC11816000207047052070470000AA
:103D0000B41E0020101D00200000D8FF2420F5E77D
:103D100020B12D4981F8C0010020EFE72420EDE714
:103D2000294B93F8B1010028E8D0D3E96D10401A6F
:103D3000052190FBF1F00020C0EBC00101EB410137
:103D400003EB810191F8502022B1002100E0491CD1
:103D50008A42FCDC401C0528EEDB0020CEE708226E
:103D600096211A480AF0D8BF18480BF095BA10B53A
:103D7000FFF790FF4FF49A731022154915480BF086
:103D80001DF820B9AFF229000BF04EF808B1012060
:103D900010BD0D49012081F8B101002010BD10B502
:103DA000094C94F8B101002808D008480BF074FAC7
:103DB000AFF255000BF096FA08B1012010BD0020BB
:103DC00084F8B10110BD0000101D0020053C000862
:103DD0003B39000815390008002803DDFE4901229F
:103DE000C1E920020020704710B5B821FA4801F05F
:103DF0009DFF9FEDFA0AF84880ED030A9FEDF80A4F
:103E000080ED020A9FEDF70A4FF0804180ED000A35
:103E1000B3EE0E0A80ED010A41664FF4FA619FEDA0
:103E2000F20AC16780ED270A002010BD70B5EA4C88
:103E3000002594ED001AB4EEC01AF1EE10FA17D373
:103E400094ED011AB4EEC01AF1EE10FA10DC2069FC
:103E5000012817D194ED030AB4EEE00AF1EE10FA4E
:103E600006D394ED020AB4EEE00AF1EE10FA09DD91
:103E7000606F20B9D848A16D18300BF0BDF8012053
:103E8000C4E91D05D4E91E01884204DB606F0128E6
:103E900000D1E565656770BD10B504462DED028B58
:103EA000B0EE408A0AF0BEF9CB49002220B918EEE4
:103EB000100ACE4B984202DD0A614A6102E00869AD
:103EC000002808D1486920444861B0F5FA7F02DD36
:103ED0000120C1E90402BDEC028B10BDF0B58DB02C
:103EE0000D461446064669460AF0A9FE09AA31465F
:103EF00028460AF02AFD294630460AF003FD002133
:103F0000EC460DF1240E00231A46184601EB41073A
:103F10003D180EEB80065CF825507668401CC5FB0A
:103F200006320328F4DB980F40EA820044F82100AF
:103F3000491C0329E7DB0DB0F0BDA7490020C1F8FB
:103F40008C00704710B590ED000AD0ED010AB8EE74
:103F5000C00AB8EEE01AF8EEE00A20EE000A01EE20
:103F6000200AD0ED020AB8EEE01AF8EEE00A01EEFF
:103F7000200A08F0B4F8DFED9E0A20EE200A10BDFA
:103F800000229549012330B1012810D0C1F89830A2
:103F900041F88C2F31E081ED280A81ED290A9FED4F
:103FA000950A81ED2A0AE1E924328A607047D1ED51
:103FB000280A91ED271A70EE600AF0EEE00AF4EE9E
:103FC000C10AF1EE10FA16D2D1F89400401CC1F8E3
:103FD0009400D1ED290A312830EE800A81ED290ABA
:103FE000E4DD0220DFED840AC1F8900080EE201AA3
:103FF00081ED2A1A704741F8902F4A6070472DE9E9
:10400000F04798462DED088B8AB017468A4604463D
:104010009FED788A0025704E039504950595D6F896
:10402000880000287DD00AF0ADF910B103A80AF08D
:104030007DF9D6F880004FF00109002817DDC6F899
:1040400084900AF09FF948B103A80AF0A3F9800907
:10405000B0F5C87F02D2D6F8800004E0D6F8800020
:10406000001BC6F88000002801DCC6F884500AF066
:104070006BFB002855D000209FED5D9A57F820106B
:1040800000EE101A58F82010401CB8EEC00A0328A1
:1040900060EE090A00EE101AB8EEC00A20EE800A9F
:1040A00000EE098AEADB3846FFF74CFFF0EE408A63
:1040B0004FF07E5788EE280AF7EE00AA10EE100A9D
:1040C000B84201DDB0EE6A0A10EE100ADFF82C816A
:1040D000BFEE00BA404501D9B0EE4B0A07F01CFA1A
:1040E000D6F88C00B0EE40AA98B196ED000AB4EE76
:1040F000E80AF1EE10FA0CDD96ED010AB4EEE80ADA
:10410000F1EE10FA05D2B0EE4A0AD6F89000FFF7A9
:1041100037FF68460AF0B6F92F490C22AC316846E1
:1041200000E0E2E001F0F8FC18B9D6F898000128A8
:104130006BD129489DE80E00AC3080E80E00009855
:1041400018B9019808B90298F0B36846FFF7FAFE6B
:10415000B0EE408AB5EEC08AF1EE10FA55D0F2EE1C
:10416000049A38EE690A20EE000A07F0B8FF86EDDF
:10417000010A38EE290A20EE000A07F0B0FF86EDAA
:10418000000A9DED020AB8EEC00A60EE090AB0EE20
:10419000480A80EE808A18EE100AB84201DDB0EEBF
:1041A0006A8A18EE100A404501D9B0EE4B8AB0EE8B
:1041B000480A07F0B1F9D6ED270A30EE600A86ED1D
:1041C000020AB0EE480A00E024E007F0A5F9D6EDB7
:1041D000270A30EE200A14E0D41E00200000B4426A
:1041E0000000B4C2000070427B142E3E00401C460A
:1041F000000080370000000000004842000080BF3F
:1042000003E086ED030AC6F88C50DFF88481F16D77
:1042100021B32FE01FED0D0A86ED000AB3EE0E0A62
:1042200086ED010AD6F89800012808D01FED140A7F
:1042300086ED020A1FED170A86ED030AE5E796ED03
:104240002A0A96ED271A70EE410A30EE010AC6EDF1
:10425000020A86ED030AC6F89850D6E70027C6F88A
:104260005C9006EB0710414618300AF00DF87F1CF1
:10427000042FF6DB464906AA0C310F465046FFF7DD
:104280002DFE394650460AF03DFB03A80AF082F89D
:1042900000EE100ADFED3F0A2046B8EE400A20EE9D
:1042A000200AFFF7F9FDF0EE4A0AB0EE680AFFF7C0
:1042B000BDFDD6E91E01884201DA2044B067706F67
:1042C00090B9306E20443066B0F57A7F0CDD30490D
:1042D00030223039A1F11000356601F0C0FC2C48C5
:1042E0004146103809F0D0FF706F0AB0BDEC088B62
:1042F000BDE8F08770B588B0044604A809F0ECFF6B
:10430000D4E93001451A684609F082FF064604AB3D
:1043100004F1A00269462846FFF771FE0AF07CFE10
:1043200008B0304670BD04224FF49671AFF23B00E6
:104330000AF0F2BCAFF243000AF0AEBF10B5FFF7CF
:1043400053FD00280DD1124800215838C0F88C10B8
:104350000121C0F88810AFF23100BDE810400AF02A
:1043600063BD10BD10B5AFF273000AF095FFAFF258
:104370007B00BDE810400AF08FBF05490120583985
:10438000C1F88C000020704701485838406F7047D2
:104390002C1F00200000803CF0B51D462DED028B47
:1043A00099B090ED000AD0ED010A1746B8EEC00AA8
:1043B000B8EEE01AF8EEE00A0E4620EE000A0446D7
:1043C00001EE200AD0ED020AB8EEE01AF8EEE00A9B
:1043D00001EE200A07F083FEF0EEC00A10EE900A0C
:1043E000B0F18D4F7EDDD6ED000AB8EEE01ADFEDBC
:1043F000FE0A21EE201A8DED041A96ED011AB8EE90
:10440000C11A21EE201A8DED051A96ED021AB8EEAA
:10441000C11A21EE201A8DED061A96ED031AB8EE98
:10442000C11A61EE200ACDED070A9FEDF08A10AAAD
:104430008DED0C8AD4ED000A0CA904A8F8EEE00A70
:1044400080EE801A8DED0D1AD4ED010AF8EEE00A27
:1044500080EE801A8DED0E1AD4ED020AF8EEE00A15
:1044600080EE801A8DED0F1A0AF0C7FA14A904A87D
:104470000AF054FA6A4614A910A80AF0BEFA9DED93
:10448000021ADDED010ADA4921EE010A00EEA00A66
:1044900010EE100A884202DA9FEDD60A11E010EE03
:1044A000100AD549884202DA9FEDD40A09E010EEDD
:1044B000100AD349884202DAB5EE000A01E09FED06
:1044C000D10A01EE907AB8EEE12ADFEDCF2A8DED28
:1044D000088AC2EE221A21EE800A21EE001A8DED22
:1044E000091A00E038E020EEC00A6A4604A98DED02
:1044F0000A0A8DED0B8A08A80AF07FFA6A4604A919
:1045000010460AF0DEF968460AF0E0FADDED000A2E
:104510009FEDBE0A60EE800AFDEEE00AC5ED000ADE
:10452000DDED010A60EE800AFDEEE00AC5ED010A4C
:10453000DDED020A60EE800AFDEEE00AC5ED020A3A
:10454000DDED030A20EE800ABDEEC00A85ED030A08
:1045500019B0BDEC028BF0BD96E80F0085E80F00A6
:10456000F6E72DE9F0410C462DED068B054690ED62
:10457000000AD0ED010AB8EEC00AB8EEE01AF8EE73
:10458000E00A20EE000A01EE200AD0ED020AB8EEA1
:10459000E01AF8EEE00A01EE200A07F0A0FD10EEA6
:1045A000100A4FF07E5800264FF0804740453FDD0F
:1045B000D5ED020AB7EE009AF8EEE00AC0EE808A66
:1045C00039EE680A9FED89AAB5EEC00AF1EE10FA3D
:1045D00001DCB0EE4A0AF6EE009A20EE290A07F056
:1045E0007EFDB0EE408A38EE890AB5EEC00AF1EEE3
:1045F00010FA01DCB0EE4A0A20EE290A07F06FFD3E
:10460000F0EE408A95ED000AB8EEC00A60EE000AAE
:1046100095ED010AB8EEC01AB8EEC00A41EE000AE4
:10462000B0EE600A07F05BFD10EE100A404503DCB7
:10463000C4E90076A66025E0DFED740A28EEA01A32
:10464000BDEEC11A84ED001A95ED011AF8EEC11AFB
:1046500081EE801A21EE081A61EE200AFDEEE00AD2
:10466000C4ED010AD5ED000AF8EEE00A80EE801AEA
:1046700021EE080ADFED660A20EE200ABDEEC00A30
:1046800084ED020AE660BDEC068BBDE8F08170B5F2
:1046900090ED000AD0ED010A0546B8EEC00AB8EE6A
:1046A000E01AF8EEE00A0C4620EE000A01EE200ABD
:1046B000D0ED020AB8EEE01AF8EEE00A01EE200AA8
:1046C000D0ED030AB8EEE01AF8EEE00A01EE200A97
:1046D000B5EEC00AF1EE10FA07D84FF08040206026
:1046E00000206060A060C86070BD07F0F8FCB7EE05
:1046F000001AC1EE000A9FED450A20EE800AD5EDB2
:10470000000AF8EEE00A60EE800AFDEEE00AC4ED71
:10471000000AD5ED010AF8EEE00A60EE800AFDEE2F
:10472000E00AC4ED010AD5ED020AF8EEE00A60EEF7
:10473000800AFDEEE00AC4ED020AD5ED030AF8EEA8
:10474000E00A20EE800ABDEEC00A84ED030A70BDC7
:1047500070B5044690F8300088B040067ED5A06958
:10476000002801DB014600E041424FF48032002680
:10477000284D91420BDAE169002900DA4942914261
:1047800005DA216A002900DA4942914267DB0028F4
:1047900000DA40424FF4C80188420BDCE06900288F
:1047A00000DA4042884205DC206A002800DA4042F4
:1047B000884201DD032000E00220A863696BA06A43
:1047C000814242D0686394ED0A0A9FED131AF8EE15
:1047D000C00A80EE810ADFED110A20EE200A10EEF9
:1047E000100A0DF06DF81BE00000803000000000A2
:1047F00017B75139A69BC43B0AD7233C8FC2753DDE
:10480000CDCC4C3ECDCCCC3E0014CD470000804EEC
:10481000000080CE8C1F0020002474490000004E50
:104820009FEDFA1B53EC112B0CF054FD9FEDF91B7F
:1048300053EC112B0CF04EFD9FEDF81B53EC112B9C
:104840000CF01EFB0CF0B0FC28630496296BA069E9
:104850000AF01FF80590296BE06901E022E023E0EF
:104860000AF017F80690296B206A0AF012F80790F0
:104870006A4604A9EB480AF068F80098E94A800102
:104880000090019869468001019002988001029091
:1048900003988001039010460AF001F8E1490846A8
:1048A000FFF7F5FE08B070BDAE63FBE770B50446D8
:1048B0002DED048B8EB0D0F82001410676D5D94D70
:1048C000D4F81011D84B2A68891AD4F82C215A43ED
:1048D0008A4201DA032100E00221A963800504F580
:1048E000887602D5CF493046B5E0002107A809F007
:1048F0002BFDCC490C223C3107A801F00DF920B961
:10490000D4F82801A96D88427ED020886B4680B2F9
:1049100007AA616A09F05AFB9DED000ADDED010A64
:10492000B8EEC00AB8EEE01AF8EEE00A20EE000A8F
:1049300001EE200ADDED020AB8EEE01AF8EEE00A18
:1049400001EE200A07F0CBFBB0EE408A9FEDB70ADC
:1049500068EE000A9FEDB61A80EE810ADFEDB50A17
:1049600020EE200AD4ED4A0AF8EEE00A60EE800A52
:104970001FED571A80EE810AF6EE000A20EE209A0B
:10498000B0EE490A07F010F8F0EE408AB0EE490A9E
:1049900007F0A0FA18EE100A4FF08041884206DABC
:1049A0000020C5E912102865686532E055E05FED2A
:1049B000690A68EEA00AFDEEE00AC5ED120A5FED95
:1049C0006C0A20EE200ADDED000AF8EEE00A60EE47
:1049D000200A80EE881AFDEEC10AC5ED130ADDED4E
:1049E000010AF8EEE00A60EE200A80EE881AFDEE79
:1049F000C10AC5ED140ADDED020AF8EEE00A20EE68
:104A0000200AC0EE080A00E00DE0BDEEE00A85EDE8
:104A1000150A07AB93E8070005F13C0383E807009C
:104A2000D4F82801A8657F4903AA4831304609F027
:104A30008CFF7C480AAA5C3003A9044609F085FF74
:104A40002146304609F05EFF03AA0AA9754809F01D
:104A50007CFF744903A8FFF71AFE0EB0BDEC048B6F
:104A600070BD1FB5044669466E4809F04BFF6D4A9C
:104A700069462032204609F068FF6A491DCC103192
:104A800081E81D001FBD2DE9F0470446654E90F8F2
:104A9000740006F15C0A06F12008012500F05001BF
:104AA000103692B004F5887904F15C07402906D0ED
:104AB00094F8200100F0500040280DD01DE0314650
:104AC0003846FFF74EFDB4F82001C0050CD551461D
:104AD000484609F017FF07E05146484609F012FF23
:104AE000B4F87400C00508D569464E4809F00AFFBD
:104AF00042466946304609F028FFB4F82001C00557
:104B0000204602D5FFF7D2FE01E0FFF721FE324634
:104B10004449404609F019FF94F8740040066FD5E7
:104B2000208EB4F820110843C0056DD50FAA394670
:104B300030460AF065F8D4E9172080FB0001C2FB7B
:104B40000201626E374FC2FB02014FF08042801AB1
:104B500071F1020014DB04A809F054FCDDE9042023
:104B600080FB0001C2FB0201069AC2FB02014FF06A
:104B70008042801A71F1020002DB0420B8630BE06E
:104B8000B86B042808D041F28832022806D00328E6
:104B900004D0012852D009E0002507E0E16E91FB26
:104BA000F2F5012D00DA0125032800D0AD002248DE
:104BB00000244543109807948002294609F069FEB5
:104BC00008900F9829464042800209F062FECDE924
:104BD00009040BAA314607A809F0B7FE32460BA913
:104BE000104609F05CFE31460846FFF750FD694665
:104BF0000C4809F087FE42466946304609F0A5FE9A
:104C000012B00020BDE8F08720E00000112D4454D0
:104C1000FB2109400000000000007040000000007F
:104C2000008066408C1F002071981C00DB0F4940FB
:104C30000000344300008037A69BC400E06E90FB68
:104C4000F2F0012800DA01204500AFE733461946AB
:104C50003846E26EFFF7A0FBC9E770B50446008E48
:104C6000C105D4F8200107D4B4F87410C90503D4E1
:104C7000C10501D4002070BDC0F30120032807D076
:104C80002046FFF700FF2348A16B0AF0F5FAF1E791
:104C900004F588711F482EC980E82E00F3E71E48EE
:104CA0000AF0FABA1B4810B56C21103801F03EF832
:104CB00018484FF080411038016101600162C16302
:104CC000C165002010BD184810B5082213A1006866
:104CD00000F022FF08B1322010BD1322BDE81040C1
:104CE000C8210D480AF018B810B5FFF7DBFF0028FF
:104CF00005D1AFF22D00BDE810400AF095B810BD07
:104D000010B505480AF0C8FAAFF24500BDE81040FA
:104D10000AF0E8BA9C1F00205B4C0008654D504C1F
:104D200020352E31000000006808002000209FED93
:104D3000FE0AFE4ADFEDFE0A02EB8001401C81ED17
:104D4000080AC0B2C1ED0B0A0328F5D37047F74A31
:104D5000002002EB8001D1ED080A91ED2D0AF4EE5E
:104D6000C00AF1EE10FA01D281ED080AD1ED0B0A6A
:104D7000F4EEC00AF1EE10FA01DD81ED0B0A401CE1
:104D8000C0B20328E5D370473EB50B46B0F84810D3
:104D900009040091B0F84A10009A09040191B0F892
:104DA0004C1009040291E1494C6E121B0092019AC9
:104DB0008C6E121B0192029AC96E511A0291816E79
:104DC000B0F844006A4680B209F000F93EBDF0B583
:104DD000D64F00242546D7F894208DB02E46012AC0
:104DE00001D1C7F8946009A9FFF7CEFF05A809F023
:104DF00073FA059909986022A0EBA13009900699F1
:104E00000A98A0EBA1300A9007990B98A0EBA1306B
:104E1000C8490B90081F00F022FF0DF1240CC54873
:104E20009CE80E00143080E80E00684609F0EAFAAB
:104E3000C04960226C31081F00F011FFBD489DE899
:104E40000E00803080E80E0000210922D7F82C04E3
:104E5000401CC7F82C0401EB410007EB8000DDF893
:104E600000C0D0F84C33491C93FBF2F31C44D0F83B
:104E70005033092993FBF2F31D44D0F8543393FBCC
:104E8000F2F31E44D0F8B83393FBF2F3634400937B
:104E9000D0F8BC33DDF804C093FBF2F36344019314
:104EA000D0F8C003029B90FBF2F018440290CDDBD7
:104EB000002C00DA6442002D00DA6D42002E00DA88
:104EC00076420098002800DA4042009001980028BD
:104ED00000DA404201900298002800DA4042029035
:104EE000009900208C4200DA012001998D4200DAFD
:104EF000401C02998E4200DA401CD7F82C14092974
:104F000000DB401C04280DD197F8240402280BD99B
:104F100001468648D7F82824643009F0F7FF0120BD
:104F200009F0EEFF0DB0F0BD09F0DCFFFAE72DE966
:104F3000F0417E4D00272DED048B06463C4685F85A
:104F400024749FED7D9B9FED7E8BC5F8287405EB47
:104F50008400D5ED0F0A90ED330AB4EEE00AF1EECD
:104F600010FA1EDB95ED140B53EC182B51EC100BC3
:104F70000CF0BCFB41EC100B06F0BEFD53EC192B02
:104F800051EC100B0CF06AF90BD295F824040121B6
:104F9000401C85F82404D5F82804A1400843C5F82E
:104FA0002804641CE4B2032CD1D395F82404B8B3CC
:104FB000002406EBC40090ED000B51EC100B0CF03C
:104FC000F3F805EB8401641CE4B24866032CF0D3CB
:104FD000C5F82C74A868042802DA95F82404A8609F
:104FE00095F8240403281BD15749E868884217DC48
:104FF00095ED140B53EC182B51EC100B0CF076FBC9
:1050000041EC100B06F078FD53EC192B51EC100B12
:105010000CF024F904D2A868032801D10420A86068
:105020004A49286988421DDA4949E868884219DCFA
:1050300095ED140B53EC182B51EC100B0CF056FBA8
:1050400041EC100B06F058FD9FED421B51EC100B8C
:1050500053EC112B0CF002F904D2A868042801D1FA
:105060000520A860BDEC048BBDE8F0812DE9F0417E
:105070002E4C0746D4F8A404012802D00025284667
:10508000F2E73649F7EE000AA1F1E800B7EE000AB0
:105090000646FBF7B2FA254A3046503202F5AC71AB
:1050A000FBF74DFD0500EAD06068401C606094EDA0
:1050B000140B51EC100B0CF077F8B96E09F0E9FB0A
:1050C00000EE100ADFED260AB8EEC00A20EE200A34
:1050D00010EE100A0CF0F4FBC4E9140194ED6A0B15
:1050E00051EC100B0CF060F8A06594ED6C0B51ECDA
:1050F000100B0CF059F8E06594ED6E0B51EC100BB1
:105100000CF052F8206694ED680B9FED161B51ECE5
:10511000100B53EC112B0CF0DBF9B0D231469FEDA4
:10512000130AF0EE400A23E000401CC6F81F0020DE
:1051300000401C46482300209A9999999999B93FB3
:10514000000000000000F03FAE47E13D00007A4360
:10515000BC74933C9CC420B07268913FC021002075
:1051600000008037000000000070A740CDCCCC3E8E
:105170000846FBF742FA82E7D0ED030A90ED040AF5
:1051800000210122F4EEC00A0223F1EE10FA12DD32
:1051900090ED051AF4EEC10AF1EE10FA0BDDB4EE53
:1051A000C10A0164F1EE10FA02DBC0E91123704775
:1051B000C0E911327047B4EEE00AF1EE10FA12DDE8
:1051C00090ED051AB4EEC10AF1EE10FA0BDDF4EE23
:1051D000C10A0264F1EE10FA02DBC0E91113704754
:1051E000C0E911317047F4EEC00A0364F1EE10FA21
:1051F00002DBC0E911127047C0E91121704700239A
:1052000019469FEDFE0AC36400EB8102491C82ED42
:10521000000A82ED090A0329F6DB0121C0E91D130A
:10522000704730B504461420A0650A20206600258A
:1052300084F870502046FFF7E2FF656530BD70B519
:105240002DED048B86B06946FFF79EFD9FEDEC8B3C
:105250001FED3D9A00246E4603AD56F8240000EE83
:10526000100A05EB8400B8EEC00A20EE090A80EDB2
:10527000000A20EE000A10EE100A0CF021FB53EC9D
:10528000182B0BF049FD41EC180B641C032CE4DBDC
:10529000B0EE480AF0EE680A06F0E4FEDA4EB0EE30
:1052A000408AF0EE608A002455F824000CF008FBD8
:1052B00053EC182B0BF0E4FD0BF0FCFC00EE100A95
:1052C00006EB840000F58060641CD0ED0C0A032C12
:1052D00030EE200A80ED0C0AE6DBD6F88404401C90
:1052E000C6F884040120C6F8AC0406B0BDEC048BFB
:1052F00070BD70B505462DED028B86B004AA03A9DA
:10530000684609F0F1F99FEDBE8B00246E4606EB6E
:10531000840090ED000A20EE000A10EE100A0CF056
:10532000CFFA53EC182B0BF0F7FC41EC180B641C74
:10533000032CECDBB0EE480AF0EE680A06F092FEB1
:10534000B0EE408AF0EE608A002456F824000CF09B
:10535000B7FA53EC182B0BF093FD0BF0ABFC00EEFF
:10536000100A05EB8400641CD0ED000A032C30EE1B
:10537000200A80ED000AE8DB686D401C68650120AA
:10538000E86706B0BDEC028B70BDF0B504460021A5
:10539000F7EE001A9FED992A94ED140A04EB8100B0
:1053A000B8EEC01AD0ED000A80EE810AB5EEC00A50
:1053B000F1EE10FA02DBB0EE401A01E0B1EE401A55
:1053C000D0ED060AF5EEC00AF1EE10FA01DAF1EEC0
:1053D000600A71EE600AC0ED0C0A80ED060A94EDD9
:1053E0000F1AD0ED092A71EE610A00EEA20AC0EE92
:1053F000010AC0ED090AF5EEC00AF1EE10FA01DA71
:10540000F1EE600AC0ED030A491C80ED002A032971
:10541000C2DB2046FFF7B0FEE06CB0F57A7F01DA20
:10542000401CE06494F870700021052604230325D5
:105430000122206C062F09D2DFE807F00309102BA8
:1054400052376267A267E16484F87020F0BDE06FB4
:105450000128FBD1022084F870000DE004EB8000ED
:10546000D4ED190A90ED030AB4EEE00AF1EE10FA59
:1054700004DB84F8703031E0A167F0BDD4ED1A0A86
:10548000B4EEE00AF1EE10FA22D934E06267A267C6
:10549000F0BD04EB8000D4ED190A90ED030AB4EEE0
:1054A000E00AF1EE10FAE4DAF0BD04EB8000D4ED8E
:1054B0001A0A90ED030AB4EEE00AF1EE10FA07D9E9
:1054C000006B524EB04206D9216EE06C8842EBDB95
:1054D00084F87050DAE784F87030E1646167CBE7F4
:1054E00004EB8000D4ED1B0A90ED030AB4EEE00A51
:1054F000F1EE10FAD8D884F87060E164C6E710B510
:10550000044600EE104AB8EEC00ADFED410A20EE74
:10551000200A9FED401AC0EE010AB6EE000A20EE06
:10552000800A10EE100A0CF0CBF941EC100B06F0DB
:10553000D7F99FED391B51EC100B53EC112B0BF0ED
:10554000C9FE0BF031FE01462F48C0E9204110BDD5
:105550002DE9F04F00242DED028B91B00546049407
:1055600005940694C06E44F62061274E884206DBFF
:10557000D6F88010884210D0FFF7C1FF0DE0D6F8B2
:1055800048231044C6F8480388427DDBE96E814217
:1055900001D0FFF7B4FFC6F84843286BC6F8B00443
:1055A0002846FFF74CFE06F5906003C8814204DBF5
:1055B0001B48FFF7EAFEC6F88444D6F8A804012881
:1055C00002D12846FFF703FCD6F8A40401285BD1DA
:1055D00004A808F035FF9DED040ADDED050A20EE74
:1055E000000A00EEA00ADDED060A00EEA00A06F0B1
:1055F00076FD86ED030ADFED0B0A15E000000000E2
:105600000000000000000000F81F0020CDCC4CBDC1
:10561000368D274000247449000000000000D0416E
:10562000282400200000804620EE200AC149A1461F
:10563000ADF82040BDEEC00A099110EE100AADF899
:105640001C00ADF81E4007A8FDF7BEFA684608F03A
:1056500037FF316F009809F01CF90446716F01980B
:1056600009F017F90444B16F029809F012F90444E3
:10567000F16F039809F00DF904EB00089DE80F00A5
:1056800000240DF1340A00E0A2E006F170079FED5E
:10569000AA8A87E80F000DF1280B05EB4407A96ED5
:1056A00037F8480F000409F0F4F800EE100A4AF841
:1056B000240006EB8400B8EEC00A20EE080A80ED54
:1056C000050A388801044BF82410641CE4B2032C4A
:1056D000E3D398480AA9E8380446FBF75EF8316836
:1056E000D6F82803884273DB95ED390AD6ED360AE1
:1056F000B8EEC00AF5EEC00A20EE080AF1EE10FA84
:1057000005D070EE600AF0EEE00AC6ED370A86EDCD
:10571000360AB068062818D2DFE800F00303030356
:105720000D249FED860AC82086ED0E0AB7EE000A0A
:1057300086ED0F0A08E09FED820A86ED0E0A9FEDC6
:10574000810A642086ED0F0A3064288EC00509980E
:1057500012D4FDF748F90CF0E1F800EE100A5FED05
:10576000530A11E09FED780A86ED0E0A9FED770A45
:10577000322086ED0F0AE7E7FDF78FF80CF0CEF840
:1057800000EE100ADFED720A982180EE201A86EDF5
:10579000041A099800F0CAFAD6F88410414543DA91
:1057A00096ED040AB5EEC00AF1EE10FA3CDDD6ED36
:1057B0000E0AB4EEE00AF1EE10FA35D2316C7068E0
:1057C000884206DA2846FFF751FC002859D00CE041
:1057D00056E06049D6F8B000884206DB2846FFF75D
:1057E00045FC00284DD0C6F80490002006EB80014F
:1057F000401C91ED050AC0B281ED2D0A0328F5D3B6
:10580000FFF7A5FA002006EB8001401C91ED080A85
:10581000D1ED0B0AC0B2032830EE600A81ED330AE5
:10582000F1D34D48FFF783FB002006EB8001401CBD
:1058300091ED260AD1ED050AC0B2032830EE600AC8
:10584000B0EEC00A81ED290AEFD396ED290AD6ED14
:105850002A0A002030EE200AD6ED2B0A30EE200A6C
:1058600086ED2C0A06EB8001401C91ED050AC0B2C2
:1058700081ED260A0328F5D3E821204600F056FAE8
:10588000002011B0BDEC028BBDE8F08F10B54FF4D5
:105890009761324800F04AFA304C0A2020604007F5
:1058A0002067FFF743FA04F58660FFF7BAFC20682B
:1058B000C4F880049FED2A0A04F580601E2180ED63
:1058C0001B0A9FED280AC4F88C1480ED260A9FED70
:1058D000260A80ED250A9FED250A80ED270A19206A
:1058E000FDF722FC002010BD012240F25231AFF240
:1058F0009F3009F011BAAFF2A73009F0CDBC10B556
:10590000FFF7C4FF002805D1AFF22300BDE8104027
:1059100009F08ABA10BD10B5AFF2CB3009F0BCFC6B
:10592000AFF23B00BDE8104009F0DCBC0B488068DA
:1059300070470000A8220020000080370080BB4490
:10594000000096439A99993F000070423333B33F69
:105950000050C347CDCC4C3DA0210020F81F0020B3
:1059600000000042CDCCCC3ECDCC4C3F3333333F56
:1059700053EA020C00F069802DE9F04B4FF000066D
:10598000002B1FBFB3FA83F503FA05F424FA05F6DA
:105990005E4012BF1643B2FA82F502FA05F4C5F171
:1059A00020051EBF22FA05FC44EA0C04203556EA05
:1059B000044C4FEA144418BF641C4FF000084FF029
:1059C0000009904271EB030C39D3002919BFB1FAD9
:1059D00081F701FA07F6B0FA80F700FA07F6C7F187
:1059E00020071EBF20FA07FC46EA0C062037B6FB4C
:1059F000F4FCA7EB0507103F07F01F0BCBF12006C7
:105A00000CFA0BFB2CFA06F644BFB3460026202FF7
:105A1000A4BF5E464FF0000B5BEA060C08BF4FF0D8
:105A2000010B19EB0B09ABFB027C48EB0608C01B12
:105A300006FB02CC0BFB03CC71EB0C01C1E70B4660
:105A4000024641464846BDE8F08B13B54FF00000D2
:105A50004FF00001AFF30080BDE81C407047B2F189
:105A600020030AD5C2F1200301FA02F120FA03F360
:105A700000FA02F041EA0301704700FA03F14FF027
:105A800000007047B2F120030AD5C2F1200320FACA
:105A900002F001FA03F341FA02F140EA0300704711
:105AA00041FA03F04FEAE171704710B54C1084EAF7
:105AB000530404D54042C1F1000138BF491E1B42C6
:105AC00004D55242C3F1000338BF5B1EFFF750FFFD
:105AD00014F0804F04D04042C1F1000138BF491E8C
