:020000040800F2
:10000000981D002029520008B93D0008335200080D
:10001000BB3D0008BF3D0008C33D000800000000D4
:10002000000000000000000000000000C73D0008C4
:10003000C93D0008000000003F520008993E00083A
:10004000435200084352000843520008435200083C
:10005000435200084352000843520008435200082C
:10006000435200084352000843520008435200081C
:10007000435200084352000843520008435200080C
:1000800043520008435200084352000843520008FC
:10009000435200084352000843520008CB3D000879
:1000A00043520008435200084352000843520008DC
:1000B00043520008DD3D0008E53D000843520008BA
:1000C00043520008435200084352000843520008BC
:1000D00043520008013E0008093E0008113E000896
:1000E000435200084352000843520008435200089C
:1000F000435200084352000843520008435200088C
:10010000435200084352000843520008435200087B
:10011000193E0008213E000843520008E73D000850
:10012000435200084352000843520008435200085B
:10013000435200084352000843520008435200084B
:10014000435200084352000843520008435200083B
:10015000435200084352000843520008293E000859
:10016000435200084352000843520008435200081B
:10017000435200084352000843520008435200080B
:100180004352000843520008DFF810D00DF014FB72
:1001900000480047A5010008AFF30080981D00202B
:1001A00000BFFEE702F0E4FB00F061F801E000F0C0
:1001B00084F8FCE710B52DED048B01F033FB5248B9
:1001C00000680DF0A9F941EC190B504890ED000BB7
:1001D00053EC102B51EC190B0DF0B7F841EC180B48
:1001E0000DF0B8F904464A4803684A4802684A488C
:1001F0000168204601F0A0FD48480068401C4749BE
:10020000086001F08BFEBDEC048B10BD10B5012021
:1002100001F0AAFF424909780844414908700120C9
:1002200001F0C5FF3F49097808443E4908700120A4
:1002300001F0E0FF3C49097808443B49087010BDD3
:100240007047704710B500F077F800203749086014
:100250000846006802F05AFB10BD704710B502F066
:1002600015FB33480068401C3149086010BD002070
:1002700000BF1FE000EB40012E4A02EB810189889C
:100280004FF47A7292FBF1F100EB4002294B03EB41
:100290008202D18000EB40011A4602EB8101C9883D
:1002A000012905DA012100EB400203EB8202D18033
:1002B000411CC8B20728DDD3704770B5002400BFC9
:1002C0001EE003F0F3FD054604EB4400194901EB81
:1002D00080008068281A04EB4401164A02EB810171
:1002E000C98888420AD304EB4400114601EB800020
:1002F000856004EB440152F821008047601CC4B2C1
:10030000072CDED370BD000028010020A0000020D3
:10031000CC000020C800002020010020F0000020B8
:1003200058010020590100205A010020E803002054
:10033000000000200400002010B56448B0F944001B
:1003400040F2A46188420EDD6048B0F9440040F6F6
:100350009801884207DA5E48007838B901F06CF8F5
:100360005B49087002E00020594908705748B0F90D
:100370004400B0F5487F0EDD5448B0F94400B0F5B4
:10038000966F08DA5348007840B901205149087047
:100390005149086002E000204E4908704D4800783D
:1003A00001286FD14C480068052847D006DC052895
:1003B00069D2DFE800F012161F2C3A000B2863D038
:1003C00004DC06283FD00A287AD140E00C286CD003
:1003D000A0F2E730002873D16CE000203F490860AC
:1003E0006FE0022000F0C6FF3B49096808443A4923
:1003F000086066E001F0FAFA002001F033FE00F038
:1004000081FF3549096808443349086059E0344898
:1004100090ED000B51EC100B0DF09CF83149086089
:100420004FF4FA6001F0E8FA4BE0A02000F0E3FF9F
:100430002949096808442849086042E04FF4FA60F5
:1004400001F0DAFA3DE00A202349086039E0022091
:1004500001F008FE00202449086096202349086026
:10046000234800682349086023480068234908603E
:100470001C4800682249086017480068401C16495B
:1004800008601EE01EE01BE0C82001F0E6FA1949F2
:10049000096808441B490860184800681A49086040
:1004A00047F2305001F0A8FA0BE040F2E7300A4979
:1004B000086006E0002001F0D5FD00F0BDFF00E07F
:1004C00000BF02E000200449086010BDF20C0020CB
:1004D0005800002059000020F4000020EC0000200B
:1004E000A000002038010020F00000201C010020A6
:1004F000C800002030010020CC0000203401002082
:10050000280100202001002024010020FF20F949BB
:1005100081F84E006421F748A0F850100121A0F89E
:100520005210FF20F34981F880011421F148A0F80E
:1005300082110021A0F88411FF20EE4981F82001EA
:100540000021EC48A0F82211A0F82411FF20E9496D
:1005500081F832010021E748A0F83411A0F83611E3
:10056000FF20E44981F838010021E248A0F83A115F
:10057000A0F83C11FF20DF4981F886010021DD4809
:10058000A0F88811A0F88A11FF20DA4981F8400507
:100590000021D848A0F84215A0F84415FF20D549FD
:1005A00081F84C050021D348A0F84E15A0F850154D
:1005B000704770B504460D462946204604F09BFD61
:1005C00070BDCC4A10700122CA4B5A707047C94A9C
:1005D00082F84C05012382F84D3570472DE9F04132
:1005E00004460D4600260027E178A81F814201D06D
:1005F000BDE8F081002006E0215C3144CEB2B9199B
:10060000CFB2411CC8B2A91E8142F5DC601910F8B6
:10061000020CB04204D1601910F8010CB84200D0AD
:10062000E6E72078AA2805D16078612803D06078B1
:10063000FF2800D0DCE7A078202811D1A088AE499F
:100640000880E0884880208988806089C880A089E7
:100650000881E0894881208A8881608AC881CAE04F
:10066000A0780F280DD1207940B2A4490870607994
:1006700040B24870A07940B28870E07940B2C8704A
:10068000B9E0A07806280CD120799D49487060799E
:10069000C870A0790871E17999484171217A817116
:1006A000A9E0A07807280AD1002005E0211D095CF7
:1006B000944A1154411CC8B20628F7DB9BE0A0788D
:1006C00003280AD1002005E0211D095C8E4A11543F
:1006D000411CC8B20728F7DB8DE0A07803280AD1B7
:1006E000002005E0211D095C884A1154411CC8B254
:1006F0000928F7DB7FE0A07805280AD1002005E073
:10070000211D095C824A1154411CC8B20928F7DB3B
:1007100071E0A07808280AD1002005E0211D095CBD
:100720007C4A1154411CC8B20828F7DB63E0A0786A
:10073000012860D0A078E0281ED12079012806D0B9
:10074000022805D0102804D0112804D102E003E0CB
:1007500002E001E000E000BF00BF2079654981F8B8
:100760000C06084680F80D6680F80E7600F20C61E3
:10077000AF20FFF726FF3EE0A078B0B95D4890F8C3
:100780000F062179884236D15A4890F810066179CF
:10079000884230D1574890F81106A17988422AD171
:1007A0000020544981F8000625E0A078E12811D105
:1007B0002179607901EB00201FFA80F84D48A0F8FC
:1007C00014860021C0F8181600F21461FF20FFF70C
:1007D000FEFE10E0A078E2280DD12079454981F88D
:1007E0000C06084680F80D6680F80E7600F20C6163
:1007F000FF20FFF7E6FE00BFFAE610B504464648C4
:10080000007838B9AA2C05D1012043490870434823
:1008100004708EE040480078012809D1612C01D095
:10082000FF2C05D102203C4908703C48447080E010
:1008300039480078022805D1032037490870374825
:10084000847076E03448007803280CD1FA2C0ADA58
:100850000420314908703148C470314804700020C8
:100860003049087065E02C480078042819D12C48DC
:100870000078002815DD2A480078401E28490870B5
:100880002848007827490978491C264A1170001D1C
:1008900022490C542248007858BB05201E49087094
:1008A00047E01D48007805280DD106201A49087038
:1008B0001C4800781B490978491C1A4A1170001D10
:1008C00016490C5435E01448007806282ED1002033
:1008D0001149087013480078001D10490C54114844
:1008E0000078401D10490870084601780B48FFF752
:1008F00075FE1EE03C050020660C0020C0040020B0
:10090000C80C00206B00002064000020760C002042
:100910007F0C0020710000205E000020580B00209A
:100920005C0000205D0000205A0000200020E24909
:10093000087010BD7CB50346342B4FD007DC7BB16B
:100940000D2B23D0302B2ED0332B6FD138E0402B02
:1009500052D0412B5DD0E02B6AD0E22BF5D17BE069
:10096000D64890F80C460D78681C08705455D3484A
:1009700090F80D460D78681C08705455CF4890F8D3
:100980000E460D78681C0870545594E0002007E06E
:10099000CB4C255C0E78741C0C709555441CE0B251
:1009A0000428F5DB87E0002007E0C64C255C0E78C4
:1009B000741C0C709555441CE0B21728F5DB7AE0E6
:1009C000002008E0BF4C193C255C0E78741C0C70AC
:1009D0009555441CE0B20628F4DB6CE0002008E0EA
:1009E000B84CE41F255C0E78741C0C709555441CA3
:1009F000E0B20728F4DB5EE0002007E0B24C255CA3
:100A00000E78741C0C709555441CE0B21428F5DB6C
:100A100051E0002007E0AD4C255C0E78741C0C7092
:100A20009555441CE0B20E28F5DB44E042E0FFE7B8
:100A3000A24890F801460D78681C087054550020B3
:100A400007E0A34C255C0E78741C0C709555441C73
:100A5000E0B20A28F5DB2EE09848B0F8140600B2A0
:100A600001909DF804400D78681C087054559DF85D
:100A700005400D78681C087054559048D0F8180649
:100A800000909DF800400D78681C087054559DF842
:100A900001400D78681C087054559DF802400D788F
:100AA000681C087054559DF803400D78681C087048
:100AB000545500E000BF00BF7CBDF8B504460F46AA
:100AC00000200090AA219DF80020501CC0B2009088
:100AD0008048815439789DF80020501CC0B20090A5
:100AE0007C4881549DF80010481CC0B200907948A1
:100AF000445400219DF80020501CC0B2009075485D
:100B00008154024669462046FFF714FF9DF8000015
:100B1000001F7049C87000250026002007E06D49BD
:100B2000095C2944CDB27119CEB2411CC8B29DF8FE
:100B300000108842F3DB9DF80010481CC0B2009002
:100B4000644845549DF80010481CC0B200906148AC
:100B500046545A4890F8000640B1E02C06D1574858
:100B600080F80F4680F8105680F811669DF8001046
:100B70005848FFF71EFDF8BD10B5044604EB4400CD
:100B80004E4901EB4000408828B304EB440001EBE0
:100B90004000808804EB4401484A02EB4101498847
:100BA00088420CDA04EB4400114601EB40008088D7
:100BB000401C04EB440102EB410188800BE0012062
:100BC00004EB44013D4A02EB4101888004EB4401FF
:100BD00002EB4101487004EB4400384901EB40004E
:100BE000407868B1002004EB4401344A02EB410133
:100BF000487004EB440002EB40012046FFF75DFF24
:100C000010BD2E4A82F84005012382F841350122A9
:100C10002A4B83F80026704710B52DED028BB0EEFD
:100C2000408A00F01BF83020FFF7A6FF3320FFF7C3
:100C3000A3FF3420FFF7A0FF4020FFF79DFF4120D6
:100C4000FFF79AFFE020FFF797FFE220FFF794FFFE
:100C50000D20FFF791FFBDEC028B10BD174890F8F7
:100C60000006012821D11C480078322805DA1A48EC
:100C70000078401C184908701CE0002016490870D4
:100C800016480078401C1549087008460078052869
:100C900004DA0121094880F841150BE000200F49D2
:100CA0000870064981F8000604E000200A4908702F
:100CB0000A490870704700005E0000203C050020D3
:100CC00060000020B10C00202C0D0020580C0020EA
:100CD0003E0B0020080500205F0000205B00002084
:100CE00000B52DED028B85B0B0EE408AF84890F843
:100CF000390000287ED1F648B0F94200B0F5966F71
:100D000006DA012000F036FB0020F249086013E00B
:100D1000EF48B0F9420040F2A461884206DA0220AE
:100D200000F028FB0020EB49086005E0022000F0FD
:100D300021FB0120E7490860E648006801281AD134
:100D4000002016E0E2493A3131F9101040F2145215
:100D500091420DDDDE493A3131F9101040F2A462C2
:100D6000914205DA40F2DC52D9493A3121F810209B
:100D7000401C0428E6DBD648B0F93A00A0F2DC506B
:100D800000EE900AF8EEE00AB0EE600A9FEDD21A8B
:100D9000DFEDD20A02F062FA8DED010ACC48B0F91B
:100DA0003C00A0F2DC5000EE900AF8EEE00AB0EE53
:100DB000600A9FEDC91ADFEDC90A02F04FFA8DED06
:100DC000020AC348B0F93E00A0F2DC5000EE900ADF
:100DD000F8EEE00AB0EE600A9FEDC11ADFEDBF0A3F
:100DE00002F03CFA8DED030AB948B0F94000A0F2D8
:100DF000DC5000E093E000EE900AF8EEE00AB0EE7E
:100E0000600A9FEDB71ADFEDB50A02F027FA8DED03
:100E1000040AB448007858B19FEDB00A8DED010A7C
:100E20009FEDAE0A8DED020A9FEDAC0A8DED040A2E
:100E30009DED010ADFEDAC0A20EE200ADFEDAB0AE2
:100E400020EE200ABDEEC00A10EE100A00B2A8493A
:100E500008809DED020AB1EE400ADFEDA30A20EE04
:100E6000200ADFEDA20A20EE200ABDEEC00A10EE35
:100E7000100A00B248809648C08FA0F57A7000B280
:100E800088809DED040AB1EE400ADFED9A0A20EE5B
:100E9000200ADFED990A20EE200ABDEEC00A10EE0E
:100EA000100A00B2C8808B48006801282DD18848FC
:100EB000B0F94400B0F5487F1BDD8548B0F9440027
:100EC000B0F5966F15DA00200880488088808B483E
:100ED0000088404200B2C8808948008800B208817A
:100EE0008848008800B248818748008800B288811D
:100EF0000BE000207E49088048804FF4AF70888066
:100F00000020C88008814881888101217F4880F8BD
:100F1000871100207E4908707E4908701EE07E48D7
:100F2000C07878B17A48007828B9032000F022FA16
:100F30007749087006E07748007818B900F042FA5F
:100F40007449087000206A49088048804FF4AF70E7
:100F500088800020C88088814881088105B0BDEC68
:100F6000028B00BD10B504466C48008800EE100AE4
:100F7000B8EE400ADFED6A0A20EE200ABDEEC00A94
:100F800010EE100A00B2674908806448408800EEFD
:100F9000100AB8EE400ADFED620A20EE200ABDEE2C
:100FA000C00A10EE100A00B248805C48808800EE4B
:100FB000100AB8EE400ADFED5A0A20EE200ABDEE14
:100FC000C00A10EE100A00B288805448C08800EEB3
:100FD000100AB8EE400ADFED520A20EE200ABDEEFC
:100FE000C00A10EE100A00B2C8804C48008900EE1A
:100FF000100AB8EE400ADFED4A0A20EE200ABDEEE4
:10100000C00A10EE100A00B208814448408900EE80
:10101000100AB8EE400ADFED420A20EE200ABDEECB
:10102000C00A10EE100A00B248813C48808900EEE8
:10103000100AB8EE400ADFED3A0A20EE200ABDEEB3
:10104000C00A10EE100A00B288813448C08900EE50
:10105000100AB8EE400ADFED320A20EE200ABDEE9B
:10106000C00A10EE100A00B2C8812F48007818B9E3
:1010700001202D49087027E0E4B1002017E029493C
:1010800031F91010002901DC00210BE0254931F96C
:101090001010B1F57A7F02DD4FF47A7102E0214938
:1010A00031F910101F4A22F81010411CC8B208284C
:1010B000E5DB09E0002005E000211A4A22F81010C3
:1010C000411CC8B20828F7DB164803F002FA10BD2D
:1010D000F20C0020D8000020000020420000000098
:1010E0000000A042860000208F360E3B00C05A450B
:1010F000580C0020C6F91B3B00004843E8000020C4
:10110000DC000020E0000020E40000203C0500207E
:10111000790000207A000020C80C0020660C002016
:10112000CDCCCC3D880C00207B00002010B52DEDEF
:10113000048B02F08DFFDFED330A20EE200ABCEEB7
:10114000C00A10EE100A3049088008880CF0F5F942
:1011500041EC190B9FED2D0B53EC102B0CF0FBF811
:1011600041EC180B0CF0F6F927490880BDEC048B14
:1011700010BD10B527480088401C26490880084645
:1011800000880A2190FBF1F201FB1200214908803E
:101190000846008810BB9FED200A01F0C1FD9FEDBD
:1011A0001E0AFFF79DFD9FED1C0A00F01FFB9FED3F
:1011B0001A0A02F08DFA17484088401C15494880E9
:1011C000084640880A2190FBF1F201FB1200114908
:1011D00048800846408808B9FFF7A8FF04F00AF8DD
:1011E000012002F015FC9FED0D0A00F019F89FEDAB
:1011F0000B0AFFF711FD0120FFF7B4FE02F0C9FF53
:1012000010BD00000000C8426000002066666666EF
:101210006666F63F7C0000200AD7233C6F12833AB3
:1012200010B52DED028BB0EE408A00F020F800BF23
:101230002D4840782D490978884214D02A484078B2
:101240002A49087000202A4988744FF48771284879
:10125000A0F813102448C1692548C0F815100121D1
:10126000244880F8391100BFBDEC028B10BD224824
:101270000078FF2804D020480078401C1E490870E0
:10128000194800781D490978884216D01648007818
:101290001A4908701448007A50B11348C07838B120
:1012A00011484089124908800F488089488004E02D
:1012B0004FF400400E49088048800B4840781049A0
:1012C000097888420ED0084840780D4908704FF4DC
:1012D0000040074988800121064880F8331100202A
:1012E0000549087070470000600D00208300002051
:1012F000980C00203C050020820000208000002087
:101300008100002010B50120A2498870A24890F801
:10131000000688B91020A04981F8010600219E48E6
:1013200080F80216012180F8031600F20161FF2007
:10133000FFF767FC012010BD0020FCE710B500207E
:1013400094498870944890F8000688B91020924912
:1013500081F801060021904880F80216022180F8E9
:10136000031600F20161FF20FFF74BFC012010BDC6
:101370000020FCE710B5044688480078A0421FD042
:10138000854890F80006C8B9824804708348047004
:101390000120814981F8010601217F4880F8021669
:1013A00080F803167B4801787B4880F8041600F229
:1013B0000161FF20FFF725FC012010BD0020FCE7A4
:1013C0000120FAE710B5744890F8000688B910209B
:1013D000714981F8010600216F4880F80216072143
:1013E00080F8031600F20161FF20FFF70AFC0120DC
:1013F00010BD0020FCE701B5674890F80006C8B9A9
:101400001020654981F801060021634880F8021622
:10141000052180F803169DF8001080F804169DF849
:10142000011080F8051600F20161FF20FFF7E9FBCB
:10143000012008BD0020FCE710B5574890F80006D1
:1014400088B91020544981F801060021524880F8DB
:101450000216062180F8031600F20161FF20FFF753
:10146000D0FB012010BD0020FCE707B54A4890F8EA
:10147000000648BB1020484981F801060221464871
:1014800080F80216032180F803169DF8001080F8FA
:1014900004169DF8011080F805169DF8041080F8D8
:1014A00006169DF8051080F807169DF8081080F8BC
:1014B00008169DF8091080F8091600F20161FF2056
:1014C000FFF79FFB01200EBD0020FCE710B532485E
:1014D00090F8000688B901202F4981F80106002103
:1014E0002D4880F80216032180F8031600F20161EE
:1014F000FF20FFF786FB012010BD0020FCE710B5A0
:10150000254890F8000688B90120234981F8010692
:101510000021214880F80216042180F8031600F209
:101520000161FF20FFF76DFB012010BD0020FCE7EB
:1015300010B5194890F8000688B90120164981F8BD
:1015400001060021144880F80216052180F80316D0
:1015500000F20161FF20FFF754FB012010BD0020C5
:10156000FCE710B50C4890F8000688B901200A493C
:1015700081F801060021084880F80216022180F84F
:10158000031600F20161FF20FFF73BFB012010BDB5
:101590000020FCE7C80C00203C050020840000204F
:1015A00010B504469848B0F94000B0F5AF6F0BDDB8
:1015B0009548B0F94000B0F5C86F05DA01209349AD
:1015C00048709349087002E00020904948708E48A6
:1015D000B0F93E00B0F5966F06DA8C48407818B93D
:1015E00001208A49087002E0002088490870884874
:1015F000007801284AD18748C078002853D1824812
:10160000B0F93A0040F26C71884210DD7E48B0F9C2
:101610003C0040F24C41884209DA7B48B0F93E0078
:10162000884204DA7848B0F94000884217DB7648EF
:10163000B0F9400040F26C71884230DD7248B0F978
:101640003C0040F24C41884229DA6F48B0F93E0034
:10165000884224DA6C48B0F93A0088421FDA6E48B2
:101660000088B0F57A7F12DAD4ED000A6A48008863
:1016700000EE100AB8EE400A9FED681A00EE810AEB
:10168000BCEEC00A10EE100A6349088062E0FFF762
:1016900039FE0020604908805D4908705AE000204A
:1016A0005D49088056E05B48C078012852D1564811
:1016B000B0F93A0040F26C71884210DD5248B0F93E
:1016C0003C0040F24C41884209DA4F48B0F93E00F4
:1016D000884204DA4C48B0F94000884217DB4A4897
:1016E000B0F9400040F26C71884230DD4648B0F9F4
:1016F0003C0040F24C41884229DA4348B0F93E00B0
:10170000884224DA4048B0F93A0088421FDA424859
:101710000088B0F5967F12DAD4ED000A3E480088C2
:1017200000EE100AB8EE400A9FED3C1A00EE810A66
:10173000BCEEC00A10EE100A374908800AE0FFF735
:10174000FDFD0020344908803149087002E0002086
:101750003149088010BD10B52E48C078002844D10A
:101760002948B0F9400040F24C41884217DA264837
:10177000B0F93C00884212DA2348B0F93E008842B2
:101780000DDA2148B0F93A00884208DA2448007896
:1017900038BBFFF79BFE01202149087025E01A485D
:1017A000B0F9400040F26C7188421BDD1648B0F978
:1017B0003C0040F24C41884214DA1348B0F93E0034
:1017C00088420FDA1048B0F93A0040F26C71884252
:1017D00008DD1348007820B9FFF791FE0120104979
:1017E000087002E000200E49087010BD10B52DED04
:1017F000020B054890F8390020B96846FFF7D0FE83
:10180000FFF7A9FF1CBD0000F20C0020860000209D
:101810008A000020C80C00208800002000007A44C4
:101820008B00002010B52DED048B5749B1F9000055
:101830000BF072FE41EC180B9FED540B53EC102B88
:101840000BF0FBFD534A03C24F49B1F902000BF004
:1018500063FE41EC180B9FED4D0B53EC102B0BF07E
:10186000ECFD4D4A03C24849B1F904000BF054FEA7
:101870004A4A03C29FED4A0B53EC102B4A4890EDA5
:10188000000B51EC100B0BF09DFE18D29FED470B97
:1018900053EC102B414890ED000B51EC100B0BF06A
:1018A00079FE0CD29FED430B53EC102B434890ED87
:1018B000000B51EC100B0BF0A7FC404A03C29FED4C
:1018C0003B0B53EC102B384890ED000B51EC100BF8
:1018D0000BF060FE18D29FED320B53EC102B2F480B
:1018E00090ED000B51EC100B0BF06CFE0CD29FED49
:1018F000310B53EC102B314890ED000B51EC100BD9
:101900000BF023FD2D4A03C29FED200B53EC102B4F
:10191000224890ED000B51EC100B0BF08EFD41ECCA
:10192000180B9FED270B53EC102B244890ED000B68
:1019300051EC100B0BF00FFD41EC190B53EC182B75
:101940000BF062FC204A03C2144890ED000B1648CD
:1019500080ED000B1D48B0F918001D4908601B48B8
:10196000B0F91A001B4908601B4800881B49088011
:10197000194840881A4908801A4840681A4908607E
:10198000BDEC048B10BD00006400002000000000CE
:10199000000059409000002098000020A80000207E
:1019A000000000000094C140B000002000000000D2
:1019B0000094C1C0000000000000F03FB80000200B
:1019C0000000000000807640A0000020600D002094
:1019D000C8000020CC0000206B000020C0000020C8
:1019E000C20000207F0C0020C400002000205249CB
:1019F00008605249086070474F490968814205DA1A
:101A00004D49096814314C4A116007E000214A4AE7
:101A100011604B490968491C494A1160704710B56B
:101A20000146464B1B6841F2883493FBF4F202EB0B
:101A3000D2735B10A2EB430303B908463F4B1B680C
:101A400041F2883493FBF4F202EBD2735B10A2EB09
:101A50004303012B00D1484210BD70B52DED0A8B18
:101A600005463649096841F2883291FBF2F000EBF5
:101A7000D0714910A0EB410111BB28460BF04CFD81
:101A800041EC190B2D48006841F2883190FBF1F2CE
:101A900001FB120630460BF03FFD41EC1B0B9FEDA6
:101AA000290B53EC102B0BF0C8FC41EC1A0B53EC38
:101AB000192B0BF050FC41EC180B0BF04BFD0446BE
:101AC0001E49096841F2883291FBF2F000EBD071B7
:101AD0004910A0EB410101292AD128460BF01CFD39
:101AE00041EC190B1548006841F2883190FBF1F286
:101AF00001FB120630460BF00FFD41EC1C0B9FED75
:101B0000110B53EC102B0BF098FC41EC1B0B9FEDD1
:101B10000F0B53EC102B0BF01BFC41EC1A0B53EC8E
:101B2000192B0BF018FC41EC180B0BF013FD0446BD
:101B30002046BDEC0A8B70BDEC000020F0000020B8
:101B4000F4000020000000000088B3400000000006
:101B50000000F03F6749096829B90A2803D101212B
:101B6000644A11602AE063490968012905D1624984
:101B7000087002215F4A116020E05E49096802296D
:101B800005D15E49087003215A4A116016E059498F
:101B90000968032905D15A4908700421554A116082
:101BA0000CE054490968042905D156490870002100
:101BB000504A116002E000214E4A11604F490978F5
:101BC000514A118011460978090209B21180114663
:101BD000B1F90010484A127811434B4A1180494923
:101BE00009784A4A118011460978090209B2118020
:101BF0001146B1F90010424A12781143434A11804C
:101C0000704708B542A0006800900221684602F0C3
:101C100053FF08BD3F49096829B90A2803D10121AA
:101C20003C4A116034E03B490968012905D13A4931
:101C300008700221374A11602AE0364909680229F2
:101C400005D1364908700321324A116020E031493C
:101C50000968032905D13249087004212D4A116011
:101C600016E02C490968042905D12E490870052180
:101C7000284A11600CE027490968052905D12A493D
:101C800008700021234A116002E00021214A1160FE
:101C900021490978254A118011460988012922D154
:101CA0001F490978224A118011460978090209B2B0
:101CB00011801146B1F90010184A127811431C4ADC
:101CC0001180194909781B4A1180114609780902C7
:101CD00009B211801146B1F90010124A127811436D
:101CE000144A118004E00021114A1180114A118028
:101CF00070470000040100200801002009010020B5
:101D00000A0100200B010020F8000020FA0000204A
:101D1000010A00000C010020100100201101002028
:101D2000120100201301002014010020FC000020FB
:101D3000FE000020000100207FB50024AA222146D9
:101D4000641C51484254FF222146641C4254F12233
:101D50002146641C425408222146641C42549DF8CA
:101D600000202146641C42549DF801202146641C39
:101D700042549DF804202146641C42549DF80520DD
:101D80002046611CCCB240490A549DF808202046E8
:101D9000611CCCB23C490A549DF809202046611CC4
:101DA000CCB239490A549DF80C202046611CCCB2B3
:101DB00035490A549DF80D202046611CCCB23249A9
:101DC0000A5400250026002007E02F49095C294419
:101DD000CDB27119CEB2411CC8B22B49C978091DC8
:101DE0008142F2DC2046611CCCB227490D542046CA
:101DF000611CCCB224490E540846C078801DC1B283
:101E0000214802F065FD7FBDF1B50024AA222146DC
:101E1000641C1D484254FF222146641C4254F12296
:101E20002146641C425402222146641C42549DF8FF
:101E300000202146641C42549DF801202146641C68
:101E4000425400250026002007E00F49095C294480
:101E5000CDB27119CEB2411CC8B20B49C978091D67
:101E60008142F2DC2046611CCCB207490D54204669
:101E7000611CCCB204490E540846C078801DC1B222
:101E8000014802F025FDF8BDD30C0020884201DD99
:101E9000084603E04A42904200DA4842704710B5D3
:101EA00004460B46E01A00EB400059490860322115
:101EB00057480068FFF7EAFF5549086010BD30B584
:101EC00005460B461446E81A400052490860214670
:101ED00050480068FFF7DAFF4E49086030BD30B562
:101EE00005460B461446E81A40004B490860214657
:101EF00049480068FFF7CAFF4749086030BD10B580
:101F000004460B46E01A40004449086078214348E3
:101F10000068FFF7BBFF4149086010BD10B5002005
:101F20003C4908603C490860394908603B49086001
:101F30003B48006828B13B4801683B480068FFF710
:101F4000AEFF3A48006828B1364801683648006854
:101F5000FFF7A5FF3248006830B1322234480168EB
:101F600034480068FFF7ABFF3348006830B13222D5
:101F70002F4801682F480068FFF7A1FF2F4800682D
:101F800030B10A222E48B0F900100020FFF797FF69
:101F90002348006830B132222A4801682A48006884
:101FA000FFF79DFF2948006830B1322225480168BB
:101FB00025480068FFF793FF2548006830B10A22E2
:101FC0002448B0F900100020FFF789FF144800688A
:101FD00060B1214890ED000B51EC100B0BF0BAFAF8
:101FE000044621461D480068FFF789FF1C48006829
:101FF00060B1194890ED000B51EC100B0BF0AAFAF0
:102000000446214615480068FFF779FF10BD00001F
:10201000E4000020DC000020E0000020E8000020B8
:102020003C010020C40000201C01002040010020D1
:10203000C8000020200100204401002050010020A1
:10204000FE000020CC0000202401002048010020D8
:102050005401002000010020A000002028010020E1
:102060004C01002030B1012814D0022823D00328CD
:102070004BD135E00021264A1160264A1160264ADC
:102080001160264A1160264A1160264A1160264ACC
:1020900011603AE001211E4A116000211D4A1160C1
:1020A0001D4A11601D4A11601D4A11601D4A1160D0
:1020B0001D4A116029E00021154A11600121154ACD
:1020C0001160154A11600021144A11600121144A5F
:1020D00011600021134A11600121134A116014E0BC
:1020E00000210B4A116001210A4A116000210A4AAD
:1020F00011600121094A11600021094A1160012182
:10210000084A1160084A116000BF00BF7047000014
:102110003C0100204001002044010020500100202B
:1021200048010020540100204C0100201CB5012171
:10213000102006F05CFD00208DF8040001208DF8D1
:1021400007001020009069463C4805F001FE202061
:1021500000906946394805F0FBFD40200090694633
:10216000364805F0F5FD1CBD70B505461021334815
:1021700005F0DFFE04463248007870B16CB9304893
:102180000078401C2E4908700846007802280CD1BF
:102190005CB900200870012070BD2948007820B982
:1021A000012C02D10120264908700020F4E770B507
:1021B00005462021214805F0BCFE04462148007850
:1021C00070B16CB91F480078401C1E490870084661
:1021D000007802280CD15CB900200870012070BD85
:1021E0001848007820B9012C02D101201549087047
:1021F0000020F4E770B505464021104805F099FE2F
:1022000004461148007870B16CB90F480078401C42
:102210000D4908700846007802280CD15CB90020EE
:102220000870012070BD0848007820B9012C02D147
:102230000120054908700020F4E70000001002406A
:102240005B0100205C0100205D01002010B5044608
:102250008020FE4908600846047100208871032030
:1022600048710020C871FA4805F072FD10BD10B524
:102270000120FFF7EBFF0120F6490860F649C1F89D
:102280009C02052001F034FE0020F249091D08607F
:10229000052001F02DFE0020EF49C1F8980205202D
:1022A00001F026FE10BD10B50120FFF7CFFF012081
:1022B000E84908600020E849C1F89C02052001F0C7
:1022C00017FE0120E349091D0860052001F010FEFA
:1022D00010BD10B500240020FFF7B8FF0120DD4934
:1022E0000860052001F004FEDB48D0F81C0208B1AC
:1022F000012400E000240020D6490860052001F0F8
:10230000F7FD204610BD70B505460120FFF79EFF82
:102310000020D0490860D049C1F89C02052001F096
:10232000E7FD07241DE00120A040284020B1012046
:10233000C849091D086003E00020C649091D08605E
:10234000052001F0D5FD0120C2490860052001F0FB
:10235000CFFD0020C049C1F89802052001F0C8FD5A
:10236000641E002CDFDA70BD10B50446FFF77FFF56
:102370007820FFF7C8FFFFF7ACFF0020FFF7C3FF8F
:10238000FFF7A7FF2046FFF7BEFFFFF7A2FFFFF70B
:102390008AFF10BD10B50446FFF769FF7820FFF7EC
:1023A000B2FFFFF796FF4020FFF7ADFFFFF791FF69
:1023B0002046FFF7A8FFFFF78CFFFFF774FF10BD63
:1023C00070B504460D461DB1E0B2FFF7E3FF02E031
:1023D000E0B2FFF7C9FF70BD70B50646002418E0F3
:1023E00004F1B0000021FFF7EBFF00210846FFF7E2
:1023F000E7FF00211020FFF7E3FF002505E00121A2
:102400003046FFF7DDFF681CC5B2802DF7DB601C8E
:10241000C4B2082CE4DB70BD06E041F6650100E0C3
:10242000491E0029FCD1401E0028F6D17047014604
:1024300005E0002001E0421CD0B27B28FBDB0A1E35
:10244000A1F10101F5D1704770B504460D4605F1C3
:10245000B0000021FFF7B4FF102141EA1410002161
:10246000FFF7AEFF04F00F000021FFF7A9FF70BDDA
:1024700010B500218D20FFF7A3FF00211420FFF7E6
:102480009FFF0021AF20FFF79BFF10BD10B500217B
:102490008D20FFF795FF00211020FFF791FF00210D
:1024A000AE20FFF78DFF10BD70B5002418E004F1D9
:1024B000B0000021FFF784FF00210846FFF780FFEE
:1024C00000211020FFF77CFF002505E001210020FE
:1024D000FFF776FF681CC5B2802DF7DB601CC4B225
:1024E000082CE4DB70BD70B5002418E004F1B000E6
:1024F0000021FFF765FF00210846FFF761FF00217B
:102500001020FFF75DFF002505E001210846FFF7D9
:1025100057FF681CC5B2802DF7DB601CC4B2082CC5
:10252000E4DB70BD2DE9F04707460E46904699461C
:1025300000250024A8F12000C5B27F2F02DD00276E
:10254000B01CC6B2B9F1100F24D131463846FFF79E
:102550007BFF002408E004EB0511404A505C012198
:10256000FFF72EFF601CC4B2082CF4DB701CC1B254
:102570003846FFF769FF002409E004EB0511083134
:10258000364A505C0121FFF71BFF601CC4B2082CC7
:10259000F3DB12E031463846FFF756FF00240AE02D
:1025A00005EB45012E4A02EB4101085D0121FFF7D1
:1025B00007FF601CC4B2062CF2DBBDE8F08710B543
:1025C0000246012000E050430B1EA1F10104E1B2DC
:1025D000F9D110BD2DE9F05F06468A4691461D46A9
:1025E0000A9F4FF0000B00242DE0281B401EC1B2B3
:1025F0000A20FFF7E4FFB9FBF0F00A21B0FBF1F28B
:1026000001FB1208BBF1000F10D1681EA0420DDDC6
:10261000B8F1000F08D107FB0461C8B23B46202285
:102620005146FFF77FFF0CE04FF0010B08F130013E
:10263000CAB207FB0461C8B23B465146FFF772FFBE
:1026400000BF601CC4B2AC42CFDB0BE0E003002053
:1026500000040240988240420080404278DA00083C
:1026600050D80008BDE8F09F2DE9F04104460F4620
:102670001546984600260FE0AA5D43463946204697
:10268000FFF750FF04F10800C4B2782C02DD0024EB
:10269000B81CC7B2701CC6B2A85D0028ECD1BDE85A
:1026A000F0812DE9F04180460E461546002731465F
:1026B0004046FFF7C9FE00240AE07F4A02EB85117D
:1026C00008570121FFF77CFE781CC7B2601CC4B21A
:1026D000102CF2DB701CC1B24046FFF7B5FE00249F
:1026E0000CE06900491C744A02EB411108570121B2
:1026F000FFF766FE781CC7B2601CC4B2102CF0DB7A
:10270000BDE8F0812DE9F05F06460F4690461C4675
:10271000DDF828A04FF0000BE11704EB5171C91050
:10272000A4EBC10131B92046E11704EB5171C1F3AB
:10273000C70506E02046E11704EB5171C910491C9A
:10274000CDB23D4615E029463046FFF77DFEB14645
:102750000BE059460BF1010B1AF801000121FFF7BC
:102760002FFE09F1010000F0FF09C145F1DB681CF3
:10277000C5B2A542E7DBBDE8F09F10B501210220FC
:1027800006F035FAC0204D4908600120087100208C
:102790008871032048710020C871494805F0D8FAB3
:1027A0000120484908604849C1F89C02C82001F04E
:1027B000ABFB0021AE20FFF703FE00210846FFF728
:1027C000FFFD00211020FFF7FBFD00214020FFF757
:1027D000F7FD0021B020FFF7F3FD00218120FFF776
:1027E000EFFD0021FF20FFF7EBFD0021A120FFF707
:1027F000E7FD0021A620FFF7E3FD0021A820FFF759
:10280000DFFD00213F20FFF7DBFD0021C820FFF79F
:10281000D7FD0021D320FFF7D3FD00210846FFF7A5
:10282000CFFD0021D520FFF7CBFD00218020FFF751
:10283000C7FD0021D820FFF7C3FD00210520FFF7C9
:10284000BFFD0021D920FFF7BBFD0021F120FFF7DC
:10285000B7FD0021DA20FFF7B3FD00211220FFF7BA
:10286000AFFD0021DB20FFF7ABFD00213020FFF79B
:10287000A7FD00218D20FFF7A3FD00211420FFF705
:102880009FFD0021AF20FFF79BFD10BD3EB50FA1BE
:1028900003C9CDE90101042301AA01210520FFF7A5
:1028A000E3FE4FF4E4740620032322460121009046
:1028B0002820FFF78FFE3EBD60010020E0030020CE
:1028C0000004024098824042008040427465737464
:1028D000000000001CB50121102006F088F904203A
:1028E000009001208DF8040000208DF806000220E1
:1028F0008DF807008DF805006946174805F028FA9D
:1029000001220421144805F088FC1CBD10B50446C2
:1029100024B901220421104805F07FFC012C04D1C8
:10292000002204210C4805F078FC10BD10B50122EE
:102930000421094805F071FC00220421064805F035
:102940006CFC4FF4967001F0DFFA0122042102487A
:1029500005F063FC10BD00000010024010B501F04E
:1029600003FE0120F74981F8380081F8390010BDD5
:1029700010B501F0D5FA642001F0C6FA01F0A8FB09
:1029800001F034FC642001F0BFFA4FF4E13001F0B3
:1029900024FF4FF4E13002F01AF8EB4802F011F98D
:1029A000E94802F02FFAE84802F015FB642001F034
:1029B000ABFAFFF7D3FF01F0F7FA642001F0A4FAB5
:1029C000FDF7A4FD4FF4487001F09EFAFFF7AEFB4F
:1029D000FFF780FF4FF47A7001F096FAFFF7CDFE13
:1029E000FFF762FD01F0EAFE012010BD40F6C411C0
:1029F000884203DDD5490978032903DCD3490978E6
:102A00000A290DD10021D14A1170CE49B1F84E10DA
:102A1000491CCC4AA2F84E10012182F8501012E055
:102A2000B0F5967F0FDD40F6B83188420BDA02B27E
:102A3000C449891CC54B1B7821F81320C349097868
:102A4000491CC24A1170704738B50446C0A00068DE
:102A50000090C0484068BF49086001F02AFABD49AB
:102A60004860084640680968401A40F6C411884228
:102A700002D90020B8490870B74801780078401C96
:102A8000B54A1070B54844541046007819287CD1D6
:102A9000182011460870B14800780F2876D1AF4849
:102AA000007E38B1AD48007EAD4A12781DF80210A4
:102AB0008842F3D10020A8490870A8484078A74967
:102AC000897801F0070140EA01209E498882A348E5
:102AD000C0788006400DA149897840EAE100994913
:102AE000C8829E484079C007400D9C49097940EA58
:102AF00081009A49C97840EAA11092490883974811
:102B000080790007400D9549497940EA61008D4977
:102B100048839248C0794006400D9049897940EA3F
:102B20002110884988838D48407A8007400D8B4961
:102B3000097A40EA41008949C97940EAE1108149AE
:102B4000C8838648807AC006400D8449497A40EAA5
:102B5000A1007C4908848148C07AC0007F49897AF5
:102B600040EA6111774841847C48007B7B49497B7E
:102B700001F0070140EA0120724988847748807B90
:102B80008006400D7549497B01E074E069E040EA48
:102B9000E1006C49C8847148007CC007400D6F4952
:102BA000C97B40EA81006D49897B40EAA1106549F3
:102BB00008856A48407C0007400D6849097C40EA66
:102BC0006100604948856548807C4006400D634946
:102BD000497C40EA21105B4988856048007D800778
:102BE000400D5E49C97C40EA41005C49897C40EA6D
:102BF000E1105449C8855948407DC006400D5749E9
:102C0000097D40EAA1004F4908865448807DC000F4
:102C10005249497D40EA61114A4841864F48C07D8A
:102C2000484981F83400084690F8340000F0080064
:102C300040B90846B0F84E00401CA1F84E000220F2
:102C400081F8500046480078401C454908700878D3
:102C5000C11700EB91718910A0EB8101404A1170FE
:102C600009E0002005E03D4A411C515C1154411C23
:102C7000C8B21828F7DB38BD10B50446D4ED000AF9
:102C80003848008800EE100AB8EE400A9FED361A68
:102C900000EE810ABCEEC00A10EE100A314908802D
:102CA00008460088B0F57A7F39DD00200880254885
:102CB000B0F84E002349C8860846C08E052803DABE
:102CC000012081F8380003E000201E4981F8380017
:102CD0001C4890F83800C8B11A480078D8B9234881
:102CE0000078401C21490870087800EBD071491029
:102CF000A0EB41011D4A117010460078012802D155
:102D000001F0B3FC07E001F02FFC04E00D4890F85F
:102D100050000C49087000200A49A1F84E0010BD6F
:102D200010B52DED020B6846FFF7A6FF054890F899
:102D30003800002870D103480078012823D10020F2
:102D40001EE00000F20C002020A10700EC03002090
:102D500004142434F0030020F8030020440D002064
:102D6000F9030020FC03002000007A44FA0300204D
:102D7000344931F81020383121F81020411CC8B2F4
:102D80000A28F5DB23E02F48801E007802281ED198
:102D900000201AE02B49123131F91010A1F58061A1
:102DA00000EE101AF8EEC00A9FED270A9FED271AD1
:102DB00001EE200ABDEEC00A10EE101A0AB2214937
:102DC000383121F81020411CC8B20A28E2DB1D4826
:102DD000801EB0F94200B0F5966F06DD1948801EDE
:102DE000B0F94200B0F5AF6F0DDB1648801EB0F9A8
:102DF0004200B0F5C86F0ADD1248801EB0F94200EB
:102E0000B0F5E16F03DA01201149087012E00020EB
:102E10000F4908700EE0FFE701200D4908700020FF
:102E200006E000220749383121F81020411CC8B2C1
:102E30000A28F6DB064800780249891E81F8390025
:102E40001CBD0000F40C00200080BB442FDD243F9B
:102E5000FE030020F0EE400AF5EEC00AF1EE10FA93
:102E600002DBB0EE600A7047B1EE600AFBE700B526
:102E7000B0EE403AB0EE602AB5EEC03AF1EE10FA8C
:102E800007D1B5EEC02AF1EE10FA02D19FEDFC1A7F
:102E900099E0B0EE430AFFF7DDFFF0EE403AB0EE06
:102EA000420AFFF7D7FFF0EE402AF4EEE23AF1EEE5
:102EB00010FA02D283EEA24A01E082EEA34A9FED0D
:102EC000F10AB4EEC04AF1EE10FA02D2F0EE441A62
:102ED0002DE0DFEDED0AB6EE000A14EE200AF0EE6A
:102EE000404ABDEEE40A10EE100A00EE100AB8EEF9
:102EF000C00A34EEC00AF0EE404AE44901EB80011A
:102F000091ED000AF0EE401AE04A411C02EB81010B
:102F100091ED000A114601EB8001D1ED000A70EE3F
:102F2000600AB0EE610A00EEA40AF0EE401AF4EE78
:102F3000E32AF1EE10FA20DDB5EEC02AF1EE10FA28
:102F40000ADBB5EEC03AF1EE10FA02DBB0EE611A20
:102F500039E0B1EE611A36E09FEDCD1AB5EEC03A18
:102F6000F1EE10FA04DB31EE610AB0EE401A2AE00D
:102F700031EEC10AB0EE401A25E0B5EEC03AF1EEEE
:102F800010FA10DB9FEDC31AB5EEC02AF1EE10FA6D
:102F900004DB31EE610AB0EE401A14E031EE210A92
:102FA000B0EE401A0FE09FEDBC1AB5EEC02AF1EE6C
:102FB00010FA04DB31EE210AB0EE401A03E031EEE4
:102FC000610AB0EE401AB0EE410A00BD00B5B0EEA5
:102FD000405AF0EE605AF0EE450AB0EE650AFFF78F
:102FE00046FF00BDF0EE400AF6EE001A60EEA11AB0
:102FF000B0EE611AB0EE600A10EE100AA749A1EB1C
:10300000600000EE100A21EE002AF7EE081A42EEE8
:10301000401A61EE801AB0EE610A21EE002AF7EE46
:10302000081A42EE401A61EE801AB0EE610A70474B
:1030300000B5F0EE402AB0EE620AFFF7D3FF20EEB3
:10304000220A00BD10B52DED0A8BB0EE409AF0EECD
:10305000609A9FED930B53EC102B51EC190B0AF077
:1030600099FA18D29FED900B53EC102B51EC190BE1
:103070000AF071F941EC1B0B9FED8D0B53EC102BFB
:103080000AF0C2F841EC1A0B53EC192B0AF063F961
:1030900041EC180B17E09FED840B53EC102B51EC17
:1030A000190B0AF058F941EC1B0B9FED810B53EC07
:1030B000102B0AF04DF941EC1A0B53EC192B0AF0C6
:1030C0004AF941EC180B9FED760B53EC102B51ECA9
:1030D000180B0AF05FFA20D29FED770B53EC102B00
:1030E00051EC180B0AF090F841EC1C0B9FED740B9F
:1030F00053EC102B0AF02FF941EC1B0B9FED6E0BDC
:1031000053EC102B0AF080F841EC1A0B53EC182BFF
:103110000AF021F941EC180B1FE09FED670B53EC0F
:10312000102B51EC180B0AF010F941EC1C0B9FED21
:10313000660B53EC102B0AF00EF941EC1B0B9FEDC4
:103140005E0B53EC102B0AF05FF841EC1A0B53ECBA
:10315000182B0AF000F941EC180BB0EE480AF0EE1B
:10316000680ABDEC0A8B10BD10B52DED068BB0EED4
:10317000408AF0EE608A01249FED550B53EC102B32
:1031800051EC180B0AF01EFA0AD89FED510B53ECC4
:10319000102B51EC180B0AF0D8F841EC180BA41EB8
:1031A00020460AF0B9F941EC190BB0EE480AF0EEEE
:1031B000680AFFF747FFB0EE40AAF0EE60AA53ECB2
:1031C000192B51EC1A0B0AF0C6F841EC100BBDECB0
:1031D000068B10BD10B52DED088BB0EE408AF0EED9
:1031E000608A01249FED3C0B53EC102B51EC180B23
:1031F0000AF00AF841EC180B9FED350B53EC102B3D
:1032000051EC180B0AF0DEF90AD8A41E9FED300B22
:1032100053EC102B51EC180B0AF097F841EC180BFB
:1032200020460AF079F941EC1A0BB0EE480AF0EEAC
:10323000680AFFF799FFB0EE40BAF0EE60BA53ECBF
:103240001A2B51EC1B0B0AF086F841EC190B0AF013
:10325000D1F900EE100ABDEC088B10BDF0EE401A5B
:10326000F4EEE01AF1EE10FA3ADD31EEC10AB4EEF6
:10327000E00AF1EE10FA3CD2B0EE600A39E000004C
:10328000000000008180803B0000804368E000086F
:10329000DB0F4940DB0FC93FDB0FC9BFDF59375F89
:1032A0000000000000000000000000602FF0D93F87
:1032B00000000060305FF43F000000000000F03FBD
:1032C000000000C0CCCCCCBF000000C0CCCCCC3FB8
:1032D000F1D4C853FB210940F1D4C853FB21F93F75
:1032E00031EE810AB4EEE00AF1EE10FA01DDB0EE43
:1032F000600A7047F0EE401AB1EE412A32EE202A01
:10330000B4EEE12AF1EE10FA09D231EE202AB4EE41
:10331000E12AF1EE10FA02DDB0EE600A01E0B0EE53
:10332000610A7047F0EE402AB5EEC01AF1EE10FACD
:1033300002DDB0EE410A01E0B1EE410AB6EE003A1C
:1033400022EE033A23EE213AB4EEC30AF1EE10FA6C
:1033500006D29FEDD40A20EE800AF0EE400A4DE03E
:10336000B5EEC01AF1EE10FA02DDB0EE410A01E04E
:10337000B1EE410A22EE213AB4EEC30AF1EE10FAA0
:1033800006D29FEDC90A20EE800AF0EE400A35E031
:10339000B5EEC01AF1EE10FA02DDB0EE410A01E01E
:1033A000B1EE410AB4EEE10AF1EE10FA06D2B6EE41
:1033B000000A20EE800AF0EE400A1FE0B5EEC01AC7
:1033C000F1EE10FA02DDB0EE410A01E0B1EE410A81
:1033D000B0EE003A21EE833AB4EEC30AF1EE10FAF1
:1033E00006D29FEDB20A20EE800AF0EE400A05E018
:1033F0009FEDAF0A20EE800AF0EE400A9FEDAD0A85
:1034000020EE800A20EE223AF7EE003A83EE830A9D
:10341000B7EE003A30EE030AF7EE003A83EE803A58
:1034200090ED000A71EE403A90ED000A03EE230A97
:1034300080ED000A90ED000AB1EE423A23EE213A07
:10344000B4EEC30AF1EE10FA04D8B1EE420A20EE4F
:10345000210A0DE090ED000A22EE213AB4EEC30AF3
:10346000F1EE10FA02DD22EE210A01E090ED000AF1
:1034700080ED000A90ED000A31EE400A704710B569
:103480002DED028BB0EE408AF0EE608A9FED8A0B44
:1034900053EC102B51EC180B0AF094F80CD29FED62
:1034A000880B53EC102B51EC180B09F04EFF41EC3C
:1034B000100BBDEC028B10BD9FED830B53EC102B5A
:1034C00051EC180B0AF066F80AD29FED7D0B53EC15
:1034D000102B51EC180B09F097FE41EC100BE8E7AC
:1034E000B0EE480AF0EE680AE3E730B505460C4650
:1034F000F0EE403AD5ED000A60EEA00A94ED001A15
:10350000D4ED001A41EE210AB0EE600AFFF790FDFB
:10351000B0EE403AB5EEC03AF1EE10FA02D81FED27
:10352000A80A09E0B4EEE33AF1EE10FA02DDB0EEDB
:10353000630A01E0B0EE430AB0EE404AB5EEC03A8D
:10354000F1EE10FA06D11FEDB20A83ED000A82ED0A
:10355000000A0FE084EE030AD5ED000A20EE200AEF
:1035600082ED000A84EE030AD4ED000A20EE200A60
:1035700083ED000A30BDF0EE400A0B7802EB8303C6
:10358000C3ED000A0B785B1C0B700B78834201DBE8
:1035900000230B700B7802EB830393ED000A704756
:1035A00000B50246B0EE403A0B46F7EE000A43EE95
:1035B000430AB0EE600AFFF73BFDD2ED000A20EEB1
:1035C000200AD2ED010A00EEC30A83ED000AF7EEED
:1035D000000A43EE430AB0EE600AFFF729FDD2ED80
:1035E000010A20EE200AD2ED000A00EE830A83EDE4
:1035F000010A00BD90ED000AD1ED010A20EE200A7B
:10360000D0ED010A91ED001A00EEC10A704790ED6D
:10361000000AD1ED000A20EE200AD0ED010A91ED5A
:10362000011A00EE810A704790ED010AD1ED020AFD
:1036300020EE200AD0ED020A91ED011A00EEC10A37
:1036400082ED000A90ED020AD1ED000A20EE200A78
:10365000D0ED000A91ED021A00EEC10A82ED010AD6
:1036600090ED000AD1ED010A20EE200AD0ED010A0A
:1036700091ED001A00EEC10A82ED020A704790ED4A
:10368000000AD1ED000A20EE200AD0ED010A91EDEA
:10369000011A00EE810AD0ED020A91ED021A00EE45
:1036A000810A70479A99993FCDCC4C3FCDCC4C3E86
:1036B000CDCCCC3DC3F5C840000000000080664082
:1036C000000000000080764000000000008066C01E
:1036D00008B5C648D0ED000A9FEDC51AF4EEC10A40
:1036E000F1EE10FA0BD2D0ED000AB7EE001A70EE30
:1036F000810AC0ED000A0120BE49887002E0002066
:10370000BC498870B948D0ED010A9FEDB91AF4EEB2
:10371000C10AF1EE10FA0BD2D0ED010AB7EE001A91
:1037200070EE810AC0ED010A01208DF8000002E070
:1037300000208DF80000AD48D0ED020A9FEDAC1AD4
:10374000F4EEC10AF1EE10FA0BD2D0ED020AB7EE98
:10375000001A70EE810AC0ED020A01208DF8010006
:1037600002E000208DF801009DF8000030B19DF8C6
:10377000010018B101209F49C87002E000209D4956
:10378000C87008BD30B500220024C5788B1F9D424B
:1037900000D030BD002306E0C55C1544EAB2A51890
:1037A000ECB25D1CEBB28D1E9D42F5DC431813F8A4
:1037B000023C934204D1431813F8013CA34200D0C9
:1037C000E7E78378512B38D103795BB94379894D89
:1037D0006B7183795BB2AB71C3795BB2EB71037AC6
:1037E0002B7183E00379012B12D14379814D2B7228
:1037F000C3886B810389AB81837A2B719FED7E0A2D
:103800007A4B83ED010A2B461B785B1C2B706DE015
:103810000379022B6AD14379764DAB73C3882B822F
:1038200003896B824389AB828389EB82C3892B83B3
:10383000038A6B83837C2B7158E08378342B0DD102
:10384000D0F807306B4DEB619FED6B0A674B83ED52
:10385000020A2B465B785B1C6B7047E08378012B78
:103860000DD18388634D2B86C3886B860389AB8615
:103870004389EB8683892B87C3896B8736E08378FE
:10388000042B33D1B0F9043000EE103AB8EEC00A80
:10389000DFED5A0A20EE200A564B83ED080AB0F9F4
:1038A000063000EE103AB8EEC00ADFED540A20EE02
:1038B000200A504B83ED090AB0F9083000EE103AA7
:1038C000B8EEC00ADFED4D0A20EE200A494B83ED29
:1038D0000A0AB0F90A3000EE103AB8EEC00ADFED7D
:1038E000470A20EE200A434B83ED0B0A00BF50E746
:1038F00010B504464248007838B9AA2C05D10120F9
:103900003F4908703F4804706FE03D480078012847
:1039100009D1612C01D0FF2C05D102203849087053
:103920003848447061E036480078022805D1032009
:10393000334908703348847057E0314800780328D1
:103940000CD1FA2C0ADA04202D4908702D48C470D5
:103950002D48047000202D49087046E02848007862
:10396000042819D128480078002815DD2648007859
:10397000401E254908702548007824490978491CCB
:10398000224A1170001D1F490C541F48007840BB8B
:1039900005201B49087028E01948007805280DD13A
:1039A0000620174908701948007818490978491CF9
:1039B000164A1170001D13490C5416E01048007887
:1039C00006280FD100200E49087010480078001D0D
:1039D0000C490C540D480078401DC1B20948FFF74E
:1039E000D1FE02E000200649087010BDD00D002075
:1039F0000000FA43600D00200000000017B7D13826
:103A0000010400209C0D0020FF0300200004002082
:103A10000146D548007800287ED00022D24B1A708B
:103A2000D24A1288C832D14B1A80D14A127DD14B6A
:103A30005A76CF4AD37DCF4A9376CD4A9369CD4A01
:103A4000C2F81B30CA4AD369CA4AC2F81F30C84AF2
:103A5000526A0A2392FBF3F3C64AC2F82330C44ADF
:103A6000126B0A2392FBF3F213B2C24AA2F8273078
:103A7000BF4A526B0A2392FBF3F213B2BD4AA2F87B
:103A80002930BB4A926B0A2392FBF3F213B2B94A74
:103A9000A2F82B30B64AB2F84C2000EE102AB8EE4D
:103AA000400ADFEDB50A20EE200ABCEEC00A10EE97
:103AB000100A08B9002204E0C82801D9C82200E091
:103AC00002461046AB4A82F82D00A94A526C00EE1D
:103AD000102AB8EE400ADFEDA80A20EE200ABCEE5C
:103AE000C00A10EE100A08B9002204E0C82801D963
:103AF000C82200E0024610469E4A82F82E009C4AE8
:103B0000D26A00EE102AB8EE400ADFED9B0A20EEE2
:103B1000200ABCEEC00A00E012E010EE100A08B95C
:103B2000002204E0C82801D9C82200E0024610465D
:103B3000904A82F82F000123904A82F8213100BF79
:103B4000704710B50E218E4800F0C2FE10BD10B5B2
:103B50000E218C4800F0BCFE10BD10B5642000F0B2
:103B6000D3F94FF4165000F038FE322000F0CCF9B3
:103B70001C21854800F0ACFE642000F0C5F94FF42C
:103B8000964000F02AFE322000F0BEF91C217E484B
:103B900000F09EFE642000F0B7F94FF4164000F0EC
:103BA0001CFE322000F0B0F91C21774800F090FE96
:103BB000642000F0A9F94FF4E13000F00EFE14206B
:103BC00000F0A2F90B21714800F082FE142000F0F1
:103BD0009BF90B216E4800F07BFE142000F094F955
:103BE0000B216C4800F074FE142000F08DF90B21BD
:103BF000694800F06DFE142000F086F90B2167483B
:103C000000F066FE142000F07FF90B21644800F0FC
:103C10005FFE142000F078F9FFF793FF10BD10B598
:103C20000146002000225F4B1B782BB9B52903D138
:103C300001235C4C237095E05A4B1B78012B05D176
:103C4000622903D10223574C23708BE0554B1B781C
:103C5000022B05D10323534C2370534B197081E081
:103C6000504B1B78032B05D104234E4C23704F4B34
:103C7000197077E04B4B1B78042B05D10523494C79
:103C800023704B4B19706DE0464B1B78052B10D100
:103C90000623444C2370464B1B7803EB0123454C11
:103CA000238023461B88622B5CDB00233D4C237062
:103CB00058E03C4B1B78062B54DB3A4B1B789B1F80
:103CC0003C4C2488A41CA3420ADA364B1B789B1F69
:103CD000274CE154334B1B785B1C324C237041E082
:103CE000314B1B780344D8B21318DAB22F4B1B7830
:103CF0000344D8B21318DAB22E4B1B780344D8B25F
:103D00001318DAB22B4B1B8800EB1323D8B213180D
:103D1000DAB2002307E0164CE45C0444E0B2141865
:103D2000E2B25C1CE3B2234C2488A342F3DB104BC9
:103D3000204C24881B5D834211D10D4C1D4B1B88E8
:103D40005B1CE35C93420AD1174B1B78012B06D115
:103D5000164B1B78072B02D10123034C2370002341
:103D6000104C237010BD0000020400200404002049
:103D7000DC0D0020980C00200AD7233C3C050020D5
:103D800006040020140400203E0400206F040020DC
:103D90007A04002085040020900400209B04002069
:103DA000A6040020B7040020B1040020B2040020C3
:103DB000B3040020B4040020704700BFFEE700BF3A
:103DC000FEE700BFFEE77047704710B5802003F0A4
:103DD000C4FE10B1802003F016FF10BD10B500F036
:103DE0001BFC10BD704710B50121114807F0ABFD59
:103DF00028B101210E4807F003FEFDF7BAF910BD06
:103E000010B500F0ADFD10BD10B500F09EFE10BD68
:103E100010B500F0BBFF10BD10B501F0A0F810BD4B
:103E200010B501F0B0F910BD10B500F071FC10BD77
:103E3000001400407FB5684604F0C1FD4FF47A716C
:103E40000198B0FBF1F4E4082146B1F1807F00D382
:103E50001DE021F07F40401E4FF0E02250615017DE
:103E60000F22002807DA13071E0E314B00F00F0552
:103E70002D1F5E5503E013071D0E2E4B1D5400BF72
:103E800000204FF0E02290610720106100BF6FF02A
:103E9000040001F095FB7FBD2748D0E900305A1C93
:103EA00040F100002449C1E9002070472248006821
:103EB000704710B500BF204A11684FF0E0225269E8
:103EC0004FF0E0239B69D21A4FF47A735A434FF0B4
:103ED000E0235B69B2FBF3F201EB4103C3EBC113D7
:103EE00002EBC300144C18CC4B402343E3D110BD6C
:103EF00030B50446FFF7DDFF054600BFFFF7D9FFE9
:103F0000401BA042FAD330BD10B5044603E04FF485
:103F10007A70FFF7EDFF201EA4F10104F7D110BD68
:103F200010B54FF4806001F099FAFFF783FF10BDE0
:103F300018ED00E000E400E0B804002000B58FB008
:103F4000684602F096FD0121880504F050FE00BF8E
:103F5000564803F0ABF80028FAD10090544801907D
:103F600054480290002003903220049000200590D5
:103F70004FF4806006904000079080000890000198
:103F80000A904012099000200B9001200C90002014
:103F90000D900E906946454802F015FC01214348FA
:103FA00002F078FD0FB000BD00B58DB001A801F0A2
:103FB00009FC0121042004F01AFE0121080204F08A
:103FC000FCFEFFF7BBFF03208DF8300020200B9094
:103FD00000208DF833000BA9374803F0B9FE00200C
:103FE000099007904FF48030089000200A9007A8AD
:103FF00001F0F2FB002001908DF8080001208DF8FF
:10400000090000200390059001208DF8180001A9F7
:1040100027484C3801F00DFB072301220F212448CB
:104020004C3801F09EFD012121484C3801F077FF0A
:1040300001211F484C3801F080FC01211C484C38FC
:1040400001F047FF1A484C3801F057FE0DB000BD93
:104050009FED1A0AF0EE400A002010E0154931F8F1
:10406000101000EE101AB8EE401ADFED151AB0EE7F
:10407000600A01EE210AF0EE400A411CC8B2322863
:10408000ECDB9FED101A80EE810A9FED0F1A20EEF7
:10409000010AB2EE061A20EE010AF7EE001A80EECF
:1040A000211A9FED0A0A21EE000A704710640240AF
:1040B0004C200140400E002000080240000000009B
:1040C0000AD7A33C0000804500404E456F12833A5A
:1040D0001CB5684603F0E7FE0121102004F087FDBF
:1040E00001208DF804008DF8070000208DF80600EF
:1040F00002208DF805000B2000906946384803F037
:1041000027FE01208DF804008DF8060002208DF8AE
:104110000500802000906946314803F019FE022115
:104120002F4804F04BF801212D4804F047F80821EE
:104130002B4804F043F88021294804F03FF81CBDC7
:1041400000F0010119B10221254A118302E0022188
:10415000234A518300F0020119B10121204A118341
:1041600002E001211E4A518300F0040119B1082127
:104170001B4A118302E00821194A518300F008010B
:1041800019B18021164A518302E08021144A11831B
:10419000704700B500201DE0124931F81010124A96
:1041A0001256914204DA0121814019438BB202E098
:1041B000012181408B430B4931F81010491C89B211
:1041C000084A22F81010142902DB002122F81010EE
:1041D000411CC8B20428DFDB1846FFF7B1FF00BD61
:1041E00000100240C4040020C004002030B58BB091
:1041F0000025D44C01A803F056FE08A805F063F989
:1042000003A805F09CFF012C01D8012004E0CE4852
:10421000844200D900E0204604460121082004F031
:10422000A9FD0121022004F0C8FD0121084604F087
:10423000C4FD0121152004F0DAFC0C2001900220BD
:104240008DF8080003208DF8090000208DF80A0081
:1042500001208DF80B0001A9BC4803F079FD022272
:104260001146BA4804F088F802220321B74804F046
:1042700083F8B74800684008B0FBF4F0401E85B2F0
:1042800042F210700990ADF820500020ADF82800DF
:10429000ADF8220008A9AF4805F08AF86020ADF813
:1042A0000C000020ADF818000120ADF80E004FF40E
:1042B0007A60059003A9A74805F0E8FD0821A54804
:1042C00006F0B1F90120ADF80E004FF47A600590C8
:1042D00003A9A04805F0A2FE08219E4806F0CFF9E8
:1042E00001219C4805F0E9FA01219A4805F0D1FB2B
:1042F0004FF4D440019002208DF8080003208DF87F
:10430000090000208DF80A0001208DF80B0001A99A
:10431000914803F01DFD012209218F4804F02CF87B
:1043200001220B218C4804F027F801220D218A4834
:1043300004F022F801220E21874804F01DF8844879
:104340000068B0FBF4F0401E85B242F21070099094
:10435000ADF820500020ADF82800ADF822008DF80F
:104360002A0008A97D4805F023F86020ADF80C006C
:104370000020ADF81000ADF818000820ADF81A00C4
:104380004001ADF81C000020ADF81E000120ADF882
:104390000E004FF47A60059003A9704805F0C1FB48
:1043A00008216E4806F0CBF84FF47A60059003A917
:1043B0006A4805F07EFC0821684806F0FEF84FF4D4
:1043C0007A60059003A9654805F060FD08216348FF
:1043D00006F029F94FF47A60059003A95F4805F0CB
:1043E0001DFE08215D4806F04AF901215B4807F0EF
:1043F000FCF80121594805F060FA0121574805F001
:1044000048FB4FF44070019002208DF80800032013
:104410008DF8090000208DF80A0001208DF80B00AE
:1044200001A94F4803F094FC032208214C4803F0F3
:10443000A3FF032209214A4803F09EFF4448006875
:10444000B0FBF4F0401E85B242F210700990ADF856
:1044500020500020ADF82800ADF822008DF82A0089
:1044600008A9404804F0A4FF6020ADF80C0000202B
:10447000ADF81000ADF818000820ADF81A004001A2
:10448000ADF81C000020ADF81E004FF47A600590D6
:1044900003A9344805F0FAFC0821304806F0C3F8B7
:1044A0004FF47A60059003A92E4805F0B7FD082166
:1044B0002A4806F0E4F801212A4807F096F801217D
:1044C000284805F0FAF90121264805F0E2FA0BB078
:1044D00030BDB0F90010890001F57A611F4A1164FE
:1044E000B0F90210890001F57A61D163B0F90410C6
:1044F000890001F57A619163B0F90610890001F530
:104500007A615163B0F90810890001F57A61114AA6
:1045100040321160B0F90A10890001F57A61121F6A
:104520001160B0F90C10890001F57A610D4A403232
:104530001160B0F90E10890001F57A61121F116047
:104540007047000000093D0000BD01050000024069
:10455000E4040020000C0040001002400000014074
:10456000000802400004014000B587B005A803F030
:104570009AFC02A806F0BBFE0121022004F0FAFB1F
:104580000121042004F033FB1D208DF804000220DB
:104590008DF8050001208DF806008DF8070001A8B0
:1045A00000F077FF8020059002208DF8180003208E
:1045B0008DF8190000208DF81A0002208DF81B00DC
:1045C00005A95D4803F0C4FB022207215A4803F005
:1045D000D3FE5320594908800420ADF808000A2072
:1045E000ADF80A000120ADF80C000020ADF80E0077
:1045F000ADF8100002A95148283806F092FD0121BB
:104600004E48283805F045FA012204214B48283845
:1046100007F05AF807B000BD10B5484818380088B0
:1046200000F0040000B34FF6FB70444918390880CD
:104630004FF6FF30088040481030006800F08000DE
:1046400090B93E48283806F0FEFE3D4908800846ED
:1046500000884988401A84B22046FEF7C7F93848D6
:1046600000883749488000BF10BD00B587B0684654
:1046700003F019FC0121202004F09FFB01210420FC
:1046800004F0B5FA47208DF8080004208DF80900E1
:1046900001208DF80A008DF80B0002A800F0F9FE49
:1046A00008220721244803F067FE802000900220A2
:1046B0008DF804008DF8050001208DF8060000201B
:1046C0008DF8070069461C4803F042FB1D48039023
:1046D0000020ADF810004FF40050ADF81200C010EB
:1046E000ADF814000020ADF818000420ADF8160055
:1046F00003A9154807F0DBFE012240F225511248BC
:1047000008F071FB0121104808F01AF807B000BD4D
:1047100010B540F225510C4808F08BFC58B140F21E
:104720002551094808F010FD0748001D0088C4B253
:104730002046FEF789F910BD000802402804004019
:10474000CC040020A0860100001401403EB50446C0
:104750000121202004F00EFB1E4804F04DFD0194C1
:104760005320ADF800000020ADF80800ADF80200BD
:104770006946184804F01CFE0121164807F0ADF800
:1047800001221146134806F09FFF0121114805F050
:1047900080F90021202004F0EDFA3EBD08B5372055
:1047A0008DF8000007208DF8010001208DF802002F
:1047B0008DF80300684600F06CFE08BD10B54FF49C
:1047C0007A70FFF7C3FFFFF7E9FF0121202004F013
:1047D000D1FA10BD00140040704710B58AB00446ED
:1047E00006A807F048FF0121102004F0E6FA012195
:1047F000084604F0FCF925208DF80C0003208DF804
:104800000D0000208DF80E0001208DF80F0003A888
:1048100000F03FFE07220921FE4803F0ADFD07220C
:104820000A21FC4803F0A8FD4FF40070019002201B
:104830008DF808008DF8090000208DF80A0001208D
:104840008DF80B0001A9F34803F082FA4FF4806061
:10485000019002208DF808008DF8090001208DF8E4
:104860000A0000208DF80B0001A9EA4803F070FA55
:10487000E94807F0B7FD06940020ADF81C00ADF83C
:104880001E00ADF82000ADF824000C20ADF8220089
:104890000020ADF81000ADF812004FF40070ADF834
:1048A00014000020ADF8160006A9DB4807F0FFFD54
:1048B00004A9D94807F0EBFE012240F22551D64861
:1048C00008F091FA0121D44807F03AFF0AB010BD70
:1048D00070B505460E4600240AE0295DCF480278EF
:1048E0000078401CCD4B1870CD488154601CC4B278
:1048F000B442F2DBC848808900F0800028B9012268
:1049000040F22771C44808F06EFA70BDC5490A78B4
:104910000978491CC34B1970C34988541946097852
:10492000642902DB00211A461170704710B510E0AF
:10493000BE490A780978491CBC4B1970BA49885C91
:10494000FDF708F9B9480078642802DB0020B74970
:104950000870B4480078B54909788842E8D110BD9C
:1049600010B5AD48008800F0080010B1AA48808852
:10497000C4B240F22551A84808F05BFB50B140F2A8
:104980002551A54808F0E0FBA3488088C4B2204622
:10499000FFF7BCFF40F227719F4808F04AFBA8B11F
:1049A000A34801780078401CA14A10709C48405CE4
:1049B000994988801046007898490978884205D13D
:1049C0009548808920F080009349888110BD10B5FA
:1049D0008AB0044606A807F04EFE0121480404F000
:1049E000C9F90121082004F002F926208DF80C00F5
:1049F00004208DF80D0001208DF80E008DF80F00B9
:104A000003A800F046FD072205218A4803F0B4FC04
:104A100007220621874803F0AFFC202001900220E6
:104A20008DF808008DF8090000208DF80A0001209B
:104A30008DF80B0001A97F4803F08AF9402001900E
:104A400002208DF808008DF8090001208DF80A0079
:104A500000208DF80B0001A9764803F079F906943F
:104A60000020ADF81C00ADF81E00ADF82000ADF838
:104A700024000C20ADF822000020ADF81000ADF8A5
:104A800012004FF40070ADF814000020ADF81600CD
:104A900006A9694807F00BFD04A9674807F0F7FD70
:104AA000012240F22551644808F09DF90121624835
:104AB00007F046FE0AB010BD70B505460E4600244C
:104AC0000AE0295D5D4802780078401C5B4B187055
:104AD0005B488154601CC4B2B442F2DB56480C30CF
:104AE000008800F0800028B9012240F22771524866
:104AF00008F079F970BD53490A780978491C514B7F
:104B000019705149885419460978642902DB00213B
:104B10001A461170704710B510E04C490A780978B0
:104B2000491C4A4B19704849885CFDF773F847489F
:104B30000078642802DB002044490870414800786E
:104B4000424909788842E8D110BD10B53A4800883A
:104B500000F0080018B13848001D0088C4B240F2C7
:104B60002551354808F065FA58B140F225513248D0
:104B700008F0EAFA3048001D0088C4B22046FFF76A
:104B8000BAFF40F227712C4808F053FAC0B1304800
:104B900001780078401C2E4A10702948405C264954
:104BA000091D08801046007824490978884207D1F9
:104BB00021480C30008820F080001F490C3108800B
:104BC00010BD10B58AB0044606A807F054FD0121B7
:104BD000880404F0CFF80121022004F008F827200F
:104BE0008DF80C0002208DF80D0000208DF80E00CD
:104BF00001208DF80F0003A800F04BFC07220A21CA
:104C0000144803F0B9FB07220B21124803F0B4FB50
:104C100022E000000000024000100140D10400200A
:104C2000A40E0020D2040020A40F0020D3040020F2
:104C3000D0040020000C024000440040D5040020B5
:104C400008100020D604002008110020D7040020FE
:104C5000D4040020000402404FF480600190022040
:104C60008DF808008DF8090000208DF80A00012059
:104C70008DF80B0001A9FE4803F06AF84FF40060BC
:104C8000019002208DF808008DF8090001208DF8B0
:104C90000A0000208DF80B0001A9F54803F058F830
:104CA00006940020ADF81C00ADF81E00ADF8200001
:104CB000ADF824000C20ADF822000020ADF8100063
:104CC000ADF812004FF40070ADF814000020ADF8FC
:104CD000160006A9E74807F0EAFB04A9E54807F033
:104CE000D6FC012240F22551E24808F07CF801216F
:104CF000E04807F025FD0AB010BD70B505460E4628
:104D000000240AE0295DDC4802780078401CDA4B78
:104D10001870DA488154601CC4B2B442F2DBD54842
:104D20000C30008800F0800028B9012240F2277181
:104D3000D04808F058F870BDD1490A780978491C64
:104D4000CF4B1970CF49885419460978642902DB82
:104D500000211A461170704700B510E0CA490A7860
:104D60000978491CC84B1970C649885CFFF734FDA7
:104D7000C5480078642802DB0020C3490870C04899
:104D80000078C14909788842E8D100BD10B5B9481A
:104D9000008800F0080018B1B648001D0088C4B2B1
:104DA00040F22551B34808F044F958B140F225517A
:104DB000B04808F0C9F9AF48001D0088C4B22046C9
:104DC000FFF7BAFF40F22771AA4808F032F9C0B1E4
:104DD000AE4801780078401CAC4A1070A748405C8F
:104DE000A449091D088010460078A3490978884223
:104DF00007D1A0480C30008820F080009D490C317C
:104E0000088010BD10B588B0044604A807F033FC34
:104E10000121C80403F0AEFF0121084603F0E7FEBC
:104E200034208DF80C0003208DF80D0001208DF842
:104E30000E008DF80F0003A800F02BFB08220021C4
:104E4000934803F099FA08220121914803F094FA5B
:104E50000120019002208DF808008DF80900002043
:104E60008DF80A0001208DF80B0001A9884802F096
:104E70006FFF022001908DF808008DF809000120D5
:104E80008DF80A0000208DF80B0001A9804802F07F
:104E90005FFF04940020ADF81400ADF81600ADF8E3
:104EA0001800ADF81C000C20ADF81A0004A97948D0
:104EB00007F0FDFA012240F22551764807F093FFF2
:104EC0000121744807F03CFC08B010BD70B50546E0
:104ED0000E4600240AE0295D6F4802780078401CE5
:104EE0006D4B18706D488154601CC4B2B442F2DB43
:104EF00068480C30008800F0800028B9012240F298
:104F00002771644807F06FFF70BD65490A7809781A
:104F1000491C634B19706349885419460978642900
:104F200002DB00211A461170704710B510E05E498F
:104F30000A780978491C5C4B19705A49885CFEF75D
:104F4000D7FC59480078642802DB002056490870D5
:104F500053480078544909788842E8D110BD10B50B
:104F60004C48008800F0080018B14A48001D00882D
:104F7000C4B240F22551474808F05BF858B140F2FE
:104F80002551444808F0E0F84248001D0088C4B2AA
:104F90002046FFF7BAFF40F227713E4808F049F873
:104FA000C0B1424801780078401C404A10703B482C
:104FB000405C3849091D0880104600783649097858
:104FC000884207D133480C30008820F080003149F6
:104FD0000C31088010BD10B588B0044604A807F055
:104FE0004AFB0121080503F0C5FE0121042003F05E
:104FF000FEFD0121082003F0FAFD35208DF80C009C
:1050000001208DF80D0000208DF80E0001208DF894
:105010000F0003A800F03DFA08220C21244803F0F9
:10502000ABF908220221234803F0A6F94FF480507F
:10503000019002208DF808008DF8090000208DF8FD
:105040000A0001208DF80B0001A9194802F080FE2A
:105050000420019002208DF808008DF8090001203D
:105060008DF80A0000208DF80B0001A9114823E0FB
:105070000004024000480040D90400206C110020C8
:10508000DA0400206C120020DB040020D804002089
:1050900000000240004C0040DD040020D01200203F
:1050A000DE040020D0130020DF040020DC040020F8
:1050B00000080240000C024002F04AFE0494002066
:1050C000ADF81400ADF81600ADF81800ADF81C00EE
:1050D0000C20ADF81A0004A94C4807F0E8F90122A9
:1050E00040F22551494807F07EFE0121474807F06C
:1050F00027FB08B010BD70B505460E4600240AE037
:10510000295D434802780078401C414B18704148A3
:105110008154601CC4B2B442F2DB3C48808900F088
:10512000800028B9012240F22771384807F05BFE61
:1051300070BD39490A780978491C374B19703749CD
:10514000885419460978642902DB00211A46117037
:10515000704710B510E032490A780978491C304B85
:1051600019702E49885CFBF748FB2D4800786428AD
:1051700002DB00202A49087027480078284909786E
:105180008842E8D110BD10B52048008800F0080022
:1051900010B11E488088C4B240F225511B4807F068
:1051A00048FF50B140F22551184807F0CDFF17488D
:1051B0008088C4B22046FFF7BCFF40F22771134835
:1051C00007F037FFA8B1174801780078401C154A4E
:1051D00010701048405C0D498880104600780C49DA
:1051E0000978884205D10948808920F08000074964
:1051F000888110BD10B5FFF799FBFFF78CFCFFF716
:10520000ABFDFFF792FEFFF7A4FF10BD005000407A
:10521000E104002034140020E204002034150020B2
:10522000E3040020E00400200648804706480047C9
:10523000FEE7FEE7FEE7FEE7FEE7FEE7FEE7FEE746
:10524000FEE7FEE729530008890100080CB500209D
:10525000019000907648006840F4803074490860FE
:1052600000BF7348006800F4003000900198401CB3
:105270000190009818B90198B0F5A06FF1D16C4871
:10528000006800F4003010B10120009001E000201F
:1052900000900098012846D165484030006840F0F1
:1052A00080506349403108606248006840F48040A3
:1052B000604908605E48083000685D490831086050
:1052C0000846006840F4004008600846006840F462
:1052D000A05008605848091F0860081F006840F087
:1052E0008070091F086000BF5148006800F000701E
:1052F0000028F9D040F20560504908604C48083059
:10530000006820F003004A49083108600846006838
:1053100040F00200086000BF45480830006800F017
:105320000C000828F8D10CBD10B54548006840F4C1
:105330007000434908603E48006840F001003C4965
:10534000086000203A4908310860394800683D4942
:105350000840374908603C48091D0860081F00687C
:1053600020F48020091F0860002031490C310860BA
:10537000FFF76CFF4FF0006031498039086010BDC5
:1053800070B500200022022300240221284D083598
:105390002D6805F00C0020B1042806D0082834D16F
:1053A00007E02A4D2A4E356033E02A4D284E3560FD
:1053B0002FE01F4D2D1D2D68C5F380541C4D2D1D54
:1053C0002D6805F03F0154B1224DB5FBF1F5184EA3
:1053D000361D3668C6F3881605FB06F209E01B4D3C
:1053E000B5FBF1F5124E361D3668C6F3881605FB7F
:1053F00006F20F4D2D1D2D68C5F301456D1C6B0088
:10540000B2FBF3F5124E356003E0104D104E3560DF
:1054100000BF00BF064D08352D68C5F303150E4EBD
:10542000705D0B4D2D68C540094E356070BD0000A4
:10543000003802400070004008544007003C024021
:1054400088ED00E0FFFFF6FE103000240024F40099
:10545000E404002000127A00E804002010B504469D
:10546000B4F5E06F0BD0B4F5C06F08D0B4F5A06F01
:1054700005D0B4F5806F02D0B4F5407F00D103E0D1
:1054800073215F48FAF78CFE5E4820435E4908604E
:1054900010BD2DE9F0410446002500270F26E078D5
:1054A00010B1E078012800D103E087215448FAF7D1
:1054B00077FE6078102800DA03E088215048FAF778
:1054C0006FFEA078102800DA03E089214C48FAF733
:1054D00067FEE07818B34C48006800F4E060C0F55F
:1054E000E060C0F30725C5F10400C7B22E41607823
:1054F000B840C5B2A078304005432807050E4348A0
:1055000021784554207800F01F010120884021783F
:105510004911890001F1E021C1F8000109E020787A
:1055200000F01F010120884039492278521141F8CA
:105530002200BDE8F08170B504460D46B4F1005F6D
:1055400002D0B4F1006F00D103E0B1212C48FAF78A
:1055500027FE3048854200D203E0B2212848FAF7FE
:105560001FFE2D4905EA010020432749091F086055
:1055700070BD70B504460D46102C03D0042C01D02C
:10558000022C00D103E0C4211D48FAF709FE0DB139
:10559000012D00D103E0C5211948FAF701FE3DB104
:1055A0001948001D006820431749091D086006E0DE
:1055B0001548001D0068A0431349091D086070BD0F
:1055C00010B50446042C01D0601D00B903E0DC21B5
:1055D0000B48FAF7E5FD042C08D14FF0E0200069F4
:1055E00040F004004FF0E021086107E04FF0E020B8
:1055F000006920F004004FF0E021086110BD0000B8
:105600006CE400080000FA050CED00E000E400E0A6
:1056100080E100E0FFFF0F0080FFFF1F10B50121B8
:10562000080203F08DFC00214FF4807003F088FC29
:1056300010BD2DE9F04105460C4600260027F7482D
:10564000854205D0F648854202D0F648854200D111
:1056500003E0E921F448FAF7A3FD206858B1206877
:10566000B0F1807F07D02068B0F1007F03D02068C0
:10567000B0F1407F00D103E0EA21EB48FAF790FD5A
:10568000207910B12079012800D103E0EB21E64810
:10569000FAF786FD607910B16079012800D103E046
:1056A000EC21E148FAF77CFDA06858B1A068B0F1A0
:1056B000805F07D0A068B0F1005F03D0A068B0F1B0
:1056C000405F00D103E0ED21D748FAF769FDE068BB
:1056D000D8B3E068B0F1807F37D0E068B0F1007FE8
:1056E00033D0E068B0F1407F2FD0E068B0F1806F38
:1056F0002BD0E068B0F1A06F27D0E068B0F1C06FA8
:1057000023D0E068B0F1E06F1FD0E068B0F1006F27
:105710001BD0E068B0F1106F17D0E068B0F1206FD7
:1057200013D0E068B0F1306F0FD0E068B0F1406F97
:105730000BD0E068B0F1506F07D0E068B0F1606F57
:1057400003D0E068B0F1706F00D103E0EE21B648FD
:10575000FAF726FD206918B12069B0F5006F00D175
:1057600003E0EF21B048FAF71BFD207D012803DBA1
:10577000207D102800DC03E0F021AB48FAF710FD93
:105780006E68AA4806402179206840EA0120064355
:105790006E60AE68A6480640D4E903100843A168CD
:1057A0000843617940EA41000643AE60EE6A26F4A0
:1057B0007006207D401EC0B2074346EA0756EE62DF
:1057C000BDE8F08100210160017141718160C1601B
:1057D000016101210175704770B5044600252068FC
:1057E00018B32068012820D0206802281DD0206826
:1057F00005281AD02068062817D02068072814D05A
:105800002068092811D0206811280ED0206812289D
:105810000BD02068152808D02068162805D02068ED
:10582000172802D02068192800D104E04FF4A9718C
:105830007D48FAF7B5FC606858B16068B0F5803F04
:1058400007D06068B0F5003F03D06068B0F5403F16
:1058500000D104E040F253117348FAF7A1FCA068AC
:1058600058B1A068B0F5804F07D0A068B0F5004FE0
:1058700003D0A068B0F5404F00D104E04FF4AA7106
:105880006948FAF78DFCE068D8B3E068B0F5807F2E
:1058900037D0E068B0F5007F33D0E068B0F5407FE6
:1058A0002FD0E068B0F5806F2BD0E068B0F5A06F26
:1058B00027D0E068B0F5C06F23D0E068B0F5E06FA6
:1058C0001FD0E068B0F5006F1BD0E068B0F5106F36
:1058D00017D0E068B0F5206F13D0E068B0F5306FF6
:1058E0000FD0E068B0F5406F0BD0E068B0F5506FB6
:1058F00007D0E068B0F5606F03D0E068B0F5706F76
:1059000000D104E040F255114748FAF749FC4948F4
:10591000056849480540D4E900010843A1680843E7
:10592000E168084305433D48C0F8045370BD0021B9
:10593000016041608160C160704770B504460D46EA
:105940003648844205D03648844202D035488442E5
:1059500000D104E040F28B113348FAF721FC0DB17D
:10596000012D00D104E04FF4C6712F48FAF718FC5E
:1059700025B1A06840F00100A06003E0A06820F01D
:105980000100A06070BD70B505460C460026234896
:10599000854205D02248854202D02248854200D166
:1059A00004E04FF4E3712048FAF7FAFB23488442FD
:1059B0000FD0234884420CD02248844209D0B4F549
:1059C000000F06D0B4F5800F03D0B4F5400F00D01F
:1059D00004B904E040F2C7111348FAF7E1FB6E681E
:1059E0001848C043064026436E6070BD70B504463B
:1059F0000E4615460948844205D00948844202D023
:105A00000848844200D104E040F2E3110648FAF766
:105A1000C7FBB6F5805F17DA1BE0000000200140ED
:105A20000021014000220140B4E40008FFFEFFFC19
:105A3000FDF7FFC004230140E030FCFF00028000BE
:105A4000000240000002C0004FF4F271FD48FAF776
:105A5000A7FBB5F5805F00DA04E040F2E511F948F4
:105A6000FAF79EFB6662A56270BD70B505460C46EE
:105A70000026F548854205D0F448854202D0F44816
:105A8000854200D104E04FF40371EE48FAF788FB39
:105A90001CB3012C21D0022C1FD0032C1DD0042CB0
:105AA0001BD0052C19D0062C17D0072C15D0082C8C
:105AB00013D0092C11D00A2C0FD00B2C0DD00C2C8C
:105AC0000BD00D2C09D00E2C07D00F2C05D0102C8C
:105AD00003D0112C01D0122C00D104E040F20D2192
