:020000040800F2
:10000000301B0020A14D000831390008AB4D00081D
:1000100033390008373900083B3900080000000078
:100020000000000000000000000000003F39000850
:100030004139000800000000B74D0008113A0008DF
:10004000BB4D0008BB4D0008BB4D0008BB4D000870
:10005000BB4D0008BB4D0008BB4D0008BB4D000860
:10006000BB4D0008BB4D0008BB4D0008BB4D000850
:10007000BB4D0008BB4D0008BB4D0008BB4D000840
:10008000BB4D0008BB4D0008BB4D0008BB4D000830
:10009000BB4D0008BB4D0008BB4D000843390008AC
:1000A000BB4D0008BB4D0008BB4D0008BB4D000810
:1000B0007F230008553900085D390008BB4D000852
:1000C000BB4D0008BB4D0008BB4D0008BB4D0008F0
:1000D000BB4D0008793900088139000889390008CA
:1000E000BB4D0008BB4D0008BB4D0008BB4D0008D0
:1000F000BB4D0008BB4D0008BB4D0008BB4D0008C0
:10010000BB4D0008BB4D0008BB4D0008BB4D0008AF
:100110009139000899390008BB4D00085F39000883
:10012000BB4D0008BB4D0008BB4D0008BB4D00088F
:10013000BB4D0008BB4D0008BB4D0008BB4D00087F
:10014000BB4D0008BB4D0008BB4D0008BB4D00086F
:10015000BB4D0008BB4D0008BB4D0008A13900088D
:10016000BB4D0008BB4D0008BB4D0008BB4D00084F
:10017000BB4D0008BB4D0008BB4D0008BB4D00083F
:10018000BB4D0008BB4D0008DFF810D00DF0C8F8DB
:1001900000480047A5010008AFF30080301B002095
:1001A00000BFFEE702F0B2F900F05BF801E000F0FA
:1001B0007EF8FCE710B501F01BFC00204F490860F9
:1001C0004F4908604F4908604F4908604F48006830
:1001D00008B101F058FD4E48006808B101F081FDFA
:1001E0004C48006808B101F002FD4B48006808B1B6
:1001F00001F0A5FD4948006808B101F0DEFC48485F
:10020000006808B101F0BFFC4648006808B101F081
:1002100046FE4548006808B101F092FC434800687A
:1002200018B1012002F03FF902E0002002F03BF992
:100230003F48006818B101F0B0FD01F015FE10BD97
:10024000704770477047704710B501F05AFF01F0D2
:10025000CFFB01F0A1FF3749086000F06FF810BD37
:100260007047002000BF1FE000EB4001324A02EB64
:10027000810189884FF47A7292FBF1F100EB400220
:100280002D4B03EB8202D18000EB40011A4602EBBA
:100290008101C988012905DA012100EB400203EB45
:1002A0008202D180411CC8B20728DDD3704770B5E7
:1002B000002400BF1EE003F0B5FB054604EB44003C
:1002C0001D4901EB80008068281A04EB44011A4A9A
:1002D00002EB8101C98888420AD304EB440011462D
:1002E00001EB8000856004EB440152F82100804757
:1002F000601CC4B2072CDED370BD0000F8000020E3
:10030000F0000020F4000020FC0000200C01002080
:10031000280100203C0100202C0100203801002091
:10032000340100203001002040010020680100203D
:10033000C8000020600100200000002010B52DED55
:10034000048B924890F83800002873D18F48B0F998
:100350004400B0F5487F10DD8C48B0F94400B0F59A
:10036000966F0ADA8A48007850B901F08DF888490A
:10037000087000208749086002E000208449087066
:100380008248B0F9440040F2A46188420FDD7F4802
:10039000B0F9440040F69801884208DA7E480078B7
:1003A00040B901207C4908707C49087002E00020B7
:1003B000794908707848007801287DD1774800781D
:1003C0000A287AD2DFE800F00509122B3759959BED
:1003D000D1D6002072490880D0E0022000F0F2FF60
:1003E0006E49097808446D490870C7E000206D49DE
:1003F0000860684908606C4908606C4908606C498D
:1004000008606C4908606C4908606C49086000F03D
:10041000A1FF62490978084460490870AEE04FF4D2
:10042000FA6001F08EFD664800680CF023FE654A14
:1004300003C2A3E0A6E001206049086062480068AA
:100440000CF0E8FD614A03C2614800680CF0E2FD6F
:10045000604A03C2012055490860564908609FED73
:100460005E0B5F4880ED000B01204A4908604B4855
:100470000078401C4949087080E05A4800680CF038
:10048000C9FD41EC190B564890ED000B53EC102BB5
:1004900051EC190B0CF049FD41EC180B9FED520B80
:1004A00053EC102B0CF012FE22D24E4800680CF0D8
:1004B000B1FD41EC190B01E061E05EE0484890EDD0
:1004C000000B53EC102B51EC190B0CF02EFD41ECF2
:1004D000180B9FED470B53EC102B0CF0DFFD07D2F0
:1004E0002E480078401C2D490870002029490860DA
:1004F00044E02A480078401C284908703EE0304813
:1005000000680CF0B7FD41EC190B2E4890ED000B84
:1005100053EC102B51EC190B0CF007FD41EC180BB0
:100520009FED310B53EC102B0CF0D0FD1CD2244866
:1005300000680CF09FFD41EC190B224890ED000B78
:1005400053EC102B51EC190B0CF0EFFC41EC180B99
:100550009FED270B53EC102B0CF0A0FD04D20F489D
:100560000078401C0D49087008E043F6982001F01F
:10057000E8FC03E000F088FF00E000BF02E000209C
:1005800006490870BDEC048B10BD0000860A0020EF
:100590005C0000200C0100205D00002056000020BF
:1005A00054000020400100202401002028010020E8
:1005B0003C0100202C0100203401002030010020EB
:1005C0009000002000010020AC000020D800002096
:1005D000B0000020E00000200000000000005E40AD
:1005E000D0000020A800002000000000000008C08B
:1005F0000000000000000840FF20F84981F84E008C
:100600006421F648A0F850100121A0F85210FF20F4
:10061000F24981F880011421F048A0F882110021EC
:10062000A0F88411FF20ED4981F820010021EB485A
:10063000A0F82211A0F82411FF20E84981F8320126
:100640000021E648A0F83411A0F83611FF20E34954
:1006500081F838010021E148A0F83A11A0F83C11D6
:10066000FF20DE4981F886010021DC48A0F88811CE
:10067000A0F88A11FF20D94981F840050021D74808
:10068000A0F84215A0F84415FF20D44981F84C0584
:100690000021D248A0F84E15A0F85015704770B54B
:1006A00004460D462946204604F0E1FA70BDCB4AC7
:1006B00010700122C94B5A707047C84A82F84C0525
:1006C000012382F84D3570472DE9F04104460D466F
:1006D00000260027E178A81F814201D0BDE8F08103
:1006E000002006E0215C3144CEB2B919CFB2411CE2
:1006F000C8B2A91E8142F5DC601910F8020CB042A4
:1007000004D1601910F8010CB84200D0E6E7207857
:10071000AA2805D16078612803D06078FF2800D02E
:10072000DCE7A078202811D1A088AD490880E088B6
:100730004880208988806089C880A0890881E089F4
:100740004881208A8881608AC881AEE0A0780F281D
:100750000DD1207940B2A3490870607940B2487049
:10076000A07940B28870E07940B2C8709DE0A0786E
:1007700006280CD120799C4948706079C870A0790E
:100780000871E17998484171217A81718DE0A078F2
:1007900007280AD1002005E0211D095C934A115465
:1007A000411CC8B20628F7DB7FE0A07803280AD1F5
:1007B000002005E0211D095C8D4A1154411CC8B27E
:1007C0000728F7DB71E0A07803280AD1002005E0B4
:1007D000211D095C874A1154411CC8B20928F7DB66
:1007E00063E0A078012860D0A078E0281ED12079AD
:1007F000012806D0022805D0102804D0112804D1E1
:1008000002E003E002E001E000E000BF00BF207969
:10081000724981F80C06084680F80D6680F80E765D
:1008200000F20C61AF20FFF742FF3EE0A078B0B9C4
:100830006A4890F80F062179884236D1674890F8C7
:1008400010066179884230D1644890F81106A17988
:1008500088422AD10020614981F8000625E0A0786D
:10086000E12811D12179607901EB00201FFA80F88D
:100870005A48A0F814860021C0F8181600F2146136
:10088000FF20FFF71AFF10E0A078E2280DD12079B1
:10089000524981F80C06084680F80D6680F80E76FD
:1008A00000F20C61FF20FFF702FF00BF16E710B552
:1008B00004465148007838B9AA2C05D101204E4988
:1008C00008704E48047072E04B480078012809D146
:1008D000612C01D0FF2C05D1022047490870474800
:1008E000447064E044480078022805D1032042495E
:1008F0000870424884705AE03F48007803280CD1C1
:10090000FA2C0ADA04203C4908703C48C4703C4880
:10091000047000203B49087049E0374800780428FB
:1009200019D137480078002815DD35480078401E79
:10093000334908703348007832490978491C314AF4
:100940001170001D2D490C542D48007858BB05200E
:10095000294908702BE02848007805280DD1062089
:10096000254908702748007826490978491C254AF6
:100970001170001D21490C5419E01F480078062809
:1009800012D100201C4908701E480078001D1B4928
:100990000C541C480078401D1B490870084601781B
:1009A0001648FFF791FE02E000201349087010BDC1
:1009B0007CB50346342B68D007DC3BB30D2B3CD011
:1009C000302B47D0332B6ED151E0402B6FD0412BD1
:1009D0007AD0E02B6AD0E22BF5D196E0EC02002031
:1009E000160A002070020020700A00206F0000200C
:1009F00068000020260A002062000020080900206C
:100A000060000020610000205E000020FFE7D64863
:100A100090F80C460D78681C08705455D24890F830
:100A20000D460D78681C08705455CF4890F80E4656
:100A30000D78681C0870545596E0002007E0CB4CF8
:100A4000255C0E78741C0C709555441CE0B204288B
:100A5000F5DB89E0002007E0C54C255C0E78741CAE
:100A60000C709555441CE0B21728F5DB7CE00020A3
:100A700008E0BF4C193C255C0E78741C0C70955531
:100A8000441CE0B20628F4DB6EE0002008E0B84C1D
:100A9000E41F255C0E78741C0C709555441CE0B264
:100AA0000728F4DB60E05EE001E00DE019E00020E3
:100AB00007E0B04C255C0E78741C0C709555441CF6
:100AC000E0B21428F5DB4FE0002007E0AA4C255CDB
:100AD0000E78741C0C709555441CE0B20E28F5DBA2
:100AE00042E0A14890F801460D78681C0870545502
:100AF000002007E0A14C255C0E78741C0C70955505
:100B0000441CE0B20A28F5DB2EE09748B0F8140642
:100B100000B201909DF804400D78681C087054558F
:100B20009DF805400D78681C087054558E48D0F823
:100B3000180600909DF800400D78681C0870545508
:100B40009DF801400D78681C087054559DF80240CE
:100B50000D78681C087054559DF803400D78681C8A
:100B60000870545500E000BF00BF7CBDF8B50446D6
:100B70000F4600200090AA219DF80020501CC0B212
:100B800000907F48815439789DF80020501CC0B2F5
:100B900000907B4881549DF80010481CC0B2009022
:100BA0007748445400219DF80020501CC0B20090AA
:100BB00073488154024669462046FFF7F9FE9DF8C6
:100BC0000000001F6E49C87000250026002007E0C5
:100BD0006B49095C2944CDB27119CEB2411CC8B22F
:100BE0009DF800108842F3DB9DF80010481CC0B24D
:100BF0000090634845549DF80010481CC0B2009016
:100C00005F484654584890F8000640B1E02C06D1A1
:100C1000554880F80F4680F8105680F811669DF808
:100C200000105748FFF73BFDF8BD10B5044604EB34
:100C300044004D4901EB4000408828B304EB4400D8
:100C400001EB4000808804EB4401474A02EB41017C
:100C5000498888420CDA04EB4400114601EB40005D
:100C60008088401C04EB440102EB410188800BE0CA
:100C7000012004EB44013C4A02EB4101888004EB73
:100C8000440102EB4101487004EB4400364901EB9A
:100C90004000407868B1002004EB4401324A02EB86
:100CA0004101487004EB440002EB40012046FFF78D
:100CB0005DFF10BD2C4A82F84005012382F84135C2
:100CC0000122294B83F80026704710B52DED028BC9
:100CD000B0EE408A00F01BF83020FFF7A6FF33206B
:100CE000FFF7A3FF3420FFF7A0FF4020FFF79DFF91
:100CF0004120FFF79AFFE020FFF797FFE220FFF780
:100D000094FF0D20FFF791FFBDEC028B10BD16483C
:100D100090F80006012821D11A480078322805DA17
:100D200018480078401C174908701CE0002015493D
:100D3000087015480078401C134908700846007870
:100D4000052804DA0121084880F841150BE000204D
:100D50000D490870044981F8000604E000200949A3
:100D60000870094908707047EC02002064000020F8
:100D7000590A0020C00A0020080A0020EE080020BE
:100D8000B8020020630000205F00002000B52DEDB8
:100D9000028B85B0B0EE408AFE4890F839000028FA
:100DA0007ED1FC48B0F94200B0F5966F06DA01201A
:100DB00000F008FB0020F849086013E0F548B0F99E
:100DC000420040F2A461884206DA022000F0FAFAFA
:100DD0000020F149086005E0022000F0F3FA01204C
:100DE000ED490860EC48006801281AD1002016E09F
:100DF000E8493A3131F9101040F2145291420DDDB8
:100E0000E4493A3131F9101040F2A462914205DA16
:100E100040F2DC52DF493A3121F81020401C04280E
:100E2000E6DBDC48B0F93A00A0F2DC5000EE900AB4
:100E3000F8EEE00AB0EE600A9FEDD81ADFEDD80AAE
:100E400001F0C8FF8DED010AD248B0F93C00A0F2D4
:100E5000DC5000EE900AF8EEE00AB0EE600A9FED7A
:100E6000CF1ADFEDCF0A01F0B5FF8DED020AC948B8
:100E7000B0F93E00A0F2DC5000EE900AF8EEE00A75
:100E8000B0EE600A9FEDC71ADFEDC50A01F0A2FFC0
:100E90008DED030ABF48B0F94000A0F2DC5000E03D
:100EA0007AE000EE900AF8EEE00AB0EE600A9FEDFC
:100EB000BD1ADFEDBB0A01F08DFF8DED040ABA48C3
:100EC000007858B19FEDB60A8DED010A9FEDB40A86
:100ED0008DED020A9FEDB20A8DED040A9DED010A27
:100EE000DFEDB20A20EE200ADFEDB10A20EE200A83
:100EF000BDEEC00A10EE100A00B2AE4908809DEDAA
:100F0000020AB1EE400ADFEDA90A20EE200ADFED69
:100F1000A80A20EE200ABDEEC00A10EE100A00B2A8
:100F200048809C48C08FA0F57A7000B288809DED03
:100F3000040AB1EE400ADFEDA00A20EE200ADFED40
:100F40009F0A20EE200ABDEEC00A10EE100A00B281
:100F5000C88091480068012814D10020088048808A
:100F6000888097480088404200B2C8809548008831
:100F700000B208819448008800B2488193480088F4
:100F800000B288810121924880F8871100209149A0
:100F90000870914908701EE09048C07878B18D487B
:100FA000007828B9032000F00DFA8A49087006E09D
:100FB0008948007818B900F02DFA87490870002098
:100FC0007C49088048804FF4AF7088800020C8803A
:100FD00088814881088105B0BDEC028B00BD10B549
:100FE00004467F48008800EE100AB8EE400ADFEDA4
:100FF0007D0A20EE200ABDEEC00A10EE100A00B2F3
:10100000794908807648408800EE100AB8EE400A18
:10101000DFED740A20EE200ABDEEC00A10EE100AC1
:1010200000B248806E48808800EE100AB8EE400A90
:10103000DFED6C0A20EE200ABDEEC00A10EE100AA9
:1010400000B288806648C08800EE100AB8EE400AF8
:10105000DFED640A20EE200ABDEEC00A10EE100A91
:1010600000B2C8805E48008900EE100AB8EE400A5F
:10107000DFED5C0A20EE200ABDEEC00A10EE100A79
:1010800000B208815648408900EE100AB8EE400AC6
:10109000DFED540A20EE200ABDEEC00A10EE100A61
:1010A00000B248814E48808900EE100AB8EE400A2E
:1010B000DFED4C0A20EE200ABDEEC00A10EE100A49
:1010C00000B288814648C08900EE100AB8EE400A96
:1010D000DFED440A20EE200ABDEEC00A10EE100A31
:1010E00000B2C8814148007818B901203F49087012
:1010F00027E0E4B1002017E03B4931F91010002946
:1011000001DC00210BE0384931F91010B1F57A7F8C
:1011100002DD4FF47A7102E0334931F91010324A9E
:1011200022F81010411CC8B20828E5DB09E00020B5
:1011300005E000212C4A22F81010411CC8B20828F2
:10114000F7DB294802F081FF10BD10B502F03CFD2D
:10115000DFED270A20EE200ABCEEC00A10EE100ACE
:101160002449088010BD10B523480088401C22493E
:101170000880084600880A2190FBF1F201FB12006A
:101180001D49088008460088D0BB9FED1C0A01F06D
:1011900089FB36E0860A002008010020000020427A
:1011A000000000000000A042820000208F360E3BAD
:1011B00000C05A45080A0020C6F91B3B00004843FE
:1011C000FC000020F0000020F4000020F8000020C7
:1011D000EC0200207500002076000020700A00203C
:1011E000160A0020CDCCCC3D300A0020770000202C
:1011F0000000C84264000020780000200AD7233C89
:101200001EE01FED020AFFF7C1FD1FED040A00F00A
:10121000D3FB1FED060A02F017F813484088401C64
:1012200011494880084640880A2190FBF1F201FBF1
:1012300012000D4948800846408808B9FFF785FF2D
:1012400003F094FD012002F09FF99FED080A00F0E1
:101250000FF89FED060AFFF738FD0120FFF7BFFEEC
:1012600002F053FD10BD0000780000206F12833A99
:1012700010B52DED028BB0EE408A00F020F800BFD3
:101280002D4840782D490978884214D02A48407862
:101290002A49087000202A4988744FF48771284829
:1012A000A0F813102448C1692548C0F81510012181
:1012B000244880F8391100BFBDEC028B10BD2248D4
:1012C0000078FF2804D020480078401C1E49087090
:1012D000194800781D490978884216D016480078C8
:1012E0001A4908701448007A50B11348C07838B1D0
:1012F00011484089124908800F488089488004E0DD
:101300004FF400400E49088048800B48407810494F
:10131000097888420ED0084840780D4908704FF48B
:101320000040074988800121064880F833110020D9
:101330000549087070470000F40A00207F00002073
:10134000400A0020EC0200207E0000207C000020EB
:101350007D00002010B50120FE498870FE4890F8FD
:10136000000688B91020FC4981F801060021FA48DE
:1013700080F80216012180F8031600F20161FF20B7
:10138000FFF798FC012010BD0020FCE710B50020FD
:10139000F0498870F04890F8000688B91020EE49AE
:1013A00081F801060021EC4880F80216022180F83D
:1013B000031600F20161FF20FFF77CFC012010BD45
:1013C0000020FCE710B50446E4480078A0421FD096
:1013D000E14890F80006C8B9DE480470DF480470A0
:1013E0000120DD4981F801060121DB4880F8021661
:1013F00080F80316D7480178D74880F8041600F221
:101400000161FF20FFF756FC012010BD0020FCE722
:101410000120FAE710B5D04890F8000688B91020EE
:10142000CD4981F801060021CB4880F8021607213A
:1014300080F8031600F20161FF20FFF73BFC01205A
:1014400010BD0020FCE701B5C34890F80006C8B9FC
:101450001020C14981F801060021BF4880F802161A
:10146000052180F803169DF8001080F804169DF8F9
:10147000011080F8051600F20161FF20FFF71AFC49
:10148000012008BD0020FCE710B5B34890F8000625
:1014900088B91020B04981F801060021AE4880F8D3
:1014A0000216062180F8031600F20161FF20FFF703
:1014B00001FC012010BD0020FCE710B5A64890F803
:1014C000000688B91020A44981F801060021A2482D
:1014D00080F80216042180F8031600F20161FF2053
:1014E000FFF7E8FB012010BD0020FCE707B59A4894
:1014F00090F8000648BB1020974981F801060221A8
:10150000954880F80216032180F803169DF8001014
:1015100080F804169DF8011080F805169DF8041057
:1015200080F806169DF8051080F807169DF808103B
:1015300080F808169DF8091080F8091600F201617C
:10154000FF20FFF7B7FB01200EBD0020FCE713B51D
:10155000814890F8000608BB10207F4981F80106F9
:1015600002217D4880F80216012180F803169DF8BB
:10157000001080F804169DF8011080F805169DF8FB
:10158000041080F806169DF8051080F8071600F282
:101590000161FF20FFF78EFB01201CBD0020FCE74E
:1015A00013B56D4890F8000600BB10206A4981F819
:1015B00001060221684880F8021680F803169DF89B
:1015C000001080F804169DF8011080F805169DF8AB
:1015D000041080F806169DF8051080F8071600F232
:1015E0000161FF20FFF766FB01201CBD0020FCE726
:1015F00013B5594890F8000608BB1020564981F8E9
:1016000001060221544880F80216072180F80316CB
:101610009DF8001080F804169DF8011080F805165A
:101620009DF8041080F806169DF8051080F807163E
:1016300000F20161FF20FFF73DFB01201CBD0020EF
:10164000FCE713B5444890F8000608BB1020424957
:1016500081F801060221404880F80216082180F82E
:1016600003169DF8001080F804169DF8011080F80C
:1016700005169DF8041080F806169DF8051080F8F0
:10168000071600F20161FF20FFF714FB01201CBDCB
:101690000020FCE710B5304890F8000688B901201A
:1016A0002D4981F8010600212B4880F802160321FC
:1016B00080F8031600F20161FF20FFF7FBFA01201A
:1016C00010BD0020FCE710B5234890F8000688B94B
:1016D0000120214981F8010600211F4880F80216E7
:1016E000042180F8031600F20161FF20FFF7E2FAFF
:1016F000012010BD0020FCE710B5174890F8000647
:1017000088B90120144981F801060021124880F8A7
:101710000216052180F8031600F20161FF20FFF791
:10172000C9FA012010BD0020FCE710B50A4890F866
:101730000006C8B90120084981F8010600210648C1
:1017400080F80216022180F8031600F20161FF20E2
:1017500006E00000700A0020EC020020800000205B
:10176000FFF7A8FA012010BD0020FCE710B50446E1
:101770009848B0F94000B0F5AF6F0BDD9548B0F96F
:101780004000B0F5C86F05DA0120934948709349CD
:10179000087002E00020904948708E48B0F93E0081
:1017A000B0F5966F06DA8C48407818B901208A495E
:1017B000087002E0002088490870884800780128F5
:1017C0004AD18748C078002853D18248B0F93A00FE
:1017D00040F26C71884210DD7E48B0F93C0040F266
:1017E0004C41884209DA7B48B0F93E00884204DA6D
:1017F0007848B0F94000884217DB7648B0F94000DD
:1018000040F26C71884230DD7248B0F93C0040F221
:101810004C41884229DA6F48B0F93E00884224DA08
:101820006C48B0F93A0088421FDA6E480088B0F57B
:101830007A7F12DAD4ED000A6A48008800EE100AB6
:10184000B8EE400A9FED681A00EE810ABCEEC00AAD
:1018500010EE100A6349088062E0FFF77BFD00206C
:10186000604908805D4908705AE000205D490880A1
:1018700056E05B48C078012852D15648B0F93A008A
:1018800040F26C71884210DD5248B0F93C0040F2E1
:101890004C41884209DA4F48B0F93E00884204DAE8
:1018A0004C48B0F94000884217DB4A48B0F9400084
:1018B00040F26C71884230DD4648B0F93C0040F29D
:1018C0004C41884229DA4348B0F93E00884224DA84
:1018D0004048B0F93A0088421FDA42480088B0F523
:1018E000967F12DAD4ED000A3E48008800EE100A16
:1018F000B8EE400A9FED3C1A00EE810ABCEEC00A29
:1019000010EE100A374908800AE0FFF73FFD00207B
:10191000344908803149087002E0002031490880CC
:1019200010BD10B52E48C078002844D12948B0F920
:10193000400040F24C41884217DA2648B0F93C009A
:10194000884212DA2348B0F93E0088420DDA214875
:10195000B0F93A00884208DA2448007838BBFFF72B
:1019600099FE01202149087025E01A48B0F940008D
:1019700040F26C7188421BDD1648B0F93C0040F221
:101980004C41884214DA1348B0F93E0088420FDA1D
:101990001048B0F93A0040F26C71884208DD1348F3
:1019A000007820B9FFF78FFE01201049087002E08F
:1019B00000200E49087010BD10B52DED020B054832
:1019C00090F8390020B96846FFF7D0FEFFF7A9FF6D
:1019D0001CBD0000860A0020820000208600002036
:1019E000700A00208400002000007A448700002054
:1019F000F748B0F90000642190FBF1F000EE100A06
:101A0000B8EEC00AF34880ED000AF148B0F90200D0
:101A100090FBF1F000EE100AB8EEC00AEE4880ED3F
:101A2000000AEB48B0F9040000EE100AB8EEC00A54
:101A3000EA4880ED000AEA4890ED000ADFEDE90A85
:101A4000B4EEE00AF1EE10FA12DDE44890ED000A7F
:101A5000DFEDE50AB4EEE00AF1EE10FA08D2E34851
:101A600090ED000AF7EE000A30EE200A80ED000A41
:101A7000DB4890ED000ADFEDDC0AB4EEE00AF1EE9F
:101A800010FA12D2D54890ED000ADFEDD60AB4EE76
:101A9000E00AF1EE10FA08DDD44890ED000AF7EE06
:101AA000000A30EE600A80ED000ACC48D0ED000A52
:101AB0009FEDCF1A80EE810ACC48D0ED000A9FED51
:101AC000CD1A00EE810ACC4880ED000AC34890EDA3
:101AD000000AC34880ED000AC848808AC8490880C7
:101AE000C648C08AC7490880C448B0F91800C6492A
:101AF0000860C248B0F91A00C4490860BF48C0690C
:101B0000C34908607047B4EEE00AF1EE10FA02DD56
:101B1000B0EE600A0AE0B1EE601AB4EEC10AF1EE6E
:101B200010FA03D2B1EE601AB0EE410A7047884253
:101B300001DD084603E04A42904200DA484270471D
:101B400000B56FF00500B34908606FF00E00B249B0
:101B50000860B248B0F9000000EE100AF8EEC00AC2
:101B6000AF4890ED001ABAEE0E0A00EE810ABDEE03
:101B7000C00A084680ED000A1E210068FFF7D7FF63
:101B8000A549086000BD00B5A448B0F90000404276
:101B900000EE100AB8EEC00AA248D0ED000A20EE0E
:101BA000200ABDEEC00A9B4880ED000A142100689F
:101BB000FFF7BDFF9749086000BD00B59A48B0F92E
:101BC0000000404200EE100AB8EEC00A9548D0ED81
:101BD000000A20EE200ABDEEC00A8E4880ED000A01
:101BE00014210068FFF7A3FF8A49086000BD10B503
:101BF0002DED088B8D480068B0F57A7F27DC8C4886
:101C000000680BF037FA41EC190B884800680BF0BC
:101C100001FA41EC1B0B874890ED000B53EC102BA5
:101C200051EC1B0B0BF07EF941EC1A0B53EC192B0A
:101C30000BF07EF941EC180B0BF0FDF97E490860C2
:101C40000F217D480068FFF772FF7B490860BDECFB
:101C5000088B10BD00B57948B0F9000000EE100AFD
:101C6000B8EEC00A7648D0ED000A20EE200ABDEE9C
:101C7000C00A744880ED000A0A210068FFF757FF88
:101C80007049086000BD10B52DED088B6E480068E6
:101C90000BF0F0F941EC190B5D4800680BF0BAF954
:101CA00041EC1B0B694890ED000B53EC102B51ECF1
:101CB0001B0B0BF03AF941EC1A0B53EC192B0BF000
:101CC00037F941EC180B0BF0B6F95E4908601421A6
:101CD0005C480068FFF72BFF5A490860BDEC088B91
:101CE00010BD10B52DED088B594800680BF0C2F9F6
:101CF00041EC190B444800680BF08CF941EC1B0BCC
:101D0000544890ED000B53EC102B51EC1B0B0BF0D7
:101D10000CF941EC1A0B53EC192B0BF009F941ECBF
:101D2000180B0BF088F944490860142142480068F8
:101D3000FFF7FDFE40490860BDEC088B10BD10B5F3
:101D40002DED088B424800680BF094F941EC190B1B
:101D50002E4800680BF05EF941EC1B0B3E4890EDFD
:101D6000000B53EC102B51EC1B0B0BF0DEF841EC8D
:101D70001A0B53EC192B0BF0DBF841EC180B0BF0A2
:101D80005AF924490860142122480068FFF7CFFE61
:101D900020490860BDEC088B10BD00B52F480068D5
:101DA0002F490968401A00EE100AB8EEC00A2D4803
:101DB000D0ED000A20EE200ABDEEC00A1E4880EDDC
:101DC000000A14210068FFF7B2FE1B49086000BD3D
:101DD00068000020880000208C0000209400002073
:101DE0009800002000A00C4600A00CC69C0000201B
:101DF0000000C8420000B44390000020F40A002014
:101E0000A0000020A2000020AC000020B0000020B4
:101E1000A8000020F4000020FC0000202001002089
:101E200050010020480100201C010020600100201A
:101E30004C010020E8000020F000002018010020E4
:101E400044010020F800002058010020D0000020AC
:101E500054010020D8000020E0000020C000002035
:101E6000B4000020BC00002000B5AC480068AC49BC
:101E70000968401A00EE100AB8EEC00AA948D0ED71
:101E8000000A20EE200ABDEEC00AA74880ED000A35
:101E900014210068FFF74BFEA349086000BD10B590
:101EA0002DED088BA14800680BF0E4F841EC190B0C
:101EB0009F4800680BF0DEF841EC1B0B9D4890ED4D
:101EC000000B53EC102B51EC1B0B0BF02EF841ECDC
:101ED0001A0B53EC192B0BF02BF841EC180B0BF0F1
:101EE000AAF895490860142193480068FFF71FFE7F
:101EF00091490860BDEC088B10BD10B58F48006893
:101F0000C0B99FED8F0B904880ED000B8F480068A3
:101F10000A280CDA8E480068401C8D490860084683
:101F20000068052806DD01208449086002E00020E1
:101F30008749086081480068012801D1FFF726FA27
:101F400010BD84490988814205DA82490988323105
:101F5000804A118007E000217E4A11807E4909787D
:101F6000491C7D4A117070477C49098829B90A28A3
:101F700003D10121794A118034E078490988012987
:101F800005D1774908700221744A11802AE073490B
:101F90000988022905D17349087003216F4A11800D
:101FA00020E06E490988032905D16F490870042192
:101FB0006A4A118016E069490988042905D16B49EC
:101FC00008700521654A11800CE0644909880529DB
:101FD00005D1674908700021604A118002E00021A4
:101FE0005E4A11805E490978624A11706249097837
:101FF00009BB5D490978614A1180114609780902D7
:1020000009B211801146B1F90010564A12781143F5
:102010005A4A118056490978594A1180114609785F
:10202000090209B211801146B1F900104F4A127825
:102030001143534A11804F490978012910D14A4967
:102040000978504A118011460978090209B21180B5
:102050001146B1F90010434A12781143494A1180E0
:1020600044490978022921D13F490978464A11801B
:1020700011460978090209B211801146B1F9001020
:10208000384A12781143404A1180394909783F4A49
:10209000118011460978090209B211801146B1F97F
:1020A0000010324A12781143384A118031490978B8
:1020B0000A291DD12C490978354A11601146096851
:1020C0000902116011460968264A12781143304A04
:1020D000116027490978124A1160114609680902FE
:1020E000116011460968214A127811430C4A1160A7
:1020F0002049097821B90021224A1180224A118001
:10210000704708B523A0006800901B4800788DF840
:1021100000000221684602F08BFA08BDC4000020CE
:10212000B8000020BC000020F40000205C0100206A
:102130009000002000010020FC0000206C01002025
:102140000000000000000000D0000020A8000020D7
:10215000640100205400002056000020700100207F
:10216000120100201301002014010020150100209D
:10217000160100201101002010010020180100208C
:102180001A010020200100201C0100201E01002057
:10219000B4000020000A00002DE9F04100224FF4B5
:1021A0000061A94805F0F5FD0A2001F05DFC01225F
:1021B000D102A54805F0EDFD0F2001F055FC0022ED
:1021C0004FF40061A04805F0E4FD0A2001F04CFC4A
:1021D0009E48007800F0800000285DD09B48007881
:1021E00000F03F00C1179A4A03C2994903C94FF052
:1021F000FF320024A0FB023501FB025100FB04105A
:102200009349C1E900300846D0E9002091490968A6
:10221000511840F100008E4AC2E900101046D0E982
:102220000020AA230021A2FB034700FB037002FB4E
:1022300001054FF47A720B46204629460AF0A0FDAC
:1022400085490860084600681430086083480068C3
:102250000968401A8249086008460068062804DBBD
:102260000846006810F1060F07DD7C4800687A49CF
:102270000968084440087849086077480068774949
:102280000860754800687749086000206F49087049
:1022900071480068BDE8F0810020FBE730B587B0E9
:1022A00004460D460121084606F020FB01210220CC
:1022B00006F059FA4FF48060059002208DF818005E
:1022C00003208DF8190000208DF81A0002208DF8E7
:1022D0001B0005A95C4805F0F7FA01220A215A48BB
:1022E00005F006FE4FF40060059001208DF81800FF
:1022F00000208DF81A0002208DF81B008DF81900BF
:1023000005A9514805F0E0FAADF808500020ADF8F5
:102310000A000394ADF8100002A94FF0804006F0C7
:1023200003FE082050490880002048800120888052
:102330000020C88008814FF0804008F0AEFC0122E8
:102340000921880708F07CFF0121880707F05DF963
:102350001C208DF8040002208DF8050000208DF867
:10236000060001208DF8070001A802F04EFE0022B1
:102370004FF40061344805F00CFD07B030BD10B5D6
:102380003248007800F08000002858D101218807E9
:1023900009F095F8D0B12D48007800F04000A8B1C0
:1023A0002A48007800F03F003F280AD127480078EB
:1023B00040F08000254908704FF0FF302549086043
:1023C00004E022480078401C204908700821C80613
:1023D00009F075F898B31D48007800F0400088B106
:1023E0001A48007840F08000184908704FF080408B
:1023F00008F007FE1749086000214FF0804008F000
:10240000B2F91CE0002011490870124908600F4819
:10241000007840F040000D49087000214FF08040E6
:1024200007F0F3F800214FF0804006F083FE022110
:10243000480708F098F90121880707F0E6F8092114
:10244000880709F099F810BD0004024090010020AF
:1024500088010020940100207C01002080010020E0
:1024600084010020780100207C0A00201CB5012195
:10247000084606F078F94FF40070009001208DF8BE
:10248000040000208DF8060002208DF807008DF86A
:1024900005006946174805F017FA01225102154850
:1024A00005F077FC1CBD10B50446012C04D10122B7
:1024B0004102104805F06DFC2CB900224FF4007168
:1024C0000C4805F066FC10BD10B501225102094808
:1024D00005F05FFC00224FF40071064805F059FC3E
:1024E0004FF4967001F0CCFA01225102014805F038
:1024F00050FC10BD0000024010B501F0F1FD0120BC
:10250000F74981F8380081F8390010BD10B501F0A5
:10251000C3FA642001F0B4FA01F096FB01F022FC4A
:10252000642001F0ADFA4FF4E13002F00CF8ED4810
:1025300002F024FAEB4802F00AFB642001F0A0FA52
:10254000FFF7DAFF01F0ECFA642001F099FAFEF7E8
:1025500053F84FF4487001F093FA01F0EBFE532169
:102560004FF0FF30FFF79AFEFFF780FF012010BD0C
:1025700040F6C411884203DDDB490978032903DCF6
:10258000D94909780A290DD10021D74A1170D449B7
:10259000B1F84E10491CD24AA2F84E10012182F81F
:1025A000501012E0B0F5967F0FDD40F6B83188424A
:1025B0000BDA02B2CA49891CCB4B1B7821F81320D5
:1025C000C9490978491CC84A1170704738B5044692
:1025D000C6A000680090C6484068C549086001F080
:1025E00024FAC3494860084640680968401A40F622
:1025F000C411884202D90020BE490870BD48017844
:102600000078401CBB4A1070BB4844541046007808
:1026100019287CD1182011460870B74800780F2877
:1026200076D1B548007E38B1B348007EB34A1278FF
:102630001DF802108842F3D10020AE490870AE4860
:102640004078AD49897801F0070140EA0120A449AA
:102650008882A948C0788006400DA749897840EA59
:10266000E1009F49C882A4484079C007400DA249B3
:10267000097940EA8100A049C97840EAA110984947
:1026800008839D4880790007400D9B49497940EABD
:102690006100934948839848C0794006400D9649A7
:1026A000897940EA21108E4988839348407A8007CF
:1026B000400D9149097A40EA41008F49C97940EAC1
:1026C000E1108749C8838C48807AC006400D8A494A
:1026D000497A40EAA100824908848748C07AC0004C
:1026E0008549897A40EA61117D4841848248007BAE
:1026F0008149497B01F0070140EA0120784988843B
:102700007D48807B8006400D7B49497B01E074E079
:1027100069E040EAE1007249C8847748007CC0075C
:10272000400D7549C97B40EA81007349897B40EAC5
:10273000A1106B4908857048407C0007400D6E4928
:10274000097C40EA6100664948856B48807C400608
:10275000400D6949497C40EA2110614988856648F5
:10276000007D8007400D6449C97C40EA4100624910
:10277000897C40EAE1105A49C8855F48407DC0061F
:10278000400D5D49097D40EAA100554908865A4837
:10279000807DC0005849497D40EA6111504841861A
:1027A0005548C07D4E4981F83400084690F8340001
:1027B00000F0080040B90846B0F84E00401CA1F8EF
:1027C0004E00022081F850004C480078401C4B49D4
:1027D00008700878C11700EB91718910A0EB810196
:1027E000464A117009E0002005E0434A411C515C53
:1027F0001154411CC8B21828F7DB38BD10B5044687
:10280000D4ED000A3E48008800EE100AB8EE400AF7
:102810009FED3C1A00EE810ABCEEC00A10EE100AD1
:102820003749088008460088B0F57A7F39DD0020F6
:1028300008802B48B0F84E002949C8860846C08E4B
:10284000052803DA012081F8380003E0002024493C
:1028500081F83800224890F83800C8B12048007844
:10286000D8B929480078401C27490870087800EB3F
:10287000D0714910A0EB4101234A11701046007835
:10288000012802D101F0ADFC07E001F029FC04E0D1
:10289000134890F850001249087000201049A1F820
:1028A0004E0010BD10B52DED020B6846FFF7A6FFD8
:1028B0000B4890F8380000286BD1094800780128AF
:1028C00024D1002008E00649891C31F81020383155
:1028D00021F81020411CC8B20A28F4DB39E00000BE
:1028E000860A002020A10700980100200414243447
:1028F0009C010020A4010020D80A0020A50100208E
:10290000A801002000007A44A60100202B4800788E
:1029100002281ED100201AE02849143131F9101084
:10292000A1F5806100EE101AF8EEC00A9FED240AAE
:102930009FED241A01EE200ABDEEC00A10EE101A17
:102940000AB21E493A3121F81020411CC8B20A28A7
:10295000E2DB1A48B0F94200B0F5966F05DD174882
:10296000B0F94200B0F5AF6F0BDB1448B0F942008C
:10297000B0F5C86F09DD1148B0F94200B0F5E16F5C
:1029800003DA01201049087011E000200E49087098
:102990000DE001200C490870002006E000220749E4
:1029A0003A3121F81020411CC8B20A28F6DB06484B
:1029B0000078024981F839001CBD0000860A002019
:1029C0000080BB442FDD243FAA010020F0EE400A26
:1029D000F5EEC00AF1EE10FA02DBB0EE600A7047C5
:1029E000B1EE600AFBE700B5B0EE403AB0EE602A07
:1029F000B5EEC03AF1EE10FA07D1B5EEC02AF1EE0D
:102A000010FA02D19FEDFC1A99E0B0EE430AFFF7ED
:102A1000DDFFF0EE403AB0EE420AFFF7D7FFF0EEEE
:102A2000402AF4EEE23AF1EE10FA02D283EEA24A24
:102A300001E082EEA34A9FEDF10AB4EEC04AF1EE46
:102A400010FA02D2F0EE441A2DE0DFEDED0AB6EEF8
:102A5000000A14EE200AF0EE404ABDEEE40A10EE41
:102A6000100A00EE100AB8EEC00A34EEC00AF0EE0A
:102A7000404AE44901EB800191ED000AF0EE401A72
:102A8000E04A411C02EB810191ED000A114601EB85
:102A90008001D1ED000A70EE600AB0EE610A00EE2E
:102AA000A40AF0EE401AF4EEE32AF1EE10FA20DD6B
:102AB000B5EEC02AF1EE10FA0ADBB5EEC03AF1EE3F
:102AC00010FA02DBB0EE611A39E0B1EE611A36E0BD
:102AD0009FEDCD1AB5EEC03AF1EE10FA04DB31EEFF
:102AE000610AB0EE401A2AE031EEC10AB0EE401A97
:102AF00025E0B5EEC03AF1EE10FA10DB9FEDC31AF7
:102B0000B5EEC02AF1EE10FA04DB31EE610AB0EE48
:102B1000401A14E031EE210AB0EE401A0FE09FEDAA
:102B2000BC1AB5EEC02AF1EE10FA04DB31EE210A30
:102B3000B0EE401A03E031EE610AB0EE401AB0EE9A
:102B4000410A00BD00B5B0EE405AF0EE605AF0EE1A
:102B5000450AB0EE650AFFF746FF00BDF0EE400AF9
:102B6000F6EE001A60EEA11AB0EE611AB0EE600A3D
:102B700010EE100AA749A1EB600000EE100A21EE4A
:102B8000002AF7EE081A42EE401A61EE801AB0EE03
:102B9000610A21EE002AF7EE081A42EE401A61EEB1
:102BA000801AB0EE610A704700B5F0EE402AB0EE30
:102BB000620AFFF7D3FF20EE220A00BD10B52DED0B
:102BC0000A8BB0EE409AF0EE609A9FED930B53ECB7
:102BD000102B51EC190B0AF061FA18D29FED900BF3
:102BE00053EC102B51EC190B0AF0A2F941EC1B0B22
:102BF0009FED8D0B53EC102B0AF0F3F841EC1A0B00
:102C000053EC192B0AF094F941EC180B17E09FEDE7
:102C1000840B53EC102B51EC190B0AF089F941ECA1
:102C20001B0B9FED810B53EC102B0AF07EF941EC4E
:102C30001A0B53EC192B0AF07BF941EC180B9FEDA2
:102C4000760B53EC102B51EC180B0AF027FA20D21C
:102C50009FED770B53EC102B51EC180B0AF0C1F8D9
:102C600041EC1C0B9FED740B53EC102B0AF060F938
:102C700041EC1B0B9FED6E0B53EC102B0AF0B1F8DF
:102C800041EC1A0B53EC182B0AF052F941EC180BDB
:102C90001FE09FED670B53EC102B51EC180B0AF063
:102CA00041F941EC1C0B9FED660B53EC102B0AF025
:102CB0003FF941EC1B0B9FED5E0B53EC102B0AF020
:102CC00090F841EC1A0B53EC182B0AF031F941EC57
:102CD000180BB0EE480AF0EE680ABDEC0A8B10BD86
:102CE00010B52DED068BB0EE408AF0EE608A01241F
:102CF0009FED550B53EC102B51EC180B0AF0E6F935
:102D00000AD89FED510B53EC102B51EC180B0AF025
:102D100009F941EC180BA41E20460AF07BF941EC9E
:102D2000190BB0EE480AF0EE680AFFF747FFB0EE65
:102D300040AAF0EE60AA53EC192B51EC1A0B0AF0E2
:102D4000F7F841EC100BBDEC068B10BD10B52DED66
:102D5000088BB0EE408AF0EE608A01249FED3C0BB8
:102D600053EC102B51EC180B0AF03BF841EC180B0C
:102D70009FED350B53EC102B51EC180B0AF0A6F914
:102D80000AD8A41E9FED300B53EC102B51EC180BFE
:102D90000AF0C8F841EC180B20460AF03BF941EC68
:102DA0001A0BB0EE480AF0EE680AFFF799FFB0EE92
:102DB00040BAF0EE60BA53EC1A2B51EC1B0B0AF040
:102DC000B7F841EC190B0AF099F900EE100ABDECC6
:102DD000088B10BDF0EE401AF4EEE01AF1EE10FA96
:102DE0003ADD31EEC10AB4EEE00AF1EE10FA3CD25F
:102DF000B0EE600A39E00000000000008180803BF6
:102E000000008043B8D30008DB0F4940DB0FC93F07
:102E1000DB0FC9BFDF59375F000000000000000072
:102E2000000000602FF0D93F00000060305FF43FE9
:102E3000000000000000F03F000000C0CCCCCCBF80
:102E4000000000C0CCCCCC3FF1D4C853FB210940DA
:102E5000F1D4C853FB21F93F31EE810AB4EEE00A08
:102E6000F1EE10FA01DDB0EE600A7047F0EE401AA4
:102E7000B1EE412A32EE202AB4EEE12AF1EE10FA48
:102E800009D231EE202AB4EEE12AF1EE10FA02DD89
:102E9000B0EE600A01E0B0EE610A7047F0EE402A41
:102EA000B5EEC01AF1EE10FA02DDB0EE410A01E013
:102EB000B1EE410AB6EE003A22EE033A23EE213A91
:102EC000B4EEC30AF1EE10FA06D29FEDD40A20EE5A
:102ED000800AF0EE400A4DE0B5EEC01AF1EE10FAAD
:102EE00002DDB0EE410A01E0B1EE410A22EE213AE4
:102EF000B4EEC30AF1EE10FA06D29FEDC90A20EE35
:102F0000800AF0EE400A35E0B5EEC01AF1EE10FA94
:102F100002DDB0EE410A01E0B1EE410AB4EEE10A91
:102F2000F1EE10FA06D2B6EE000A20EE800AF0EEBC
:102F3000400A1FE0B5EEC01AF1EE10FA02DDB0EE65
:102F4000410A01E0B1EE410AB0EE003A21EE833AC7
:102F5000B4EEC30AF1EE10FA06D29FEDB20A20EEEB
:102F6000800AF0EE400A05E09FEDAF0A20EE800AED
:102F7000F0EE400A9FEDAD0A20EE800A20EE223AE4
:102F8000F7EE003A83EE830AB7EE003A30EE030A1A
:102F9000F7EE003A83EE803A90ED000A71EE403A87
:102FA00090ED000A03EE230A80ED000A90ED000A7E
:102FB000B1EE423A23EE213AB4EEC30AF1EE10FA32
:102FC00004D8B1EE420A20EE210A0DE090ED000A8D
:102FD00022EE213AB4EEC30AF1EE10FA02DD22EE3F
:102FE000210A01E090ED000A80ED000A90ED000A50
:102FF00031EE400A704710B52DED028BB0EE408ADD
:10300000F0EE608A9FED8A0B53EC102B51EC180BFD
:103010000AF05CF80CD29FED880B53EC102B51ECAE
:10302000180B09F07FFF41EC100BBDEC028B10BDBB
:103030009FED830B53EC102B51EC180B0AF02EF87C
:103040000AD29FED7D0B53EC102B51EC180B09F0BD
:10305000C8FE41EC100BE8E7B0EE480AF0EE680A53
:10306000E3E730B505460C46F0EE403AD5ED000AF0
:1030700060EEA00A94ED001AD4ED001A41EE210A88
:10308000B0EE600AFFF790FDB0EE403AB5EEC03A00
:10309000F1EE10FA02D81FEDA80A09E0B4EEE33A07
:1030A000F1EE10FA02DDB0EE630A01E0B0EE430A81
:1030B000B0EE404AB5EEC03AF1EE10FA06D11FED7F
:1030C000B20A83ED000A82ED000A0FE084EE030AE3
:1030D000D5ED000A20EE200A82ED000A84EE030AF4
:1030E000D4ED000A20EE200A83ED000A30BDF0EE98
:1030F000400A0B7802EB8303C3ED000A0B785B1CDC
:103100000B700B78834201DB00230B700B7802EB12
:10311000830393ED000A704700B50246B0EE403AD3
:103120000B46F7EE000A43EE430AB0EE600AFFF7E3
:103130003BFDD2ED000A20EE200AD2ED010A00EE9E
:10314000C30A83ED000AF7EE000A43EE430AB0EE2D
:10315000600AFFF729FDD2ED010A20EE200AD2ED28
:10316000000A00EE830A83ED010A00BD90ED000A1B
:10317000D1ED010A20EE200AD0ED010A91ED001AEE
:1031800000EEC10A704790ED000AD1ED000A20EE72
:10319000200AD0ED010A91ED011A00EE810A704774
:1031A00090ED010AD1ED020A20EE200AD0ED020ACC
:1031B00091ED011A00EEC10A82ED000A90ED020ABB
:1031C000D1ED000A20EE200AD0ED000A91ED021A9E
:1031D00000EEC10A82ED010A90ED000AD1ED010A6C
:1031E00020EE200AD0ED010A91ED001A00EEC10A8E
:1031F00082ED020A704790ED000AD1ED000A20EE40
:10320000200AD0ED010A91ED011A00EE810AD0EDFD
:10321000020A91ED021A00EE810A70479A99993FCD
:10322000CDCC4C3FCDCC4C3ECDCCCC3DC3F5C840F5
:103230000000000000806640000000000080764032
:1032400000000000008066C008B5C648D0ED000A46
:103250009FEDC51AF4EEC10AF1EE10FA0BD2D0EDD3
:10326000000AB7EE001A70EE810AC0ED000A0120D4
:10327000BE49887002E00020BC498870B948D0ED92
:10328000010A9FEDB91AF4EEC10AF1EE10FA0BD261
:10329000D0ED010AB7EE001A70EE810AC0ED010A06
:1032A00001208DF8000002E000208DF80000AD48FC
:1032B000D0ED020A9FEDAC1AF4EEC10AF1EE10FA5D
:1032C0000BD2D0ED020AB7EE001A70EE810AC0ED03
:1032D000020A01208DF8010002E000208DF80100B3
:1032E0009DF8000030B19DF8010018B101209F4900
:1032F000C87002E000209D49C87008BD30B50022AA
:103300000024C5788B1F9D4200D030BD002306E00D
:10331000C55C1544EAB2A518ECB25D1CEBB28D1E7B
:103320009D42F5DC431813F8023C934204D1431844
:1033300013F8013CA34200D0E7E78378512B38D142
:1033400003795BB94379894D6B7183795BB2AB715A
:10335000C3795BB2EB71037A2B7183E00379012BA4
:1033600012D14379814D2B72C3886B810389AB8164
:10337000837A2B719FED7E0A7A4B83ED010A2B46EF
:103380001B785B1C2B706DE00379022B6AD14379AB
:10339000764DAB73C3882B8203896B824389AB82E2
:1033A0008389EB82C3892B83038A6B83837C2B7194
:1033B00058E08378342B0DD1D0F807306B4DEB619A
:1033C0009FED6B0A674B83ED020A2B465B785B1C13
:1033D0006B7047E08378012B0DD18388634D2B867A
:1033E000C3886B860389AB864389EB8683892B87E9
:1033F000C3896B8736E08378042B33D1B0F904306E
:1034000000EE103AB8EEC00ADFED5A0A20EE200AAC
:10341000564B83ED080AB0F9063000EE103AB8EECC
:10342000C00ADFED540A20EE200A504B83ED090A52
:10343000B0F9083000EE103AB8EEC00ADFED4D0AE0
:1034400020EE200A494B83ED0A0AB0F90A3000EE5B
:10345000103AB8EEC00ADFED470A20EE200A434BCF
:1034600083ED0B0A00BF50E710B5044642480078D0
:1034700038B9AA2C05D101203F4908703F48047093
:103480006FE03D480078012809D1612C01D0FF2C64
:1034900005D10220384908703848447061E0364848
:1034A0000078022805D1032033490870334884701E
:1034B00057E03148007803280CD1FA2C0ADA0420AE
:1034C0002D4908702D48C4702D48047000202D49E6
:1034D000087046E028480078042819D12848007868
:1034E000002815DD26480078401E2549087025482B
:1034F000007824490978491C224A1170001D1F498F
:103500000C541F48007840BB05201B49087028E078
:103510001948007805280DD1062017490870194868
:10352000007818490978491C164A1170001D134982
:103530000C5416E01048007806280FD100200E49E0
:10354000087010480078001D0C490C540D48007894
:10355000401DC1B20948FFF7D1FE02E00020064934
:10356000087010BD640B00200000FA43F40A00202C
:103570000000000017B7D138AD010020300B00204B
:10358000AB010020AC0100200146D548007800289E
:103590007ED00022D24B1A70D24A1288C832D14B48
:1035A0001A80D14A127DD14B5A76CF4AD37DCF4A69
:1035B0009376CD4A9369CD4AC2F81B30CA4AD36983
:1035C000CA4AC2F81F30C84A526A0A2392FBF3F370
:1035D000C64AC2F82330C44A126B0A2392FBF3F2A4
:1035E00013B2C24AA2F82730BF4A526B0A2392FB99
:1035F000F3F213B2BD4AA2F82930BB4A926B0A23F8
:1036000092FBF3F213B2B94AA2F82B30B64AB2F8E1
:103610004C2000EE102AB8EE400ADFEDB50A20EE8D
:10362000200ABCEEC00A10EE100A08B9002204E01D
:10363000C82801D9C82200E002461046AB4A82F8E9
:103640002D00A94A526C00EE102AB8EE400ADFEDB8
:10365000A80A20EE200ABCEEC00A10EE100A08B933
:10366000002204E0C82801D9C82200E00246104622
:103670009E4A82F82E009C4AD26A00EE102AB8EECA
:10368000400ADFED9B0A20EE200ABCEEC00A00E0F3
:1036900012E010EE100A08B9002204E0C82801D98F
:1036A000C82200E002461046904A82F82F0001230B
:1036B000904A82F8213100BF704710B50E218E4824
:1036C00000F0C2FE10BD10B50E218C4800F0BCFE0B
:1036D00010BD10B5642000F0D3F94FF4165000F07F
:1036E00038FE322000F0CCF91C21854800F0ACFEF9
:1036F000642000F0C5F94FF4964000F02AFE322015
:1037000000F0BEF91C217E4800F09EFE642000F00F
:10371000B7F94FF4164000F01CFE322000F0B0F96B
:103720001C21774800F090FE642000F0A9F94FF4C6
:10373000E13000F00EFE142000F0A2F90B217148D8
:1037400000F082FE142000F09BF90B216E4800F07F
:103750007BFE142000F094F90B216C4800F074FEFD
:10376000142000F08DF90B21694800F06DFE142043
:1037700000F086F90B21674800F066FE142000F087
:103780007FF90B21644800F05FFE142000F078F907
:10379000FFF793FF10BD10B50146002000225F4BDC
:1037A0001B782BB9B52903D101235C4C237095E01C
:1037B0005A4B1B78012B05D1622903D10223574CA8
:1037C00023708BE0554B1B78022B05D10323534C00
:1037D0002370534B197081E0504B1B78032B05D19C
:1037E00004234E4C23704F4B197077E04B4B1B78E2
:1037F000042B05D10523494C23704B4B19706DE008
:10380000464B1B78052B10D10623444C2370464BA6
:103810001B7803EB0123454C238023461B88622B36
:103820005CDB00233D4C237058E03C4B1B78062B9F
:1038300054DB3A4B1B789B1F3C4C2488A41CA342AE
:103840000ADA364B1B789B1F274CE154334B1B780D
:103850005B1C324C237041E0314B1B780344D8B2DF
:103860001318DAB22F4B1B780344D8B21318DAB20C
:103870002E4B1B780344D8B21318DAB22B4B1B889B
:1038800000EB1323D8B21318DAB2002307E0164C6A
:10389000E45C0444E0B21418E2B25C1CE3B2234CD2
:1038A0002488A342F3DB104B204C24881B5D834209
:1038B00011D10D4C1D4B1B885B1CE35C93420AD15C
:1038C000174B1B78012B06D1164B1B78072B02D107
:1038D0000123034C23700023104C237010BD000003
:1038E000AE010020B0010020700B0020400A002033
:1038F0000AD7233CEC020020B2010020C0010020C6
:10390000EA0100201B0200202602002031020020D4
:103910003C020020470200205202002063020020E7
:103920005D0200205E0200205F0200206002002095
:10393000704700BFFEE700BFFEE700BFFEE770472D
:10394000704710B5802003F0C4FE10B1802003F052
:1039500016FF10BD10B500F01BFC10BD704710B570
:103960000121114807F0ABFD28B101210E4807F0F5
:1039700003FEFDF7F8FB10BD10B500F0ADFD10BD66
:1039800010B500F09EFE10BD10B500F0BBFF10BDDD
:1039900010B501F0A0F810BD10B501F0B0F910BDE0
:1039A00010B500F071FC10BD001400407FB56846F2
:1039B00004F0C1FD4FF47A710198B0FBF1F4E40812
:1039C0002146B1F1807F00D31DE021F07F40401EF1
:1039D0004FF0E022506150170F22002807DA13073A
:1039E0001E0E314B00F00F052D1F5E5503E013072F
:1039F0001D0E2E4B1D5400BF00204FF0E0229061A1
:103A00000720106100BF6FF0040001F095FB7FBD3F
:103A10002748D0E900305A1C40F100002449C1E990
:103A20000020704722480068704710B500BF204A48
:103A300011684FF0E02252694FF0E0239B69D21ADF
:103A40004FF47A735A434FF0E0235B69B2FBF3F211
:103A500001EB4103C3EBC11302EBC300144C18CCC0
:103A60004B402343E3D110BD30B50446FFF7DDFFE3
:103A7000054600BFFFF7D9FF401BA042FAD330BD77
:103A800010B5044603E04FF47A70FFF7EDFF201EF7
:103A9000A4F10104F7D110BD10B54FF4806001F01E
:103AA00099FAFFF783FF10BD18ED00E000E400E095
:103AB0006802002000B58FB0684602F096FD012133
:103AC000880504F050FE00BF564803F0ABF800280C
:103AD000FAD100905448019054480290002003907D
:103AE00032200490002005904FF480600690400042
:103AF00007908000089000010A9040120990002071
:103B00000B9001200C9000200D900E9069464548C6
:103B100002F015FC0121434802F078FD0FB000BD12
:103B200000B58DB001A801F009FC0121042004F0CA
:103B30001AFE0121080204F0FCFEFFF7BBFF032080
:103B40008DF8300020200B9000208DF833000BA959
:103B5000374803F0B9FE0020099007904FF48030F9
:103B6000089000200A9007A801F0F2FB00200190C5
:103B70008DF8080001208DF80900002003900590C1
:103B800001208DF8180001A927484C3801F00DFBE1
:103B9000072301220F2124484C3801F09EFD01210A
:103BA00021484C3801F077FF01211F484C3801F0C3
:103BB00080FC01211C484C3801F047FF1A484C3862
:103BC00001F057FE0DB000BD9FED1A0AF0EE400A5D
:103BD000002010E0154931F8101000EE101AB8EE70
:103BE000401ADFED151AB0EE600A01EE210AF0EE80
:103BF000400A411CC8B23228ECDB9FED101A80EE5F
:103C0000810A9FED0F1A20EE010AB2EE061A20EE8D
:103C1000010AF7EE001A80EE211A9FED0A0A21EE42
:103C2000000A7047106402404C200140D40B002071
:103C300000080240000000000AD7A33C00008045B5
:103C400000404E456F12833A1CB5684603F0E7FE0C
:103C50000121102004F087FD01208DF804008DF86B
:103C6000070000208DF8060002208DF805000720CF
:103C700000906946384803F027FE01208DF80400C3
:103C80008DF8060002208DF805008020009069461E
:103C9000314803F019FE02212F4804F04BF80121AE
:103CA0002D4804F047F804212B4804F043F8802104
:103CB000294804F03FF81CBD00F0010119B10221B0
:103CC000254A118302E00221234A518300F00201B8
:103CD00019B10121204A118302E001211E4A5183BA
:103CE00000F0040119B104211B4A118302E00421F0
:103CF000194A518300F0080119B18021164A5183F5
:103D000002E08021144A1183704700B500201DE0B5
:103D1000124931F81010124A1256914204DA012168
:103D2000814019438BB202E0012181408B430B4952
:103D300031F81010491C89B2084A22F810101429D1
:103D400002DB002122F81010411CC8B20428DFDB7E
:103D50001846FFF7B1FF00BD0010024074020020BA
:103D60007002002030B58BB00025D44C01A803F0C0
:103D700056FE08A805F063F903A805F09CFF012C86
:103D800001D8012004E0CE48844200D900E020465A
:103D900004460121082004F0A9FD0121022004F0BD
:103DA000C8FD0121084604F0C4FD0121152004F0DE
:103DB000DAFC0C20019002208DF8080003208DF819
:103DC000090000208DF80A0001208DF80B0001A9E0
:103DD000BC4803F079FD02221146BA4804F088F885
:103DE00002220321B74804F083F8B748006840086E
:103DF000B0FBF4F0401E85B242F210700990ADF8AD
:103E000020500020ADF82800ADF8220008A9AF48E6
:103E100005F08AF86020ADF80C000020ADF818001D
:103E20000120ADF80E004FF47A60059003A9A74871
:103E300005F0E8FD0821A54806F0B1F90120ADF82C
:103E40000E004FF47A60059003A9A04805F0A2FE89
:103E500008219E4806F0CFF901219C4805F0E9FAB7
:103E600001219A4805F0D1FB4FF4D4400190022083
:103E70008DF8080003208DF8090000208DF80A0055
:103E800001208DF80B0001A9914803F01DFD0122CE
:103E900009218F4804F02CF801220B218C4804F0F2
:103EA00027F801220D218A4804F022F801220E2170
:103EB000874804F01DF884480068B0FBF4F0401E09
:103EC00085B242F210700990ADF820500020ADF894
:103ED0002800ADF822008DF82A0008A97D4805F0D9
:103EE00023F86020ADF80C000020ADF81000ADF80C
:103EF00018000820ADF81A004001ADF81C000020A1
:103F0000ADF81E000120ADF80E004FF47A60059068
:103F100003A9704805F0C1FB08216E4806F0CBF8F4
:103F20004FF47A60059003A96A4805F07EFC0821E9
:103F3000684806F0FEF84FF47A60059003A96548DA
:103F400005F060FD0821634806F029F94FF47A6016
:103F5000059003A95F4805F01DFE08215D4806F0A5
:103F60004AF901215B4807F0FCF80121594805F0A6
:103F700060FA0121574805F048FB4FF4407001906A
:103F800002208DF8080003208DF8090000208DF82C
:103F90000A0001208DF80B0001A94F4803F094FCA2
:103FA000032208214C4803F0A3FF032209214A48B9
:103FB00003F09EFF44480068B0FBF4F0401E85B259
:103FC00042F210700990ADF820500020ADF82800A2
:103FD000ADF822008DF82A0008A9404804F0A4FF9B
:103FE0006020ADF80C000020ADF81000ADF818000E
:103FF0000820ADF81A004001ADF81C000020ADF813
:104000001E004FF47A60059003A9344805F0FAFCCD
:104010000821304806F0C3F84FF47A60059003A9F0
:104020002E4805F0B7FD08212A4806F0E4F80121E2
:104030002A4807F096F80121284805F0FAF90121ED
:10404000264805F0E2FA0BB030BDB0F90010890047
:1040500001F57A611F4A1164B0F90210890001F577
:104060007A61D163B0F90410890001F57A61916336
:10407000B0F90610890001F57A615163B0F90810B2
:10408000890001F57A61114A40321160B0F90A10D5
:10409000890001F57A61121F1160B0F90C108900D6
:1040A00001F57A610D4A40321160B0F90E108900B5
:1040B00001F57A61121F11607047000000093D0090
:1040C00000BD01050000024094020020000C0040E9
:1040D00000100240000001400008024000040140BE
:1040E00000B587B005A803F09AFC02A806F0BBFE55
:1040F0000121022004F0FAFB0121042004F033FB2B
:104100001D208DF8040002208DF8050001208DF897
:1041100006008DF8070001A800F077FF80200590C9
:1041200002208DF8180003208DF8190000208DF86A
:104130001A0002208DF81B0005A95D4803F0C4FB9E
:10414000022207215A4803F0D3FE53205949088020
:104150000420ADF808000A20ADF80A000120ADF8EF
:104160000C000020ADF80E00ADF8100002A9514877
:10417000283806F092FD01214E48283805F045FA0E
:10418000012204214B48283807F05AF807B000BD37
:1041900010B548481838008800F0040000B34FF606
:1041A000FB704449183908804FF6FF3008804048BA
:1041B0001030006800F0800090B93E48283806F0C2
:1041C000FEFE3D490880084600884988401A84B2AE
:1041D0002046FEF7CDF9384800883749488000BFAF
:1041E00010BD00B587B0684603F019FC01212020FE
:1041F00004F09FFB0121042004F0B5FA47208DF85C
:10420000080004208DF8090001208DF80A008DF8BF
:104210000B0002A800F0F9FE08220721244803F051
:1042200067FE8020009002208DF804008DF80500C4
:1042300001208DF8060000208DF8070069461C4813
:1042400003F042FB1D4803900020ADF810004FF42E
:104250000050ADF81200C010ADF814000020ADF809
:1042600018000420ADF8160003A9154807F0DBFE7E
:10427000012240F22551124808F071FB012110483B
:1042800008F01AF807B000BD10B540F225510C48EF
:1042900008F08BFC58B140F22551094808F010FD98
:1042A0000748001D0088C4B22046FEF78FF910BDF4
:1042B00000080240280400407C020020A086010083
:1042C000001401403EB504460121202004F00EFBFD
:1042D0001E4804F04DFD01945320ADF8000000206D
:1042E000ADF80800ADF802006946184804F01CFE5D
:1042F0000121164807F0ADF801221146134806F0D7
:104300009FFF0121114805F080F90021202004F0D1
:10431000EDFA3EBD08B537208DF8000007208DF876
:10432000010001208DF802008DF80300684600F0BE
:104330006CFE08BD10B54FF47A70FFF7C3FFFFF7AE
:10434000E9FF0121202004F0D1FA10BD0014004043
:10435000704710B58AB0044606A807F048FF01214F
:10436000102004F0E6FA0121084604F0FCF92520AB
:104370008DF80C0003208DF80D0000208DF80E0044
:1043800001208DF80F0003A800F03FFE072209214D
:10439000FE4803F0ADFD07220A21FC4803F0A8FD0A
:1043A0004FF40070019002208DF808008DF809008C
:1043B00000208DF80A0001208DF80B0001A9F348B8
:1043C00003F082FA4FF48060019002208DF808001B
:1043D0008DF8090001208DF80A0000208DF80B00EF
:1043E00001A9EA4803F070FAE94807F0B7FD06941E
:1043F0000020ADF81C00ADF81E00ADF82000ADF8AF
:1044000024000C20ADF822000020ADF81000ADF81B
:1044100012004FF40070ADF814000020ADF8160043
:1044200006A9DB4807F0FFFD04A9D94807F0EBFE19
:10443000012240F22551D64808F091FA0121D448D2
:1044400007F03AFF0AB010BD70B505460E460024CD
:104450000AE0295DCF4802780078401CCD4B1870E7
:10446000CD488154601CC4B2B442F2DBC848808994
:1044700000F0800028B9012240F22771C44808F0FA
:104480006EFA70BDC5490A780978491CC34B19708A
:10449000C349885419460978642902DB00211A4669
:1044A0001170704710B510E0BE490A780978491CB0
:1044B000BC4B1970BA49885CFFF76DF9B9480078B0
:1044C000642802DB0020B7490870B4480078B54979
:1044D00009788842E8D110BD10B5AD48008800F0D9
:1044E000080010B1AA488088C4B240F22551A848FB
:1044F00008F05BFB50B140F22551A54808F0E0FB05
:10450000A3488088C4B22046FFF7BCFF40F2277161
:104510009F4808F04AFBA8B1A34801780078401CE6
:10452000A14A10709C48405C9949888010460078E8
:1045300098490978884205D19548808920F0800003
:104540009349888110BD10B58AB0044606A807F0CB
:104550004EFE0121480404F0C9F90121082004F0AD
:1045600002F926208DF80C0004208DF80D000120A2
:104570008DF80E008DF80F0003A800F046FD07220D
:1045800005218A4803F0B4FC07220621874803F07E
:10459000AFFC2020019002208DF808008DF8090062
:1045A00000208DF80A0001208DF80B0001A97F483A
:1045B00003F08AF94020019002208DF808008DF860
:1045C000090001208DF80A0000208DF80B0001A9D8
:1045D000764803F079F906940020ADF81C00ADF898
:1045E0001E00ADF82000ADF824000C20ADF822002C
:1045F0000020ADF81000ADF812004FF40070ADF8D7
:1046000014000020ADF8160006A9694807F00BFD5C
:1046100004A9674807F0F7FD012240F225516448DC
:1046200008F09DF90121624807F046FE0AB010BD6E
:1046300070B505460E4600240AE0295D5D48027803
:104640000078401C5B4B18705B488154601CC4B2FE
:10465000B442F2DB56480C30008800F0800028B9E4
:10466000012240F22771524808F079F970BD534990
:104670000A780978491C514B1970514988541946D8
:104680000978642902DB00211A461170704710B5C1
:1046900010E04C490A780978491C4A4B197048497E
:1046A000885CFDF761FC47480078642802DB002045
:1046B0004449087041480078424909788842E8D165
:1046C00010BD10B53A48008800F0080018B138480D
:1046D000001D0088C4B240F22551354808F065FA43
:1046E00058B140F22551324808F0EAFA3048001D2E
:1046F0000088C4B22046FFF7BAFF40F227712C4869
:1047000008F053FAC0B1304801780078401C2E4AB6
:1047100010702948405C2649091D08801046007821
:1047200024490978884207D121480C30008820F0BC
:1047300080001F490C31088010BD10B58AB00446B6
:1047400006A807F054FD0121880404F0CFF80121E8
:10475000022004F008F827208DF80C0002208DF8C4
:104760000D0000208DF80E0001208DF80F0003A829
:1047700000F04BFC07220A21144803F0B9FB072282
:104780000B21124803F0B4FB22E0000000000240BD
:104790000010014081020020380C0020820200201D
:1047A000380D00208302002080020020000C02400F
:1047B00000440040850200209C0D0020860200205D
:1047C0009C0E00208702002084020020000402408A
:1047D0004FF48060019002208DF808008DF80900E8
:1047E00000208DF80A0001208DF80B0001A9FE4879
:1047F00003F06AF84FF40060019002208DF8080081
:104800008DF8090001208DF80A0000208DF80B00BA
:1048100001A9F54803F058F806940020ADF81C00F3
:10482000ADF81E00ADF82000ADF824000C20ADF866
:1048300022000020ADF81000ADF812004FF4007017
:10484000ADF814000020ADF8160006A9E74807F0FF
:10485000EAFB04A9E54807F0D6FC012240F2255105
:10486000E24808F07CF80121E04807F025FD0AB095
:1048700010BD70B505460E4600240AE0295DDC48EF
:1048800002780078401CDA4B1870DA488154601CBA
:10489000C4B2B442F2DBD5480C30008800F080008E
:1048A00028B9012240F22771D04808F058F870BDAD
:1048B000D1490A780978491CCF4B1970CF498854DF
:1048C00019460978642902DB00211A4611707047E5
:1048D00000B510E0CA490A780978491CC84B19701C
:1048E000C649885CFFF734FDC5480078642802DBC0
:1048F0000020C3490870C0480078C149097888423F
:10490000E8D100BD10B5B948008800F0080018B122
:10491000B648001D0088C4B240F22551B34808F0E3
:1049200044F958B140F22551B04808F0C9F9AF48F0
:10493000001D0088C4B22046FFF7BAFF40F227717D
:10494000AA4808F032F9C0B1AE4801780078401C9E
:10495000AC4A1070A748405CA449091D0880104665
:104960000078A3490978884207D1A0480C30008814
:1049700020F080009D490C31088010BD10B588B032
:10498000044604A807F033FC0121C80403F0AEFF7D
:104990000121084603F0E7FE34208DF80C000320C7
:1049A0008DF80D0001208DF80E008DF80F0003A882
:1049B00000F02BFB08220021934803F099FA08220B
:1049C0000121914803F094FA0120019002208DF812
:1049D00008008DF8090000208DF80A0001208DF8EC
:1049E0000B0001A9884802F06FFF022001908DF8AA
:1049F00008008DF8090001208DF80A0000208DF8CC
:104A00000B0001A9804802F05FFF04940020ADF87C
:104A10001400ADF81600ADF81800ADF81C000C201D
:104A2000ADF81A0004A9794807F0FDFA012240F216
:104A30002551764807F093FF0121744807F03CFCAC
:104A400008B010BD70B505460E4600240AE0295D89
:104A50006F4802780078401C6D4B18706D48815487
:104A6000601CC4B2B442F2DB68480C30008800F02D
:104A7000800028B9012240F22771644807F06FFFD7
:104A800070BD65490A780978491C634B1970634900
:104A9000885419460978642902DB00211A461170EE
:104AA000704710B510E05E490A780978491C5C4BE4
:104AB00019705A49885CFEF7D7FC59480078642879
:104AC00002DB0020564908705348007854490978A1
:104AD0008842E8D110BD10B54C48008800F00800AD
:104AE00018B14A48001D0088C4B240F22551474819
:104AF00008F05BF858B140F22551444808F0E0F85E
:104B00004248001D0088C4B22046FFF7BAFF40F2B9
:104B100027713E4808F049F8C0B142480178007852
:104B2000401C404A10703B48405C3849091D0880D1
:104B30001046007836490978884207D133480C304E
:104B4000008820F0800031490C31088010BD10B57C
:104B500088B0044604A807F04AFB0121080503F0C9
:104B6000C5FE0121042003F0FEFD0121082003F011
:104B7000FAFD35208DF80C0001208DF80D00002085
:104B80008DF80E0001208DF80F0003A800F03DFA0B
:104B900008220C21244803F0ABF908220221234803
:104BA00003F0A6F94FF48050019002208DF8080020
:104BB0008DF8090000208DF80A0001208DF80B0007
:104BC00001A9194802F080FE0420019002208DF80E
:104BD00008008DF8090001208DF80A0000208DF8EA
:104BE0000B0001A9114823E00004024000480040E6
:104BF00089020020000F00208A02002000100020FF
:104C00008B0200208802002000000240004C00407F
:104C10008D020020641000208E020020641100200C
:104C20008F0200208C02002000080240000C02408D
:104C300002F04AFE04940020ADF81400ADF816000E
:104C4000ADF81800ADF81C000C20ADF81A0004A94E
:104C50004C4807F0E8F9012240F22551494807F095
:104C60007EFE0121474807F027FB08B010BD70B554
:104C700005460E4600240AE0295D43480278007884
:104C8000401C414B187041488154601CC4B2B4426E
:104C9000F2DB3C48808900F0800028B9012240F214
:104CA0002771384807F05BFE70BD39490A780978EA
:104CB000491C374B197037498854194609786429BB
:104CC00002DB00211A461170704710B510E032491E
:104CD0000A780978491C304B19702E49885CFBF71B
:104CE000E6FD2D480078642802DB00202A49087080
:104CF00027480078284909788842E8D110BD10B5C6
:104D00002048008800F0080010B11E488088C4B216
:104D100040F225511B4807F048FF50B140F22551A1
:104D2000184807F0CDFF17488088C4B22046FFF727
:104D3000BCFF40F22771134807F037FFA8B11748AE
:104D400001780078401C154A10701048405C0D49ED
:104D50008880104600780C490978884205D10948B6
:104D6000808920F080000749888110BD10B5FFF7C9
:104D700099FBFFF78CFCFFF7ABFDFFF792FEFFF707
:104D8000A4FF10BD0050004091020020C811002077
:104D900092020020C81200209302002090020020FE
:104DA0000648804706480047FEE7FEE7FEE7FEE7C5
:104DB000FEE7FEE7FEE7FEE7FEE7FEE7A14E00089E
:104DC000890100080CB50020019000907648006829
:104DD00040F480307449086000BF7348006800F4F4
:104DE000003000900198401C0190009818B901987B
:104DF000B0F5A06FF1D16C48006800F4003010B13C
:104E00000120009001E0002000900098012846D188
:104E100065484030006840F0805063494031086088
:104E20006248006840F48040604908605E4808308D
:104E300000685D49083108600846006840F4004099
:104E400008600846006840F4A05008605848091FF0
:104E50000860081F006840F08070091F086000BFEC
:104E60005148006800F000700028F9D040F2056059
:104E7000504908604C480830006820F003004A4957
:104E8000083108600846006840F00200086000BF72
:104E900045480830006800F00C000828F8D10CBD27
:104EA00010B54548006840F47000434908603E482A
:104EB000006840F001003C49086000203A49083190
:104EC0000860394800683D490840374908603C4857
:104ED000091D0860081F006820F48020091F086071
:104EE000002031490C310860FFF76CFF4FF0006083
:104EF00031498039086010BD70B5002000220223BE
:104F000000240221284D08352D6805F00C0020B141
:104F1000042806D0082834D107E02A4D2A4E3560EF
:104F200033E02A4D284E35602FE01F4D2D1D2D6892
:104F3000C5F380541C4D2D1D2D6805F03F0154B163
:104F4000224DB5FBF1F5184E361D3668C6F38816AE
:104F500005FB06F209E01B4DB5FBF1F5124E361DBF
:104F60003668C6F3881605FB06F20F4D2D1D2D6819
:104F7000C5F301456D1C6B00B2FBF3F5124E3560B5
:104F800003E0104D104E356000BF00BF064D0835E0
:104F90002D68C5F303150E4E705D0B4D2D68C54091
:104FA000094E356070BD00000038024000700040BE
:104FB00008544007003C024088ED00E0FFFFF6FE89
:104FC000103000240024F4009402002000127A0023
:104FD0009802002010B50446B4F5E06F0BD0B4F58C
:104FE000C06F08D0B4F5A06F05D0B4F5806F02D0C3
:104FF000B4F5407F00D103E073215F48FBF7D0F8A0
:105000005E4820435E49086010BD2DE9F04104462A
:10501000002500270F26E07810B1E078012800D1A4
:1050200003E087215448FBF7BBF86078102800DACA
:1050300003E088215048FBF7B3F8A078102800DA85
:1050400003E089214C48FBF7ABF8E07818B34C48F3
:10505000006800F4E060C0F5E060C0F30725C5F12A
:105060000400C7B22E416078B840C5B2A078304085
:1050700005432807050E434821784554207800F061
:105080001F010120884021784911890001F1E021A8
:10509000C1F8000109E0207800F01F0101208840DC
:1050A00039492278521141F82200BDE8F08170B5EB
:1050B00004460D46B4F1005F02D0B4F1006F00D198
:1050C00003E0B1212C48FBF76BF83048854200D251
:1050D00003E0B2212848FBF763F82D4905EA0100F7
:1050E00020432749091F086070BD70B504460D466E
:1050F000102C03D0042C01D0022C00D103E0C421D9
:105100001D48FBF74DF80DB1012D00D103E0C5217D
:105110001948FBF745F83DB11948001D00682043C8
:105120001749091D086006E01548001D0068A043E6
:105130001349091D086070BD10B50446042C01D048
:10514000601D00B903E0DC210B48FBF729F8042CB3
:1051500008D14FF0E020006940F004004FF0E0215A
:10516000086107E04FF0E020006920F004004FF0F4
:10517000E021086110BD0000BCD700080000FA055E
:105180000CED00E000E400E080E100E0FFFF0F0034
:1051900080FFFF1F10B50121080203F08DFC0021E4
:1051A0004FF4807003F088FC10BD2DE9F0410546F6
:1051B0000C4600260027F748854205D0F648854270
:1051C00002D0F648854200D103E0E921F448FAF71D
:1051D000E7FF206858B12068B0F1807F07D02068D1
:1051E000B0F1007F03D02068B0F1407F00D103E030
:1051F000EA21EB48FAF7D4FF207910B12079012891
:1052000000D103E0EB21E648FAF7CAFF607910B15C
:105210006079012800D103E0EC21E148FAF7C0FFF2
:10522000A06858B1A068B0F1805F07D0A068B0F165
:10523000005F03D0A068B0F1405F00D103E0ED2132
:10524000D748FAF7ADFFE068D8B3E068B0F1807FE7
:1052500037D0E068B0F1007F33D0E068B0F1407F34
:105260002FD0E068B0F1806F2BD0E068B0F1A06F74
:1052700027D0E068B0F1C06F23D0E068B0F1E06FF4
:105280001FD0E068B0F1006F1BD0E068B0F1106F84
:1052900017D0E068B0F1206F13D0E068B0F1306F44
:1052A0000FD0E068B0F1406F0BD0E068B0F1506F04
:1052B00007D0E068B0F1606F03D0E068B0F1706FC4
:1052C00000D103E0EE21B648FAF76AFF206918B171
:1052D0002069B0F5006F00D103E0EF21B048FAF784
:1052E0005FFF207D012803DB207D102800DC03E028
:1052F000F021AB48FAF754FF6E68AA4806402179BE
:10530000206840EA012006436E60AE68A648064069
:10531000D4E903100843A1680843617940EA4100D9
:105320000643AE60EE6A26F47006207D401EC0B2D1
:10533000074346EA0756EE62BDE8F08100210160AE
:10534000017141718160C160016101210175704786
:1053500070B504460025206818B32068012820D0C5
:10536000206802281DD0206805281AD02068062849
:1053700017D02068072814D02068092811D0206889
:1053800011280ED0206812280BD02068152808D0CC
:105390002068162805D02068172802D02068192810
:1053A00000D104E04FF4A9717D48FAF7F9FE606876
:1053B00058B16068B0F5803F07D06068B0F5003F35
:1053C00003D06068B0F5403F00D104E040F25311D3
:1053D0007348FAF7E5FEA06858B1A068B0F5804FB1
:1053E00007D0A068B0F5004F03D0A068B0F5404FDB
:1053F00000D104E04FF4AA716948FAF7D1FEE068E1
:10540000D8B3E068B0F5807F37D0E068B0F5007FB2
:1054100033D0E068B0F5407F2FD0E068B0F5806F02
:105420002BD0E068B0F5A06F27D0E068B0F5C06F72
:1054300023D0E068B0F5E06F1FD0E068B0F5006FF2
:105440001BD0E068B0F5106F17D0E068B0F5206FA2
:1054500013D0E068B0F5306F0FD0E068B0F5406F62
:105460000BD0E068B0F5506F07D0E068B0F5606F22
:1054700003D0E068B0F5706F00D104E040F2551140
:105480004748FAF78DFE4948056849480540D4E980
:1054900000010843A1680843E168084305433D480B
:1054A000C0F8045370BD0021016041608160C1609B
:1054B000704770B504460D463648844205D03648DC
:1054C000844202D03548844200D104E040F28B117E
:1054D0003348FAF765FE0DB1012D00D104E04FF419
:1054E000C6712F48FAF75CFE25B1A06840F00100B4
:1054F000A06003E0A06820F00100A06070BD70B55E
:1055000005460C4600262348854205D022488542A0
:1055100002D02248854200D104E04FF4E3712048D4
:10552000FAF73EFE234884420FD0234884420CD031
:105530002248844209D0B4F5000F06D0B4F5800F9C
:1055400003D0B4F5400F00D004B904E040F2C71115
:105550001348FAF725FE6E681848C04306402643F4
:105560006E6070BD70B504460E461546094884420B
:1055700005D00948844202D00848844200D104E0A2
:1055800040F2E3110648FAF70BFEB6F5805F17DA32
:105590001BE00000002001400021014000220140EA
:1055A00004D80008FFFEFFFCFDF7FFC00423014004
:1055B000E030FCFF00028000000240000002C0005A
:1055C0004FF4F271FD48FAF7EBFDB5F5805F00DAB4
:1055D00004E040F2E511F948FAF7E2FD6662A562DF
:1055E00070BD70B505460C460026F548854205D0CD
:1055F000F448854202D0F448854200D104E04FF4DB
:105600000371EE48FAF7CCFD1CB3012C21D0022C1B
:105610001FD0032C1DD0042C1BD0052C19D0062C18
:1056200017D0072C15D0082C13D0092C11D00A2C18
:105630000FD00B2C0DD00C2C0BD00D2C09D00E2C18
:1056400007D00F2C05D0102C03D0112C01D0122C18
:1056500000D104E040F20D21D848FAF7A1FD6E68B0
:1056600026F01F0626436E6070BD10B504460CB1CF
:10567000012C00D104E04FF41371D048FAF790FDEB
:105680003CB1D248006840F40000CD49C1F80403A1
:1056900006E0CE48006820F40000C949C1F80403C0
:1056A00010BD10B504460CB1012C00D104E040F24D
:1056B0006221C248FAF774FD3CB1C448006840F466
:1056C0008000BF49C1F8040306E0C048006820F428
:1056D0008000BB49C1F8040310BD2DE9F047064620
:1056E0000C46174698460025A946B548864205D07F
:1056F000B448864202D0B448864200D104E04FF458
:105700003271AE48FAF74CFD1CB3012C21D0022CAB
:105710001FD0032C1DD0042C1BD0052C19D0062C17
:1057200017D0072C15D0082C13D0092C11D00A2C17
:105730000FD00B2C0DD00C2C0BD00D2C09D00E2C17
:1057400007D00F2C05D0102C03D0112C01D0122C17
:1057500000D104E040F2C9219848FAF721FD012F59
:1057600002DB102F00DC04E040F2CA219348FAF774
:1057700017FDB8F1000F14D0B8F1010F11D0B8F136
:10578000020F0ED0B8F1030F0BD0B8F1040F08D000
:10579000B8F1050F05D0B8F1060F02D0B8F1070F28
:1057A00000D104E040F2CB218448FAF7F9FC092C3F
:1057B00013DDF568A4F10A0000EB4001072000FAB0
:1057C00001F925EA0905A4F10A0000EB400008FAF6
:1057D00000F945EA0905F5600EE0356904EB44017E
:1057E000072000FA01F925EA090504EB440008FA4C
:1057F00000F945EA09053561072F11DA756B781E46
:1058000000EB80011F2000FA01F925EA0905781E46
:1058100000EB800004FA00F945EA0905756326E00B
:105820000D2F11DA356BF81F00EB80011F2000FAF5
:1058300001F925EA0905F81F00EB800004FA00F9D8
:1058400045EA0905356312E0F56AA7F10D0000EBA2
:1058500080011F2000FA01F925EA0905A7F10D00D2
:1058600000EB800004FA00F945EA0905F562BDE89D
:10587000F08710B504465248844205D0514884420E
:1058800002D05148844200D104E040F23F314B48FD
:10589000FAF786FCA06840F08040A06010BD70B5AB
:1058A000044600254648844205D04648844202D03A
:1058B0004548844200D104E040F24E313F48FAF7B7
:1058C0006FFCA06800F4800008B1012500E000250D
:1058D000284670BD70B504460D463948844205D04F
:1058E0003848844202D03848844200D104E040F273
:1058F0006B313248FAF754FC0DB1012D00D104E0B0
:105900004FF45B712D48FAF74BFC25B1A06840F4C9
:105910008060A06003E0A06820F48060A06070BD9B
:1059200070B504460D462648844205D02548844279
:1059300002D02548844200D104E04FF461711F4831
:10594000FAF72EFC0DB1012D00D104E040F28531B3
:105950001A48FAF725FC25B1A06840F00200A060C3
:1059600003E0A06820F00200A06070BD2DE9F041C6
:1059700004460D46002600271148844205D01148F0
:10598000844202D01048844200D104E040F2A131A8
:105990000A48FAF705FC012D02DB082D00DC04E0C3
:1059A00040F2A2310548FAF7FBFB666826F4604630
:1059B0006F1E46EA47366660BDE8F08104D80008ED
:1059C0000020014000210140002201400423014049
:1059D00070B504460D46F948844205D0F848844223
:1059E00002D0F848844200D104E040F2BE31F648CB
:1059F000FAF7D6FB0DB1012D00D104E040F2BF3122
:105A0000F148FAF7CDFB25B1606840F400606060B2
:105A100003E0606820F40060606070BD10B504466B
:105A2000E648844205D0E648844202D0E5488442F4
:105A300000D104E040F2D531E348FAF7B1FBE06C65
:105A400080B210BDE1480068704770B504460D464D
:105A5000DA48844205D0DA48844202D0D9488442E8
:105A600000D104E040F21B41D748FAF799FB0DB191
:105A7000012D00D104E040F21C41D348FAF790FB1D
:105A800025B1A06840F48070A06003E0A06820F415
:105A90008070A06070BD70B504460D46C748844252
:105AA00005D0C748844202D0C648844200D104E0F1
:105AB00040F23341C448FAF773FB0DB1012D00D118
:105AC00004E040F23441C048FAF76AFB25B1A0680F
:105AD00040F40070A06003E0A06820F40070A060B3
